:020000040800F2
:100000004807002099010008F9080008C308000803
:10001000F5080008C5050008871400080000000066
:100020000000000000000000000000002511000892
:10003000C905000800000000E10C000831120008AA
:10004000B3010008B3010008B3010008B3010008C0
:10005000B3010008B3010008B3010008B3010008B0
:10006000B3010008B3010008B3010008B3010008A0
:10007000B3010008B3010008B3010008B301000890
:10008000B3010008B3010008B3010008B301000880
:10009000B3010008B3010008B3010008B301000870
:1000A000B3010008B3010008B3010008B301000860
:1000B000B3010008B3010008B3010008B301000850
:1000C000B3010008B3010008B3010008B301000840
:1000D000B301000895120008B3010008B30100083D
:1000E00011060008B3010008B301000800F002F88F
:1000F00000F042F80AA090E8000C82448344AAF180
:100100000107DA4501D100F037F8AFF2090EBAE87D
:100110000F0013F0010F18BFFB1A43F0010318473B
:10012000FC1B00001C1C0000103A24BF78C878C1DA
:10013000FAD8520724BF30C830C144BF04680C60ED
:10014000704700000023002400250026103A28BF35
:1001500078C1FBD8520728BF30C148BF0B60704739
:10016000782900F0A580732900F09F810020704756
:100170001FB51FBD10B510BD00F0F2F91146FFF715
:10018000F7FF01F093F900F010FA03B4FFF7F2FF64
:1001900003BC01F07AF9000009488047094800478C
:1001A000FEE7FEE7FEE7FEE7FEE7FEE7FEE7FEE727
:1001B000FEE7FEE704480549054A064B7047000084
:1001C00035120008ED000008480100204807002013
:1001D0004803002048030020704700000FB4044982
:1001E00010B503AA029800F065F910BC5DF814FB85
:1001F0001C0000202DE9F0410E460446002020623C
:100200002046E168884730B3252805D0D4E901218C
:100210009047206A401CF2E7E168204600278847A3
:10022000050018D0A5F14100192802D820354FF457
:1002300000673246294620462760FFF791FF40B10C
:10024000012804D0F61D26F007060836D8E7361D2B
:10025000D6E72846DAE7206ABDE8F08170B50C469B
:100260000546012A05D02878800600D5EA690023D2
:1002700002E0012305E05B1C934202D2E05C00280F
:10028000F9D1A869E618C01AA861286A184428623A
:100290002846AFF3008004E0D5E9012114F8010BF2
:1002A0009047B442F8D32846AFF3008070BD0000F9
:1002B00070B504460D4621461068AFF300802188D2
:1002C000090502D50F4A7A4402E00E4A7A440E32FA
:1002D000002104F1240305E000F00F060009965DFB
:1002E0005E54491C0028F7D120780023000704D56C
:1002F000702D02D009B1022311322046BDE87040B2
:1003000000F068B82A1A00004FF000020429C0F07B
:10031000128010F0030C00F0E180CCF1040CBCF171
:10032000020F18BF00F8012BA8BF20F8022BA1EB89
:100330000C0100F0D3B85FEAC17C24BF00F8012BA8
:1003400000F8012B48BF00F8012B70474FF0013C2B
:1003500050F8042B51F8043B9A4221D1A2EB0C0334
:10036000934313EACC1317D150F8042B51F8043BF4
:100370009A4215D1A2EB0C03934313EACC130BD191
:1003800050F8042B51F8043B9A4209D1A2EB0C031C
:10039000934313EACC13DBD04FF00000704700BF4B
:1003A000D01A01BAB1FA81F101F0180122FA01F074
:1003B000CB40C1F12001DBB2C0B2C01A2CFA01F36C
:1003C000D11A914311EAC311E6D1704770477047C3
:1003D000704770472DE9F0470D469946924604460E
:1003E00000F124080168880604D5E06921F01001B5
:1003F000216000E00120A84201DD471B00E000274A
:10040000A1697A1902EB0900081AA0612078C006D8
:1004100002D42046AFF30080002608E0D4E9012191
:100420001AF806009047206A401C761C20624E4550
:10043000F4DB2078C0060AD52046AFF3008006E042
:10044000D4E9012130209047206A401C2062381EE8
:10045000A7F10107F4DC07E0D4E9012118F8050051
:100460009047206A401C2062281EA5F10105F3DC9C
:100470002046AFF300802078000602D50220BDE8B8
:10048000F0870120FBE710B5436913B1AFF300809B
:1004900001E0FFF7E3FE012010BD127800F1240116
:1004A0000A7000224A700122EDE711684FF0FF3216
:1004B000E9E70000074B70B50D467B4400F039F8C2
:1004C0000446284600F048F810B14FF0FF3070BDE8
:1004D000204670BDD30F00004FF0000200B5134658
:1004E00094469646203922BFA0E80C50A0E80C5054
:1004F000B1F12001BFF4F7AF090728BFA0E80C5005
:1005000048BF0CC05DF804EB890028BF40F8042BFD
:1005100008BF704748BF20F8022B11F0804F18BF6A
:1005200000F8012B7047000001694A1C026108783D
:10053000704700B58FB0CDE9013100210591054923
:100540007944CDE9031011466846FFF753FE0FB01A
:1005500000BD0000E5FFFFFF007B00F0800070475A
:10056000754600F02BF8AE4605006946534620F06C
:100570000700854618B020B5FFF71CFEBDE82040F7
:100580004FF000064FF000074FF000084FF0000B4F
:1005900021F00701AC46ACE8C009ACE8C009ACE802
:1005A000C009ACE8C0098D46704710B50446AFF3EA
:1005B00000802046BDE81040FFF7E7BD00487047C7
:1005C000E800002000BFFEE7704700B5034603E0E7
:1005D0004FF47A7000F005F8181EA3F10103F7D16B
:1005E00000BD00EBC001C9004FF0E02251610021C5
:1005F00091610521116100BF4FF0E021096901F40B
:1006000080310029F8D004214FF0E02211617047B9
:1006100010B51248007802281ADA1048007848B954
:10062000002000F04FFB012000F04CFB012000F007
:100630003BFB08E0002000F037FB002000F042FB0D
:10064000012000F03FFB05480078401C034908707A
:100650004FF4004000F004F810BD0000140000202A
:10066000014908607047000014040140002123493B
:100670008279002A3AD00A46126803689A430B46E8
:100680001A600A1D126803689A430B1D1A600279EA
:1006900011440A6803681A430A60184A083212684B
:1006A00003689A43154B08331A601A1D12680368D1
:1006B0009A43124B0C331A604279102A0ED11A1F3A
:1006C000126803681A430D4B08331A601A1D12682A
:1006D00003681A43094B0C331A600DE0074942794D
:1006E00011440A6803681A430A6005E0027911445C
:1006F0000A6803689A430A607047000000040140DA
:100700000EB50121084600F0EDFA4FF400400090CC
:1007100000208DF8040008208DF8050001208DF8D8
:1007200006006846FFF7A2FF28208DF80800022087
:100730008DF809008DF80A0000208DF80B0002A842
:1007400000F0DCF80EBD000030B500228B071C0F56
:100750000F2303FA04F20B4B8C1053F8243093430D
:10076000084C8D1044F8253023468C1053F8243063
:100770008C07240F00FA04F42343024C8D1044F834
:10078000253030BD080001402DE9F041024600252A
:100790000026002000230024002791F803C00CF05D
:1007A0000F0591F803C00CF0100CBCF1000F03D042
:1007B00091F802C04CEA050591F800C0BCF1000FA9
:1007C00031D0146800202BE04FF0010C0CFA00F33C
:1007D000B1F800C00CEA03069E4220D183004FF01E
:1007E0000F0C0CFA03F7BC4305FA03FC4CEA0404B3
:1007F00091F803C0BCF1280F06D14FF0010C0CFAA0
:1008000000FCC2F814C00AE091F803C0BCF1480F24
:1008100005D14FF0010C0CFA00FCC2F810C0401CCE
:100820000828D1D31460B1F800C0BCF1FF0F34DD4B
:10083000546800202EE000F1080C4FF0010808FA7F
:100840000CF3B1F800C00CEA03069E4221D18300EC
:100850004FF00F0C0CFA03F7BC4305FA03FC4CEA0B
:10086000040491F803C0BCF1280F05D100F1080C75
:1008700008FA0CF8C2F8148091F803C0BCF1480FD4
:1008800007D100F1080C4FF0010808FA0CF8C2F883
:100890001080401C0828CED35460BDE8F081024689
:1008A000002093680B400BB1012000E0002070474E
:1008B00041617047016170470AB1016100E0416127
:1008C000704700BFFEE7000008B50121102000F0CE
:1008D00009FA10208DF803004002ADF80000032053
:1008E0008DF8020069460248FFF74EFF08BD000080
:1008F0000010014000BFFEE77047000070B5002106
:1009000000230F22C47804B3154C246804F4E06477
:10091000C4F5E064210AC1F10403CA40447804FA32
:1009200003F184781440214309010E4C0678A15547
:10093000047804F01F050124AC4005786D11AD006A
:1009400005F1E025C5F8004109E0047804F01F0531
:100950000124AC40044D0678761145F8264070BD60
:100960000CED00E000E400E080E100E0024901431A
:10097000024A1160704700000000FA050CED00E02B
:1009800010B51248007888B900BF00F059F9002866
:10099000FBD0002000F096F9012000F093F901202F
:1009A00000F082F90120094908700DE000BF00F055
:1009B00047F90028FBD0002000F076F9002000F075
:1009C00081F9012000F07EF910BD00001400002024
:1009D0001CB50121082000F085F91820ADF80400AD
:1009E00010208DF8070003208DF8060001A92A4881
:1009F000FFF7CAFE4FF47070ADF8000010208DF8BC
:100A0000030003208DF8020069462348FFF7BCFE6F
:100A10004FF450712048FFF74DFF80211E48FFF72B
:100A200047FF0121082000F05DF92020ADF800000B
:100A300010208DF8030003208DF802006946164847
:100A4000FFF7A2FE20211448FFF734FF0121042004
:100A500000F048F90F210020FFF776FE4FF4004028
:100A6000ADF8000048208DF8030069460B48FFF7F9
:100A70008BFE0121042000F035F9FF20ADF80000C5
:100A800048208DF8030003208DF8020069460348D2
:100A9000FFF77AFE1CBD0000000C01400008014079
:100AA00070B50025FFF794FF08213048FFF700FFDD
:100AB0000A20FFF78AFD10212C48FFF7F9FE0A20D3
:100AC000FFF783FD10212948FFF7F4FE00F084F9B9
:100AD00080221221422000F003FB3220FFF775FD37
:100AE0001C21422000F024FA04464FF6FF7000EA71
:100AF00004241D21422000F01BFA044347F6A27093
:100B0000844205D021461AA0FFF768FB012070BD82
:100B10000A21422000F00CFA04464FF6FF7000EA6A
:100B200004240B21422000F003FA044347F27360CF
:100B3000844205D0214611A0FFF750FB0220E6E7D2
:100B400000250BE0104800EB450042780E4810F8F5
:100B50001510422000F0C4FA681C85B2A62DF1D30E
:100B60000AA0FFF73BFB0020D1E70000000C01408A
:100B70004D49443A305825580D0A00004849443A36
:100B8000305825580D0A0000701600084F563736A9
:100B90003730696E697420697320537563636573B8
:100BA0007366756C0D0A00002DE9F04104460D4690
:100BB000002000F06BF8012000F068F8002000F041
:100BC00049F8012000F0B0FAFE2000F0ADFA00274D
:100BD0001BE0002616E0002000F04AF816490968DC
:100BE000C8B200F0A1FA012000F042F8002000F0A5
:100BF0003FF811490968C8B200F096FA012000F0E8
:100C000037F8761CA642E6D37F1CAF42E1D3FE2024
:100C100000F08AFA012000F087FA002000F036F890
:100C2000012000F033F8012000F014F800200349FF
:100C30000870BDE8F08100000808014014000020A1
:100C400010B54FF400410248FFF729FE10BD000027
:100C50000008014010B50446224640210348FFF732
:100C60002BFE0A20FFF7BDFC10BD0000000C014068
:100C700010B50446224620210348FFF71DFE0A2036
:100C8000FFF7AFFC10BD0000000C014010B504469A
:100C900022464FF480710348FFF70EFE0A20FFF74B
:100CA000A0FC10BD000C014010B504462246802176
:100CB0000348FFF701FE0A20FFF793FC10BD000078
:100CC000000C014010B5044622464FF40071034861
:100CD000FFF7F2FD0A20FFF784FC10BD000C014075
:100CE0007047000029B1064A92690243044B9A6199
:100CF00004E0034A92698243014B9A617047000005
:100D00000010024030B500210022002400232D4DA8
:100D10006D6805F00C0121B1042905D0082923D103
:100D200005E0294D056022E0274D05601FE0254DB7
:100D30006D6805F47012234D6D6805F4803402254A
:100D400005EB92421CB9214D554305600BE01D4D4A
:100D50006D6805F400351DB11C4D5543056002E07A
:100D6000194D5543056002E0174D056000BF00BFF7
:100D7000144D6D6805F0F0010909154D6B5C0568AF
:100D8000DD4045600F4D6D6805F4E061090A104DC6
:100D90006B5C4568DD4085600A4D6D6805F4605107
:100DA000C90A0B4D6B5C4568DD40C560054D6D683B
:100DB00005F44041890B074D6B5CC568B5FBF3F545
:100DC000056130BD0010024000127A0000093D00AC
:100DD000000000201000002008B501210420FFF7CA
:100DE00081FF4FF40060ADF8000048208DF803004B
:100DF00003208DF8020069461248FFF7C5FC4FF446
:100E000000611048FFF756FD4FF48050ADF8000028
:100E100010208DF8030069460A48FFF7B5FC4FF42F
:100E200080510848FFF746FD0648001D006820F481
:100E300070400449091D08600846006840F44050AD
:100E4000086008BD0008014010B51748006820F48C
:100E50007040154908600846006840F4405008603A
:100E6000C9141148001FFFF725FD3220FFF7B9FB19
:100E70004FF480510C48001FFFF71CFD3220FFF794
:100E8000B0FB4FF480510848001FFFF711FD3220DE
:100E9000FFF7A7FB4FF400610348001FFFF708FDB1
:100EA0003220FFF79EFB10BD0408014070B50024FE
:100EB0001E48006820F470401C490860084600681D
:100EC00040F4004008603220FFF78BFB08251EE04D
:100ED0003220FFF786FB4FF480511448001FFFF7C4
:100EE000E9FC6006040E4FF400611048001FFFF794
:100EF000D6FC08B1601CC4B23220FFF772FB4FF47D
:100F000080510A48001FFFF7D3FC681EC5B2002DB0
:100F1000DEDC0648006820F470400449086008469A
:100F2000006840F440500860204670BD040801404D
:100F300070B504460D46002600F024F8204600F067
:100F40006FF86420FFF74DFB284600F069F8642035
:100F5000FFF747FB00F03AF86420FFF742FB00F090
:100F600011F844F0010000F05BF86420FFF739FB52
:100F7000FFF79CFF0646FFF767FF00F027F83046B3
:100F800070BD000010B54FF400610F48FFF792FCF0
:100F90003220FFF726FB4FF480510B48FFF78AFC05
:100FA0003220FFF71EFB4FF400610748FFF780FC7B
:100FB0003220FFF716FB4FF480510348FFF778FC0F
:100FC0003220FFF70EFB10BD0008014010B513489A
:100FD000006820F47040114908600846006840F439
:100FE00040500860C9140D48001FFFF761FC322013
:100FF000FFF7F7FA4FF480510848001FFFF75AFC3B
:101000003220FFF7EEFA4FF400610448001FFFF7AB
:1010100051FC3220FFF7E5FA10BD00000408014042
:1010200070B50446002621E004F0800028B14FF49A
:1010300000612A48FFF73EFC04E04FF400612748B6
:10104000FFF736FC6006040E3220FFF7CAFA4FF4B1
:1010500080512248FFF72EFC3220FFF7C2FA4FF4EE
:1010600080511E48FFF724FC701CC6B2082EDBDB43
:101070001A48001D006820F470401849091D0860D6
:101080000846006840F4004008603220FFF7A9FAE3
:101090004FF480511148FFF70DFC3220FFF7A1FA01
:1010A0004FF400610D48FFF7FAFB08B1012500E09D
:1010B00000254FF480510948FFF7FAFB0748001D4F
:1010C000006820F470400549091D08600846006862
:1010D00040F440500860284670BD00000008014000
:1010E0002DE9F04106460C4615460027FFF74AFF5A
:1010F0003046FFF795FF00B101276420FFF771FA32
:101100002046FFF78DFF00B101276420FFF769FA41
:101110002846FFF785FF00B10127FFF757FF384644
:10112000BDE8F0817047000010B50446214605482F
:1011300000F0A5F900BF8021024800F0D3F8002894
:10114000F9D010BD0038014010B500F001F810BD15
:101150000CB50020019000903348006840F48030C6
:101160003149086000BF3048006800F4003000904A
:101170000198401C0190009818B90198B0F5A06F33
:10118000F1D12948006800F4003010B1012000902E
:1011900001E0002000900098012843D12348006816
:1011A00040F01000214908600846006820F0030064
:1011B00008600846006840F0020008601A4840686D
:1011C000194948600846406848600846406840F44D
:1011D000806048600846406820F47C1048600846FB
:1011E000406840F4E81048600846006840F08070AD
:1011F000086000BF0C48006800F000700028F9D0BB
:101200000948406820F003000749486008464068E4
:1012100040F00200486000BF0348406800F00C0046
:101220000828F9D10CBD0000001002400020024047
:101230007047000010B51348006840F001001149E4
:10124000086008464068104908400E494860084652
:1012500000680E4908400B4908600846006820F401
:10126000802008600846406820F4FE0048604FF483
:101270001F008860FFF768FF4FF0006004490860B6
:1012800010BD0000001002400000FFF8FFFFF6FE56
:1012900008ED00E010B540F22551094800F02FF8A4
:1012A00060B1074800F0E6F8C4B20648064909886C
:1012B000445405480088401C0349088010BD0000C4
:1012C00000380140200000201800002021B1828950
:1012D00042F40052828104E082894DF6FF731A4085
:1012E0008281704702460020B1F5007F00D100BF27
:1012F00013880B400BB1012000E00020704770B54F
:101300000246002400230025002040F66A16B14260
:1013100000D100BFC1F3421501F01F03012606FAF8
:1013200003F3012D02D19689334006E0022D02D14C
:10133000168A334001E0968A33400C12012606FAE1
:1013400004F41688344013B10CB1012000E00020F1
:1013500070BDF0B50346002400260025002040F6AD
:101360006A17B94200D100BF1846C1F3421401F018
:101370001F06012707FA06F5012C01D10C3004E005
:10138000022C01D1103000E014301AB107682F434D
:10139000076002E00768AF430760F0BD2DE9F04742
:1013A00086B005460E460024A24600BFA14600278F
:1013B000B08900B100BF2F462C8A4CF6FF70044064
:1013C000F08804432C82AC894EF6F3100440B088B8
:1013D00031890843718908430443AC81AC8A4FF6D4
:1013E000FF400440B0890443AC8201A8FFF78AFCA7
:1013F0001F48874202D1DDF810A001E0DDF80CA003
:10140000A88900F4004040B10AEBCA0000EB0A10C2
:1014100031684900B0FBF1F807E00AEBCA0000EBC5
:101420000A1031688900B0FBF1F86420B8FBF0F0D5
:1014300004012009642101FB1089A88900F40040FF
:1014400040B1322000EBC900B0FBF1F000F0070022
:10145000044308E0322000EB09106421B0FBF1F0F6
:1014600000F00F0004432C8106B0BDE8F0870000B7
:101470000038014001468888C0F308007047C1F376
:1014800008028280704700BFFEE700BF704700007F
:1014900000BF054A128802F04002002AF9D0C2B209
:1014A000014B1B1D1A80704700380140FFF70CFAF2
:1014B0004FF48060FFF75AFA4FF47A3000F088F862
:1014C000FFF7EEFAFFF71CF95CE02F4800880028D0
:1014D00049D04FF4FA70FFF778F82C492CA0FEF7AA
:1014E0007DFE2CA12948FEF731FF58B94FF4005179
:1014F0002B48FFF7DFF928A0FEF770FEC82123482C
:10150000FEF702FF27A12148FEF720FF58B94FF44C
:1015100000512348FFF7CCF923A0FEF75FFEC82156
:101520001A48FEF7F1FE22A11848FEF70FFF98B9FE
:101530004FF400511A48FFF7BBF91BA0FEF74EFE0F
:101540004FF4A071F020FFF72FFB1CA0FEF746FE22
:10155000C8210E48FEF7D8FEC8210C48FEF7D4FE7D
:10156000002009490880FFF70BFA3220FFF72DF819
:10157000FFF706FA3220FFF728F8F0214FF4A070A9
:10158000FFF712FBA1E70000180000202000002058
:10159000257300004C45445F4F46460D0A0000008D
:1015A000001001404C45445F4F4E0D0A0000000002
:1015B0004765745F7069630D0A000000506963201D
:1015C000697320636F6D706C657465640D0A00004B
:1015D00010B586B00446012144F20400FFF782FBF7
:1015E0004FF40070ADF8140003208DF81600182099
:1015F0008DF8170005A91C48FFF7C6F84FF4806066
:10160000ADF8140004208DF8170005A91648FFF75F
:10161000BBF825208DF8000003208DF801008DF81F
:10162000020001208DF803006846FFF767F9019476
:101630000020ADF80800ADF80A00ADF80C00ADF8D8
:1016400010000C20ADF80E0001A90848FFF7A6FE17
:10165000012240F225510548FFF77BFE0121034896
:10166000FFF734FE06B010BD00080140003801400D
:101670003A0C40D0121432801716180419021A7A44
:1016800003050C003E00703A713572117300A2021E
:1016900011817A207B1C7C287D3C7E557F6880767A
:1016A00081808288838F849685A386AF87C488D7FC
:1016B00089E813E0000010000D001428A505AB0711
:1016C0002475256326A59F78A068A103A6DFA7DF60
:1016D000A8F0A990AA9413E50E610F4B16021E27DD
:1016E000210222912907330B350B371D3871392A16
:1016F0003C784D404E2069556B4074198D4F8E00DB
:101700008F0090009100920096009A80B084B10CF6
:10171000B20EB382B80A431444F045344658472801
:10172000483A59885A885B445C675D495E0E640498
:1017300065206605940495086C0A6D554F805080AD
:1017400051005222535E54806E116F9F6A400140D7
:10175000024013E71500550A564F589E41083F05B1
:10176000750576E14C0F770A3DC24B09C9604138D7
:1017700034113B02A48996009730982099309A84BE
:101780009B299C039D4C9E3F78047901C8F0790FFA
:10179000C8007910C87E790AC880790BC801790C15
:1017A000C80F790DC8207909C8807902C8C07903AB
:1017B000C8407905C830792609023B423A0C40D02E
:1017C000121432801716180419021A7A03050C0035
:1017D00015003E00703A713572117300A20211813A
:1017E0007A207B1C7C287D3C7E557F6880768180BA
:1017F0008288838F849685A386AF87C488D789E83B
:1018000013E0000010000D001428A505AB07247597
:10181000256326A59F78A068A103A6DFA7DFA8F00F
:10182000A990AA9413E50E610F4B16021E27210200
:1018300022912907330B350B371D3871392A3C7833
:101840004D404E2069006B4074198D4F8E008F0003
:1018500090009100920096009A80B084B10CB20E74
:10186000B382B80A431444F0453446584728483AEE
:1018700059885A885B445C675D495E0E6404652044
:101880006605940495086C0A6D554F805080510090
:101890005222535E548009036E116F9F55005640CB
:1018A00057406A400140024013E71500589E410826
:1018B0003F00750576E14C0077013DC24B09C960D8
:1018C000413834113B02A489960097309820993012
:1018D0009A849B299C039D4C9E3F78047901C8F013
:1018E000790FC8007910C87E790AC880790BC801C1
:1018F000790CC80F790DC8207909C8807902C8C051
:101900007903C8407905C830792609003A0440D0E7
:10191000121432801717180519021A7B030A0C00DB
:1019200015003E00703A713572117300A2021181E8
:101930007A207B1C7C287D3C7E557F688076818068
:101940008288838F849685A386AF87C488D789E8E9
:1019500013E0000010000D001428A505AB07247546
:10196000256326A59F78A068A103A6DFA7DFA8F0BE
:10197000A990AA9413E50E610F4B16021E3721029F
:1019800022912907330B350B371D3871392A3C78E2
:101990004D404E2069006B4074198D4F8E008F00B2
:1019A00090009100920096009A80B084B10CB20E23
:1019B000B382B80A431444F0453446584728483A9D
:1019C00059885A885B445C675D495E0E64046520F3
:1019D0006605940495086C0A6D554F80508051003F
:1019E0005222535E548009036E116F9F550056407A
:1019F00057406A400140024013E71500589E4108D5
:101A00003F00750576E14C0077013DC24B09C96086
:101A1000413834113B02A4899600973098209930C0
:101A20009A849B299C039D4C9E3F78047901C8F0C1
:101A3000790FC8007910C87E790AC880790BC8016F
:101A4000790CC80F790DC8207909C8807902C8C0FF
:101A50007903C8407905C830792609003A0440D096
:101A6000121432801716180419021A7B03060C0090
:101A700015003E00703A713572117300A202118197
:101A80007A207B1C7C287D3C7E557F688076818017
:101A90008288838F849685A386AF87C488D789E898
:101AA00013E0000010000D001428A505AB072475F5
:101AB000256326A59F78A068A103A6DFA7DFA8F06D
:101AC000A990AA9413E50E610F4B16021E3721024E
:101AD00022912907330B350B371D3871392A3C7891
:101AE0004D404E2069006B4074198D4F8E008F0061
:101AF00090009100920096009A80B084B10CB20ED2
:101B0000B382B80A431444F0453446584728483A4B
:101B100059885A885B445C675D495E0E64046520A1
:101B20006605940495086C0A6D554F8050805100ED
:101B30005222535E548009036E116F9F5500564028
:101B400057406A400140024013E71500589E410883
:101B50003F00750576E14C0077013DC24B09C96035
:101B6000413834113B02A48996009730982099306F
:101B70009A849B299C039D4C9E3F78047901C8F070
:101B8000790FC8007910C87E790AC880790BC8011E
:101B9000790CC80F790DC8207909C8807902C8C0AE
:101BA0007903C8407905C830792609003A0440D045
:101BB000121432801716180419021A7B03060C003F
:101BC0003E00703A713572117300A20211817A20C1
:101BD0007B1C7C287D3C7E557F6880768180828856
:101BE000838F849685A386AF87C488D789E813E05E
:101BF000000010000D001428A505AB07247525630F
:101C000026A59F78A068A103A6DFA7DFA8F0A9906A
:101C1000AA9413E50E610F4B16021E372102229182
:101C20002907330B350B371D3871392A3C784D4065
:101C30004E2069006B6074198D4F8E008F009000EC
:101C40009100920096009A80B084B10CB20EB382DB
:101C5000B80A431444F0453446584728483A59884E
:101C60005A885B445C675D495E0E640465206605C6
:101C7000940495086C0A6D556E116F9F6A4001407F
:101C8000024013E715004F80508051005222535EEE
:101C90005480589E41083F00750576E14C0077015D
:101CA0003DC24B09C9604138564034113B02A489FA
:101CB00096009730982099309A849B299C039D4CDC
:101CC0009E3F78047901C8F0790FC8007910C87E6A
:101CD000790AC880790BC801790CC80F790DC82022
:101CE0007909C8807902C8C07903C8407905C8302D
:101CF00079260900303132333435363738394142AC
:101D0000434445464030580030313233343536375D
:101D10003839616263646566403078003C1D0008B4
:101D20000000002020000000280100085C1D0008C1
:101D300020000020280700004401000800000000E7
:101D4000010203040102030406070809020406084D
:0C1D500000000000000000000000000087
:04000005080000ED02
:00000001FF
