:020000040800F2
:1000000048A7002031020008090B0008010700087A
:10001000050B0008C90400085B1900080000000077
:10002000000000000000000000000000791500083A
:10003000CD040008000000009D110008D116000842
:100040004B0200084B0200084B0200084B0200085C
:100050004B0200084B0200084B0200084B0200084C
:100060004B0200084B0200084B0200084B0200083C
:100070004B0200084B0200084B0200084B0200082C
:100080004B0200084B0200084B0200084B0200081C
:100090004B0200084B0200084B0200084B0200080C
:1000A0004B0200084B0200084B0200084B020008FC
:1000B0004B0200084B0200084B0200084B020008EC
:1000C0004B0200084B0200084B0200084B020008DC
:1000D0004B0200083D1700084B0200084B020008C5
:1000E000D10400084B0200084B0200084B02000834
:1000F0004B0200084B0200084B0200084B020008AC
:100100004B0200084B0200084B0200084B0200089B
:100110004B0200084B0200084B0200084B0200088B
:100120004B0200084B0200084B0200084B0200087B
:100130004B0200084B0200084B0200084B0200086B
:100140004B0200084B0200084B0200084B0200085B
:100150004B0200084B0200084B0200084B0200084B
:100160004B0200084B0200084B0200084B0200083B
:100170004B0200084B0200084B0200084B0200082B
:100180004B0200084B02000800F002F800F041F8B2
:100190000AA090E8000C82448344AAF10107DA45E2
:1001A00001D100F036F8AFF2090EBAE80F0013F0F3
:1001B000010F18BFFB1A43F001031847802000000D
:1001C000A0200000103A24BF78C878C1FAD852079E
:1001D00024BF30C830C144BF04680C6070470000C1
:1001E0000023002400250026103A28BF78C1FBD840
:1001F000520728BF30C148BF0B607047782900F014
:100200007980002070471FB501F0BCFC1FBD10B500
:1002100010BD00F027F91146FFF7F5FF01F036FC9D
:1002200000F045F903B4FFF7F2FF03BC01F097FBC0
:100230000948804709480047FEE7FEE7FEE7FEE77A
:10024000FEE7FEE7FEE7FEE7FEE7FEE704480549B6
:10025000054A064B70470000D516000889010008C2
:1002600048A1002048A7002048A3002048A3002060
:10027000704700000FB4044910B503AA029800F0BB
:10028000C3F810BC5DF814FB140000202DE9F04108
:100290000E460446002020622046E168884730B3BD
:1002A000252805D0D4E901219047206A401CF2E7B7
:1002B000E168204600278847050018D0A5F14100D5
:1002C000192802D820354FF40067324629462046C7
:1002D0002760FFF793FF40B1012804D0F61D26F0F8
:1002E00007060836D8E7361DD6E72846DAE7206A3B
:1002F000BDE8F08170B504460D4621461068AFF3A5
:1003000000802188090502D50F4A7A4402E00E4A8E
:100310007A440E32002104F1240305E000F00F06B8
:100320000009965D5E54491C0028F7D1207800230F
:10033000000704D5702D02D009B1022311322046E6
:10034000BDE8704000F006B8041F00007047704719
:10035000704770472DE9F0470D469946924604468E
:1003600000F124080168880604D5E06921F0100135
:10037000216000E00120A84201DD471B00E00027CA
:10038000A1697A1902EB0900081AA0612078C00659
:1003900002D42046AFF30080002608E0D4E9012112
:1003A0001AF806009047206A401C761C20624E45D1
:1003B000F4DB2078C0060AD52046AFF3008006E0C3
:1003C000D4E9012130209047206A401C2062381E69
:1003D000A7F10107F4DC07E0D4E9012118F80500D2
:1003E0009047206A401C2062281EA5F10105F3DC1D
:1003F0002046AFF300802078000602D50220BDE839
:10040000F0870120FBE70000074B70B50D467B44E9
:1004100000F011F80446284600F020F810B14FF023
:10042000FF3070BD204670BD5F16000001694A1C98
:1004300002610878704700B58FB0CDE90131002125
:10044000059105497944CDE9031011466846FFF747
:100450001DFF0FB000BD0000E5FFFFFF007B00F0B7
:1004600080007047754600F02BF8AE4605006946DF
:10047000534620F00700854618B020B5FFF7E6FE8A
:10048000BDE820404FF000064FF000074FF0000895
:100490004FF0000B21F00701AC46ACE8C009ACE816
:1004A000C009ACE8C009ACE8C0098D46704710B57A
:1004B0000446AFF300802046BDE81040FFF7B2BE0F
:1004C00000487047E4A0002000BFFEE7704700002E
:1004D00010B51248007802281ADA1048007848B996
:1004E000002000F0E3FD012000F0E0FD012000F01D
:1004F000CFFD08E0002000F0CBFD002000F0D6FD8D
:10050000012000F0D3FD05480078401C0349087025
:100510004FF4804000F030F810BD00001A000020B9
:100520000EB50121880300F04BFE0E21012001F0E1
:1005300025F84FF4E06000F025FB4FF48040009078
:1005400000208DF8040008208DF8050001208DF8AA
:100550000600684600F016F828208DF808000020F4
:100560008DF809008DF80A0001208DF80B0002A813
:1005700000F0CCFA0EBD0000014908607047000091
:10058000143C0140002123498279002A3AD00A46CE
:10059000126803689A430B461A600A1D12680368C2
:1005A0009A430B1D1A60027911440A6803681A43C2
:1005B0000A60184A0832126803689A43154B0833D8
:1005C0001A601A1D126803689A43124B0C331A60A2
:1005D0004279102A0ED11A1F126803681A430D4B74
:1005E00008331A601A1D126803681A43094B0C334A
:1005F0001A600DE00749427911440A6803681A43FA
:100600000A6005E0027911440A6803689A430A60A7
:1006100070470000003C0140F0B50A46002100236D
:10062000002400BF3DE0012505FA01F3156805EA45
:1006300003049C4234D105684F000326BE40B543F5
:10064000056015794E00B54006683543056015799B
:10065000012D02D01579022D16D185684F00032691
:10066000BE40B543856055794E00B5408668354338
:100670008560456801268E40B5434560456896799A
:100680008E40B6B235434560C5684F000326BE4074
:10069000B543C560D5794E00B540C6683543C560E1
:1006A000491C1029BFD3F0BDF0B5002300244D072D
:1006B000ED0E02FA05F3CE1000F1200555F8265094
:1006C0004E07F70E0F26BE40B543CF1000F12006AF
:1006D00046F82750CE1000F1200555F8265045EA7F
:1006E0000304CE1000F1200545F82640F0BD4183FB
:1006F0007047018370470AB1018300E0418370476E
:1007000000BFFEE72DE9F04107460C4615461E46A0
:100710002A2000F093F9204600F081F9304600F0DD
:100720007EF92B2000F08AF9384600F078F9284647
:1007300000F075F92C2000F081F9BDE8F0812DE979
:10074000F04706460F4614461D46DDF820A0681EF9
:1007500083B2601E82B239463046FFF7D3FFB846F7
:100760000EE0B14606E0504600F059F909F10100EB
:100770001FFA80F9A145F6DB08F101001FFA80F8A5
:10078000A845EEDBBDE8F0871CB50121022000F092
:1007900007FD4FF46C70009001208DF804000020DC
:1007A0008DF8060003208DF8050001208DF8070064
:1007B00069460948FFF730FF4020009000208DF87F
:1007C000040003208DF8050001208DF8070069461C
:1007D0000148FFF721FF1CBD0004024010B5FFF7E0
:1007E000D3FF10217348FFF784FF642001F0D8F88D
:1007F000112000F023F9782001F0D2F8B12000F0A8
:100800001DF9052000F014F93C2000F011F93C20FE
:1008100000F00EF9B22000F011F9052000F008F9FF
:100820003C2000F005F93C2000F002F9B32000F074
:1008300005F9052000F0FCF83C2000F0F9F83C2018
:1008400000F0F6F8052000F0F3F83C2000F0F0F896
:100850003C2000F0EDF8B42000F0F0F8032000F0A8
:10086000E7F8C02000F0EAF8282000F0E1F80820BE
:1008700000F0DEF8042000F0DBF8C12000F0DEF824
:10088000C02000F0D5F8C22000F0D8F80D2000F00C
:10089000CFF8002000F0CCF8C32000F0CFF88D2076
:1008A00000F0C6F82A2000F0C3F8C42000F0C6F813
:1008B0008D2000F0BDF8EE2000F0BAF8C52000F061
:1008C000BDF81A2000F0B4F8362000F0B7F8702018
:1008D00000F0AEF8E02000F0B1F8042000F0A8F835
:1008E000222000F0A5F8072000F0A2F80A2000F06E
:1008F0009FF82E2000F09CF8302000F099F8252079
:1009000000F096F82A2000F093F8282000F090F8E4
:10091000262000F08DF82E2000F08AF83A2000F012
:1009200087F8002000F084F8012000F081F803200F
:1009300000F07EF8132000F07BF8E12000F07EF854
:10094000042000F075F8162000F072F8062000F080
:100950006FF80D2000F06CF82D2000F069F82620CB
:1009600000F066F8232000F063F8272000F060F81C
:10097000272000F05DF8252000F05AF82D2000F027
:1009800057F83B2000F054F8002000F051F8012007
:1009900000F04EF8042000F04BF8132000F048F867
:1009A0003A2000F04BF8052000F042F8292000F032
:1009B00045F810BD000402402DE9F05F0746884667
:1009C00015461E46DDF82890002408EB0600401E60
:1009D00083B27819401E82B241463846FFF792FE34
:1009E000A24618E04FF0000B0FE019F8140000F0D9
:1009F0001FF8012101EB440119F8010000F018F87B
:100A0000641C0BF101001FFA80FBB345EDDB0AF11A
:100A100001001FFA80FAAA45E4DBBDE8F09F10B59B
:100A20000446201200F01AF8E0B200F017F810BDEA
:100A300010B50446204600F011F810BD10B504466C
:100A400020210548FFF753FE204600F007F820213B
:100A50000148FFF74EFE10BD0004024070B5044689
:100A600080211448FFF743FE00251BE04FF48071FE
:100A70001048FFF73CFE04F0800028B14FF40071ED
:100A80000C48FFF736FE04E04FF400710948FFF709
:100A90002EFE4FF480710748FFF72BFE6006040E10
:100AA000681CC5B2082DE1DB80210248FFF721FE5A
:100AB00070BD0000000402401CB50121084600F092
:100AC0006FFB4FF4C070009001208DF804000020EF
:100AD0008DF8060003208DF8050001208DF8070031
:100AE00069460548FFF798FD012004490860002089
:100AF0000349C1F89C021CBD00000240A002404214
:100B00000000404200BFFEE77047000070B50021C2
:100B100000230F22C4781CB3174C246804F4E0644B
:100B2000C4F5E064C4F30721C1F10404E3B20A414F
:100B300044789C40E1B28478144021430C07210E94
:100B40000E4C05786155047804F01F050124AC4073
:100B500005786D11AD0005F1E025C5F8004109E00B
:100B6000047804F01F050124AC40054D0678761189
:100B700045F8264070BD00000CED00E000E400E008
:100B800080E100E002490143024A11607047000021
:100B90000000FA050CED00E070B50446002534B104
:100BA000012C06D0032C06D0042C08D105E0B0257A
:100BB00005E0982503E0182501E0302500BF00BFBF
:100BC0002A465521422000F0B5FC70BD2DE9F041C8
:100BD0000446802522265E2734B1012C08D0032C40
:100BE0000AD0042C10D10BE0402511262F270BE052
:100BF00066251B264B2707E099252826712703E049
:100C0000C02533268D2700BF00BF2A464F21422032
:100C100000F090FC2A465021422000F08BFC00227C
:100C20005121422000F086FC32465221422000F041
:100C300081FC3A465321422000F07CFC2A46542194
:100C4000422000F077FC9E225821422000F072FCE6
:100C5000BDE8F08170B50446402534B1012C06D0C2
:100C6000032C06D0042C08D105E0302505E03825FA
:100C700003E0502501E0602500BF00BF2A46562151
:100C8000422000F057FC70BD1FB50121084600F05E
:100C900087FA4FF4C040029001208DF80C0000202C
:100CA0008DF80E0002208DF80D0001208DF80F0048
:100CB00002A93448FFF7B0FC0121022000F080FABD
:100CC00041F60140009001208DF8040000208DF8CD
:100CD000060001208DF8070002208DF80500694606
:100CE0002948FFF799FC41F201412748FFF701FD30
:100CF0004FF400612448FFF7FAFC0121022000F0C4
:100D00005FFA4FF40050009001208DF8040000209D
:100D10008DF8060001208DF8070002208DF80500EF
:100D200069461948FFF778FC4FF400511648FFF761
:100D3000E0FC0121022000F043FA4FF480400090D3
:100D400000208DF8040001208DF8070002208DF8A6
:100D5000050069460C48FFF75FFC0121084600F0DA
:100D60002FFAFF20009000208DF8040001208DF85C
:100D7000070002208DF8050069460248FFF74CFC89
:100D80001FBD0000000002400004024070B50025B5
:100D9000FFF77AFFFFF7C4FB00203A4908600A20FA
:100DA00000F0FEFD00203849C1F8B8020A2000F02A
:100DB000F7FD01203349091D086000F085FA802203
:100DC0001221422000F0B6FB322000F0E9FD1C2188
:100DD000422000F0FDFA04464FF6FF7000EA0424BA
:100DE0001D21422000F0F4FA044347F6A270844229
:100DF00005D0214625A0FFF73DFA012070BD0A214C
:100E0000422000F0E5FA04464FF6FF7000EA0424A1
:100E10000B21422000F0DCFA044347F27360844265
:100E200005D021461CA0FFF725FA0220E6E70025A1
:100E30000BE01C4800EB450042781A4810F81510EA
:100E4000422000F077FB681C85B2A62DF1D3032069
:100E500000F038F80220FFF7B9FE0220FFF79CFEF1
:100E60000220FFF7F7FE002000F0B0F88023A02258
:100E70003221C82000F028F90BA0FFF7FBF9002071
:100E8000BCE70000B4024042000040424D49443AF1
:100E9000305825580D0A00004849443A3058255822
:100EA0000D0A00008E1B00084F5637363730696E2A
:100EB0006974206973205375636365737366756C19
:100EC0000D0A00002DE9F0410446E7250026002721
:100ED000012C06D0022C08D0032C0AD0042C10D1EF
:100EE0000BE0E5255A265C270BE0E5255826602710
:100EF00007E0E52584264C2703E0E52596264027D4
:100F000000BF00BF2A461321422000F013FB3246E7
:100F10000121422000F00EFB3A460221422000F05F
:100F200009FBBDE8F081000070B5254C254800782C
:100F3000022844D1A023802200210846FFF7E2FBCB
:100F4000002000F097F8002000F086F8012000F063
:100F500083F8002000F080F8012000F08BF80120D9
:100F600000F07AF8002000F069F8002519E000266A
:100F700014E0002000F070F8134800692070012090
:100F800000F06AF8641C002000F066F80E48006962
:100F90002070012000F060F8641C761CA02EE8D3BD
:100FA0006D1C802DE3D3002000F064F8012000F0D8
:100FB00061F8012000F042F800200249087070BD7D
:100FC000E40000201A000020000002402DE9F0415A
:100FD00004460425C0268027072C1DD2DFE804F034
:100FE0001C04080C1014180024258026802713E008
:100FF0001425802680270FE01425C02680270BE0CB
:1010000014254026402707E014258026C02703E04A
:101010001425A026402700BF00BF2A463A214220BF
:1010200000F088FA32466821422000F083FA3A46FE
:101030006721422000F07EFABDE8F08110B5044639
:1010400022464FF480610348FFF755FB0A2000F069
:10105000C3FC10BD0004024010B5044622464FF404
:1010600000510348FFF747FB0A2000F0B5FC10BD14
:101070000004024010B5044622464FF48051034854
:10108000FFF739FB0A2000F0A7FC10BD0004024066
:1010900010B5044622464FF400610348FFF72BFBCE
:1010A0000A2000F099FC10BD0004024010B504466F
:1010B000224601210348FFF71EFB0A2000F08CFCAA
:1010C00010BD0000000402402DE9F84F04460D4613
:1010D0009046994604EB480086B205EB490087B27A
:1010E000B6F5447F06DD4FF4447096FBF0F100FB4B
:1010F000116086B2B7F5447F06DD4FF4447097FB6C
:10110000F0F100FB117087B23221422000F060F94B
:1011100082460AF0C00A0321422000F059F98346B2
:101120000BF0F00B06F007004AEAC00004F00701DC
:101130000843009032214220009A00F0FBF9C4F3EA
:10114000C700009017214220009A00F0F3F9C6F37F
:10115000C700009018214220009A00F0EBF907F038
:1011600003004BEA800005F00301084300900321CF
:101170004220009A00F0DEF9C5F3870000901921A3
:101180004220009A00F0D6F9C7F3870000901A2198
:101190004220009A00F0CEF9BDE8F88F70470000B9
:1011A00029B1064A12680243044B1A6004E0034A5C
:1011B00012688243014B1A607047000030380240C9
:1011C00029B1064A12680243044B1A6004E0034A3C
:1011D00012688243014B1A60704700004438024095
:1011E000F0B5002100220024022500260223324F00
:1011F0003F6807F00C0121B1042905D0082937D137
:1012000005E02E4F076036E02D4F076033E02A4F90
:101210003F1F3F68C7F38056274F3F1F3F6807F0C7
:101220003F036EB1264FB7FBF3F7DFF88CC0ACF18C
:10123000040CDCF800C0CCF3881C07FB0CF40CE0B9
:101240001E4FB7FBF3F7DFF870C0ACF1040CDCF80D
:1012500000C0CCF3881C07FB0CF4174F3F1F3F68FE
:10126000C7F301477F1C7D00B4FBF5F7076002E080
:10127000124F076000BF00BF0F4F3F6807F0F0013B
:101280000909104F7A5C0768D74047600A4F3F68EA
:1012900007F4E051890A0B4F7A5C4768D7408760B2
:1012A000054F3F6807F46041490B064F7A5C476879
:1012B000D740C760F0BD0000083802400024F400A9
:1012C00000127A00000000201CB501210846FFF73B
:1012D00067FF4FF4C050009001208DF804000020FB
:1012E0008DF8060002208DF8050001208DF807001A
:1012F00069460A48FFF790F94FF4C0510748FFF7D5
:10130000F8F90648006820F0407004490860084673
:10131000006840F0807008601CBD000000000240C2
:1013200010B5322000F058FB01200B4908600B4932
:10133000C1F8AC02322000F04FFB00200649091F23
:101340000860322000F048FB00200449C1F8B002D8
:10135000322000F041FB10BDB0024042000040428C
:1013600070B500241748006820F0407015490860E7
:10137000084600680860082515E0322000F02CFBC4
:101380000120114908606006040E1048D0F83002B0
:1013900008B1601CC4B2322000F01EFB00200A49D4
:1013A0000860681EC5B2002DE7DC0648006820F022
:1013B0004070044908600846006840F0807008608A
:1013C000204670BD00000240AC0240420000404296
:1013D00070B504460D46002600F024F8204600F0C3
:1013E00055F8642000F0F8FA284600F04FF8642021
:1013F00000F0F2FA00F030F8642000F0EDFA00F0AE
:1014000011F844F0010000F041F8642000F0E4FA23
:10141000FFF7A6FF0646FFF783FF00F01DF83046F2
:1014200070BD000010B50120094908600949C1F8E4
:10143000AC02322000F0D0FA0020054908603220CA
:1014400000F0CAFA00200349C1F8AC0210BD000048
:10145000B00240420000404210B500200949086037
:10146000322000F0B9FA01200749C1F8AC0232205D
:1014700000F0B2FA012003490860322000F0ACFA13
:1014800010BD0000B00240420000404270B504466A
:1014900000261BE004F0800018B1012022490860FA
:1014A00002E00020204908606006040E322000F0AF
:1014B00093FA01201C49091F0860322000F08CFAC1
:1014C00000201A49C1F8AC02701CC6B2082EE1DB3C
:1014D0001748006820F04070154908600846006809
:1014E0000860322000F078FA01200F49091F0860D7
:1014F000322000F071FA0D48D0F8300208B1012511
:1015000000E0002500200849091F0860084800681D
:1015100020F04070064908600846006840F080707E
:101520000860284670BD0000B00240420000404202
:10153000000002402DE9F04106460C461546002702
:10154000FFF770FF3046FFF7A1FF00B101276420CD
:1015500000F042FA2046FFF799FF00B1012764200E
:1015600000F03AFA2846FFF791FF00B10127FFF794
:1015700073FF3846BDE8F0817047000030B50022A7
:101580008B071C0F0F2303FA04F20B4B8C1053F83C
:1015900024309343084C8D1044F8253023468C109A
:1015A00053F824308C07240F00FA04F42343024C30
:1015B0008D1044F8253030BD083801400CB50020AE
:1015C000019000903448006840F48030324908604F
:1015D00000BF3148006800F4003000900198401CC2
:1015E0000190009818B90198B0F5A04FF1D12A48A0
:1015F000006800F4003010B10120009001E00020EC
:1016000000900098012846D123484030006840F0FF
:1016100080502149403108602048006840F4404033
:101620001E4908601C48083000681B4908310860E2
:101630000846006840F4004008600846006840F42E
:10164000A05008601648091F0860081F006840F095
:101650008070091F086000BF0F48006800F000702C
:101660000028F9D040F205700E4908600A48083099
:10167000006820F003000849083108600846006847
:1016800040F00200086000BF03480830006800F026
:101690000C000828F8D10CBD003802400070004052
:1016A00008544007003C0240042808D14FF0E021D4
:1016B000096941F004014FF0E022116107E04FF0A9
:1016C000E021096921F004014FF0E0221161704727
:1016D0007047000010B51548006840F470001349C9
:1016E00008601348006840F00100114908600020BC
:1016F0000F49083108600E4800680E4908400C493F
:1017000008600D48091D0860081F006820F480204B
:10171000091F0860002006490C310860FFF74EFFE2
:101720004FF0006001498039086010BD88ED00E08D
:1017300000380240FFFFF6FE1030002410B540F2E2
:1017400025511D4800F04AF810B31B4800F000F97D
:10175000C4B21A48008800F40040C8B9174800888D
:1017600000F4804060B10A2C03D0002013490880A7
:1017700020E01248008840F400401049088019E039
:101780000D2C06D10D48008840F480400B4908809C
:1017900010E00A480088C0F30D0009490C540748BE
:1017A0000088401C0549088008460088C72801DDDC
:1017B0000020088010BD000000100140180000202B
:1017C0001C00002021B1828942F40052828104E091
:1017D00082894DF6FF731A408281704770B50246C8
:1017E000002400230025002040F66A16B14200D1F3
:1017F00000BFC1F3421501F01F03012606FA03F3EF
:10180000012D02D19689334006E0022D02D1168ABD
:10181000334001E0968A33400C12012606FA04F4A4
:101820001688344013B10CB1012000E0002070BDD7
:10183000F0B50346002400260025002040F66A1774
:10184000B94200D100BF1846C1F3421401F01F068F
:10185000012707FA06F5012C01D10C3004E0022C17
:1018600001D1103000E014301AB107682F4307602F
:1018700002E00768AF430760F0BD00002DE9FF47B5
:1018800005460E460024A14600BFA046B08900B11F
:1018900000BF2C8A24F44054F08804432C82AC8985
:1018A00041F20C608443B088318908437189084350
:1018B0000443AC81AC8A24F44074B0890443AC8204
:1018C0006846FFF78DFC2048854202D01F488542BC
:1018D00002D1DDF80C9001E0DDF80890A88900F451
:1018E000004040B109EBC90000EB09103168490024
:1018F000B0FBF1F707E009EBC90000EB0910316814
:101900008900B0FBF1F76420B7FBF0F00401200977
:10191000642101FB1078A88900F4004040B1322016
:1019200000EBC800B0FBF1F000F00700044308E052
:10193000322000EB08106421B0FBF1F000F00F0042
:1019400004432C81BDE8FF870010014000140140D2
:1019500001468888C0F30800704700BFFEE700BF5B
:101960007047000010B504466FF00400FFF79CFEBE
:10197000E11704EB5171C1F3C701074A117010461A
:10198000007800EB4001C1EBC0104FF6FF7101EA97
:10199000C0000249088010BD100000201200002085
:1019A00070B504464FF4077094FBF0F0C6B24FF4E4
:1019B000077094FBF0F100FB114085B205E04FF495
:1019C000077000F02FF8701EC6B2002EF7D115B1C7
:1019D000284600F027F870BD0146114A12784A43A4
:1019E0004FF0E0235A6100229A611A46126942F0D0
:1019F00001021A6100BF4FF0E022106900F00102FD
:101A00001AB100F48032002AF5D04FF0E0221269BA
:101A100022F001024FF0E0231A6100229A61704720
:101A2000100000200146114A12884A434FF0E0237B
:101A30005A6100229A611A46126942F001021A6143
:101A400000BF4FF0E022106900F001021AB100F46B
:101A50008032002AF5D04FF0E022126922F0010214
:101A60004FF0E0231A6100229A61704712000020B3
:101A700000BF054A128802F04002002AF9D0C2B223
:101A8000014B9A80704700000010014008B54FF4E8
:101A9000E13000F021F8A820FFF764FFFFF70CF811
:101AA000FEF79CFE4FF6FF70A023802200210090DD
:101AB0000846FEF744FEFFF769F909E0FFF734FA3C
:101AC0000448A0238022002100900846FEF774FFFE
:101AD000F4E70000E400002010B588B004460121BE
:101AE0000846FFF75DFB01211020FFF769FB072285
:101AF00009212248FEF7D8FD07220A211F48FEF7D8
:101B0000D3FD4FF4C060069002208DF81C008DF8C4
:101B10001D0000208DF81E0001208DF81F0006A971
:101B20001648FEF779FD02940020ADF80C00ADF8E0
:101B30000E00ADF81000ADF814000C20ADF8120046
:101B400002A90F48FFF79AFE01210D48FFF73AFE60
:101B5000012240F225510A48FFF76AFE25208DF840
:101B6000040003208DF805008DF8060001208DF893
:101B7000070001A8FEF7CAFF08B010BD0000024030
:101B8000001001404FF04070E1EE100A70473A0C2F
:101B900040D0121432801716180419021A7A03055D
:101BA0000C003E00703A713572117300A20211816F
:101BB0007A207B1C7C287D3C7E557F6880768180E6
:101BC0008288838F849685A386AF87C488D789E867
:101BD00013E0000010000D001428A505AB072475C4
:101BE000256326A59F78A068A103A6DFA7DFA8F03C
:101BF000A990AA9413E50E610F4B16021E2721022D
:101C000022912907330B350B371D3871392A3C785F
:101C10004D404E2069556B4074198D4F8E008F00DA
:101C200090009100920096009A80B084B10CB20EA0
:101C3000B382B80A431444F0453446584728483A1A
:101C400059885A885B445C675D495E0E6404652070
:101C50006605940495086C0A6D554F8050805100BC
:101C60005222535E54806E116F9F6A4001400240C1
:101C700013E71500550A564F589E41083F05750554
:101C800076E14C0F770A3DC24B09C96041383411E7
:101C90003B02A48996009730982099309A849B291A
:101CA0009C039D4C9E3F78047901C8F0790FC800D1
:101CB0007910C87E790AC880790BC801790CC80FE1
:101CC000790DC8207909C8807902C8C07903C84055
:101CD0007905C830792609023B423A0C40D01214EB
:101CE00032801716180419021A7A03050C00150021
:101CF0003E00703A713572117300A20211817A2090
:101D00007B1C7C287D3C7E557F6880768180828824
:101D1000838F849685A386AF87C488D789E813E02C
:101D2000000010000D001428A505AB0724752563DD
:101D300026A59F78A068A103A6DFA7DFA8F0A99039
:101D4000AA9413E50E610F4B16021E272102229161
:101D50002907330B350B371D3871392A3C784D4034
:101D60004E2069006B4074198D4F8E008F009000DB
:101D70009100920096009A80B084B10CB20EB382AA
:101D8000B80A431444F0453446584728483A59881D
:101D90005A885B445C675D495E0E64046520660595
:101DA000940495086C0A6D554F8050805100522262
:101DB000535E548009036E116F9F55005640574083
:101DC0006A400140024013E71500589E41083F0059
:101DD000750576E14C0077013DC24B09C960413879
:101DE00034113B02A48996009730982099309A8448
:101DF0009B299C039D4C9E3F78047901C8F0790F84
:101E0000C8007910C87E790AC880790BC801790C9E
:101E1000C80F790DC8207909C8807902C8C0790334
:101E2000C8407905C830792609003A0440D0121418
:101E300032801717180519021A7B030A0C001500C7
:101E40003E00703A713572117300A20211817A203E
:101E50007B1C7C287D3C7E557F68807681808288D3
:101E6000838F849685A386AF87C488D789E813E0DB
:101E7000000010000D001428A505AB07247525638C
:101E800026A59F78A068A103A6DFA7DFA8F0A990E8
:101E9000AA9413E50E610F4B16021E372102229100
:101EA0002907330B350B371D3871392A3C784D40E3
:101EB0004E2069006B4074198D4F8E008F0090008A
:101EC0009100920096009A80B084B10CB20EB38259
:101ED000B80A431444F0453446584728483A5988CC
:101EE0005A885B445C675D495E0E64046520660544
:101EF000940495086C0A6D554F8050805100522211
:101F0000535E548009036E116F9F55005640574031
:101F10006A400140024013E71500589E41083F0007
:101F2000750576E14C0077013DC24B09C960413827
:101F300034113B02A48996009730982099309A84F6
:101F40009B299C039D4C9E3F78047901C8F0790F32
:101F5000C8007910C87E790AC880790BC801790C4D
:101F6000C80F790DC8207909C8807902C8C07903E3
:101F7000C8407905C830792609003A0440D01214C7
:101F800032801716180419021A7B03060C0015007C
:101F90003E00703A713572117300A20211817A20ED
:101FA0007B1C7C287D3C7E557F6880768180828882
:101FB000838F849685A386AF87C488D789E813E08A
:101FC000000010000D001428A505AB07247525633B
:101FD00026A59F78A068A103A6DFA7DFA8F0A99097
:101FE000AA9413E50E610F4B16021E3721022291AF
:101FF0002907330B350B371D3871392A3C784D4092
:102000004E2069006B4074198D4F8E008F00900038
:102010009100920096009A80B084B10CB20EB38207
:10202000B80A431444F0453446584728483A59887A
:102030005A885B445C675D495E0E640465206605F2
:10204000940495086C0A6D554F80508051005222BF
:10205000535E548009036E116F9F550056405740E0
:102060006A400140024013E71500589E41083F00B6
:10207000750576E14C0077013DC24B09C9604138D6
:1020800034113B02A48996009730982099309A84A5
:102090009B299C039D4C9E3F78047901C8F0790FE1
:1020A000C8007910C87E790AC880790BC801790CFC
:1020B000C80F790DC8207909C8807902C8C0790392
:1020C000C8407905C830792609003A0440D0121476
:1020D00032801716180419021A7B03060C003E0002
:1020E000703A713572117300A20211817A207B1C43
:1020F0007C287D3C7E557F68807681808288838FB6
:10210000849685A386AF87C488D789E813E000004A
:1021100010000D001428A505AB072475256326A51E
:102120009F78A068A103A6DFA7DFA8F0A990AA94D2
:1021300013E50E610F4B16021E372102229129076B
:10214000330B350B371D3871392A3C784D404E2002
:1021500069006B6074198D4F8E008F0090009100A4
:10216000920096009A80B084B10CB20EB382B80A85
:10217000431444F0453446584728483A59885A8809
:102180005B445C675D495E0E6404652066059404EB
:1021900095086C0A6D556E116F9F6A4001400240B0
:1021A00013E715004F80508051005222535E548037
:1021B000589E41083F00750576E14C0077013DC20D
:1021C0004B09C9604138564034113B02A48996003E
:1021D0009730982099309A849B299C039D4C9E3F70
:1021E00078047901C8F0790FC8007910C87E790A9F
:1021F000C880790BC801790CC80F790DC8207909FE
:10220000C8807902C8C07903C8407905C8307926EA
:10221000090030313233343536373839414243449E
:10222000454640305800303132333435363738394E
:102230006162636465664030780000005C220008DB
:10224000000000201C000000C401000878220008E3
:102250001C0000202CA70000E00100080000000086
:10226000010203040102030406070809000000003C
:08227000000000000000000066
:040000050800018965
:00000001FF
