:020000040800F2
:100000004846002005010008650800082F08000880
:10001000610800080B070008EB140008000000004E
:1000200000000000000000000000000009110008AE
:100030000F07000800000000ED0800081D1200086E
:100040001F0100081F0100081F0100081F01000810
:100050001F0100081F0100081F0100081F01000800
:100060001F0100081F0100081F0100081F010008F0
:100070001F0100081F0100081F0100081F010008E0
:100080001F0100081F0100081F0100081F010008D0
:100090001F0100081F0100081F0100081F010008C0
:1000A0001F0100081F0100081F0100081F010008B0
:1000B0001F0100081F0100081F0100081F010008A0
:1000C0001F0100081F0100081F0100081F01000890
:1000D0001F01000881120008B9120008F51200087B
:1000E0001F0100081F0100081F010008DFF810D0E1
:1000F00000F040FA00480047FD260008AFF30080FA
:10010000484600200648804706480047FEE7FEE7CD
:10011000FEE7FEE7FEE7FEE7FEE7FEE7FEE7FEE7B7
:1001200021120008ED000008D2B201E000F8012B16
:10013000491EFBD270470022F6E710B513460A4667
:1001400004461946FFF7F0FF204610BD421C10F888
:10015000011B0029FBD1801A704710B5002200E076
:10016000521C835C8C5CA34201D1002BF8D1D8B225
:10017000E1B2401A10BD30B50B46014600202022E6
:10018000012409E021FA02F59D4205D303FA02F5A4
:10019000491B04FA02F52844151EA2F10102F1DC04
:1001A00030BD2DE9F05F0546002092469B4688460B
:1001B0000646814640241BE02846414647462246E3
:1001C00000F0F9F953465A46C01A914110D311462E
:1001D0001846224600F0E0F92D1A67EB01084F4659
:1001E00022460120002100F0D7F917EB00094E410B
:1001F000201EA4F10104DFDC484631462A4643466E
:10020000BDE8F09F2DE9FE4F804681EA0300C00F54
:100210000C46009021F0004123F00045B8EB0200AD
:10022000A94105D24046214690461C460B4602464F
:1002300023F00040104347D0270DC7F30A00C3F353
:100240000A510290401A019040286BDAC3F3130060
:1002500040F4801B0098924620B10023D2EB030AA1
:1002600063EB0B0B01985946C0F14002504600F079
:1002700093F906460D4650465946019A00F0ABF9EF
:1002800010EB08006141002487EA115284EAE77309
:100290001A4340D0009A62B3019A012A4FEA0752EA
:1002A00015DC001B61EB02014FF0004202EA07522D
:1002B000CDE90042001C41F5801132462B4600F08A
:1002C000ABF903B0BDE8F08F40462146F9E7001BCB
:1002D00061EB0201001C41F5801300185B412018FE
:1002E000A2F5001747EB030140EAD570B6196D413E
:1002F00011E06D084FEA360645EAC0754FEA07522D
:10030000001B61EB0201001C41F5801149084FEA16
:1003100030000019514132462B4603B0BDE8F04F82
:1003200000F06BB90098012240000023D0EB0202DC
:1003300063EBE073009821464FEAE074B8EB0000ED
:1003400061EB0401E9E783F000435BE781F00041E2
:1003500058E72DE9FE4F81EA030404F0004421F040
:10036000004100944FF0000B23F0004350EA0104D9
:100370005ED052EA03045BD0C3F30A54C1F30A55BA
:100380002C44A4F2F3340194A0FB0254C1F31301F2
:1003900041F48011C3F3130343F4801301FB0244BF
:1003A00000FB034E840A970A44EA815447EA8357C4
:1003B000A4FB076802958D0A05FB07854FEA932C7D
:1003C00004FB0C542705029D4FEA065847EA1637EE
:1003D000B5EB08056EEB070C870E920E47EA811706
:1003E00042EA8312A7FB0201B6EB0B0164EB0004A7
:1003F0002B0D43EA0C335E1844EB1C50DA46514691
:10040000E7FB0201C5F313044FEA0B3343EA14532D
:100410004FEA0432019C43EA0603A4F10C0402945F
:10042000009CCDE900B400F0F7F803B0BDE8F08F10
:1004300000200146F9E72DE9F04D81EA030404F0BC
:10044000004B21F0004514464FF0000A23F0004114
:1004500050EA050220D054EA01021DD0C5F30A5724
:100460000246C5F31303C1F31300C1F30A5640F467
:10047000801543F48013A7EB0608101BD64608F23C
:10048000FD3873EB050002D308F1010801E0921872
:100490005B41B8F1000F03DA00200146BDE8F08DA2
:1004A00000204FF48011064684460EE0171B73EBC4
:1004B000050705D3121B63EB050306434CEA010C49
:1004C00049084FEA300092185B4150EA0107EDD12C
:1004D00052EA030012D082EA040083EA05010843CD
:1004E00005D0101BAB4106D20122002306E00022FA
:1004F0004FF0004302E06FF0010253101AEB0600C8
:100500004CEB085110EB0A0041EB0B01BDE8F04D3C
:1005100000F073B8C1F30A52C1F3130140F2FF3384
:1005200041F480119A4202DA00200146704740F2FD
:1005300033439A42A2F2334202DC524200F03BB80B
:1005400000F02AB830B5041E71F1000404DB4FF04E
:100550000044404264EB0101141E73F1000405DB0A
:100560001C464FF00043524263EB0403994208BF1C
:10057000904230BD064C074D06E0E06840F00103B4
:1005800094E8070098471034AC42F6D3FFF7B2FD69
:10059000482C0008682C0008202A04DB203A00FAC6
:1005A00002F1002070479140C2F1200320FA03F3CA
:1005B000194390407047202A04DB203A21FA02F0C8
:1005C0000021704721FA02F3D040C2F1200291408D
:1005D000084319467047202A06DBCB17203A41FA18
:1005E00002F043EAE07306E041FA02F3D040C2F1C0
:1005F0002002914008431946704710B5141E73F14C
:10060000000408DA401C41F1000192185B411A43D2
:1006100001D120F0010010BD2DE9F04D92469B461E
:1006200011B1B1FA81F202E0B0FA80F220329046C4
:10063000FFF7B2FF04460F4640EA0A0041EA0B0109
:1006400053465A46084313D0114653EA010019D0C5
:10065000C8F140025046FFF7AEFF05460E46504631
:1006600059464246FFF798FF084305D0012004E0B1
:1006700020463946BDE8F08D0020054346EAE07685
:100680002C4337430A986305E40AA0EB08000022D4
:10069000FD0A44EA47540A3002D500200146E9E742
:1006A000010510196941DDE9084500196941BDE8F6
:1006B000F04DA2E770B58C1810F8015B15F0070338
:1006C00001D110F8013B2A1106D110F8012B03E0EB
:1006D00010F8016B01F8016B5B1EF9D12B0705D4F3
:1006E0000023521E0DD401F8013BFAE710F8013B3C
:1006F000CB1A921C03E013F8015B01F8015B521E58
:10070000F9D5A142D8D3002070BD00BFFEE77047E5
:100710002DE9F04102460025002600200023002498
:10072000002791F803C00CF00F0591F803C00CF0FE
:10073000100CBCF1000F03D091F802C04CEA050583
:1007400091F800C0BCF1000F31D0146800202BE0FC
:100750004FF0010C0CFA00F3B1F800C00CEA0306EC
:100760009E4220D183004FF00F0C0CFA03F7BC43DC
:1007700005FA03FC4CEA040491F803C0BCF1280F0D
:1007800006D14FF0010C0CFA00FCC2F814C00AE0CC
:1007900091F803C0BCF1480F05D14FF0010C0CFAE1
:1007A00000FCC2F810C0401C0828D1D31460B1F876
:1007B00000C0BCF1FF0F34DD546800202EE000F1D2
:1007C000080C4FF0010808FA0CF3B1F800C00CEA6D
:1007D00003069E4221D183004FF00F0C0CFA03F761
:1007E000BC4305FA03FC4CEA040491F803C0BCF1D5
:1007F000280F05D100F1080C08FA0CF8C2F8148093
:1008000091F803C0BCF1480F07D100F1080C4FF07C
:10081000010808FA0CF8C2F81080401C0828CED352
:100820005460BDE8F081416170470161704700BFCD
:10083000FEE7000008B50121102000F059F8102053
:100840008DF803004002ADF8000003208DF802008F
:1008500069460248FFF75CFF08BD00000010014038
:1008600000BFFEE77047000070B5002100230F2293
:10087000C47804B3154C246804F4E064C4F5E0645F
:10088000210AC1F10403CA40447804FA03F18478D0
:100890001440214309010E4C0678A155047804F058
:1008A0001F050124AC4005786D11AD0005F1E02570
:1008B000C5F8004109E0047804F01F050124AC40AC
:1008C000044D0678761145F8264070BD0CED00E029
:1008D00000E400E080E100E002490143024A1160C7
:1008E000704700000000FA050CED00E070470000C2
:1008F00029B1064A92690243044B9A6104E0034A13
:1009000092698243014B9A617047000000100240D7
:1009100030B500210022002400232D4D6D6805F024
:100920000C0121B1042905D0082923D105E0294D66
:10093000056022E0274D05601FE0254D6D6805F438
:100940007012234D6D6805F48034022505EB924248
:100950001CB9214D554305600BE01D4D6D6805F434
:1009600000351DB11C4D5543056002E0194D55433E
:10097000056002E0174D056000BF00BF144D6D68B3
:1009800005F0F0010909154D6B5C0568DD40456017
:100990000F4D6D6805F4E061090A104D6B5C456808
:1009A000DD4085600A4D6D6805F46051C90A0B4D44
:1009B0006B5C4568DD40C560054D6D6805F44041E0
:1009C000890B074D6B5CC568B5FBF3F5056130BD60
:1009D0000010024000127A0000093D0014000020BF
:1009E0002400002010B5012002490860FF2000F01B
:1009F000FDF910BD8C01214270B505460122002190
:100A00000A2000F03CFA044624B91021284600F0E0
:100A1000B1F90446FFF7E6FF0CB1012070BD0020DC
:100A2000FCE770B5054601220021092000F027FAF5
:100A3000044624B91021284600F09CF90446FFF72B
:100A4000D1FF0CB1012070BD0020FCE770B5054658
:100A50004FF6FF7401E0601E84B2FF2000F0C6F97B
:100A6000A84201D0002CF6D10CB9FF2070BD0020A7
:100A7000FCE700007FB56846FFF7D3FF28B11CA054
:100A800000F036FD002004B070BD9DF8000000F0BD
:100A9000C000402809D19DF809009DF8081000EB1E
:100AA0000120401C84B2A50220E09DF8050000F062
:100AB0000F009DF80A1000EBD1109DF8091001F00D
:100AC000030100EB4100861C9DF8080080119DF891
:100AD000071000EB81009DF8061001F0030100EB08
:100AE0008120441CA6F1090004FA00F52846CAE753
:100AF0004765742043534420736967616C206661C5
:100B0000696C0D0A00000000F8B500F04FF900F024
:100B100078F9002504E0FF2000F068F9681C85B230
:100B20000A2DF8DB142600BF95220021084600F0AC
:100B3000A6F90446012C04D0301EA6F101018EB2A4
:100B4000F2D1002057490870012C4DD187224FF473
:100B5000D571082000F093F901284DD1002506E059
:100B6000FF2000F043F90DF80500681C85B2042D44
:100B7000F6DB9DF802000128E7D19DF80300AA28C2
:100B80007ED14FF6FE7600BF01220021372000F013
:100B900076F901229107292000F071F9044624B169
:100BA000301EA6F101018EB2EED1002E68D00122D6
:100BB00000213A2000F063F9002861D1002506E009
:100BC000FF2000F013F90DF80500681C85B2042D14
:100BD000F6DB9DF8000000F0400030B106203149FE
:100BE000087031A000F084FC4AE004202D49087010
:100BF00033A000F07DFC43E001220021372000F00B
:100C00003EF901220021292000F039F90446012C87
:100C10001ADC0220234908702FA000F069FC4FF66F
:100C2000FE7600BF01220021372000F028F90122C2
:100C30000021292000F023F90446BCB1301EA6F1A2
:100C400001018EB2EED111E00120164908704FF675
:100C5000FE7600BF01220021104600F010F9044684
:100C600024B1301EA6F101018EB2F3D12EB10122C2
:100C70005102102000F003F910B10020094908705A
:100C8000FFF7B0FE00F0BDF819A000F031FC0548F8
:100C9000007808B10020F8BD0CB12046FBE7AA207F
:100CA000F9E70000340000205468697320534420A1
:100CB000636172642069732056322E780D0A000039
:100CC00054686973205344206361726420697320FF
:100CD00056322E300D0A00005468697320534420A8
:100CE000636172642069732056312E780D0A00000A
:100CF0005350495F496E697465640D0A0000000035
:100D00002DE9F04106460F46154619480078062899
:100D100000D07F02012D0CD101223946112000F0B4
:100D2000AEF80446FCB96902304600F023F80446E8
:100D300019E001223946122000F0A1F8044600BF54
:100D40004FF40071304600F015F8044606F50076C1
:100D5000681EC0B2051E01D0002CF1D00122002176
:100D60000C2000F08CF8FFF73DFE2046BDE8F08136
:100D70003400002070B504460D46FE20FFF766FEE5
:100D800008B1012070BD04E0FF2000F049F9207097
:100D9000641C281EA5F101018DB2F5D1FF2000F0E1
:100DA00025F8FF2000F022F80020EBE708B501212C
:100DB0000420FFF79DFD1C20ADF8000010208DF8E9
:100DC000030003208DF8020069460648FFF7A0FCE7
:100DD0001C210448FFF729FD00F0E6F80120024934
:100DE000086008BD000801408C01214210B504468E
:100DF000204600F015F910BD10B5002000F03AF9BA
:100E000010BD10B5382000F035F910BD10B5002028
:100E10000549086000F06FF808B9002010BDFFF721
:100E2000E1FD0120FAE700008C01214270B5064681
:100E30000D4600F060F808B1012070BD2846FFF7AC
:100E4000D5FFFD2D19D0002404E0305D00F0E8F856
:100E5000601C84B2B4F5007FF7DBFF20FFF7C6FF0C
:100E6000FF20FFF7C3FFFF20FFF7C0FF044604F099
:100E70001F00052801D00220DFE70020DDE72DE973
:100E8000F04105460C4617464FF00008FFF7AAFD53
:100E9000FFF7BCFF10B1FF20BDE8F08145F0400036
:100EA000FFF7A4FF200EFFF7A1FFC4F30740FFF7F1
:100EB0009DFFC4F30720FFF799FFE0B2FFF796FF0D
:100EC0003846FFF793FF0C2D02D1FF20FFF78EFF6E
:100ED0004FF01F0800BFFF20FFF788FF064606F00F
:100EE000800030B1B8F10000A8F1010101F0FF0865
:100EF000F1D13046D0E710B5002400BFFF20FFF746
:100F000075FFFF2801D1002010BD641C6FF07F40E9
:100F10008442F3D30120F7E72DE9F04106460F465E
:100F2000154620480078062800D07F02012D0CD1FC
:100F3000012239461820FFF7A2FF04466CBBFE21B0
:100F40003046FFF773FF044627E016480078012873
:100F500009D0012200213720FFF791FF0122294605
:100F60001720FFF78CFF012239461920FFF787FF72
:100F7000044694B900BFFC213046FFF757FF0446F2
:100F800006F50076681EC0B2051E01D0002CF2D016
:100F9000FD210020FFF74AFF0446FFF723FD20460E
:100FA000BDE8F0813400002008B5012141F20400C1
:100FB000FFF79EFCE020ADF8000018208DF803003C
:100FC00003208DF8020069461248FFF7A1FBE021DB
:100FD0001048FFF72AFC00200F4908804FF4827068
:100FE0004880002088800220C880012008814002BB
:100FF0004881382088810020C8810720088207485E
:1010000000F064F80121054800F046F8FF2000F0E8
:1010100007F808BD000801407402002000300140BC
:1010200070B50546002405E0601CC4B2C82C01DD83
:10103000002070BD02210E4800F03AF80028F3D0DD
:1010400029460B4800F040F8002405E0601CC4B2BB
:10105000C82C01DD0020ECE70121054800F028F84C
:101060000028F3D0024800F02CF8C0B2E1E70000FD
:101070000030014010B5044605488481014605480A
:1010800000F024F80121034800F006F810BD00002C
:10109000740200200030014021B1028842F0400279
:1010A000028004E002884FF6BF731A400280704746
:1010B0000246002013890B400BB1012000E0002004
:1010C00070470146888970478181704710B50022BA
:1010D000028802F441520B884C8823438C882343B6
:1010E000CC8823430C8923434C8923438C89234395
:1010F000CC8923431A430280838B4FF2FF74234031
:1011000083830B8A038210BD704710B500F002F88C
:1011100010BD00000CB5002001900090334800681D
:1011200040F480303149086000BF3048006800F466
:10113000003000900198401C0190009818B9019867
:10114000B0F5A06FF1D12948006800F4003010B16B
:101150000120009001E0002000900098012843D178
:101160002348006840F010002149086008460068E4
:1011700020F0030008600846006840F002000860A4
:101180001A4840681949486008464068486008465F
:10119000406840F4806048600846406820F47C1055
:1011A00048600846406840F4E81048600846006817
:1011B00040F08070086000BF0C48006800F00070CC
:1011C0000028F9D00948406820F00300074948602A
:1011D0000846406840F00200486000BF034840688D
:1011E00000F00C000828F9D10CBD000000100240EE
:1011F00000200240042808D14FF0E021096941F0A5
:1012000004014FF0E022116107E04FF0E02109698D
:1012100021F004014FF0E022116170477047000097
:1012200010B51348006840F00100114908600846F5
:101230004068104908400E494860084600680E4959
:1012400008400B4908600846006820F480200860C8
:101250000846406820F4FE0048604FF41F00886094
:10126000FFF753FF4FF000600449086010BD000015
:10127000001002400000FFF8FFFFF6FE08ED00E05E
:1012800010B540F22551094800F06BF860B10748ED
:1012900000F022F9C4B206480649098844540548BA
:1012A0000088401C0349088010BD00000038014040
:1012B000AC0100202C00002010B540F2255106485A
:1012C00000F04FF838B1044800F006F9C4B22146E6
:1012D00002A001F0E7FB10BD00440040CAD5B5BD37
:1012E000C1CBD2BBB8F6D7D6B7FB3A2025630D0ADF
:1012F0000000000010B540F22551064800F031F81A
:1013000038B1044800F0E8F8C4B2214602A001F068
:10131000F1FB10BD00480040CAD5B5BDC1CBD2BB62
:10132000B8F6D7D6B7FB3A2025630D0A00000000B7
:1013300021B1828942F40052828104E082894DF613
:10134000FF731A408281704702460020B1F5007F8A
:1013500000D100BF13880B400BB1012000E000203A
:10136000704770B50246002400230025002040F697
:101370006A16B14200D100BFC1F3421501F01F034C
:10138000012606FA03F3012D02D19689334006E0C7
:10139000022D02D1168A334001E0968A33400C12A6
:1013A000012606FA04F41688344013B10CB101206A
:1013B00000E0002070BDF0B50346002400260025A3
:1013C000002040F66A17B94200D100BF1846C1F3A9
:1013D000421401F01F06012707FA06F5012C01D17E
:1013E0000C3004E0022C01D1103000E014301AB1AE
:1013F00007682F43076002E00768AF430760F0BD4E
:101400002DE9F04786B005460E460024A24600BFEF
:10141000A1460027B08900B100BF2F462C8A4CF6A8
:10142000FF700440F08804432C82AC894EF6F31020
:101430000440B08831890843718908430443AC8172
:10144000AC8A4FF6FF400440B0890443AC8201A847
:10145000FFF75EFA1F48874202D1DDF810A001E0D5
:10146000DDF80CA0A88900F4004040B10AEBCA00E6
:1014700000EB0A1031684900B0FBF1F807E00AEB15
:10148000CA0000EB0A1031688900B0FBF1F8642053
:10149000B8FBF0F004012009642101FB1089A88940
:1014A00000F4004040B1322000EBC900B0FBF1F085
:1014B00000F00700044308E0322000EB091064212B
:1014C000B0FBF1F000F00F0004432C8106B0BDE842
:1014D000F08700000038014001468888C0F308000A
:1014E0007047C1F308028280704700BFFEE700002A
:1014F0000FB4054B10B503A9044A029800F0ECF8AC
:1015000010BC5DF814FB0000AD2500083000002081
:1015100037B514460846064B6A46214600F0DCF80B
:1015200004466946002000F05AFC20463EBD0000FB
:10153000DF1D000802E008C8121F08C1002AFAD106
:1015400070477047002001E001C1121F002AFBD143
:10155000704700002DE9FF5F82B00021DDE9043013
:10156000020DDDF840B0034318D044F61050A2F24B
:10157000FF3242431514119801281FD0A5EB0B0030
:10158000401C5FEA000A4FF000064E4FDFF838912A
:10159000B046504615D5CAF1000413E01198012455
:1015A0004AA3012801D16FEA0B010298119AC0E900
:1015B0000031C0E9024206B0BDE8F09FCBF1000067
:1015C000DFE704460021404A491842EB0450CDE9C8
:1015D000001012E0E00707D032463B46404649463D
:1015E000FEF7B7FE8046894632463B46104619460E
:1015F000FEF7AFFE06460F466410002CEAD1DDE987
:101600000401DDE90023BAF1000F06DAFEF7A1FEBE
:1016100042464B46FEF79DFE05E0FEF70CFF4246B4
:101620004B46FEF708FF04460E460022284BFEF705
:1016300089FF03D84FF0FF30014607E00022254B19
:1016400020463146FEF7DEFDFEF764FF102409E078
:10165000002C0ADB0A220023FEF7A3FD039B303295
:101660001A55641E50EA0102F2D1641C039AC4F1B7
:1016700011031444119A012A03D0012208430DD109
:101680000AE0084304D000204FF0110B119072E7DC
:10169000A3EB0B056D1E0DE05B4504DD4FF0000272
:1016A00005F1010504E003DA4FF00002A5F10105A0
:1016B000002AECD002981199C0E90231C0E9004536
:1016C00079E70000000014400000F03F3000000007
:1016D0000000F0430000E03F2DE9FF4F95B09A462F
:1016E000884606460025EEE1252877D100242746C6
:1016F000F94A0121039400E0044316F8013F203B1E
:1017000001FA03F01042F7D130782A2811D06FF097
:101710002F033078A0F13002092A16D8039A44F03A
:10172000020402EB820203EB42021044761C039097
:10173000EFE758F8042B0392002A03DA504244F4EE
:101740000054039044F00204761C30782E2816D101
:1017500016F8010F44F004042A280DD06FF02F0270
:101760003078A0F13003092B09D807EB870302EB8F
:101770004303C718761CF3E758F8047B761C3078CF
:101780006C280FD006DC4C2817D068280DD06A28AA
:1017900014D104E0742810D07A280FD10DE044F45D
:1017A00000140AE044F4801401E044F44014727818
:1017B000824202D104F58014761C761C30786628AB
:1017C0000BD013DC582877D009DC002875D04528C9
:1017D000F6D04628F4D047281AD193E118E06328C0
:1017E00035D0642879D0652812D18BE1702873D068
:1017F00008DC6728F1D069286FD06E280DD06F28DB
:1018000006D1ACE073282CD0752874D0782853D03A
:101810005246179990476D1C54E1C4F302500228B8
:1018200009D003280DD0D8F8001004280DD00D6081
:1018300008F1040846E1D8F80010EA17C1E900529F
:10184000F6E7D8F800100D80F2E70D70F0E718F811
:10185000041B8DF8001000208DF80100EB460120DC
:1018600003E058F804BB4FF0FF3061074FF0000170
:1018700002D40DE009F101018946B9420FDA814530
:10188000F8DB1BF809100029F4D108E009F1010187
:1018900089468142FADB1BF809100029F6D103982A
:1018A0005346A0EB090721463846179A00F080FA04
:1018B000284400EB090507E044E008E10DE01BF8CF
:1018C000010B524617999047B9F10109F7D25346D7
:1018D00021463846179AF2E039E00A21C4F3025251
:1018E0004FF0000B0091022A06D058F8040BC117E4
:1018F000032A09D00AE023E008F1070020F00702DC
:10190000F2E80201904605E000B2C117042A01D1B5
:1019100040B2C117002906DA0A460021404261EBB5
:1019200002012D2202E0220504D52B228DF804208D
:10193000012203E0E20701D02022F7E7914657E0B9
:101940000A2100E010214FF0000B00910BE0102164
:101950004FF0000B44F004040827009103E0082036
:101960004FF0000B0090C4F30252022A05D058F841
:10197000040B0021032A08D008E008F1070020F03A
:101980000702F2E80201904603E080B2042A00D187
:10199000C0B24FF0000922072AD53278702A07D04A
:1019A000DDF800C08CF0100C5CEA0B0C05D00EE0EA
:1019B00040228DF80420012208E050EA010306D0FD
:1019C00030238DF804308DF8052002229146009BCB
:1019D00083F0080353EA0B030AD150EA010201D154
:1019E000620705D530228DF804204FF001097F1ED3
:1019F0003278582A04D039A20C920CAA02920BE039
:101A00003BA2F9E75B46009AFEF7CBFB0C9B9B5C85
:101A1000029A521E0292137050EA0102F2D1029809
:101A200004A9081A00F1200B600702D524F48034C1
:101A300000E001275F4502DDA7EB0B0000E000207E
:101A400000EB0B01009003984944401A0390E00317
:101A500006D453462146179A039800F0A9F9054485
:101A6000002706E001A85246C05D179990476D1CFB
:101A70007F1C4F45F6DBE0030CD553462146179AF1
:101A8000039800F095F9054404E030205246179978
:101A900090476D1C0099481E00900029F5DC08E075
:101AA0000298029952460078491C02911799904772
:101AB0006D1CBBF10001ABF1010BF1DC5BE100F04F
:101AC00065F90544761C307800287FF40DAE19B016
:101AD0002846BDE8F08F000009280100303132337C
:101AE000343536373839616263646566000000005A
:101AF0003031323334353637383941424344454644
:101B000000000000600700D4062708F1070020F05D
:101B10000700F0E80223804603F0004C5FEA0C0067
:101B200001D097A009E0200501D596A005E0E007C7
:101B300001D095A001E0AFF24C001390307823F073
:101B4000004365280CD006DC452809D046281DD066
:101B500047287FD13BE0662818D067287AD136E045
:101B60000021112F01DB112000E0781CCDE90001DC
:101B700004A90CA8FFF7EEFCDDE90D010C9A4FF06B
:101B8000000B07F10109109200914EE04FF0004068
:101B90000097CDE9011004A90CA8FFF7DBFCDDE9F3
:101BA0000D020C9B0F994FF0000B91461093009281
:101BB00011B9791C00EB0109B7EB090003D4C0F19E
:101BC000FF3B07F10109A9EB0700019042E0012F5B
:101BD00000DA01270021112F01DD112000E0384635
:101BE000CDE9000104A90CA8FFF7B4FCDDE90D0163
:101BF0000C9A00914FF0000BB946109221070FD4B8
:101C0000009A4A4503DA914601E0A9F10109B9F1C8
:101C1000010F05DD109AA9F10101515C3029F4D0C2
:101C2000B84202DA10F1040F03DA0121CDE9011004
:101C300010E0002803DC8344A9EB000102E0411C12
:101C4000494500DD8946A0EB0B00401C01904FF098
:101C500000400290200705D40198484502DB4FF070
:101C6000FF30019000208DF84B0002980DF14B07DA
:101C7000B0F1004F25D002200C902B200D9002983F
:101C800000280CDA404202902D200D9007E00A2136
:101C90000298FEF770FA3031029007F8011D0C9996
:101CA000481E0C900029F2DC02980028EFD1791E22
:101CB0000D980870307800F0200040F0450007F8DB
:101CC000020D11A8C01BC01D02901398007800B12E
:101CD000012000EB0901019801EBE0710298014439
:101CE0000398401A401E0390E00306D45346214651
:101CF000179A039800F05CF805441398007818B11F
:101D00005246179990476D1CE00323D55346214650
:101D1000179A039800F04CF805441BE0BBF1000F44
:101D200007DB0098584504DD1098179910F80B0050
:101D300001E0179930205246904701980BF1010BB2
:101D4000401E05F10105019004D12E20524617993D
:101D500090476D1CB9F10001A9F10109DEDC05E035
:101D600017F8010B5246179990476D1C0299481EAF
:101D700002900029F4DC53462146179A03989EE608
:101D80002D0000002B000000200000002DE9F04194
:101D9000044600251E461746880404D405E039464B
:101DA0002020B0476D1C641EF9D52846BDE8F0819F
:101DB0002DE9F041044600251E469046C80301D592
:101DC000302700E02027880404D505E04146384646
:101DD000B0476D1C641EF9D52846BDE8F0810A683D
:101DE000531C0B601070704770B504460D46002000
:101DF0002071401EE0622946204600F0F9FD08B13E
:101E0000032070BD94F82E1294F82F0241EA0020AE
:101E10004AF65521884201D00220F2E794F8690081
:101E2000010694F8680041EA004194F8670041EA2D
:101E3000002094F86610084320F07F400D49884246
:101E400001D10020DDE794F88500010694F88400B4
:101E500041EA004194F8830041EA002094F882109E
:101E6000084320F07F400349884201D10020C8E7A1
:101E70000120C6E74641540010B56FF00400FFF79B
:101E8000B9F90A4800680A49B0FBF1F0094908703D
:101E90000846007800EB4001C1EBC0104FF6FF711F
:101EA00001EAC0000449088010BD000000000020C5
:101EB00000127A00280000202A0000200146114A62
:101EC00012884A434FF0E0235A6100229A611A4671
:101ED000126942F001021A6100BF4FF0E02210695E
:101EE00000F001021AB100F48032002AF5D04FF060
:101EF000E022126922F001024FF0E0231A61002271
:101F00009A6170472A00002070B50446002514B17C
:101F1000012C0DD10BE0FEF7F7FD054635B1FEF7BC
:101F200070FFFF20FEF762FFFEF766FF02E001E0B0
:101F3000012500BF00BF0DB1012070BD0020FCE7EE
:101F40002DE9F04107460D4616461C464FF00008A5
:101F500014B90420BDE8F08117B1012F1AD110E0A7
:101F6000E2B231462846FEF7CBFE8046B8F1000FBC
:101F700006D0FEF746FFFF20FEF738FFFEF73CFFD6
:101F80000BE003E0761C05F50075641E002CF9D10A
:101F9000A04602E04FF0010800BF00BFB8F1000FFB
:101FA00001D10020D6E70120D4E701460020704788
:101FB0002DE9F04107460D4616461C464FF0000835
:101FC00014B90420BDE8F08117B1012F10D106E04B
:101FD000E2B231462846FEF79FFF80460BE003E061
:101FE000761C05F50075641E002CF9D1A04602E0B0
:101FF0004FF0010800BF00BFB8F1000F01D1002071
:10200000E0E70120DEE72DE9FC4707460C461546D0
:10201000002000908046814601AA6946384600F0BB
:1020200051F806468EB901984069801E0199897859
:1020300000FB01F901988078009900FB01F84FEA54
:10204000590020604FEA580028603046BDE8FC8700
:1020500010B54FF40C7000F0E5FC164908604FF421
:102060000C7000F0DFFC134948604FF40A7000F078
:10207000D9FC114908604FF40A7000F0D3FC0F49F5
:1020800008604FF4007000F0CDFC0D49086009486D
:10209000006868B10748406850B10748006838B127
:1020A0000648006820B10846006808B1002010BD4D
:1020B0000120FCE7840100208C0100209001002019
:1020C0009C0100202DE9F74F82B08A46002202A928
:1020D000049800F0A7F8019004980468019800287B
:1020E0006DD1D4E90410801E814203D82069CAF85A
:1020F000000064E094F800B00026BBF1010F1CD191
:10210000022700BF3946204600F05EFA804608F1FB
:10211000010010B9012001900EE0B8F1010F02D1C9
:102120000220019008E0B8F1000F00D1761C781C65
:10213000074661698842E5D33AE06769206A009002
:102140004FF00009002500BFB9F1000F0ED1009833
:10215000421C01462046009200F04AFC0190019882
:1021600000B124E004F130054FF40079BBF1020F17
:1021700009D12878697840EA012000B9761CAD1CA5
:10218000A9F1020910E0E8780006A97840EA0140C8
:10219000697840EA01202978084320F0704000B9AE
:1021A000761C2D1DA9F10409781E071ECCD100BF95
:1021B0002661607940F001006071CAF80060019802
:1021C00005B0BDE8F08F0000F7B582B01646039861
:1021D000019001A800F06CFA0546002D02DA0B20F0
:1021E00005B0F0BD0E4850F825400CB1002020701D
:1021F000029810B10020029908700949029841F82C
:102200002500029808B1012E01D00020E8E7002245
:1022100003A902A800F006F807463846E0E70000E8
:10222000A00100202DE9F74F88B000210898016037
:10223000099800F03DFA07900798002803DA0B2070
:102240000BB0BDE8F08FD549079851F820400CB984
:102250000C20F5E708980460207878B16078FFF7E3
:10226000A4FE804608F0010040B90A9820B108F0A9
:10227000040008B10A20E3E70020E1E70020207015
:10228000079860706078FFF73FFE804608F0010015
:1022900008B10320D4E70A9820B108F0040008B17F
:1022A0000A20CDE7002739462046FFF79DFD054669
:1022B000012D01D06DBB2CE0002614E004F5F77170
:1022C00001EB0610017951B1C17A0A06817A42EA1E
:1022D0000142417A42EA0121027A114300E00021E1
:1022E0004DF82610761C042EE8D3002606B1761E83
:1022F00000BF5DF8267027B139462046FFF774FD10
:1023000000E0022005461DB1701C06460428F0D3EB
:1023100000BF032D01D1012092E70DB10D208FE701
:102320003B20015D94F83C0041EA0020B0F5007FBD
:1023300001D00D2084E74620015D94F8470041EA72
:102340000029B9F1000F0ED194F85700010694F856
:10235000560041EA004194F8550041EA002094F803
:10236000541040EA0109C4F818904020005DE07064
:10237000E078012804D0E078022801D00D205FE742
:10238000E07809FB00F93D20005DA070A07818B14D
:10239000A078411E084008B10D2051E74120015DA1
:1023A00094F8420041EA00202081207A00F00F00DA
:1023B00008B10D2044E74320015D94F8440041EA50
:1023C000002BBBF1000F0ED194F85300010694F8D6
:1023D000520041EA004194F8510041EA002094F88B
:1023E000501040EA010B3E20015D94F83F0041EAA5
:1023F00000200490049808B90D2021E7049848446F
:10240000218900EB111006900698834501D20D201A
:1024100016E70698ABEB0000A178B0FBF1FABAF131
:10242000000F01D10D200BE7012540F6F670824523
:1024300000D302254FF6F670824500D303250AF13A
:1024400002006061E76104983844206206983844CD
:10245000A062032D16D1208908B10D20F0E694F872
:102460005F00010694F85E0041EA004194F85D00C7
:1024700041EA002094F85C100843606260698000C3
:10248000059014E0208908B90D20D9E6206A484457
:102490006062022D02D16069400007E0207D00F0FB
:1024A0000100616901EB410100EB51000590A16958
:1024B000059800F2FF10B1EB502F01D20D20BFE6BE
:1024C0004FF0FF302061E06080206071032D5AD111
:1024D00094F8601094F8610041EA0020012852D17C
:1024E000791C204600F084FAE8BB0020607194F863
:1024F0002E1294F82F0241EA00204AF65521884214
:1025000041D13320005D01063220005D41EA0041E7
:102510003120005D41EA002094F830100843204942
:10252000884230D194F81702010694F8160241EA65
:10253000004194F8150241EA002094F8141208436F
:10254000184988421FD194F81B02010694F81A0218
:1025500041EA004194F8190241EA002094F8181267
:102560000843206100E00EE094F81F02010694F891
:102570001E0241EA004194F81D0241EA002094F84D
:102580001C120843E060257007480088401C80B298
:1025900005490880E080002052E60000A0010020EC
:1025A0005252614172724161A801002000BF054A88
:1025B000128802F04002002AF9D0C2B2014B1B1D62
:1025C0001A807047003801402DE9F04105460C465D
:1025D000022C02D36869A04202D80120BDE8F08134
:1025E0002878012804D002282CD003285AD13DE0B5
:1025F000274607EB5707286A00EB5721284600F0CB
:10260000F7F900B150E0C7F3080105F1300010F808
:1026100001807F1C286A00EB5721284600F0E8F96A
:1026200000B141E0C7F3080105F13000405C48EA21
:10263000002804F0010010B14FEA1810CEE7C8F3EB
:102640000B00CBE7286A00EB1421284600F0D0F9F4
:1026500000B129E040F2FF1000EA440105F130002A
:102660000E183078717840EA0120B7E7286A00EB4D
:10267000D411284600F0BCF900B115E040F2FF107B
:1026800000EA840105F130000E18F0780006B178F8
:1026900040EA0140717840EA01203178084320F097
:1026A00070409BE7012099E700BF4FF0FF3095E7AE
:1026B00070B502464FF0FF301568E5B1116800E0D3
:1026C000491C0D78202D02D30D783A2DF8D10D78C4
:1026D0003A2D0FD1146814F8015BA5F130030A2BD1
:1026E00007D28C4205D1022B03D218464D1C294635
:1026F000156070BD002000BFFBE7000086B0FEF74C
:1027000099F8FFF7B9FB4FF4A060FEF7E5F84FF436
:10271000165000F017FA00F001F915E049A0FEF795
:10272000E7FE4FF4FA70FFF7C9FB4BA0FEF7E0FE9F
:102730004FF4FA70FFF7C2FB4C48006808B901205B
:1027400000E0002049490860FEF7DEF90028E5D1E5
:1027500047A0FEF7CDFEFFF77BFC49490122086840
:1027600048A1FFF731FD15E047A0FEF7C1FE4FF489
:10277000FA70FFF7A3FB38A0FEF7BAFE4FF4FA7029
:10278000FFF79CFB3948006808B9012000E00020F1
:102790003649086004AA05A93FA0FFF734FC0028C9
:1027A000E2D14DE03D480088002849D04FF4FA704E
:1027B000FFF784FB3A493BA0FEF79AFE3AA138485E
:1027C000FDF7CBFCA8B94FF400513A48FEF72DF8BD
:1027D00036A0FEF78DFE0598810A37A0FEF788FE29
:1027E0000498810A3AA0FEF783FEC8212C48FDF721
:1027F000A2FC3DA12A48FDF7B0FCD0B94FF400512E
:102800002C48FEF710F839A0FEF772FEFEF732F9F9
:102810000446E10A37A0FEF76BFE6846FEF7ECF8C7
:102820000546294639A0FEF763FEC8211C48FDF77E
:1028300082FCC8211A48FDF77EFC00201749088059
:10284000B0E7000053442043617264204572726F08
:1028500072210D0A00000000506C65617365204311
:102860006865636B21200D0A00000000B40122425C
:1028700053442043617264204F4B0D0A0000000056
:1028800084010020303A000046617466732045726E
:10289000726F72210D0A0000300000002C00002031
:1028A000AC010020257300004C45445F4F46460DA7
:1028B0000A00000000100140534420546F74616C02
:1028C0002053697A65202564204D420D0A000000DE
:1028D000534420467265652053697A65202564203B
:1028E0004D420D0A000000004C45445F4F4E0D0A5A
:1028F00000000000534420436172642053697A65EC
:10290000202564204D420D0A0000000053445F431F
:102910004944206973202564200D0A0000B5094947
:102920004FF47072C868002100F08CF805494FF42C
:1029300070528868002100F085F801200149087470
:1029400000BD0000380000202DE9F04106460024BB
:10295000A0461A48007C10B91849086880471EB97B
:102960004FF0FF30BDE8F081C6F34F1506F01F00B1
:1029700008B1681C85B240F2DF141AE00F48C06845
:1029800030F8140020B908F101001FFA80F801E0C6
:102990004FF00008A8450BD1002705E00748C068A4
:1029A000E11920F811507F1CAF42F7D36001D9E73D
:1029B000641E002CE2DA4FF0FF30D3E7380000202D
:1029C0000022002106E00948C06830F8110000B17B
:1029D000521C491CB1F5F07FF5D3642050434FF4ED
:1029E000F073B0FBF3F0C0B2704700003800002075
:1029F00070B504460D46E06AA84210D0204600F0AB
:102A00002BF808B1012070BD607801232A4604F13B
:102A10003001FFF795FA08B10120F4E7E5620020E4
:102A2000F1E7000070B505462846FFF78DFF044624
:102A3000601C08B9002070BD014880682044FAE796
:102A40003800002030B5034601E003F8011B141ED6
:102A5000A2F10102F9D130BD70B504462079F8B178
:102A6000E56A607801232A4604F13001FFF7A0FAF5
:102A700008B1012070BD00202071206A281AA169C8
:102A800088420DD2E67809E0A06905446078012308
:102A90002A4604F13001FFF78BFA761E022EF3D29C
:102AA0000020E7E70FB430B58FB013A8019002A85B
:102AB000019A1299FEF72CFD0020019002A8FDF763
:102AC00045FB054600240CE000BF80210848FEF7C6
:102AD0003BFC0028F9D002A8015D0548FEF701FD86
:102AE000641CAC42F0DB0FB030BC5DF814FB00009E
:102AF000004400400FB430B58FB013A8019002A875
:102B0000019A1299FEF704FD0020019002A8FDF73A
:102B10001DFB054600240CE000BF80210848FEF79D
:102B200013FC0028F9D002A8015D0548FEF7D9FC86
:102B3000641CAC42F0DB0FB030BC5DF814FB00004D
:102B40000048004010B586B00446012144F204005C
:102B5000FDF7CEFE4FF40070ADF8140003208DF8A1
:102B6000160018208DF8170005A91C48FDF7D0FDA8
:102B70004FF48060ADF8140004208DF8170005A90B
:102B80001648FDF7C5FD25208DF8000003208DF8BF
:102B900001008DF8020001208DF803006846FDF762
:102BA00063FE01940020ADF80800ADF80A00ADF80E
:102BB0000C00ADF810000C20ADF80E0001A908487B
:102BC000FEF71EFC012240F225510548FEF7F3FBFB
:102BD00001210348FEF7ACFB06B010BD0008014020
:102BE000003801404D503100334732004D50320023
:102BF0004D5033004D5034004D344100574D41008D
:102C0000464C414300000000414343004C52430006
:102C1000430000004D494400474946004A5045479B
:102C2000000000004F4747004A504700480000009E
:102C300042494E0033475000424D50004E4553002C
:102C40005458540057415600682C000800000020DA
:102C5000AC010000B4060008E02C0008AC01002024
:102C60009C440000441500081184A24A046809012C
:102C7000020304060708090C69100510020406087F
:102C8000131D291B08C1041388021420883E42200A
:102C900013302CF92801200A310C340A313C341A43
:102CA00040341A10040A292C3C13E42B1B08EC04B2
:102CB0001AF0041AF4041AF8041A34401AE8081A2C
:102CC00024081A08041AFC0C1A44082A1458190477
:102CD0001A38041A28041A1C040A3118A8011C0006
:04000005080000ED02
:00000001FF
