:020000040800F2
:10000000D04A002075020008F51E0008231E0008D3
:10001000F11E0008B91C00085F3400080000000051
:10002000000000000000000000000000F52E0008A5
:10003000BD1C000800000000FD210008E12F0008A1
:100040008F0200088F0200088F0200089525000823
:100050008F0200088F0200088F0200088F0200083C
:100060008F0200088F0200088F0200088F0200082C
:100070008F0200088F0200088F0200088F0200081C
:100080008F0200088F0200088F0200088F0200080C
:100090008F0200088F0200088F0200088F020008FC
:1000A0008F0200088F0200088F0200088F020008EC
:1000B000453000088F0200088F0200088F020008F8
:1000C0008F0200088F0200088F0200088F020008CC
:1000D0008F020008F53100082D320008693200084F
:1000E0008F0200088F0200088F02000800F002F85B
:1000F00000F0B0F80AA090E8000C82448344AAF112
:100100000107DA4501D100F0A5F8AFF2090EBAE80F
:100110000F0013F0010F18BFFB1A43F0010318473B
:1001200028670000486700000A444FF0000C10F8F0
:10013000013B13F0070408BF10F8014B1D1108BF65
:1001400010F8015B641E05D010F8016B641E01F805
:10015000016BF9D113F0080F1EBF10F8014BAD1C55
:100160000C1B09D16D1E58BF01F801CBFAD505E073
:1001700014F8016B01F8016B6D1EF9D59142D6D3CD
:10018000704700000023002400250026103A28BFF5
:1001900078C1FBD8520728BF30C148BF0B607047F9
:1001A0006E2900F04983702900F05F81662905F00F
:1001B0006D83652905F06A83672905F067836129E6
:1001C00005F0668303681B0A28BF41F08001692996
:1001D00000F0D080642900F0CD80752900F0CA803D
:1001E0006F2900F04084782900F02B81E92900F084
:1001F000DB83E42900F0D883F52900F0D583EF29CB
:1002000000F03D84F82900F02A810368DB0928BF4B
:1002100041F08001632900F04A83732900F04F8385
:10022000E32901F03B80F32901F040800020704772
:100230001FB501F091F804000020002105F010FB2B
:10024000401C60600020002105F0F4FAE0601FBD52
:1002500010B510BD01F052F81146FFF7E9FF04F0A8
:1002600037FE01F02FF903B4FFF7F2FF03BC03F0F0
:100270006AF900000948804709480047FEE7FEE7A1
:10028000FEE7FEE7FEE7FEE7FEE7FEE7FEE7FEE746
:1002900004480549054A064B70470000E52F000851
:1002A000ED000008D0440020D04A0020D0460020B5
:1002B000D0460020704700001CB50C46064B7B441E
:1002C00069460090204600F0D0FA044600206946B6
:1002D00000F0DEFA20461CBDCF0500000FB4044933
:1002E00010B503AA029800F0EFFA10BC5DF814FBF9
:1002F000380000200FB41CB5084B06AA7B446946A1
:100300000090059800F0B1FA04460020694600F01C
:10031000BFFA20461CBC5DF814FB000091050000EC
:1003200070B50C460546012A05D02878800600D510
:10033000EA69002302E0012305E05B1C934202D23C
:10034000E05C0028F9D1A869E618C01AA861286AFB
:1003500018442862284600F0DDF904E0D5E90121BF
:1003600014F8010B9047B442F8D3284600F0E8F99E
:1003700070BD00002DE9F041064600241068752983
:10038000314616A510D000F0ECF9002802DA404200
:1003900013A507E031688A0701D512A502E04907D5
:1003A00004D511A5012401E000F0E4F900210A229E
:1003B00006F1240709E0B0FBF2FCB0FBF2F302FB0C
:1003C0001C00303078541846491C0028F3D12346CD
:1003D0002A463046BDE8F04100F0D5B900000000E3
:1003E0002D0000002B00000020000000F0B40D469E
:1003F0000188090502D5214C7C4402E01F4C7C4455
:100400000E34002100F1240608E002F00F07120963
:10041000E75D42EA03721B097754491C52EA03075D
:10042000F3D102780023120704D5702D06D009B14C
:10043000022311342246F0BC00F0A5B90123103488
:10044000F8E770B504460D462146106800F092F9B1
:10045000024629462046BDE870400023C6E7D21D6B
:1004600022F00703D3E90023C0E70368126843F0D2
:10047000200303600823C3610023B7E7A6620000DE
:100480002DE9F05F894604464FF0000ADFF874B1A9
:10049000FB44C0F820A02046E1688847002874D0BB
:1004A000252806D0D4E901219047206A401C20620B
:1004B000F1E700265F462046E16888472028054688
:1004C00007DB312D05D2781910F8200C08B106434E
:1004D000F1E7B00701D526F00406C4F81CA00027F8
:1004E000C4F818A02A2D09D0284603F025F838B3FF
:1004F00004EB8708303DC8F8185019E059F8041B80
:10050000204604EB87029161E1688847012F054688
:1005100018D1E069002820DA26F020061DE0D8F87E
:10052000180000EB800005EB40003038C8F81800D8
:100530002046E1688847054602F0FEFF0028EED11C
:10054000012F0AD02E2D08D12046E16888477F1C54
:100550000546022F46F02006C4DBA069002803DA16
:10056000404246F00106A061F00701D026F01006D7
:100570006C2D0BD0682D09D04C2D39D06A2D35D07B
:10058000742D35D07A2D33D016E038E0E1682F464F
:1005900020468847B842054609D16C2F26D04FF433
:1005A0008060E168064320468847054604E06C2FDA
:1005B0001AD04FF4807006430DB3A5F141001928FD
:1005C00002D8203546F400664A4629462046266071
:1005D0004E46FFF7E5FD80B101280BD0F61D26F051
:1005E000070000F1080956E74020E4E78020D8E73B
:1005F0000020D6E706F104094DE7284652E7206AB5
:10060000BDE8F09F3662000010B5431C02E010F810
:10061000011B71B18107FAD14FF0013202C88C1A67
:100620008C4314EAC211F9D0C01A0A0603D0C01EC6
:1006300010BDC01A10BD0A0401D0801E10BD0902F1
:10064000FCD0401E10BD4FF000020429C0F0128003
:1006500010F0030C00F02082CCF1040CBCF1020F6E
:1006600018BF00F8012BA8BF20F8022BA1EB0C014A
:1006700000F012BA5FEAC17C24BF00F8012B00F839
:10068000012B48BF00F8012B704700004FF0013CE0
:1006900050F8042B51F8043B9A4221D1A2EB0C03F1
:1006A000934313EACC1317D150F8042B51F8043BB1
:1006B0009A4215D1A2EB0C03934313EACC130BD14E
:1006C00050F8042B51F8043B9A4209D1A2EB0C03D9
:1006D000934313EACC13DBD04FF00000704700BF08
:1006E000D01A01BAB1FA81F101F0180122FA01F031
:1006F000CB40C1F12001DBB2C0B2C01A2CFA01F329
:10070000D11A914311EAC311E6D17047704770477F
:100710007047704770B5044685690068C10601D509
:10072000302600E02026C00707D070BDD4E90121A3
:1007300030469047206A401C20626D1EF6D570BD81
:1007400070B5044685690078C00707D170BDD4E94B
:10075000012120209047206A401C20626D1EF6D5A2
:1007600070BD09684A0501D540B27047C905FCD57E
:1007700000B2704709684A0501D5C0B27047C90583
:10078000FCD580B270472DE9F0470D469946924658
:10079000044600F124080168880604D5E06921F0C8
:1007A0001001216000E00120A84201DD471B00E0AC
:1007B0000027A1697A1902EB0900081AA0612078C4
:1007C000C00602D42046FFF7A5FF002608E0D4E9C2
:1007D00001211AF806009047206A401C761C20620E
:1007E0004E45F4DB2078C0060AD52046FFF792FF7D
:1007F00006E0D4E9012130209047206A401C2062A5
:10080000381EA7F10107F4DC07E0D4E9012118F84C
:1008100005009047206A401C2062281EA5F10105B2
:10082000F3DC2046FFF78CFF2078000602D502207B
:10083000BDE8F0870120FBE711680268006A5305F4
:1008400001D508700AE0D30501D5088006E013063B
:1008500003D5C217C1E9000200E00860012070471B
:1008600001694A1C02610878704700B58FB0CDE974
:1008700001310021059105497944CDE90310114664
:100880006846FFF7FDFD0FB000BD0000E5FFFFFF6C
:100890000A6802F8010B0A60704710B5436913B18A
:1008A000AFF3008001E0FFF73BFD012010BD12789F
:1008B00000F124010A7000224A700122EDE711685C
:1008C0004FF0FF32E9E70000074B70B50D467B445F
:1008D000FFF7CBFF0446284600F0ECFC10B14FF0C8
:1008E000FF3070BD204670BDDB4300002DE9FF5F87
:1008F00015468A460446DFF8AC80F8440027D8E95C
:1009000000103E46CDE9001010E03AF816106A4695
:1009100002A800F0D3FC411C07D02178890603D53A
:10092000E269391891420DD80744761C2078800678
:1009300002D5E069B84205DDAE42E6DB3AF81600C2
:100940000028E2D1A069C01BA0612046FFF7E2FEAB
:10095000D8E90010CDE90010002017E03AF818108F
:100960006A4602A800F0AAFCB0F1FF3F81460BD016
:1009700000250DF1080B05E0D4E901211BF8050065
:1009800090476D1C4D45F7D308F10100B0428046F9
:10099000E4DB206A384420622046FFF7D1FEBDE840
:1009A000FF9F0000DE5D00002DE9F0418046D21D72
:1009B00022F007020025D2E90002F52915A614D07D
:1009C000011E72F1000106DA0023D0EB030063EB95
:1009D000020211A608E0D8F800108B0701D50FA677
:1009E00002E0490701D50EA601251146002408F1B1
:1009F000240704E000F075F830323A55641C50EAE0
:100A00000102F7D12B46324621464046BDE8F0416F
:100A1000FFF7B9BE000000002D0000002B00000011
:100A20002000000030B4002100F1240408E002F0AE
:100A30000705D208303542EA4372DB086554491C89
:100A400052EA0305F3D10468002310A2250707D555
:100A5000A40600D421B1C46901230DA2641EC4619F
:100A600030BCFFF790BE10B5044621461068FFF772
:100A700081FE02462046BDE810400023D2E7D21D89
:100A800022F00701D1E90023CCE7000000000000BC
:100A9000300000004FF0000200B513469446964621
:100AA000203922BFA0E80C50A0E80C50B1F1200181
:100AB000BFF4F7AF090728BFA0E80C5048BF0CC02F
:100AC0005DF804EB890028BF40F8042B08BF70478D
:100AD00048BF20F8022B11F0804F18BF00F8012BFF
:100AE000704730B5B0F10A024FEA900E71F1000381
:100AF0004EEA817EB0EB0E0061EB91014FEA101ED1
:100B00004EEA017E10EB0E0041EB11114FEA102E60
:100B10004EEA016E10EB0E0041EB11214FEA104E30
:100B20004EEA014E10EB0E0041EB1141401841F12D
:100B300000014FEAD00040EA41704FEAD10110EBCA
:100B400080054FEA810444EA907444EB01046D1976
:100B500044EB0404521BA3414FF0000348BF0A3288
:100B600000D530BD401C41F1000130BD70472DE97A
:100B7000FF4F0C461E464FF0FF378BB0D2E9000105
:100B8000DDF860800A908A46C1F30A5505B93D46F2
:100B9000002108464FF00000BAF1000F00F44000B9
:100BA00005DA00EB80004FF4400101EA50004FEA03
:100BB0009059B9F1010F00DDB9460A9850EA4A0090
:100BC0000ED044F61050A5F2FF3545432F14B8F16E
:100BD000000F1ED07542291E1EDDC9F100021CE067
:100BE000B8F1010F4FF0000001D0302103E0F243D3
:100BF00005E02154401CB042FBDB304600220021BE
:100C000021540B99C1F80880C1E900200FB0BDE85C
:100C1000F08FBD1B6D1CDEE74A4600DA694206A86C
:100C200000F0DEFB06AB93E8070003AB83E80700A8
:100C300050460A9900F054FC8DE80700A0F50050DA
:100C40001F3800900398002D0ADD42F21F014A462A
:100C50000844002303A90390684600F0BDFE09E0A4
:100C6000A0F500504A461F38002303A903906846A8
:100C700000F0C7FE8DE807000004000C03D04FF021
:100C8000FF30410800E01046B8F1000F03D0002209
:100C9000009215461EE0751E05D4FFF722FF303284
:100CA00062556D1EF9D5B3460122084302D00022D9
:100CB0007F1C04E02078302801D100227F1E002A0A
:100CC000099784D01DE0112D07DAFFF70AFF3032B3
:100CD00062556D1C50EA0102F5D1084302D000981C
:100CE000C8B10EE00021681E05E0235C625C63541D
:100CF0002254401E491C8142F7DBAB46A81B401E14
:100D00000990002004F80B000B98099AC0F808809D
:100D1000C0E9002B7AE711264FF0000857E72DE9CC
:100D2000F04F88460446D21D22F0070191B0D1E968
:100D30000001CDE90A0102F0EBFB02460B98C00F5F
:100D400001D02D2007E02068810701D52B2002E08B
:100D5000202101EAC000032A099001D0072A05DBFF
:100D600003464146204600F0FBFA0BE1207880065E
:100D700001D5E06900E00620B8F1650F814606D094
:100D8000B8F1660F18D0B8F1670F70D131E00020CC
:100D9000B9F1110F009001DB112301E009F101030A
:100DA0000AAA01A90CA8FFF7E2FEDDE90C700026F3
:100DB00009F10105834647E001204B4600904FF0C2
:100DC00000470AAA01A90CA8FFF7D1FEDDE90DB082
:100DD0000C995D46002610B909F101000D18B9EB18
:100DE000050003D4C0F1FF3609F10105A5EB0900A8
:100DF0002BE0B9F1010F01DA4FF001090020B9F140
:100E0000110F0090484601DD112300E003460AAAB5
:100E100001A90CA8FFF7ABFEDDE90C704D460026DA
:100E20008346207800070AD4AB4500DA5D4601A866
:100E3000012D04DD411911F8011C302907D04F455F
:100E400002DA17F1040F04DA012082460FE06D1E6A
:100E5000EEE7002F02DCED1B3E4403E0781CA842C5
:100E600000DD7D1CB81B00F1010A4FF0004720781F
:100E7000000703D4AA4501DB4FF0FF3A0021B7F188
:100E8000004F0DF143088DF8431024D002202B238E
:100E9000002F01DA7F422D230A21021EA0F101005A
:100EA00000DC5FB197FBF1FC97FBF1F201FB1C7CCE
:100EB00017460CF1300C08F801CDEEE7A8F101005F
:100EC00003702188090501D5452100E06521A0F1C5
:100ED000010800F8011C09980FA9A1EB0807FF1DE4
:100EE00000B10120411901EBEA70A1693844081AE8
:100EF000401EA0612078C00602D42046FFF70AFCFD
:100F0000099828B1D4E901219047206A401C206249
:100F10002078C00622D52046FFF7FCFB1EE0002EFD
:100F200004DBB34502DD01A8805D00E03020D4E998
:100F300001219047206A401C2062761CAAF1010022
:100F40005FEA000A0AD100F007FAC0680168405C55
:100F5000D4E901219047206A401C2062281EA5F197
:100F60000105DCDC07E0D4E9012118F8010B90470A
:100F7000206A401C2062381EA7F10107F3DC2046DE
:100F8000FFF7DEFB032011B041E600002DE9F04F32
:100F900004460D46D21D22F0070089B0D0E9009723
:100FA0004846394602F0B4FA0246F80F01D02D2324
:100FB00007E02068810701D52B2302E0202101EA08
:100FC000C0038DF820300BB1012000E00020032A7F
:100FD000824601D0072A04DB2946204600F0C0F9EA
:100FE0003FE12078800601D40D2500E0E569C7F3D4
:100FF0000A560D2D49DA00214FEA175B08464FF0DB
:101000000000002F00F4400007DA00EB80004FF4EE
:10101000400100EBD07001EA60008115012901DD7B
:101020004FF0FF3100224FEA850CBCF1180F06D3B8
:101030001346ACF118004FF08052C24003E04FF469
:10104000801323FA0CF30CF10C0CBCF1200F04D329
:10105000ACF1200C09FA0CF001E007FA0CF00029C1
:101060004FF0004801DD18B90FE00ED140450CD318
:1010700019EB02095F4121B9404502D19F4329EA9A
:101080000209BBEB175F00D0761C2088000502D553
:101090007B48784402E07A487844193808AA30231B
:1010A00002F80A30037C0AF10101002E0AF1020A5B
:1010B00053546A4602DC4FF0300101E04FF0310139
:1010C0004FF001088DF8001002D0A6F2FF3603E0C1
:1010D00059EA470100D06B4E002D02DC2178090748
:1010E00004D54FF002082E218DF80110C4460021CE
:1010F0000BE0C7F303433F01C35C491C6D1E02F8BC
:101100000830052908F1010801DA002DF1DC002181
:101110000CE000EB1973491C1B786D1E082902F8BE
:1011200008304FEA091908F1010801DA002DF0DC56
:1011300021688B0602D516E0A8F10108E04505DD1F
:1011400002EB080313F8013C302BF5D0B8F1000F87
:1011500009DD02EB080313F8013C2E2B03D109072C
:1011600001D4A8F10108002D05DD3E2102F8081088
:101170006D1E08F10108407C002E02F8080008F1FD
:10118000010804DA2D20764202F8080002E02B2044
:1011900002F808000A214FF47A70864208F101082B
:1011A0000BDB96FBF0F3303302F8083096FBF0F3DC
:1011B00008F1010800FB136601E0642E0CDB6420DB
:1011C00096FBF0F3303302F8083096FBF0F308F1A9
:1011D000010800FB136601E00A2E06DB96FBF1F026
:1011E000303002F8080008F1010896FBF1F001FB2D
:1011F0001060303002F80800A16908F1010808EB1E
:10120000050202EB0A00081AA0612078C00602D489
:101210002046FFF77FFA216A08AE01EB0A00206240
:1012200004E0D4E9012116F8010B9047BAF1010A54
:10123000F7D22078C00602D52046FFF76BFA6E463B
:1012400009E016F8010B3E280FD0D4E901219047A0
:10125000206A401C2062B8F10108F2D22046FFF754
:101260006FFA09B00320BDE8F08F206A284420629D
:1012700003E0D4E90121302090476D1EEBD3F8E75D
:101280006156000002FCFFFF10B5436913B1AFF3D4
:10129000008001E0FFF72AFB012010BD128800F159
:1012A000240182840022C2840122EDE711684FF0FC
:1012B000FF32E9E7007B00F08000704770B516460A
:1012C0000C46054600F040F8036893F80101012838
:1012D00006D0FF2C0FD8185D68B101202C7070BDAE
:1012E000D3F807013246214603F207130344284688
:1012F000BDE8704018474FF0FF3070BD754600F0F4
:10130000EBF8AE4605006946534620F007008546D7
:1013100018B020B5FEF7BCFFBDE820404FF0000636
:101320004FF000074FF000084FF0000B21F00701CD
:10133000AC46ACE8C009ACE8C009ACE8C009ACE810
:10134000C0098D467047000010B500F005F8001D7B
:1013500010BD00BF0D450000004870478C440020C0
:101360002DE9F0411F46044603260168072A01F4CF
:10137000006004DB08B116A505E016A503E008B17E
:1013800015A500E015A521F010002060A069C01E81
:10139000A0610FB1401EA0612046FFF7BBF94FB11D
:1013A000D4E9012138469047206A401C2062C01CC5
:1013B000206206E0206AFAE7D4E9012115F8010B62
:1013C0009047761EF8D22046FFF7BAF9BDE8F081C3
:1013D0004E414E006E616E00494E4600696E6600D9
:1013E0002DE9F047814616468AB0354878440DC845
:1013F0008DE80D0032487844801C03AC0DC884E8A9
:101400000D0041F69B300844372190FBF1F290FB30
:10141000F1F5A5F1800501FB12041B3C02D56442E5
:10142000012000E00020DFF898A080460027FA4461
:10143000AAF1BE0A0EE0E0070AD03246684607EB82
:10144000470101230AEB810100F0DBFA8DE8070078
:1014500064107F1C002CEED1194F7F44AE3F19E081
:10146000E80715D007EB04100DF1180A90E80E00FC
:101470008AE80E00C068F04201D1981908903246FF
:10148000012306A903A800F0BCFA03AB83E8070018
:101490006D10641C002DE3D14FF001033246694604
:1014A000B8F1000F03A802D000F096FA01E000F0B6
:1014B000A8FAC9E90001C9F808200AB0BDE8F08718
:1014C0009853000010B50446AFF300802046BDE8F5
:1014D0001040FEF7C8BE0000004870476C44002072
:1014E0005FEA400C08BF91F0000F4FEA8C234FEAEF
:1014F000C12243EA51514FEA1C5018BF00F5F04099
:101500004FEA300018BF41F000415FEA6C5C00F028
:101510002980BCF1FF3F08BF40F080407047130CAA
:1015200006BF12044FF0100C4FF0000C130E04BF56
:1015300012020CF1080C130F04BF12010CF1040C81
:10154000930F04BF92000CF1020CD30F04BF5200A2
:101550000CF1010C11464FF00002A0F11F00A0EBAE
:101560000C00704711F0004F08BF704731F0004188
:101570003FF4D5AF0B0C06BF09044FF0100C4FF031
:10158000000C0B0E04BF09020CF1080C0B0F04BF7A
:1015900009010CF1040C8B0F04BF89000CF1020C43
:1015A000CB0F04BF49000CF1010CCCF12003A0EBE0
:1015B0000C0022FA03F302FA0CF241EA030100F1F3
:1015C0000100704720F07F4C80EA030023F07F4742
:1015D000ACEB070303F57C5300F0004003F1FF037D
:1015E0002DE980494FEA154B09B44FEA144325EA27
:1015F0000B4E24EA03480FF2042606EB1327490892
:101600003E785FEA320203FB0667C7F5000707FB77
:1016100006F64FEA54374FEAD64606F1020607FBB4
:10162000066CCCF1005C4FEA1C472CEA074C07FB28
:1016300006F40CFB06F504EB15464FEA961634BF8C
:1016400000204FF000404FEAD13706FB07FC4FEA7D
:101650001C4C0CFB0BF7D21B03FB0CF761EB0701D7
:101660000CFB0EF7B0EB074072EB17420CFB08F7D0
:1016700034BFA2EB0742B2EB074261EB17414FEADE
:101680000C444FEA910706FB07FC4FEA1C4C0CFB8D
:101690000BF7B0EBC74072EB573203FB0CF734BFCC
:1016A000A2EBC742B2EBC74261EB57310CFB0EF71E
:1016B000B0EBC70072EB57720CFB08F734BFA2EB1C
:1016C000C702B2EBC70261EB5771039F4FEA81611A
:1016D00041EA921104EBCC044FEAD1374FEA82621F
:1016E00006FB07FC42EA90124FEA80604FEA1C4C6E
:1016F0000CFB0BF7D21B03FB0CF761EB07010CFB98
:101700000EF7B0EB074072EB17420CFB08F734BF43
:10171000A2EB0742B2EB074261EB17414FEA8C554F
:101720004FEA910704EB9C2406FB07FC4FEA1C4C94
:101730000CFB0BF7B0EBC74072EB573203FB0CF717
:1017400034BFA2EBC742B2EBC74261EB57310CFB8F
:101750000EF7B0EBC70072EB57720CFB08F734BF03
:10176000A2EBC702B2EBC70261EB577115EB4C2538
:101770004FEA816141EA92114FEA82624FEAD13722
:1017800042EA901206FB07FC44F100044FEA806035
:101790004FEA1C4C0CFB0BF7D21B03FB0CF761EB65
:1017A00007010CFB0EF7B0EB074072EB17420CFB86
:1017B00008F734BFA2EB0742B2EB074261EB1741D7
:1017C00015EB1C154FEA813141EA92414FEA823212
:1017D00042EA90424FEA80304FEA0C7644F100042E
:1017E00048EA03434EEA0B484FF0000EB2EB080CF8
:1017F00071EB030724BF624639464EEB0E0E4FF0E5
:10180000000B0018524149414BEB0B0BB2EB080C9B
:1018100071EB03077BF1000B24BF624639464EEBA8
:101820000E0E4FF0000B0018524149414BEB0B0BD1
:10183000B2EB080C71EB03077BF1000B24BF62468F
:1018400039464EEB0E0E51EA020718BF46F001066C
:1018500016EB0E7655F1000254F1000103D5BDE8F8
:101860008901BDE80088BDE88901BDE80048B619D6
:10187000524141EB0101A3F10103704780807F7E5B
:101880007D7C7B7A797877767675747372717170F6
:101890006F6E6E6D6C6C6B6A6A69686867666665A8
:1018A0006464636362616160605F5F5E5E5D5D5C36
:1018B0005C5B5B5A5A5959585857575656555555A7
:1018C0005454535352525251515050504F4F4F4E07
:1018D0004E4D4D4D4C4C4C4B4B4B4A4A4A49494955
:1018E0004848484747474746464645454544444497
:1018F000444343434342424242414141002B9C46C0
:1019000030D477002BD01CB54FEA370703B44FF023
:1019100010004FF01001BAF1000F06D0BCF1000F1B
:10192000DCBF40F0080040F008014FF000000FBCA1
:10193000BDE810400BF1010BBBF1010F08BF5FEADE
:10194000170722BF12F1010211F101014FF000410E
:1019500043F1000300F0004043EA00007047F9D370
:101960005708D0E746EA064613F1400F4FEA1646FD
:101970001FDD13F1200FDFBF16430A46002120337D
:101980005B42BED0C3F1200746EA064602FA07F7DB
:101990004FEA164646EA0706C3F1200722FA03F289
:1019A00001FA07F721FA03F14FF0000342EA0702B8
:1019B000A7E746EA020646EA06464FEA164646EA20
:1019C0000106BCBF46EA0646360C4FF000034FF056
:1019D00000024FF0000194E72DE9804C9A469346AF
:1019E00070B491E8380007C831EA400C48BF34EAC7
:1019F000430C03D5FFF7E6FDFFF780FFF0BCBDE821
:101A0000008C2DE9804C9A46934670B491E83800DA
:101A100007C810F0804F08BF13F0804F03D100F0CB
:101A200005F8FFF76BFFF0BCBDE8008C20F07F47A6
:101A300080EA030023F07F4C07EB0C03A3F57C53F3
:101A400000F00040A3F1FE0392F0000F00F0B3801D
:101A500095F0000F00F077802DE901494FEA114021
:101A60004FEA144621EA004800FB06FC24EA064738
:101A700008FB06F607FB08F800FB07F718EB06481B
:101A80004CEB164C4FEA124B18EB07484FEA154641
:101A90004CEB174022EA0B4E0BFB06FC25EA0647EF
:101AA0000EFB06F607FB0EFE0BFB07F71EEB064EC2
:101AB0004CEB164C4FF000061EEB074E4CEB174B51
:101AC00018EB0B0840F1000018EB0E0B58EB000868
:101AD00040F100008F1A4FF000013CBFC943661B64
:101AE00014BFB5EB040C00213CBFC943F61B4FEA01
:101AF00017444EEA8E0E27EA04454FEA1C4704FBC2
:101B000007622CEA074C05FB07F70CFB05F604FB04
:101B10000CFC16EB074642EB174216EB0C4642EB69
:101B20001C421BEB060658EB0202414146EA9E06A8
:101B300001D5BDE80189B619524141EB0101A3F17C
:101B40000103BDE801894FEA14454FEA114724EA31
:101B5000054621EA074C05FB07F406FB07F70CFBDB
:101B600006F105FB0CFC11EB074144EB17444FEA6F
:101B7000124711EB0C4144EB1C4422EA074C05FBD5
:101B800007F206FB07F70CFB06F605FB0CFC16EB51
:101B9000074642EB174216EB0C4642EB1C456A180F
:101BA00054F1000148BF7047B619524141EB0101A1
:101BB000A3F10103704795F0000F37D04FEA1142AF
:101BC0004FEA144721EA024624EA074C02FB07F1D8
:101BD00006FB07F70CFB06F402FB0CFC14EB0744B6
:101BE00041EB17414FEA154714EB0C4441EB1C4104
:101BF00025EA074C02FB07F506FB07F70CFB06F688
:101C000002FB0CFC16EB074645EB174516EB0C46A2
:101C100045EB1C42121951F1000148BF7047B6193B
:101C2000524141EB0101A3F1010370474FEA144512
:101C30004FEA114724EA054621EA074C05FB07F164
:101C400006FB07F70CFB06F24FF0000605FB0CFC49
:101C500012EB074241EB174112EB0C4251EB1C41D6
:101C600048BF7047921841EB0101A3F1010370478F
:101C700010B5012000F0E4FA002000F0E1FA10BDF8
:101C800008B50146002000900348009000980844E1
:101C900000900098008808BD006C004008B5002244
:101CA0000092044A0092009A02440092009A116045
:101CB00008BD0000006C004000BFFEE7704700B5A3
:101CC000034603E04FF47A7000F005F8181EA3F104
:101CD0000103F7D100BD00EBC001C9004FF0E022C5
:101CE0005161002191610521116100BF4FF0E02198
:101CF000096901F480310029F8D004214FF0E02275
:101D0000116170472DE9F0410246002500260020B0
:101D100000230024002791F803C00CF00F0591F870
:101D200003C00CF0100CBCF1000F03D091F802C0FE
:101D30004CEA050591F800C0BCF1000F31D01468E1
:101D400000202BE04FF0010C0CFA00F3B1F800C0BA
:101D50000CEA03069E4220D183004FF00F0C0CFAD0
:101D600003F7BC4305FA03FC4CEA040491F803C0F2
:101D7000BCF1280F06D14FF0010C0CFA00FCC2F8A0
:101D800014C00AE091F803C0BCF1480F05D14FF030
:101D9000010C0CFA00FCC2F810C0401C0828D1D37A
:101DA0001460B1F800C0BCF1FF0F34DD54680020AE
:101DB0002EE000F1080C4FF0010808FA0CF3B1F81E
:101DC00000C00CEA03069E4221D183004FF00F0CA5
:101DD0000CFA03F7BC4305FA03FC4CEA040491F83F
:101DE00003C0BCF1280F05D100F1080C08FA0CF86B
:101DF000C2F8148091F803C0BCF1480F07D100F17C
:101E0000080C4FF0010808FA0CF8C2F81080401CCA
:101E10000828CED35460BDE8F0814161704701616C
:101E2000704700BFFEE7000010B502210748FFF72A
:101E3000F6FF01210548FFF7F2FF01210348FFF7F4
:101E4000ECFF02210148FFF7E8FF10BD0008014048
:101E500010B502210548FFF7E2FF01210348FFF713
:101E6000DCFF01210148FFF7DAFF10BD0008014047
:101E700010B502210348FFF7D2FF02210148FFF706
:101E8000CCFF10BD000801400146CA1701EB927259
:101E90009210A1EB820292B9642091FBF0F200FB58
:101EA000121050B94FF4C87091FBF0F200FB121001
:101EB00008B9012070470020FCE70120FAE7002064
:101EC000F8E7000008B50121102000F0A9F9102062
:101ED0008DF803004002ADF8000003208DF80200E9
:101EE00069460248FFF70EFF08BD000000100140E0
:101EF00000BFFEE77047000070B5002100230F22ED
:101F0000C47804B3154C246804F4E064C4F5E064B8
:101F1000210AC1F10403CA40447804FA03F1847829
:101F20001440214309010E4C0678A155047804F0B1
:101F30001F050124AC4005786D11AD0005F1E025C9
:101F4000C5F8004109E0047804F01F050124AC4005
:101F5000044D0678761145F8264070BD0CED00E082
:101F600000E400E080E100E002490143024A116020
:101F7000704700000000FA050CED00E070B5002489
:101F800018E004F1B000002100F025F90021084616
:101F900000F021F90021102000F01DF9002505E0D6
:101FA0000121002000F017F9681CC5B2802DF7DB75
:101FB000601CC4B2082CE4DB70BD000008B5012130
:101FC000042000F02DF90320ADF8000010208DF85A
:101FD000030003208DF8020069463C48FFF792FE9B
:101FE00003213A48FFF71BFF4FF44870FFF767FEE5
:101FF0000021AE2000F0EFF80021084600F0EBF8D9
:102000000021102000F0E7F80021402000F0E3F864
:102010000021B02000F0DFF80021812000F0DBF883
:102020000021FF2000F0D7F80021A12000F0D3F814
:102030000021A62000F0CFF80021A82000F0CBF866
:1020400000213F2000F0C7F80021C82000F0C3F8AD
:102050000021D32000F0BFF80021084600F0BBF8B3
:102060000021D52000F0B7F80021802000F0B3F85F
:102070000021D82000F0AFF80021052000F0ABF8D7
:102080000021D92000F0A7F80021F12000F0A3F8EA
:102090000021DA2000F09FF80021122000F09BF8C8
:1020A0000021DB2000F097F80021302000F093F8A9
:1020B00000218D2000F08FF80021142000F08BF813
:1020C0000021AF2000F087F808BD000000080140A3
:1020D00070B504460D4605F1B000002100F07BF814
:1020E000102141EA1410002100F075F804F00F00EF
:1020F000002100F070F870BD2DE9F04707460E464C
:102100009046994600250024A8F12000C5B27F2FF3
:1021100002DD0027B01CC6B2B9F1100F24D1314640
:102120003846FFF7D5FF002408E004EB0511194AF3
:10213000505C012100F04FF8601CC4B2082CF4DBA5
:10214000701CC1B23846FFF7C3FF002409E004EB5E
:10215000051108310F4A505C012100F03CF8601C69
:10216000C4B2082CF3DB12E031463846FFF7B0FF6B
:1021700000240AE005EB4501074A02EB4101085D36
:10218000012100F028F8601CC4B2062CF2DBBDE887
:10219000F0870000205B0008F85800082DE9F041A6
:1021A00004460F461546984600260FE0AA5D4346B2
:1021B00039462046FFF7A0FF04F10800C4B2782C8E
:1021C00002DD0024B81CC7B2701CC6B2A85D00288E
:1021D000ECD1BDE8F08170B504460D461DB1E0B20A
:1021E00001F080F902E0E0B201F066F970BD000094
:1021F000014908627047000000000E42704700006D
:1022000029B1064AD2690243044BDA6104E0034A69
:10221000D2698243014BDA6170470000001002402E
:1022200029B1064A92690243044B9A6104E0034AC9
:1022300092698243014B9A6170470000001002408E
:1022400001490860704700004004424230B5002157
:102250000022002400232D4D6D6805F00C0121B1F2
:10226000042905D0082923D105E0294D056022E085
:10227000274D05601FE0254D6D6805F47012234D54
:102280006D6805F48034022505EB92421CB9214D9E
:10229000554305600BE01D4D6D6805F400351DB11B
:1022A0001C4D5543056002E0194D5543056002E0A1
:1022B000174D056000BF00BF144D6D6805F0F001BB
:1022C0000909154D6B5C0568DD4045600F4D6D6873
:1022D00005F4E061090A104D6B5C4568DD408560DE
:1022E0000A4D6D6805F46051C90A0B4D6B5C456879
:1022F000DD40C560054D6D6805F44041890B074D13
:102300006B5CC568B5FBF3F5056130BD001002409C
:1023100000127A0000093D0000000020100000209B
:1023200010B501460022002300204A11012A02D1E3
:10233000094C236806E0022A02D1074C236A01E017
:10234000054C636A01F01F02012494401C400CB14B
:10235000012000E0002010BD0010024000210B4AC7
:1023600011700A4A203A82F82010012802D004286D
:1023700008D103E00121054A117004E00521034A58
:10238000117000E000BF00BF704700002010024045
:1023900001490860704700003C0442420249096A52
:1023A0000143014A11627047001002400249098846
:1023B0008143014A11807047042800400348008887
:1023C00040F01000014908807047000004280040D8
:1023D000034800884FF6EF710840014908807047B4
:1023E0000428004070B500260024002500F07AF88B
:1023F00006463848B6FBF0F437480088A0423CD087
:1024000035490C8040F2B27510E02846FFF73CFDDC
:1024100040B1B4F5B77F02D3A4F5B77404E0681CEB
:1024200085B206E0A4F26D14681C85B2B4F5B67FDF
:10243000EBD800BF29488580002516E02749888809
:10244000FFF722FD30B1012D04D11D2C01D31D3C1D
:1024500009E00CE02248405DA04203D82048405DDE
:10246000241A00E003E0681C85B21C2CE6D200BFF1
:10247000681C1A498871601CC8711648B6FBF0F1D7
:1024800000FB11644FF46160B4FBF0F01349087075
:102490004FF46160B4FBF0F100FB11403C21B0FB54
:1024A000F1F00E4948704FF46160B4FBF0F100FBAD
:1024B00011403C21B0FBF1F201FB1200074988708A
:1024C0000B46DA799979988800F028F80349087260
:1024D000002070BD8051010030000020C8010020A4
:1024E0001C610008002103480188001F008841EAA0
:1024F000004070471C28004001460020064A128810
:102500000A40D0B2044A121F12880A4012B108B120
:10251000012000E00020704704280040F0B5034689
:102520000C461546642093FBF0F0C6B2642093FB82
:10253000F0F700FB1730C1B2132E02DD01F1640089
:10254000C1B20846CF1701EB977701EBA707BAB2E4
:10255000072092FBF0F700FB172082B25719601E8C
:10256000DFF82CC01CF80000384482B2CF1701EB12
:102570009777BF10A1EB87071FB9032C01DA501E14
:1025800082B2072092FBF0F700FB1720C0B2F0BD2B
:102590001061000810B50120FFF7AEFF08B1FFF78A
:1025A00021FF0220FFF7A8FF10B10220FFF7FEFE77
:1025B0000520FFF7FBFE00F005F910BD29B1064A22
:1025C00012880243044B1A8004E0034A12888243B3
:1025D000014B1A8070470000002800401CB5002401
:1025E00001214FF0C050FFF70BFE0120FFF700FE66
:1025F0000420FFF745FB45F2500188423FD0FFF72A
:1026000037FB0120FFF7AAFE04E0601CC4B20A20D9
:10261000FFF755FB4120FFF783FE0028F5D0FA2C89
:1026200001DB01201CBD4FF48070FFF7B7FE0120D5
:10263000FFF7AEFE00F0C6F800F0CEF80121084624
:10264000FFF7BCFF00F0BEF8FFF7B8FE47F6FF70DB
:1026500000F0A8F800F0B6F83720122110230B2262
:10266000CDE900100C2140F2E77000F027F8FFF7E9
:10267000AFFE45F250010420FFF710FB07E000F029
:10268000ABF801210846FFF799FF00F09BF800F036
:1026900004F8FFF7A7FE0020C4E708B503208DF873
:1026A000000000208DF801008DF8020001208DF857
:1026B00003006846FFF720FC08BD00002DE9F05F2D
:1026C00006460F4690469946DDE90AAB002440F2E3
:1026D000B270864203DB40F63300864202DD012001
:1026E000BDE8F09F40F2B2750AE02846FFF7CCFB48
:1026F00010B12148044401E020480444681C85B21C
:10270000B542F2DB781EC7B2002510E01C48405DE0
:1027100040F2A321484304EBC0143046FFF7B4FB5A
:1027200018B1012D01D117480444681C85B2BD427F
:10273000ECDBA8F1010040F2A321484304EBC014F4
:10274000C9EB4910C0EB092004EB0014CAEB0A10D6
:1027500004EB80045C4401214FF0C050FFF750FDB2
:102760000120FFF745FD204600F00EF800F02AF8A2
:10277000FFF738FE0020B3E70085E2018033E10176
:102780001C6100088051010000B50246FFF716FEEB
:10279000100C03490880091D0A80FFF719FE00BDCF
:1027A0001828004000B50246FFF708FEC2F30340B8
:1027B00003490880091D0A80FFF70AFE00BD0000DA
:1027C0000828004000BF0348008800F020000028CF
:1027D000F9D0704704280040074800884FF6F77189
:1027E00008400549088000BF0348008800F0080041
:1027F0000028F9D0704700000428004010B50120DF
:1028000002490860FF2000F0E7F910BD9002214264
:1028100070B5054601220021092000F026FA044681
:1028200024B91021284600F09BF90446FFF7E6FF83
:102830000CB1012070BD0020FCE770B505464FF6D5
:10284000FF7401E0601E84B2FF2000F0C5F9A842C9
:1028500001D0002CF6D10CB9FF2070BD0020FCE7A0
:102860007FB56846FFF7D4FF28B11CA0FDF736FD01
:10287000002004B070BD9DF8000000F0C0004028AA
:1028800009D19DF809009DF8081000EB0120401CBB
:1028900084B2A50220E09DF8050000F00F009DF82D
:1028A0000A1000EBD1109DF8091001F0030100EBB4
:1028B0004100861C9DF8080080119DF8071000EB70
:1028C00081009DF8061001F0030100EB8120441CFB
:1028D000A6F1090004FA00F52846CAE74765742006
:1028E00043534420736967616C206661696C0D0A0B
:1028F00000000000F8B500F04FF900F078F900256D
:1029000004E0FF2000F068F9681C85B20A2DF8DBAE
:10291000142600BF95220021084600F0A6F90446BF
:10292000012C04D0301EA6F101018EB2F2D100209C
:1029300057490870012C4DD187224FF4D5710820DA
:1029400000F093F901284DD1002506E0FF2000F0AA
:1029500043F90DF80500681C85B2042DF6DB9DF8DF
:1029600002000128E7D19DF80300AA287ED14FF686
:10297000FE7600BF01220021372000F076F9012207
:102980009107292000F071F9044624B1301EA6F108
:1029900001018EB2EED1002E68D0012200213A2032
:1029A00000F063F9002861D1002506E0FF2000F067
:1029B00013F90DF80500681C85B2042DF6DB9DF8AF
:1029C000000000F0400030B106203149087031A00D
:1029D000FDF784FC4AE004202D49087033A0FDF780
:1029E0007DFC43E001220021372000F03EF9012266
:1029F0000021292000F039F90446012C1ADC0220BC
:102A0000234908702FA0FDF769FC4FF6FE7600BF42
:102A100001220021372000F028F90122002129207D
:102A200000F023F90446BCB1301EA6F101018EB2BC
:102A3000EED111E00120164908704FF6FE7600BF76
:102A400001220021104600F010F9044624B1301E86
:102A5000A6F101018EB2F3D12EB101225102102054
:102A600000F003F910B1002009490870FFF7C6FE15
:102A700000F0BDF819A0FDF731FC0548007808B159
:102A80000020F8BD0CB12046FBE7AA20F9E70000C2
:102A90003C000020546869732053442063617264D1
:102AA0002069732056322E780D0A0000546869732D
:102AB00020534420636172642069732056322E30A3
:102AC0000D0A0000546869732053442063617264E6
:102AD0002069732056312E780D0A00005350495F4B
:102AE000496E697465640D0A000000002DE9F0412B
:102AF00006460F46154619480078062800D07F0282
:102B0000012D0CD101223946112000F0AEF8044607
:102B1000FCB96902304600F023F8044619E00122AE
:102B20003946122000F0A1F8044600BF4FF40071AE
:102B3000304600F015F8044606F50076681EC0B26F
:102B4000051E01D0002CF1D0012200210C2000F044
:102B50008CF8FFF753FE2046BDE8F0813C000020D2
:102B600070B504460D46FE20FFF767FE08B1012050
:102B700070BD04E0FF2000F049F92070641C281E9D
:102B8000A5F101018DB2F5D1FF2000F025F8FF205D
:102B900000F022F80020EBE708B501210420FFF740
:102BA0003FFB1C20ADF8000010208DF8030003202F
:102BB0008DF8020069460648FFF7A4F81C21044876
:102BC000FFF72DF900F0E6F801200249086008BD82
:102BD000000801409002214210B50446204600F052
:102BE00015F910BD10B5002000F03AF910BD10B570
:102BF000382000F035F910BD10B5002005490860F7
:102C000000F06FF808B9002010BDFFF7F7FD0120B4
:102C1000FAE700009002214270B506460D4600F02A
:102C200060F808B1012070BD2846FFF7D5FFFD2DE3
:102C300019D0002404E0305D00F0E8F8601C84B294
:102C4000B4F5007FF7DBFF20FFF7C6FFFF20FFF79B
:102C5000C3FFFF20FFF7C0FF044604F01F00052854
:102C600001D00220DFE70020DDE72DE9F041054635
:102C70000C4617464FF00008FFF7C0FDFFF7BCFFFA
:102C800010B1FF20BDE8F08145F04000FFF7A4FF40
:102C9000200EFFF7A1FFC4F30740FFF79DFFC4F329
:102CA0000720FFF799FFE0B2FFF796FF3846FFF7DE
:102CB00093FF0C2D02D1FF20FFF78EFF4FF01F086E
:102CC00000BFFF20FFF788FF064606F0800030B106
:102CD000B8F10000A8F1010101F0FF08F1D1304680
:102CE000D0E710B5002400BFFF20FFF775FFFF28D5
:102CF00001D1002010BD641C6FF07F408442F3D3EB
:102D00000120F7E72DE9F04106460F461546204819
:102D10000078062800D07F02012D0CD1012239460F
:102D20001820FFF7A2FF04466CBBFE213046FFF7D8
:102D300073FF044627E016480078012809D00122D5
:102D400000213720FFF791FF012229461720FFF7C6
:102D50008CFF012239461920FFF787FF044694B9FA
:102D600000BFFC213046FFF757FF044606F500760A
:102D7000681EC0B2051E01D0002CF2D0FD2100203B
:102D8000FFF74AFF0446FFF739FD2046BDE8F08112
:102D90003C00002008B5012141F20400FFF740FA91
:102DA000E020ADF8000018208DF8030003208DF816
:102DB000020069461248FEF7A5FFE0211048FFF720
:102DC0002EF800200F4908804FF4827048800020C0
:102DD00088800220C8800120088140024881382074
:102DE00088810020C88107200882074800F064F825
:102DF0000121054800F046F8FF2000F007F808BD63
:102E000000080140D20100200030014070B50546A5
:102E1000002405E0601CC4B2C82C01DD002070BD98
:102E200002210E4800F03AF80028F3D029460B485A
:102E300000F040F8002405E0601CC4B2C82C01DD9D
:102E40000020ECE70121054800F028F80028F3D025
:102E5000024800F02CF8C0B2E1E700000030014069
:102E600010B50446054884810146054800F024F861
:102E70000121034800F006F810BD0000D201002037
:102E80000030014021B1028842F04002028004E09B
:102E900002884FF6BF731A40028070470246002036
:102EA00013890B400BB1012000E000207047014660
:102EB000888970478181704710B50022028802F42A
:102EC00041520B884C8823438C882343CC8823436E
:102ED0000C8923434C8923438C892343CC89234386
:102EE0001A430280838B4FF2FF74234083830B8A43
:102EF000038210BD704710B500F002F810BD00004D
:102F00000CB50020019000903348006840F48030F8
:102F10003149086000BF3048006800F4003000907C
:102F20000198401C0190009818B90198B0F5A06F65
:102F3000F1D12948006800F4003010B10120009060
:102F400001E0002000900098012843D12348006848
:102F500040F01000214908600846006820F0030096
:102F600008600846006840F0020008601A4840689F
:102F7000194948600846406848600846406840F47F
:102F8000806048600846406820F47C10486008462D
:102F9000406840F4E81048600846006840F08070DF
:102FA000086000BF0C48006800F000700028F9D0ED
:102FB0000948406820F00300074948600846406817
:102FC00040F00200486000BF0348406800F00C0079
:102FD0000828F9D10CBD000000100240002002407A
:102FE0007047000010B51348006840F00100114917
:102FF000086008464068104908400E494860084685
:1030000000680E4908400B4908600846006820F433
:10301000802008600846406820F4FE0048604FF4B5
:103020001F008860FFF767FF4FF0006004490860E9
:1030300010BD0000001002400000FFF8FFFFF6FE88
:1030400008ED00E010B50121880700F021F8012803
:1030500008D10548007B401C0349087301218807FB
:1030600000F007F810BD0000B8010020CA4302823A
:103070007047CA430282704721B1028842F00102C0
:10308000028004E002884FF6FE731A400280704707
:1030900030B50246002000230024158A05EA01030A
:1030A000958905EA010413B10CB1012000E000206C
:1030B00030BD1AB183890B43838102E083898B433E
:1030C0008381704701894FF6F87211400181704782
:1030D000002202881D4B98420ED01D4B98420BD007
:1030E000B0F1804F08D01B4B984205D01A4B984244
:1030F00002D01A4B984204D14FF68F731A404B8876
:103100001A43174B984207D0164B984204D04FF6FB
:10311000FF431A40CB881A4302808B8883850B8833
:1031200003850A4B98420BD0094B984208D00E4BAE
:10313000984205D00D4B984202D00D4B984201D1D8
:103140000B7A03860123838270470000002C014024
:10315000003401400004004000080040000C004022
:1031600000100040001400400040014000440140B5
:10317000004801401FB501210846FFF741F84FF014
:103180008040FFF79FFF0020ADF80A00ADF8060071
:1031900042F20F70ADF8080041F61F40ADF8040090
:1031A00000208DF80C0001A94FF08040FFF790FF40
:1031B00001218807FFF75AFF012211469007FFF708
:1031C00078FF4FF4A060FEF7CFFE1C208DF80000C2
:1031D00001208DF8030002208DF8010001208DF8F8
:1031E00002006846FEF788FE01218807FFF744FFCA
:1031F0001FBD000010B540F22551094800F06BF8E2
:1032000060B1074800F022F9C4B2064806490988AF
:10321000445405480088401C0349088010BD000044
:1032200000380140E40100203400002010B540F2D5
:103230002551064800F04FF838B1044800F006F96F
:10324000C4B2214602A002F039FA10BD0044004089
:10325000CAD5B5BDC1CBD2BBB8F6D7D6B7FB3A20DD
:1032600025630D0A0000000010B540F22551064804
:1032700000F031F838B1044800F0E8F8C4B2214653
:1032800002A002F043FA10BD00480040CAD5B5BD07
:10329000C1CBD2BBB8F6D7D6B7FB3A2025630D0A0F
:1032A0000000000021B1828942F40052828104E0D2
:1032B00082894DF6FF731A408281704702460020D2
:1032C000B1F5007F00D100BF13880B400BB1012086
:1032D00000E00020704770B502460024002300255E
:1032E000002040F66A16B14200D100BFC1F342157A
:1032F00001F01F03012606FA03F3012D02D196897E
:10330000334006E0022D02D1168A334001E0968A4E
:1033100033400C12012606FA04F41688344013B127
:103320000CB1012000E0002070BDF0B50346002480
:1033300000260025002040F66A17B94200D100BFE0
:103340001846C1F3421401F01F06012707FA06F5DB
:10335000012C01D10C3004E0022C01D1103000E02E
:1033600014301AB107682F43076002E00768AF43C3
:103370000760F0BD2DE9F04786B005460E460024F3
:10338000A24600BFA1460027B08900B100BF2F466A
:103390002C8A4CF6FF700440F08804432C82AC89E0
:1033A0004EF6F3100440B088318908437189084310
:1033B0000443AC81AC8A4FF6FF400440B08904431B
:1033C000AC8201A8FEF742FF1F48874202D1DDF818
:1033D00010A001E0DDF80CA0A88900F4004040B185
:1033E0000AEBCA0000EB0A1031684900B0FBF1F8A3
:1033F00007E00AEBCA0000EB0A1031688900B0FB55
:10340000F1F86420B8FBF0F004012009642101FB0D
:103410001089A88900F4004040B1322000EBC900B7
:10342000B0FBF1F000F00700044308E0322000EBAD
:1034300009106421B0FBF1F000F00F0004432C816F
:1034400006B0BDE8F08700000038014001468888DA
:10345000C0F308007047C1F308028280704700BFC4
:10346000FEE700002DE9F04105462C4602211148F7
:10347000FEF7D3FC002619E0274607F08007802FCF
:1034800004D101210B48FEF7CAFC03E001210948E1
:10349000FEF7C3FC6006040E02210648FEF7BFFCDF
:1034A00002210448FEF7B9FC701CC6B2082EE3DB0B
:1034B000BDE8F0810008014010B50446FEF7B4FCF9
:1034C0007820FFF7CFFFFEF7D3FC0020FFF7CAFFFD
:1034D000FEF7CEFC2046FFF7C5FFFEF7C9FCFEF75E
:1034E000B7FC10BD10B50446FEF79EFC7820FFF730
:1034F000B9FFFEF7BDFC4020FFF7B4FFFEF7B8FCB4
:103500002046FFF7AFFFFEF7B3FCFEF7A1FC10BDAE
:10351000490050EAC12018BF04204A0D18BF40F0EE
:10352000010040F2FF72B2EB515F08BF40F00200B1
:10353000012808BF0520704730380A2801D2012031
:1035400070470020704700BF7047000070B5044608
:103550000D4600202071401EE0622946204601F001
:1035600005FF08B1032070BD94F82E1294F82F02C5
:1035700041EA00204AF65521884201D00220F2E7B4
:1035800094F86900010694F8680041EA004194F853
:10359000670041EA002094F86610084320F07F405D
:1035A0000D49884201D10020DDE794F8850001062D
:1035B00094F8840041EA004194F8830041EA002035
:1035C00094F88210084320F07F400349884201D1DB
:1035D0000020C8E70120C6E746415400024600E04B
:1035E000521C107810B110788842F9D110787047C9
:1035F00070B503460D46586A021D680A1E68B67803
:10360000B0FBF6F400BF02CA09B9002070BD8C42BD
:1036100000D202E0641A121DF5E700BF10682044D2
:10362000F4E70246891E5069801E884201D80020B6
:1036300070479378906A01FB0300F9E72DE9F047A2
:1036400005460C46207820F04000401E00EB80012B
:1036500001EBC00600274FF0010800BF1A48C05D0B
:10366000205C1949C95D2144497840EA0129B8F133
:10367000000F10D0484601F0B1F88046FF2E07D267
:103680003146761C35F8110001F0A8F8404508D005
:103690000020BDE8F0874FF6FF70814501D0002083
:1036A000F7E7781C07460D28D8D3207800F04000B3
:1036B00038B1B8F1000F04D035F8160008B1002079
:1036C000E7E70120E5E70000A86100082DE9F047E1
:1036D00004468946B9F1000F06D1E76817B1606961
:1036E000B84215D8012713E04946204601F044FBB3
:1036F0000646022E02D20120BDE8F087701C08B9F0
:103700003046F9E76069B04201D93046F4E74F46E8
:103710003D4600BF6D1C6069A84204D80225BD4229
:1037200001D90020E8E72946204601F025FB06469E
:1037300006B909E0701C08B1012E01D13046DBE763
:10374000BD42E7D10020D7E700BF6FF070422946A5
:10375000204601F03FFE8046B8F1000F08D1B9F1D4
:10376000000F05D02A464946204601F033FE804628
:10377000B8F1000F0BD1E5602069401C78B12069D9
:10378000401E2061607940F00100607107E0B8F1EF
:10379000010F02D14FF0FF3000E00120054628461E
:1037A000AAE700002DE9F34F83B082460498D0F8D1
:1037B00000B001E00BF1010B9BF800002F28F9D0BD
:1037C0009BF800005C28F5D0DAF81C9000252E4606
:1037D00000BF3046761C1BF80040202C03DB2F2C4A
:1037E00001D05C2C00D11CE0FF2D03D3062005B0D6
:1037F000BDE8F08FE4B20121204600F0C9FF044685
:103800000CB90620F3E7802C06DA21466BA0FFF7FF
:10381000E5FE08B10620EAE728466D1C29F81040AD
:10382000D7E700BF0BEB060104980160202C01DAFA
:10383000042000E00020074608E0681E39F8104028
:10384000202C02D02E2C00D002E06D1E002DF4D1D1
:1038500000BF0DB90620CAE7002029F815000B2289
:103860002021DAF8180001F077FD002600E0761C30
:1038700039F816002028FAD039F816002E28F6D08C
:103880000EB147F0030700E06D1E25B1681E39F840
:1038900010002E28F8D14FF00008CDF8088008203D
:1038A000019000BF3046761C39F8104004B955E04D
:1038B000202C03D02E2C04D1AE4202D047F00307B7
:1038C000F0E7DDE90110884201D2AE4216D101983D
:1038D0000B2802D147F0030740E0AE4201D047F089
:1038E0000307AE4200D939E02E46082002900B2093
:1038F00001904FEA88604FEA1068D3E7802C0BDB19
:103900000021204600F044FF04461CB1A4F18000D1
:103910002D490C5C47F0020700BF24B121462BA0C3
:10392000FFF75CFE18B15F2447F003070FE0412C5E
:1039300004DB5A2C02DC48F0020808E0612C06DBAC
:103940007A2C04DC48F00108A4F1200084B2DAF8F3
:1039500018300298411C02911C54A3E700BFDAF80A
:1039600018000078E52803D10520DAF8181008704F
:103970000198082803D14FEA88604FEA106808F0E0
:103980000C000C2803D008F00300032801D147F0F5
:10399000020707F0020058B908F00300012801D11E
:1039A00047F0100708F00C00042801D147F0080781
:1039B000DAF81800C772002019E70000222A3A3C02
:1039C0003E3F7C7F00000000286100082B2C3B3D1F
:1039D0005B5D00002DE9F04104460E4600212046C3
:1039E00000F0B2F90546EDB9002700BF2169206853
:1039F00001F0BCFC054605B113E060690078E528DC
:103A000002D06069007820B9781C0746B04201D125
:103A100007E000270121204600F079F80546002D37
:103A2000E4D000BF042D00D107252846BDE8F08171
:103A30002DE9F04704460021204600F085F90746AD
:103A400017B13846BDE8F0874FF0FF09CA4600BFFE
:103A50002169206801F08AFC074607B154E06569D6
:103A60002E780EB904274FE0E87A00F03F08E52EE3
:103A700005D008F0080028B1B8F10F0F02D04FF0C0
:103A8000FF093AE0B8F10F0F1CD1E069A0B306F0CE
:103A9000400030B195F80DA026F04006B146E08810
:103AA00020844E450AD1687B504507D12946E069FC
:103AB000FFF7C4FD10B1A9F1010000E0FF2000F004
:103AC000FF091AE0B9F1000F05D1284601F05BFDAE
:103AD000504500D118E04FF0FF094FF6FF702084E9
:103AE000A069C07A00F0010030B90B222846A16914
:103AF00001F0A8FB00B907E0FFE70021204600F035
:103B000006F80746002FA3D000BF38469AE72DE9F4
:103B1000F04104468846E088461CB0B208B12069EE
:103B200010B90420BDE8F08106F00F0000286CD128
:103B30002069401C2061E06828B920680089B042F3
:103B400063D80420EEE720688078401E00EA161053
:103B500000285AD1E168206801F00EF90546012DD0
:103B600001D80220DEE7681C08B90120DAE72068E6
:103B70004069A84243D8B8F1000F01D10420D1E731
:103B8000E1682068FFF7A2FD05460DB90720C9E7E7
:103B9000012D01D10220C5E7681C08B90120C1E749
:103BA000206801F064FD08B10120BBE7216801F144
:103BB00030004FF40072002101F0CEFB294620684E
:103BC000FFF72FFD2168C86200270EE00120216861
:103BD0000871206801F04BFD08B10120A2E72068C0
:103BE000C06A401C2168C8627F1C20688078B84287
:103BF000ECD82068C06AC01B2168C86200BFE560BD
:103C000029462068FFF70DFD2061E68020683030EE
:103C100006F00F0100EB41106061002082E72DE902
:103C2000FE4F0446D4F81880D4F81C900C2241466C
:103C3000684601F01AFB00BF9DF80B0000F0010080
:103C400020B3002088F80B00E06101260CE0334629
:103C50004A466946404601F037F82046FFF7E8FE3D
:103C6000054605B102E0761C642EF0D300BF642E39
:103C700002D10720BDE8FE8F042D01D02846F9E7C8
:103C80009DF80B0088F80B00C4F81C909DF80B0001
:103C900000F0020060B1002600E0761C39F8160042
:103CA0000028FAD106F119000D21B0FBF1F700E070
:103CB000012739462046FFF78DFE054645BB781E95
:103CC000071E25D0E088C11B204600F03DF80546C0
:103CD000F5B9A06901F057FC824600BF2169206850
:103CE00001F044FB054605B111E0FAB253466169A3
:103CF000E06900F053FF012021680871002120468F
:103D0000FFF705FF054615B9781E071EE6D100BF6F
:103D1000C5B92169206801F029FB054695B9202223
:103D20000021606901F018FB0B22D4E9050101F0C4
:103D30009CFAA069C07A00F018006169087301203C
:103D400021680871284695E72DE9F04104460E46A2
:103D5000E680A568012D03D020684069A84202D8FA
:103D60000220BDE8F0812DB920680078032801D138
:103D70002068456A45B920680089B04201D8022010
:103D8000EFE72068476A1EE0206880784FEA001855
:103D900012E02946206800F0EFFF0546681C08B9CC
:103DA0000120DEE7022D03D320684069A84201D834
:103DB0000220D6E7A6EB08064645EAD22946206847
:103DC000FFF72FFC0746E5600FB90220C9E707EBB4
:103DD000161020612068303006F00F0100EB411012
:103DE00060610020BDE770B5054615B1012D0DD10C
:103DF0000BE0FEF77FFD044634B1FEF7F8FEFF202E
:103E0000FEF7EAFEFEF7EEFE00E000BF00BF0CB1D9
:103E1000012070BD0020FCE72DE9F04106460F4669
:103E200015462EBB37B1012F1AD0022F0FD0032F0A
:103E30001BD111E000201F490860FEF752FF08B9AE
:103E4000002400E0012401201A4908600FE04FF42B
:103E50000070288000240AE008202880002406E062
:103E6000FEF7FEFC2860002401E0042400BF1DE0F2
:103E7000012E1AD137B1012F0FD0022F04D0032FFA
:103E800010D106E000240FE04FF4007028800024D9
:103E90000AE008202880002406E0074800882860FF
:103EA000002401E0042400BF00E001242046BDE816
:103EB000F081000090022142A80100202DE9F0418C
:103EC00006460F4690461C4614B90420BDE8F08112
:103ED00016B1012E14D111E0E2B241463846FEF788
:103EE00005FE054645B1FEF782FEFF20FEF774FE93
:103EF000FEF778FE0320E9E70020E7E70020E5E78A
:103F00000420E3E770B50446002514B1012C0DD15F
:103F10000BE0FEF7EFFC054635B1FEF768FEFF202B
:103F2000FEF75AFEFEF75EFE02E001E0012500BF4B
:103F300000BF0DB1012070BD0020FCE72DE9F0416C
:103F400007460D4616461C464FF0000814B90420DB
:103F5000BDE8F08117B1012F10D106E0E2B2314681
:103F60002846FEF7CFFE80460BE003E0761C05F501
:103F70000075641E002CF9D1A04602E04FF0010844
:103F800000BF00BFB8F1000F01D10020E0E7012021
:103F9000DEE72DE9FC4707460C4615460020009059
:103FA0008046814601AA6946384600F061F8064617
:103FB0008EB901984069801E0199897800FB01F94A
:103FC00001988078009900FB01F84FEA59002060C1
:103FD0004FEA580028603046BDE8FC8710B54FF422
:103FE0000C7001F0DDF9164908604FF40C7001F017
:103FF000D7F9134948604FF40A7001F0D1F911491B
:1040000008604FF40A7001F0CBF90F4908604FF4D3
:10401000007001F0C5F90D4908600948006868B1F1
:104020000748406850B10748006838B10648006842
:1040300020B10846006808B1002010BD0120FCE74F
:104040008C0100209401002098010020A401002090
:1040500070B50546284600F049FA044634B92846AA
:1040600001F0CCFB04460CB900202860204670BD4E
:104070002DE9F74F82B08A46002202A9049800F089
:10408000C9FB019004980468019800286DD1D4E917
:104090000410801E814203D82069CAF8000064E041
:1040A00094F800B00026BBF1010F1CD1022700BF1D
:1040B0003946204600F060FE804608F1010010B944
:1040C000012001900EE0B8F1010F02D10220019011
:1040D00008E0B8F1000F00D1761C781C0746616932
:1040E0008842E5D33AE06769206A00904FF0000902
:1040F000002500BFB9F1000F0ED10098421C014607
:104100002046009201F032F90190019800B124E0BC
:1041100004F130054FF40079BBF1020F09D1287882
:10412000697840EA012000B9761CAD1CA9F10209AA
:1041300010E0E8780006A97840EA0140697840EA92
:1041400001202978084320F0704000B9761C2D1D0D
:10415000A9F10409781E071ECCD100BF2661607941
:1041600040F001006071CAF80060019805B0BDE838
:10417000F08F0000F7B582B016460398019001A8B1
:1041800000F070FE0546002D02DA0B2005B0F0BDF0
:104190000E4850F825400CB100202070029810B154
:1041A0000020029908700949029841F825000298F8
:1041B00008B1012E01D00020E8E7002203A902A8DF
:1041C00000F028FB07463846E0E70000AC0100207D
:1041D0002DE9F7438CB0054616461DB909200FB0EE
:1041E000BDE8F0830020286006F01F0626F00102DB
:1041F0000DA903A800F00EFB0746002F7ED1CDF8D5
:1042000024D04D480A9003A80D9900F007FD0746F9
:10421000089C0FB904B9062706F01C00002851D0ED
:104220004FB1042F03D103A8FFF7F9FC074646F06E
:104230000806089C09E0E07A00F0110008B10727A1
:1042400003E006F0040000B10827002F39D106F082
:104250000800002835D000F003FE804684F80E8068
:104260004FEA1821E1734FEA184121744FEA1861AF
:1042700061740020E072207700216177A177E177F7
:104280002146039800F013FE81460021204601F0EC
:1042900072F9012003990871B9F1000F11D0039848
:1042A000D0F82C804946039801F02FF9074647B90A
:1042B000A9F101000399C8604146039801F056F83E
:1042C00007460EE06FB9E07A00F0100008B104274D
:1042D00007E006F0020020B1E07A00F0010000B132
:1042E000072747B906F0080008B146F020060398F2
:1042F000C06AE8612C620FB9AE7100E01AE00020DC
:10430000E8712146039800F0D2FD2861E07F0106A4
:10431000A07F41EA0041607F41EA0020217F0843FD
:10432000E8600020A860A861686203982860286897
:10433000C088A880384652E76C4200202DE9FF4F24
:1043400083B0044615469A46DDF810B00020CAF83E
:104350000000204601F052FA0290029818B102982B
:1043600007B0BDE8F08FE07908B1E079F8E7A0790F
:1043700000F0010008B90720F2E7D4E90210401A62
:1043800000900098854200D9009DAAE02089C0F3E2
:104390000800002876D120688078401EA16800EAD5
:1043A000512000F0FF09B9F1000F1FD1A06810B92A
:1043B000206901900CE0606A28B12046A168FFF7EF
:1043C00017F9019004E06169206800F0D5FC0190C4
:1043D0000198022802D20220E071C1E70198401C36
:1043E00010B90120E071BBE7019860616169206844
:1043F000FFF717F9064616B90220E071B0E74E4400
:104400004FEA5528B8F1000F29D009EB08002168C0
:104410008978884203D920688078A0EB0908216850
:104420004878434632465946FFF748FD10B101200F
:10443000E07195E7A07900F0400068B1A069801BA9
:10444000404509D2A169891B0BEB41204FF4007252
:1044500004F1280100F009FF4FEA482737E0A0697E
:10446000B04220D0A07900F0400080B121684878A7
:10447000012304F12801A269FFF760FD18B10120B2
:10448000E0716DE710E0A07920F04000A071216894
:1044900048780123324604F12801FFF70FFD10B1DF
:1044A0000120E0715CE7A6612089C0F30800C0F537
:1044B0000077AF4200D92F462089C0F3080204F1EB
:1044C000280011183A46584600F0CFFE00BFBB4402
:1044D000A0683844A060DAF800003844CAF8000048
:1044E000ED1B002D7FF452AF002039E72DE9F0419C
:1044F0000446204601F082F90746002F4CD1A079EE
:1045000000F02000002847D0A07900F0400078B1EA
:1045100021684878012304F12801A269FFF70EFD04
:1045200010B10120BDE8F081A07920F04000A07119
:10453000E169206800F01AFF0746002F2CD1256A98
:10454000E87A40F02000E872207B2877A089010AF1
:104550006977E068010CA977E068010EE9772846E1
:10456000216901F008F800F07BFC0646AE75310ABF
:10457000E975310C2976310E69760020A874002186
:10458000E974A07920F02000A07101202168087151
:10459000206801F008F807463846C3E72DE9FF4FC9
:1045A00083B0044615469B46049801900020CBF842
:1045B0000000204601F022F90290029818B10298FA
:1045C00007B0BDE8F08FE07908B1E079F8E7A079AD
:1045D00000F0020008B90720F2E7A0682844A168AB
:1045E000884200D20025C2E02089C0F308000028DC
:1045F0006FD120688078401EA16800EA512000F049
:10460000FF0ABAF1000F2CD1A06858B9D4F8108075
:10461000B8F1000F13D100212068FFF757F880464A
:1046200020610CE0606A28B12046A168FEF7E0FF37
:10463000804604E061692068FFF748F88046B8F1D9
:10464000000F00D196E0B8F1010F02D10220E07115
:10465000B6E708F1010010B90120E071B0E7C4F835
:104660001480A07900F0400078B1216848780123D7
:1046700004F12801A269FFF761FC10B10120E0718B
:104680009EE7A07920F04000A07161692068FEF7E4
:10469000C8FF064616B90220E07191E756444FEA7A
:1046A0005529B9F1000F2BD00AEB09002168897850
:1046B000884203D920688078A0EB0A0921684878ED
:1046C0004B4632460199FFF739FC18B10120E071E1
:1046D00076E729E0A069801B48450ED2A069801BBF
:1046E000019A02EB40214FF4007204F1280000F01F
:1046F000BCFDA07920F04000A0714FEA49272AE0D4
:10470000A069B0420FD0D4E9020188420BD22168DF
:1047100048780123324604F12801FFF7CFFB10B19E
:104720000120E0714CE7A6612089C0F30800C0F5C4
:104730000077AF4200D92F462189C1F3080204F166
:10474000280150183A46019900F08FFDA07940F0F9
:104750004000A07100BF019838440190A06838441F
:10476000A060DBF800003844CBF80000ED1B002D02
:104770007FF43AAF00BFD4E90201884201D9A068B2
:10478000E060A07940F02000A071002018E7000050
:1047900010B50246802A01DA10461BE051B1FF2A0B
:1047A00001DD002304E0A2F180030B4C34F8133048
:1047B00018460FE0002007E0074B33F81030934213
:1047C00000D103E0431C98B28028F5DB00BF00F164
:1047D0008003D8B210BD0000E2610008024600214B
:1047E00000E0491C094830F8110020B1074830F8B2
:1047F00011009042F5D1054830F8110018B1044875
:1048000030F8110070471046FCE70000E262000833
:10481000C26400082DE9F74F88B0002108980160B4
:10482000099800F01FFB07900798002803DA0B2077
:104830000BB0BDE8F08FD549079851F820400CB96E
:104840000C20F5E708980460207878B16078FFF7CD
:1048500059FB804608F0010040B90A9820B108F0E1
:10486000040008B10A20E3E70020E1E700202070FF
:10487000079860706078FFF7B6FA804608F001008C
:1048800008B10320D4E70A9820B108F0040008B169
:104890000A20CDE7002739462046FEF757FE054699
:1048A000012D01D06DBB2CE0002614E004F5F7715A
:1048B00001EB0610017951B1C17A0A06817A42EA08
:1048C0000142417A42EA0121027A114300E00021CB
:1048D0004DF82610761C042EE8D3002606B1761E6D
:1048E00000BF5DF8267027B139462046FEF72EFE40
:1048F00000E0022005461DB1701C06460428F0D3D6
:1049000000BF032D01D1012092E70DB10D208FE7EB
:104910003B20015D94F83C0041EA0020B0F5007FA7
:1049200001D00D2084E74620015D94F8470041EA5C
:104930000029B9F1000F0ED194F85700010694F840
:10494000560041EA004194F8550041EA002094F8ED
:10495000541040EA0109C4F818904020005DE0704E
:10496000E078012804D0E078022801D00D205FE72C
:10497000E07809FB00F93D20005DA070A07818B137
:10498000A078411E084008B10D2051E74120015D8B
:1049900094F8420041EA00202081207A00F00F00C4
:1049A00008B10D2044E74320015D94F8440041EA3A
:1049B000002BBBF1000F0ED194F85300010694F8C0
:1049C000520041EA004194F8510041EA002094F875
:1049D000501040EA010B3E20015D94F83F0041EA8F
:1049E00000200490049808B90D2021E70498484459
:1049F000218900EB111006900698834501D20D2005
:104A000016E70698ABEB0000A178B0FBF1FABAF11B
:104A1000000F01D10D200BE7012540F6F67082450D
:104A200000D302254FF6F670824500D303250AF124
:104A300002006061E76104983844206206983844B7
:104A4000A062032D16D1208908B10D20F0E694F85C
:104A50005F00010694F85E0041EA004194F85D00B1
:104A600041EA002094F85C100843606260698000AD
:104A7000059014E0208908B90D20D9E6206A484441
:104A80006062022D02D16069400007E0207D00F0E5
:104A90000100616901EB410100EB51000590A16942
:104AA000059800F2FF10B1EB502F01D20D20BFE6A8
:104AB0004FF0FF302061E06080206071032D5AD1FB
:104AC00094F8601094F8610041EA0020012852D166
:104AD000791C204600F04AFCE8BB0020607194F885
:104AE0002E1294F82F0241EA00204AF655218842FE
:104AF00041D13320005D01063220005D41EA0041D2
:104B00003120005D41EA002094F83010084320492C
:104B1000884230D194F81702010694F8160241EA4F
:104B2000004194F8150241EA002094F81412084359
:104B3000184988421FD194F81B02010694F81A0202
:104B400041EA004194F8190241EA002094F8181251
:104B50000843206100E00EE094F81F02010694F87B
:104B60001E0241EA004194F81D0241EA002094F837
:104B70001C120843E060257007480088401C80B282
:104B800005490880E080002052E60000AC010020CA
:104B90005252614172724161B4010020F0B5044685
:104BA0001D464D730F27CF7200270F738F76BC46BB
:104BB00081F81BC0571E07EB870C0CEBC7060027BC
:104BC00038463B4600BF4FF6FF77B84203D0374622
:104BD000761C34F81700DFF840C01CF803C001F859
:104BE0000C000712DFF830C01CF803C08C448CF8AE
:104BF000017008B94FF6FF705F1C3B460D2FE2D3E2
:104C00004FF6FF77B84202D034F816700FB942F071
:104C100040020A70F0BD0000A86100082DE9F341D0
:104C20000446019800782F2803D0019800785C286A
:104C300002D10198401C01900020A06001980078EA
:104C4000202807D200212046FFF77EF805460020E5
:104C5000606128E000BF01A92046FEF7A3FD0546DC
:104C600005B11FE02046FEF7E3FE0546A069C67ABF
:104C70003DB1042D04D100BF06F0040000B90525A4
:104C800010E006F0040000B10CE06769F87A00F06B
:104C9000100008B9052505E03946206800F007F93D
:104CA000A060D8E700BF2846BDE8FC8100BF054AE8
:104CB000128802F04002002AF9D0C2B2014B1B1D3B
:104CC0001A807047003801402DE9FC4780468A462B
:104CD00017461D460B225146404600F0C6FA052DE8
:104CE00017D9284610E037F8021B00240AE00A46CC
:104CF00060F35F021046491000F480320AB11D4A89
:104D00005040641C102CF2D33A88002AEBD105469F
:104D100000BF072400BF05F00F0000F13009B9F112
:104D2000390F03DD09F1070000F0FF092046641E7A
:104D30000DF800902D09002DEDD17E200DF8040016
:104D4000002600E0761CA64203D218F806002028B0
:104D5000F8D100BF082C04D22046641C1DF80010B6
:104D600000E020213046761C08F80010082EF1D310
:104D7000BDE8FC87211001002DE9F04105460C46F5
:104D8000022C02D36869A04202D80120BDE8F0815C
:104D90002878012804D002282CD003285AD13DE0DD
:104DA000274607EB5707286A00EB5721284600F0F3
:104DB000DDFA00B150E0C7F3080105F1300010F84A
:104DC00001807F1C286A00EB5721284600F0CEFAAC
:104DD00000B141E0C7F3080105F13000405C48EA4A
:104DE000002804F0010010B14FEA1810CEE7C8F314
:104DF0000B00CBE7286A00EB1421284600F0B6FA36
:104E000000B129E040F2FF1000EA440105F1300052
:104E10000E183078717840EA0120B7E7286A00EB75
:104E2000D411284600F0A2FA00B115E040F2FF10BC
:104E300000EA840105F130000E18F0780006B17820
:104E400040EA0140717840EA01203178084320F0BF
:104E500070409BE7012099E700BF4FF0FF3095E7D6
:104E60000020704770B502464FF0FF301568E5B17D
:104E7000116800E0491C0D78202D02D30D783A2DE1
:104E8000F8D10D783A2D0FD1146814F8015BA5F113
:104E900030030A2B07D28C4205D1022B03D21846CD
:104EA0004D1C2946156070BD002000BFFBE710B502
:104EB00002468C7ECB7E44EA03201378032B05D177
:104EC0000C7D4B7D44EA032340EA034010BD000003
:104ED000ADF5527D40F2E770974908800C2088704C
:104EE0001020C8700020087148718871FCF7EAFF33
:104EF000FDF764F84FF4A060FDF736F84FF4165054
:104F000000F02CFC15E08DA0FBF7E8F94FF4FA70E7
:104F1000FCF7D5FE8EA0FBF7E1F94FF4FA70FCF731
:104F2000CEFE9048006808B9012000E000208D49BD
:104F30000860FDF7DFFC0028E5D10C238AA20121DF
:104F4000FDF72CF98BA0FBF7C9F9FFF747F800F044
:104F500099F98C49012208688BA1FFF70BF915E03C
:104F60008AA0FBF7BBF94FF4FA70FCF7A8FE78A013
:104F7000FBF7B4F94FF4FA70FCF7A1FE794800682A
:104F800008B9012000E0002076490860B7AAB8A956
:104F900082A0FEF7FEFF0028E2D1FEF7EBF8FCF757
:104FA000EDFF00BFFDF71AFB0028FBD162488079B6
:104FB00061494979604DCDE900102B79EA78A978EB
:104FC0002888FDF77BFB2B46DA7899781888FDF75F
:104FD000A5FA2946C871AEE05748007B20B1FCF71E
:104FE000CDFF0020544908736D48C0796DA26C490B
:104FF0008979CDE9001202906948828869A36AA183
:105000001FA8FBF777F9664880786AA26449497857
:1050100068A3CDE90031CDE902206148037866A29A
:1050200068A112A8FBF766F94348C079401E694998
:1050300051F8203068A26BA105A8FBF75BF90C239F
:105040001FAA00210846FDF7A9F80C2312AA022185
:105050000020FDF7A3F80C2305AA04210020FDF78A
:105060009DF80C23B9AA06210020FDF797F85F48A8
:10507000008800285FD04FF4FA70FCF720FE5C49EE
:105080005CA0FBF72BF95CA15948FBF7FFFA30BB9A
:105090004FF400515A48FCF7C2FE5AA0FBF71EF924
:1050A0000A225AA12DA8FFF793F8044634B92CAB75
:1050B000642259492DA8FFF771FA044600BF2C98C5
:1050C0006428FCD32DA8FEF7C3FF0C2353A20621AE
:1050D0000020FDF763F8C8214548FBF7B4FA52A158
:1050E0004348FBF7D3FAF8B94FF400514448FCF7B2
:1050F00094FE4FA0FBF7F2F801224FA12DA8FFF775
:1051000067F804462CAB6422B9A92DA8FFF716F95D
:10511000044600BF2C986428FCD32DA8FEF798FF06
:10512000C8213348FBF78FFAC8213148FBF78BFAC7
:1051300000202E4908804FE7B80100205344204347
:10514000617264204572726F72210D0A00000000C6
:10515000506C6561736520436865636B21200D0A9F
:1051600000000000B40222425344204361726420D4
:105170004F4B000053442043617264204F4B0D0A93
:10518000000000008C010020303A00004661746687
:1051900073204572726F72210D0A0000300000000A
:1051A000C80100202F0000002564257325642573A5
:1051B000256400003A00000054696D652069732081
:1051C000000000002573256425732564257325647C
:1051D0000000000014000020546F646179277320E0
:1051E000000000002573257300000000340000203B
:1051F000E40100202573000057726974650D0A00F0
:10520000001001404F46460D0A00000064617461C1
:105210002E74787400000000945800085772697466
:1052200065204F4B21000000526561640D0A0000AB
:105230004F4E0D0A00000000303A74657874312E2C
:1052400074787400F0B503461C460D46002000BF7C
:10525000161EA2F1010207D014F8017B15F801CB4C
:10526000A7EB0C06301EF3D0F0BD70B503460C461C
:1052700003E014F8015B03F8015B151EA2F10102C3
:10528000F7D170BD00B509494FF47072C8680021AC
:1052900000F096F805494FF470528868002100F03C
:1052A0008FF801200149087400BD00004000002073
:1052B0002DE9F04106460024A0461A48007C10B9AA
:1052C0001849086880471EB94FF0FF30BDE8F081EB
:1052D000C6F34F1506F01F0008B1681C85B240F2F6
:1052E000DF141AE00F48C06830F8140020B908F144
:1052F00001001FFA80F801E04FF00008A8450BD12B
:10530000002705E00748C068E11920F811507F1C0C
:10531000AF42F7D36001D9E7641E002CE2DA4FF008
:10532000FF30D3E7400000200022002106E00948BA
:10533000C06830F8110000B1521C491CB1F5F07F73
:10534000F5D3642050434FF4F073B0FBF3F0C0B2D8
:10535000704700004000002030B5034601E003F82C
:10536000011B141EA2F10102F9D130BD70B5044633
:105370000D46E06AA84210D0204600F078F908B146
:10538000012070BD607801232A4604F13001FEF748
:1053900095FD08B10120F4E7E5620020F1E7000087
:1053A00070B505462846FFF783FF0446601C08B920
:1053B000002070BD014880682044FAE740000020CA
:1053C00030B5034601E003F8011B141EA2F10102EF
:1053D000F9D130BD2DE9F04705460E461746022E9D
:1053E00002D36869B04202D84FF002088AE02878F8
:1053F000012804D0022841D003287DD154E0B146D1
:1054000009EB5909286A00EB59212846FFF7AEFF3E
:105410008046B8F1000F00D071E0C9F3080105F132
:1054200030000C1806F0010020B1F9B2207861F3C9
:105430001F1000E03846207009F101090120287191
:10544000286A00EB59212846FFF790FF8046B8F103
:10545000000F00D053E0C9F3080105F130000C182B
:1054600006F0010010B1C7F3071005E0207800F046
:10547000F000C7F303210843207040E0286A00EBE6
:1054800016212846FFF772FF8046B8F1000F00D0C2
:1054900035E040F2FF1000EA460105F130000C183B
:1054A0002770380A60702AE0286A00EBD611284677
:1054B000FFF75CFF8046B8F1000F00D01FE040F21C
:1054C000FF1000EA860105F130000C18E0780006B4
:1054D000A17840EA0140617840EA01202178084340
:1054E00000F0704007432770380A6070380CA070D5
:1054F000380EE07003E0FFE74FF0020800BF00BF86
:10550000012028714046BDE8F0872DE9F0410446AE
:105510000E46022E02D36069B04201D8022727E06E
:10552000002721E031462046FFF726FC054605B955
:105530001DE0012D01D1022719E0681C08B90127DF
:1055400015E0002231462046FFF744FF074607B129
:105550000DE02069401C30B12069401C2061607959
:1055600040F0010060712E466069B042DAD800BF99
:105570003846BDE8F08181760B0AC3760A0C0275C5
:105580000B0E4375704730B5014600200B2200BF5B
:10559000431003EBC01411F8015B6319D8B2531E1A
:1055A0001A1EF5D130BD70B50446204600F05FF8F4
:1055B0000546002D59D1207803284FD16079012864
:1055C0004CD14202002104F13000FFF7C5FE552105
:1055D00084F82E12AA2184F82F12522084F8300069
:1055E00052213120015561213220015541213320C2
:1055F0000155722184F8141284F81512412184F89F
:105600001612612184F81712217C84F81812208A5E
:10561000010A84F819122069010C84F81A12206911
:10562000010E84F81B12217B84F81C12A089010A48
:1056300084F81D12E068010C84F81E12E068010E67
:1056400084F81F12E069401CE0626078012304F1D5
:105650003001E26AFEF772FC00206071607800227F
:105660001146FEF7D9FB00B10125284670BD70B583
:1056700004462079F8B1E56A607801232A4604F1EE
:105680003001FEF75BFC08B1012070BD00202071E5
:10569000206A281AA16988420DD2E67809E0A0693B
:1056A0000544607801232A4604F13001FEF746FCE8
:1056B000761E022EF3D20020E7E700000FB430B5CB
:1056C0008FB013A8019002A8019A1299FAF7F4FD7D
:1056D0000020019002A8FAF797FF054600240CE08D
:1056E00000BF80210848FDF7E9FD0028F9D002A895
:1056F000015D0548FDF7AFFE641CAC42F0DB0FB066
:1057000030BC5DF814FB0000004400400FB430B51D
:105710008FB013A8019002A8019A1299FAF7CCFD54
:105720000020019002A8FAF76FFF054600240CE064
:1057300000BF80210848FDF7C1FD0028F9D002A86C
:10574000015D0548FDF787FE641CAC42F0DB0FB03D
:1057500030BC5DF814FB00000048004010B586B076
:105760000446012144F20400FCF75AFD4FF4007096
:10577000ADF8140003208DF8160018208DF81700DE
:1057800005A91C48FCF7BEFA4FF48060ADF8140080
:1057900004208DF8170005A91648FCF7B3FA252058
:1057A0008DF8000003208DF801008DF80200012023
:1057B0008DF803006846FCF79FFB01940020ADF8CC
:1057C0000800ADF80A00ADF80C00ADF810000C2090
:1057D000ADF80E0001A90848FDF7CCFD012240F20A
:1057E00025510548FDF7A1FD01210348FDF75AFDAC
:1057F00006B010BD000801400038014070B50546F4
:105800002C464CB1206838B12068007820B120685F
:10581000C088A188884201D0092070BD21684878DD
:10582000FEF770FB00F0010008B10320F5E700204F
:10583000F3E7000010B500290AD00878002807D047
:1058400005487844FAF722FF002801D0002010BD57
:105850000248784410BD0000261000001E10000011
:1058600010B500290AD00878002807D005487844E8
:10587000FAF70CFF002801D0002010BD0248784440
:1058800010BD0000161000000E100000FBF747BA14
:10589000FBF77CBB546869732069732061206E65D7
:1058A000772066696C652C2074686520646174617A
:1058B000206973206A757374207772697474656ED9
:1058C00020696E21000000000000000000000000C0
:1058D00000000000000000000000000000000000C8
:1058E00000000000000000000000000000000000B8
:1058F00000000000000000000000000000000000A8
:10590000002F000000000700070000147F147F1420
:1059100000242A7F2A1200626408132300364955A6
:10592000225000000503000000001C22410000007E
:1059300041221C000014083E08140008083E080814
:10594000000000A06000000808080808000060606F
:105950000000002010080402003E5149453E0000AE
:10596000427F4000004261514946002141454B3190
:10597000001814127F10002745454539003C4A495C
:1059800049300001710905030036494949360006CE
:105990004949291E00003636000000005636000036
:1059A00000081422410000141414141400004122B1
:1059B000140800020151090600324959513E007C89
:1059C0001211127C007F49494936003E4141412273
:1059D000007F4141221C007F49494941007F09095C
:1059E0000901003E4149497A007F0808087F00000C
:1059F000417F4100002040413F01007F08142241C7
:105A0000007F40404040007F020C027F007F04087E
:105A1000107F003E4141413E007F09090906003EDA
:105A20004151215E007F0919294600464949493103
:105A30000001017F0101003F4040403F001F204026
:105A4000201F003F4038403F0063140814630007E4
:105A50000870080700615149454300007F4141003B
:105A600000552A552A55000041417F0000040201DB
:105A700002040040404040400000010204000020B9
:105A800054545478007F48444438003844444420F7
:105A900000384444487F00385454541800087E09A4
:105AA00001020018A4A4A47C007F0804047800006C
:105AB000447D4000004080847D00007F1028440029
:105AC0000000417F4000007C04180478007C08043A
:105AD000047800384444443800FC24242418001876
