:020000040800F2
:100000004846002005010008190900088308000877
:10001000150900085F070008E3170008000000004A
:1000200000000000000000000000000001140008B3
:100030006307000800000000130C000815150008F5
:100040001F0100081F0100081F0100081F01000810
:100050001F0100081F0100081F0100081F01000800
:100060001F0100081F0100081F0100081F010008F0
:100070001F0100081F0100081F0100081F010008E0
:100080001F0100081F0100081F0100081F010008D0
:100090001F0100081F0100081F0100081F010008C0
:1000A0001F0100081F0100081F0100081F010008B0
:1000B0001F0100081F0100081F0100081F010008A0
:1000C0001F0100081F0100081F0100081F01000890
:1000D0001F01000879150008B1150008ED1500088A
:1000E0001F0100081F0100081F010008DFF810D0E1
:1000F00000F06AFA0048004755390008AFF3008065
:10010000484600200648804706480047FEE7FEE7CD
:10011000FEE7FEE7FEE7FEE7FEE7FEE7FEE7FEE7B7
:1001200019150008ED00000840EA01039B0703D001
:1001300009E008C9121F08C0042AFAD203E011F826
:10014000013B00F8013B521EF9D27047D2B201E0E8
:1001500000F8012B491EFBD270470022F6E710B5CC
:1001600013460A4604461946FFF7F0FF204610BD25
:10017000CAB2401E10F8011F8A4202D00029F9D1EC
:1001800000207047421C10F8011B0029FBD1801A87
:10019000704710B5002200E0521C835C8C5CA342C7
:1001A00001D1002BF8D1D8B2E1B2401A10BD30B560
:1001B00004460020034600E05B1C934203D2E05C4F
:1001C000CD5C401BF8D030BD30B50B460146002059
:1001D0002022012409E021FA02F59D4205D303FA09
:1001E00002F5491B04FA02F52844151EA2F101028A
:1001F000F1DC30BD2DE9F05F0546002092469B46BC
:1002000088460646814640241BE02846414647462C
:10021000224600F0FAF953465A46C01A914110D3CB
:1002200011461846224600F0E1F92D1A67EB010845
:100230004F4622460120002100F0D8F917EB0009B3
:100240004E41201EA4F10104DFDC484631462A4617
:100250004346BDE8F09F2DE9FE4F804681EA03004A
:10026000C00F0C46009021F0004123F00045B8EB90
:100270000200A94105D24046214690461C460B4645
:10028000024623F00040104347D0270DC7F30A0071
:10029000C3F30A510290401A019040286BDAC3F36D
:1002A000130040F4801B0098924620B10023D2EB4B
:1002B000030A63EB0B0B01985946C0F1400250460C
:1002C00000F094F906460D4650465946019A00F052
:1002D000ACF910EB08006141002487EA115284EA6E
:1002E000E7731A4340D0009A62B3019A012A4FEA99
:1002F000075215DC001B61EB02014FF0004202EADD
:100300000752CDE90042001C41F5801132462B46D0
:1003100000F0ACF903B0BDE8F08F40462146F9E7A4
:10032000001B61EB0201001C41F5801300185B41CA
:100330002018A2F5001747EB030140EAD570B61963
:100340006D4111E06D084FEA360645EAC0754FEA87
:100350000752001B61EB0201001C41F580114908A6
:100360004FEA30000019514132462B4603B0BDE838
:10037000F04F00F06CB90098012240000023D0EB50
:10038000020263EBE073009821464FEAE074B8EB99
:10039000000061EB0401E9E783F000435BE781F0D3
:1003A000004158E72DE9FE4F81EA030404F00044C0
:1003B00021F0004100944FF0000B23F0004350EA7D
:1003C00001045ED052EA03045BD0C3F30A54C1F3C4
:1003D0000A552C44A4F2F3340194A0FB0254C1F357
:1003E000130141F48011C3F3130343F4801301FBA1
:1003F000024400FB034E840A970A44EA815447EA08
:100400008357A4FB076802958D0A05FB07854FEA11
:10041000932C04FB0C542705029D4FEA065847EA2B
:100420001637B5EB08056EEB070C870E920E47EA00
:10043000811742EA8312A7FB0201B6EB0B0164EBC2
:1004400000042B0D43EA0C335E1844EB1C50DA46D3
:100450005146E7FB0201C5F313044FEA0B3343EAAD
:1004600014534FEA0432019C43EA0603A4F10C043E
:100470000294009CCDE900B400F0F8F803B0BDE8A8
:10048000F08F00200146F9E72DE9F04D81EA0304E1
:1004900004F0004B21F0004514464FF0000A23F011
:1004A000004150EA050220D054EA01021DD0C5F3F4
:1004B0000A570246C5F31303C1F31300C1F30A56EA
:1004C00040F4801543F48013A7EB0608101BD646B2
:1004D00008F2FD3873EB050002D308F1010801E0D2
:1004E00092185B41B8F1000F03DA00200146BDE825
:1004F000F08D00204FF48011064684460EE0171B55
:1005000073EB050705D3121B63EB050306434CEAA7
:10051000010C49084FEA300092185B4150EA01078C
:10052000EDD152EA030012D082EA040083EA050109
:10053000084305D0101BAB4106D20122002306E080
:1005400000224FF0004302E06FF0010253101AEB5B
:1005500006004CEB085110EB0A0041EB0B01BDE823
:10056000F04D00F074B8C1F30A52C1F3130140F228
:10057000FF3341F480119A4202DA002001467047AD
:1005800040F233439A42A2F2334202DC524200F07C
:100590003CB800F02BB8000030B5041E71F1000427
:1005A00004DB4FF00044404264EB0101141E73F180
:1005B000000405DB1C464FF00043524263EB04038A
:1005C000994208BF904230BD064C074D06E0E068F6
:1005D00040F0010394E8070098471034AC42F6D38A
:1005E000FFF788FD3852000858520008202A04DB23
:1005F000203A00FA02F1002070479140C2F1200336
:1006000020FA03F3194390407047202A04DB203A74
:1006100021FA02F00021704721FA02F3D040C2F122
:1006200020029140084319467047202A06DBCB1769
:10063000203A41FA02F043EAE07306E041FA02F39D
:10064000D040C2F12002914008431946704710B5CE
:10065000141E73F1000408DA401C41F100019218E5
:100660005B411A4301D120F0010010BD2DE9F04D8E
:1006700092469B4611B1B1FA81F202E0B0FA80F2E3
:1006800020329046FFF7B2FF04460F4640EA0A00C8
:1006900041EA0B0153465A46084313D0114653EA28
:1006A000010019D0C8F140025046FFF7AEFF0546E1
:1006B0000E46504659464246FFF798FF084305D07C
:1006C000012004E020463946BDE8F08D00200543B6
:1006D00046EAE0762C4337430A986305E40AA0EB28
:1006E00008000022FD0A44EA47540A3002D50020DF
:1006F0000146E9E7010510196941DDE908450019DE
:100700006941BDE8F04DA2E770B58C1810F8015BA7
:1007100015F0070301D110F8013B2A1106D110F89A
:10072000012B03E010F8016B01F8016B5B1EF9D19E
:100730002B0705D40023521E0DD401F8013BFAE724
:1007400010F8013BCB1A921C03E013F8015B01F88F
:10075000015B521EF9D5A142D8D3002070BD00BF65
:10076000FEE770472DE9F0410246002500260020F3
:1007700000230024002791F803C00CF00F0591F826
:1007800003C00CF0100CBCF1000F03D091F802C0B4
:100790004CEA050591F800C0BCF1000F31D0146897
:1007A00000202BE04FF0010C0CFA00F3B1F800C070
:1007B0000CEA03069E4220D183004FF00F0C0CFA86
:1007C00003F7BC4305FA03FC4CEA040491F803C0A8
:1007D000BCF1280F06D14FF0010C0CFA00FCC2F856
:1007E00014C00AE091F803C0BCF1480F05D14FF0E6
:1007F000010C0CFA00FCC2F810C0401C0828D1D330
:100800001460B1F800C0BCF1FF0F34DD5468002063
:100810002EE000F1080C4FF0010808FA0CF3B1F8D3
:1008200000C00CEA03069E4221D183004FF00F0C5A
:100830000CFA03F7BC4305FA03FC4CEA040491F8F4
:1008400003C0BCF1280F05D100F1080C08FA0CF820
:10085000C2F8148091F803C0BCF1480F07D100F131
:10086000080C4FF0010808FA0CF8C2F81080401C80
:100870000828CED35460BDE8F08141617047016122
:10088000704700BFFEE7000010B502210748FFF7E0
:10089000F6FF01210548FFF7F2FF01210348FFF7AA
:1008A000ECFF02210148FFF7E8FF10BD00080140FE
:1008B00010B502210548FFF7E2FF01210348FFF7C9
:1008C000DCFF01210148FFF7DAFF10BD00080140FD
:1008D00010B502210348FFF7D2FF02210148FFF7BC
:1008E000CCFF10BD0008014008B50121102000F028
:1008F00091F910208DF803004002ADF800000320AC
:100900008DF8020069460248FFF72CFF08BD000081
:100910000010014000BFFEE77047000070B50021E5
:1009200000230F22C47804B3154C246804F4E06457
:10093000C4F5E064210AC1F10403CA40447804FA12
:1009400003F184781440214309010E4C0678A15527
:10095000047804F01F050124AC4005786D11AD004A
:1009600005F1E025C5F8004109E0047804F01F0511
:100970000124AC40044D0678761145F8264070BD40
:100980000CED00E000E400E080E100E002490143FA
:10099000024A1160704700000000FA050CED00E00B
:1009A00070B5002418E004F1B000002100F025F932
:1009B0000021084600F021F90021102000F01DF967
:1009C000002505E00121002000F017F9681CC5B2E0
:1009D000802DF7DB601CC4B2082CE4DB70BD000086
:1009E00008B50121042000F015F90320ADF800003E
:1009F00010208DF8030003208DF8020069463C4862
:100A0000FFF7B0FE03213A48FFF739FF4FF4487073
:100A100001F078FE0021AE2000F0EFF8002108463A
:100A200000F0EBF80021102000F0E7F80021402052
:100A300000F0E3F80021B02000F0DFF80021812071
:100A400000F0DBF80021FF2000F0D7F80021A12002
:100A500000F0D3F80021A62000F0CFF80021A82054
:100A600000F0CBF800213F2000F0C7F80021C8209B
:100A700000F0C3F80021D32000F0BFF800210846A1
:100A800000F0BBF80021D52000F0B7F8002180204D
:100A900000F0B3F80021D82000F0AFF800210520C5
:100AA00000F0ABF80021D92000F0A7F80021F120D8
:100AB00000F0A3F80021DA2000F09FF800211220B6
:100AC00000F09BF80021DB2000F097F80021302097
:100AD00000F093F800218D2000F08FF80021142001
:100AE00000F08BF80021AF2000F087F808BD00006F
:100AF0000008014070B504460D4605F1B000002124
:100B000000F07BF8102141EA1410002100F075F884
:100B100004F00F00002100F070F870BD2DE9F047DF
:100B200007460E469046994600250024A8F120006D
:100B3000C5B27F2F02DD0027B01CC6B2B9F1100F7D
:100B400024D131463846FFF7D5FF002408E004EBF6
:100B50000511194A505C012100F04FF8601CC4B225
:100B6000082CF4DB701CC1B23846FFF7C3FF002429
:100B700009E004EB051108310F4A505C012100F037
:100B80003CF8601CC4B2082CF3DB12E03146384656
:100B9000FFF7B0FF00240AE005EB4501074A02EB2E
:100BA0004101085D012100F028F8601CC4B2062C48
:100BB000F2DBBDE8F0870000A84700088045000888
:100BC0002DE9F04104460F461546984600260FE0F1
:100BD000AA5D434639462046FFF7A0FF04F108000E
:100BE000C4B2782C02DD0024B81CC7B2701CC6B297
:100BF000A85D0028ECD1BDE8F08170B504460D4633
:100C00001DB1E0B200F030FE02E0E0B200F016FEEE
:100C100070BD704729B1064A92690243044B9A613C
:100C200004E0034A92698243014B9A6170470000D5
:100C30000010024030B500210022002400232D4D79
:100C40006D6805F00C0121B1042905D0082923D1D4
:100C500005E0294D056022E0274D05601FE0254D88
:100C60006D6805F47012234D6D6805F4803402251B
:100C700005EB92421CB9214D554305600BE01D4D1B
:100C80006D6805F400351DB11C4D5543056002E04B
:100C9000194D5543056002E0174D056000BF00BFC8
:100CA000144D6D6805F0F0010909154D6B5C056880
:100CB000DD4045600F4D6D6805F4E061090A104D97
:100CC0006B5C4568DD4085600A4D6D6805F46051D8
:100CD000C90A0B4D6B5C4568DD40C560054D6D680C
:100CE00005F44041890B074D6B5CC568B5FBF3F516
:100CF000056130BD0010024000127A0000093D007D
:100D0000140000202400002010B5012002490860D2
:100D1000FF2000F0E7F910BD9001214270B50546B3
:100D200001220021092000F026FA044624B91021EE
:100D3000284600F09BF90446FFF7E6FF0CB10120BE
:100D400070BD0020FCE770B505464FF6FF7401E06A
:100D5000601E84B2FF2000F0C5F9A84201D0002C2B
:100D6000F6D10CB9FF2070BD0020FCE77FB56846C6
:100D7000FFF7D4FF28B11CA000F08CFD002004B0C8
:100D800070BD9DF8000000F0C000402809D19DF81A
:100D900009009DF8081000EB0120401C84B2A50258
:100DA00020E09DF8050000F00F009DF80A1000EB10
:100DB000D1109DF8091001F0030100EB4100861CE1
:100DC0009DF8080080119DF8071000EB81009DF848
:100DD000061001F0030100EB8120441CA6F109007C
:100DE00004FA00F52846CAE74765742043534420B7
:100DF000736967616C206661696C0D0A0000000010
:100E0000F8B500F04FF900F078F9002504E0FF2074
:100E100000F068F9681C85B20A2DF8DB142600BFC3
:100E200095220021084600F0A6F90446012C04D0C2
:100E3000301EA6F101018EB2F2D100205749087090
:100E4000012C4DD187224FF4D571082000F093F981
:100E500001284DD1002506E0FF2000F043F90DF8F0
:100E60000500681C85B2042DF6DB9DF80200012800
:100E7000E7D19DF80300AA287ED14FF6FE7600BF89
:100E800001220021372000F076F901229107292064
:100E900000F071F9044624B1301EA6F101018EB2B2
:100EA000EED1002E68D0012200213A2000F063F933
:100EB000002861D1002506E0FF2000F013F90DF8AD
:100EC0000500681C85B2042DF6DB9DF8000000F0DB
:100ED000400030B106203149087031A000F0DAFC42
:100EE0004AE004202D49087033A000F0D3FC43E011
:100EF00001220021372000F03EF9012200212920A3
:100F000000F039F90446012C1ADC0220234908704C
:100F10002FA000F0BFFC4FF6FE7600BF012200219B
:100F2000372000F028F901220021292000F023F9C0
:100F30000446BCB1301EA6F101018EB2EED111E023
:100F40000120164908704FF6FE7600BF01220021ED
:100F5000104600F010F9044624B1301EA6F101013C
:100F60008EB2F3D12EB101225102102000F003F90C
:100F700010B1002009490870FFF7C6FE00F0BDF867
:100F800019A000F087FC0548007808B10020F8BDE2
:100F90000CB12046FBE7AA20F9E70000340000204E
:100FA000546869732053442063617264206973201C
:100FB00056322E780D0A000054686973205344207D
:100FC000636172642069732056322E300D0A00006E
:100FD00054686973205344206361726420697320EC
:100FE00056312E780D0A00005350495F496E6974DE
:100FF00065640D0A000000002DE9F04106460F4629
:10100000154619480078062800D07F02012D0CD122
:1010100001223946112000F0AEF80446FCB96902FD
:10102000304600F023F8044619E001223946122028
:1010300000F0A1F8044600BF4FF40071304600F004
:1010400015F8044606F50076681EC0B2051E01D0EC
:10105000002CF1D0012200210C2000F08CF8FFF7C9
:1010600053FE2046BDE8F0813400002070B50446F0
:101070000D46FE20FFF767FE08B1012070BD04E0B9
:10108000FF2000F049F92070641C281EA5F1010121
:101090008DB2F5D1FF2000F025F8FF2000F022F8F6
:1010A0000020EBE708B501210420FFF7B3FD1C2069
:1010B000ADF8000010208DF8030003208DF8020029
:1010C00069460648FFF74EFB1C210448FFF7D7FB93
:1010D00000F0E6F801200249086008BD0008014060
:1010E0009001214210B50446204600F015F910BDCC
:1010F00010B5002000F03AF910BD10B5382000F00E
:1011000035F910BD10B500200549086000F06FF8F2
:1011100008B9002010BDFFF7F7FD0120FAE7000035
:101120009001214270B506460D4600F060F808B106
:10113000012070BD2846FFF7D5FFFD2D19D00024F2
:1011400004E0305D00F0E8F8601C84B2B4F5007F84
:10115000F7DBFF20FFF7C6FFFF20FFF7C3FFFF20ED
:10116000FFF7C0FF044604F01F00052801D002204D
:10117000DFE70020DDE72DE9F04105460C46174684
:101180004FF00008FFF7C0FDFFF7BCFF10B1FF20D4
:10119000BDE8F08145F04000FFF7A4FF200EFFF707
:1011A000A1FFC4F30740FFF79DFFC4F30720FFF73B
:1011B00099FFE0B2FFF796FF3846FFF793FF0C2D3B
:1011C00002D1FF20FFF78EFF4FF01F0800BFFF2066
:1011D000FFF788FF064606F0800030B1B8F1000046
:1011E000A8F1010101F0FF08F1D13046D0E710B5B8
:1011F000002400BFFF20FFF775FFFF2801D100206A
:1012000010BD641C6FF07F408442F3D30120F7E7E8
:101210002DE9F04106460F4615462048007806287D
:1012200000D07F02012D0CD1012239461820FFF792
:10123000A2FF04466CBBFE213046FFF773FF044655
:1012400027E016480078012809D001220021372024
:10125000FFF791FF012229461720FFF78CFF01229B
:1012600039461920FFF787FF044694B900BFFC21D7
:101270003046FFF757FF044606F50076681EC0B2F9
:10128000051E01D0002CF2D0FD210020FFF74AFFFF
:101290000446FFF739FD2046BDE8F0813400002008
:1012A00008B5012141F20400FFF7B4FCE020ADF8DD
:1012B000000018208DF8030003208DF80200694615
:1012C0001248FFF74FFAE0211048FFF7D8FA002044
:1012D0000F4908804FF482704880002088800220E7
:1012E000C880012008814002488138208881002080
:1012F000C88107200882074800F064F801210548EA
:1013000000F046F8FF2000F007F808BD0008014093
:10131000700200200030014070B50546002405E051
:10132000601CC4B2C82C01DD002070BD02210E4833
:1013300000F03AF80028F3D029460B4800F040F8B6
:10134000002405E0601CC4B2C82C01DD0020ECE7DD
:101350000121054800F028F80028F3D0024800F0E9
:101360002CF8C0B2E1E700000030014010B504469F
:10137000054884810146054800F024F8012103480E
:1013800000F006F810BD000070020020003001409F
:1013900021B1028842F04002028004E002884FF648
:1013A000BF731A40028070470246002013890B4029
:1013B0000BB1012000E0002070470146888970478A
:1013C0008181704710B50022028802F441520B88D7
:1013D0004C8823438C882343CC8823430C892343A4
:1013E0004C8923438C892343CC8923431A430280AD
:1013F000838B4FF2FF74234083830B8A038210BDDB
:10140000704710B500F002F810BD00000CB50020C8
:10141000019000903348006840F480303149086002
:1014200000BF3048006800F4003000900198401C74
:101430000190009818B90198B0F5A06FF1D1294832
:10144000006800F4003010B10120009001E000209D
:1014500000900098012843D12348006840F0100014
:10146000214908600846006820F00300086008462B
:10147000006840F0020008601A4840681949486056
:101480000846406848600846406840F4806048600C
:101490000846406820F47C1048600846406840F4E4
:1014A000E81048600846006840F08070086000BF9F
:1014B0000C48006800F000700028F9D00948406826
:1014C00020F00300074948600846406840F00200E9
:1014D000486000BF0348406800F00C000828F9D1BC
:1014E0000CBD00000010024000200240042808D17A
:1014F0004FF0E021096941F004014FF0E022116151
:1015000007E04FF0E021096921F004014FF0E022EB
:10151000116170477047000010B51348006840F033
:1015200001001149086008464068104908400E490A
:101530004860084600680E4908400B4908600846A4
:10154000006820F4802008600846406820F4FE000F
:1015500048604FF41F008860FFF753FF4FF00060B2
:101560000449086010BD0000001002400000FFF8B0
:10157000FFFFF6FE08ED00E010B540F225510948E6
:1015800000F06BF860B1074800F022F9C4B20648D9
:1015900006490988445405480088401C03490880CE
:1015A00010BD000000380140A80100202C000020E0
:1015B00010B540F22551064800F04FF838B1044804
:1015C00000F006F9C4B2214602A002F0E9FE10BD07
:1015D00000440040CAD5B5BDC1CBD2BBB8F6D7D602
:1015E000B7FB3A2025630D0A0000000010B540F259
:1015F0002551064800F031F838B1044800F0E8F809
:10160000C4B2214602A002F0F3FE10BD0048004023
:10161000CAD5B5BDC1CBD2BBB8F6D7D6B7FB3A2039
:1016200025630D0A0000000021B1828942F40052B6
:10163000828104E082894DF6FF731A4082817047EF
:1016400002460020B1F5007F00D100BF13880B4097
:101650000BB1012000E00020704770B50246002465
:1016600000230025002040F66A16B14200D100BFD9
:10167000C1F3421501F01F03012606FA03F3012D01
:1016800002D19689334006E0022D02D1168A3340FA
:1016900001E0968A33400C12012606FA04F41688FB
:1016A000344013B10CB1012000E0002070BDF0B552
:1016B0000346002400260025002040F66A17B942A0
:1016C00000D100BF1846C1F3421401F01F060127E4
:1016D00007FA06F5012C01D10C3004E0022C01D1EF
:1016E000103000E014301AB107682F43076002E0A1
:1016F0000768AF430760F0BD2DE9F04786B00546A7
:101700000E460024A24600BFA1460027B08900B1C2
:1017100000BF2F462C8A4CF6FF700440F08804432B
:101720002C82AC894EF6F3100440B088318908430E
:10173000718908430443AC81AC8A4FF6FF400440F2
:10174000B0890443AC8201A8FFF774FA1F488742AE
:1017500002D1DDF810A001E0DDF80CA0A88900F4AA
:10176000004040B10AEBCA0000EB0A1031684900A2
:10177000B0FBF1F807E00AEBCA0000EB0A10316891
:101780008900B0FBF1F86420B8FBF0F004012009F7
:10179000642101FB1089A88900F4004040B1322087
:1017A00000EBC900B0FBF1F000F00700044308E0D3
:1017B000322000EB09106421B0FBF1F000F00F00C3
:1017C00004432C8106B0BDE8F087000000380140DA
:1017D00001468888C0F308007047C1F30802828080
:1017E000704700BFFEE700002DE9F04105462C469A
:1017F00002211148FFF741F8002619E0274607F0BB
:101800008007802F04D101210B48FFF738F803E04F
:1018100001210948FFF731F86006040E022106484D
:10182000FFF72DF802210448FFF727F8701CC6B215
:10183000082EE3DBBDE8F0810008014010B5044646
:10184000FFF722F87820FFF7CFFFFFF741F80020DD
:10185000FFF7CAFFFFF73CF82046FFF7C5FFFFF789
:1018600037F8FFF725F810BD10B50446FFF70CF860
:101870007820FFF7B9FFFFF72BF84020FFF7B4FF00
:10188000FFF726F82046FFF7AFFFFFF721F8FFF735
:101890000FF810BD0FB4054B10B503A9044A029808
:1018A00000F0ECF810BC5DF814FB0000E93600080D
:1018B0003000002037B514460846064B6A462146DC
:1018C00000F0DCF804466946002000F05AFC20468F
:1018D0003EBD00008321000802E008C8121F08C1B5
:1018E000002AFAD170477047002001E001C1121FA1
:1018F000002AFBD1704700002DE9FF5F82B0002174
:10190000DDE90430020DDDF840B0034318D044F6A1
:101910001050A2F2FF3242431514119801281FD033
:10192000A5EB0B00401C5FEA000A4FF000064E4F8B
:10193000DFF83891B046504615D5CAF1000413E0DF
:10194000119801244AA3012801D16FEA0B010298E2
:10195000119AC0E90031C0E9024206B0BDE8F09F2B
:10196000CBF10000DFE704460021404A491842EB72
:101970000450CDE9001012E0E00707D032463B46A4
:1019800040464946FEF70EFD8046894632463B46B4
:1019900010461946FEF706FD06460F466410002C59
:1019A000EAD1DDE90401DDE90023BAF1000F06DA2E
:1019B000FEF7F8FC42464B46FEF7F4FC05E0FEF766
:1019C00063FD42464B46FEF75FFD04460E4600228D
:1019D000284BFEF7E1FD03D84FF0FF30014607E04A
:1019E0000022254B20463146FEF735FCFEF7BBFDB5
:1019F000102409E0002C0ADB0A220023FEF7FAFB80
:101A0000039B30321A55641E50EA0102F2D1641C65
:101A1000039AC4F111031444119A012A03D001223C
:101A200008430DD10AE0084304D000204FF0110B09
:101A3000119072E7A3EB0B056D1E0DE05B4504DD15
:101A40004FF0000205F1010504E003DA4FF0000257
:101A5000A5F10105002AECD002981199C0E90231E4
:101A6000C0E9004579E70000000014400000F03FA5
:101A7000300000000000F0430000E03F2DE9FF4F80
:101A800095B09A46884606460025EEE1252877D18E
:101A900000242746F94A0121039400E0044316F884
:101AA000013F203B01FA03F01042F7D130782A2899
:101AB00011D06FF02F033078A0F13002092A16D828
:101AC000039A44F0020402EB820203EB4202104448
:101AD000761C0390EFE758F8042B0392002A03DAF0
:101AE000504244F40054039044F00204761C3078D1
:101AF0002E2816D116F8010F44F004042A280DD020
:101B00006FF02F023078A0F13003092B09D807EBD2
:101B1000870302EB4303C718761CF3E758F8047BEE
:101B2000761C30786C280FD006DC4C2817D068283B
:101B30000DD06A2814D104E0742810D07A280FD16F
:101B40000DE044F400140AE044F4801401E044F48D
:101B500040147278824202D104F58014761C761CFF
:101B6000307866280BD013DC582877D009DC0028A1
:101B700075D04528F6D04628F4D047281AD193E1ED
:101B800018E0632835D0642879D0652812D18BE11C
:101B9000702873D008DC6728F1D069286FD06E28D0
:101BA0000DD06F2806D1ACE073282CD0752874D0E6
:101BB000782853D05246179990476D1C54E1C4F3CE
:101BC0000250022809D003280DD0D8F800100428AC
:101BD0000DD00D6008F1040846E1D8F80010EA17AE
:101BE000C1E90052F6E7D8F800100D80F2E70D7059
:101BF000F0E718F8041B8DF8001000208DF80100A4
:101C0000EB46012003E058F804BB4FF0FF306107BA
:101C10004FF0000102D40DE009F101018946B942FB
:101C20000FDA8145F8DB1BF809100029F4D108E030
:101C300009F1010189468142FADB1BF809100029EC
:101C4000F6D103985346A0EB090721463846179A68
:101C500000F080FA284400EB090507E044E008E1C1
:101C60000DE01BF8010B524617999047B9F1010995
:101C7000F7D2534621463846179AF2E039E00A2156
:101C8000C4F302524FF0000B0091022A06D058F81C
:101C9000040BC117032A09D00AE023E008F107006A
:101CA00020F00702F2E80201904605E000B2C117F9
:101CB000042A01D140B2C117002906DA0A460021E0
:101CC000404261EB02012D2202E0220504D52B22C5
:101CD0008DF80420012203E0E20701D02022F7E77B
:101CE000914657E00A2100E010214FF0000B0091CF
:101CF0000BE010214FF0000B44F004040827009182
:101D000003E008204FF0000B0090C4F30252022AB7
:101D100005D058F8040B0021032A08D008E008F188
:101D2000070020F00702F2E80201904603E080B2CB
:101D3000042A00D1C0B24FF0000922072AD5327818
:101D4000702A07D0DDF800C08CF0100C5CEA0B0C98
:101D500005D00EE040228DF80420012208E050EA70
:101D6000010306D030238DF804308DF805200222BF
:101D70009146009B83F0080353EA0B030AD150EA13
:101D8000010201D1620705D530228DF804204FF001
:101D900001097F1E3278582A04D039A20C920CAA6D
:101DA00002920BE03BA2F9E75B46009AFEF722FAAB
:101DB0000C9B9B5C029A521E0292137050EA010225
:101DC000F2D1029804A9081A00F1200B600702D58D
:101DD00024F4803400E001275F4502DDA7EB0B000F
:101DE00000E0002000EB0B01009003984944401AEA
:101DF0000390E00306D453462146179A039800F057
:101E0000A9F90544002706E001A85246C05D1799CC
:101E100090476D1C7F1C4F45F6DBE0030CD5534605
:101E20002146179A039800F095F9054404E0302004
:101E30005246179990476D1C0099481E0090002942
:101E4000F5DC08E00298029952460078491C02919C
:101E5000179990476D1CBBF10001ABF1010BF1DC50
:101E60005BE100F065F90544761C307800287FF4CA
:101E70000DAE19B02846BDE8F08F0000092801001A
:101E800030313233343536373839616263646566F0
:101E900000000000303132333435363738394142B2
:101EA0004344454600000000600700D4062708F1BF
:101EB000070020F00700F0E80223804603F0004C02
:101EC0005FEA0C0001D097A009E0200501D596A09B
:101ED00005E0E00701D095A001E0AFF24C001390BF
:101EE000307823F0004365280CD006DC452809D063
:101EF00046281DD047287FD13BE0662818D06728A8
:101F00007AD136E00021112F01DB112000E0781C8E
:101F1000CDE9000104A90CA8FFF7EEFCDDE90D01F5
:101F20000C9A4FF0000B07F10109109200914EE05E
:101F30004FF000400097CDE9011004A90CA8FFF76D
:101F4000DBFCDDE90D020C9B0F994FF0000B914675
:101F50001093009211B9791C00EB0109B7EB09004D
:101F600003D4C0F1FF3B07F10109A9EB0700019081
:101F700042E0012F00DA01270021112F01DD11209D
:101F800000E03846CDE9000104A90CA8FFF7B4FC35
:101F9000DDE90D010C9A00914FF0000BB94610924B
:101FA00021070FD4009A4A4503DA914601E0A9F1CE
:101FB0000109B9F1010F05DD109AA9F10101515C88
:101FC0003029F4D0B84202DA10F1040F03DA01210B
:101FD000CDE9011010E0002803DC8344A9EB0001E7
:101FE00002E0411C494500DD8946A0EB0B00401C86
:101FF00001904FF000400290200705D40198484519
:1020000002DB4FF0FF30019000208DF84B0002986A
:102010000DF14B07B0F1004F25D002200C902B2082
:102020000D90029800280CDA404202902D200D906D
:1020300007E00A210298FEF7C7F83031029007F84E
:10204000011D0C99481E0C900029F2DC0298002812
:10205000EFD1791E0D980870307800F0200040F024
:10206000450007F8020D11A8C01BC01D029013986F
:10207000007800B1012000EB0901019801EBE0714B
:10208000029801440398401A401E0390E00306D4CE
:1020900053462146179A039800F05CF805441398BC
:1020A000007818B15246179990476D1CE00323D56C
:1020B00053462146179A039800F04CF805441BE05C
:1020C000BBF1000F07DB0098584504DD1098179905
:1020D00010F80B0001E01799302052469047019804
:1020E0000BF1010B401E05F10105019004D12E20DA
:1020F0005246179990476D1CB9F10001A9F10109E9
:10210000DEDC05E017F8010B5246179990476D1C6D
:102110000299481E02900029F4DC53462146179A82
:1021200003989EE62D0000002B0000002000000018
:102130002DE9F041044600251E461746880404D4C4
:1021400005E039462020B0476D1C641EF9D52846AD
:10215000BDE8F0812DE9F041044600251E46904679
:10216000C80301D5302700E02027880404D505E006
:1021700041463846B0476D1C641EF9D52846BDE877
:10218000F0810A68531C0B60107070472DE9F04114
:102190000446884600202071401E206341462046A8
:1021A00001F0CCFE10B10420BDE8F08104F2322031
:1021B00001F0CAFB074694F83450EB2D03D0E92D0B
:1021C00001D0E82D43D14AF65520874208D1082294
:1021D00023A104F18600FDF7EAFF08B90020E3E738
:1021E00004F13F0001F0B0FB06464120055D701E82
:1021F000304060BBB6F5007F29DBB6F5007F26DCFA
:102200002DB3681E284010BB04F1420001F09CFB76
:10221000E8B14420005D401E012818D804F14500B3
:1022200001F092FB98B104F1470001F08DFB80288A
:1022300006DA04F1540001F07BFBB0F5803F06D3D1
:1022400004F14A0001F080FB08B10020ACE74AF637
:102250005520874201D10220A6E70320A4E7000011
:102260004641543332202020000000000246891EDF
:102270009069801E884201D8002070475389D06A37
:1022800003FB0100F9E700002DE9F04780460C460A
:1022900004F11A0001F058FB10B10020BDE8F087EE
:1022A000207800F03F00401E00EB800101EBC005EC
:1022B0004FF00109002621E01849895D081901F055
:1022C00043FB0746B9F1000F11D0FF2D0BD838465C
:1022D00001F026F9824629466D1C38F8110001F0FC
:1022E0001FF9824501D00020D8E7B94605E04FF636
:1022F000FF70874201D00020D0E7761C0D2EDBD383
:10230000207800F0400038B1B9F1000F04D038F85F
:10231000150008B10020C1E70120BFE7984D000873
:102320002DE9F04782468846DAF80040B8F1000F00
:1023300006D1276917B1A069B84215D8012713E063
:102340004146504601F048FA0546022D02D20120CE
:10235000BDE8F087681C08B92846F9E7A069A842DB
:1023600001D92846F4E74746606908B90020EFE73D
:102370000026474518D17E1CA069B04200D802262D
:102380003146504601F028FA0546012D01D0681C5F
:1023900008B92846DCE73DB12569022D03D3A069C1
:1023A000A84200D92F460026E6B93E4600BF761C5B
:1023B000A069B04204D80226BE4201D90020C7E776
:1023C0003146504601F008FA054605B909E0012DED
:1023D00001D0681C08B92846BAE7BE42E7D1002000
:1023E000B6E700BF4FF0FF323146204601F0E8FD6E
:1023F0008146B9F1000F08D1B8F1000F05D032467F
:102400004146204601F0DCFD8146B9F1000F0DD1B7
:102410002661D4E90510801E814202D86069401E01
:102420006061607940F00100607107E0B9F1010F6F
:1024300002D14FF0FF3000E001200646304687E72A
:102440002DE9F34F83B08146049800680290D9F8D3
:102450000000D0F80CA0002500BF02A801F079FF11
:1024600083460BF1010018B9062005B0BDE8F08FD6
:10247000BBF5803F05D34FEA1B4228466D1C2AF866
:1024800010201FFA8BF4202C03DB2F2C01D05C2CA6
:1024900000D111E0802C06DA21467DA0FDF768FE10
:1024A00008B10620E1E7FF2D01D30620DDE728462D
:1024B0006D1C2AF81040D0E700BF202C01DA04265A
:1024C00011E002E00298401C0290029800782F2848
:1024D000F8D0029800785C28F4D0002602980078A2
:1024E000202800D2042602990498016008E0681EA2
:1024F0003AF81040202C02D02E2C00D002E06D1EA5
:10250000002DF4D100BF00202AF815000DB90620D7
:10251000ABE7002700E07F1C3AF817002028FAD02C
:102520001FB93AF817002E2801D146F0030600E043
:102530006D1E25B1681E3AF810002E28F8D1202211
:102540000B2109F12000FDF701FE4FF00008CDF846
:1025500004800820009000BF38467F1C3AF81040E5
:1025600004B96AE0202C03D02E2C04D1AF4202D053
:1025700046F00306F0E7DDE90010884201D2AF42E1
:1025800016D100980B2802D146F0030655E0AF4261
:1025900001D046F00306AF4200D94EE02F46082096
:1025A00001900B2000904FEA88604FEA1068D3E753
:1025B000802C0EDB46F0020640F2B511204600F0FA
:1025C0008FFF044604F0800018B104F07F00334907
:1025D0000C5CFF2C11DD0098401E0199884204D844
:1025E00046F0030600980190B6E722120198411CBC
:1025F000019109F120010A5418E024B1214628A0D4
:10260000FDF7B6FD18B15F2446F003060EE0412C3D
:1026100003DB5A2C01DC48F00208612C06DB7A2C23
:1026200004DC48F00108A4F1200084B20198411CA8
:10263000019109F120010C548EE700BF99F82000A8
:10264000E52802D1052089F820000098082803D148
:102650004FEA88604FEA106808F00C000C2803D09D
:1026600008F00300032801D146F0020606F002003C
:1026700048B908F0010008B146F0100608F004005F
:1026800008B146F008062B2000F809600020ECE6AF
:102690002A3A3C3E7C223F7F00000000A54D000806
:1026A0002B2C3B3D5B5D0000014609B100207047CB
:1026B0000020FCE7014609B1002070470020FCE73C
:1026C00010B56FF00400FEF711FF0A4800680A49D0
:1026D000B0FBF1F0094908700846007800EB4001B2
:1026E000C1EBC0104FF6FF7101EAC0000449088039
:1026F00010BD00000000002000127A002800002019
:102700002A0000200146114A12884A434FF0E02374
:102710005A6100229A611A46126942F001021A6156
:1027200000BF4FF0E022106900F001021AB100F47E
:102730008032002AF5D04FF0E022126922F0010227
:102740004FF0E0231A6100229A6170472A000020AE
:102750002DE9F04104460E46D4F8008000212046C1
:1027600000F00DFA0546EDB9002700BF4046A1690B
:1027700001F0E4FB054605B113E0E0690078E528C7
:1027800002D0E069007820B9781C0746B04201D138
:1027900007E000270121204600F0E9F80546002D5A
:1027A000E4D000BF042D00D107252846BDE8F08104
:1027B0002DE9F04704468946204601F0A5FD10B1F9
:1027C0000120BDE8F08749462046FFF74FFD074648
:1027D00027634FF4007104F13400FDF7BEFC6089FB
:1027E0004FF40041B1EB402F01D8084601E0608969
:1027F000400206464FF0000800E07608B6F5007F7C
:1028000005D9304600F04AFEB0F10008F5D0B6F523
:10281000007F16D931464046FDF79FFC760A002519
:1028200000E035446089A84207D97A1960783346B8
:10283000414600F087FA0028F3D0404600F034FE0D
:1028400010E004F134080126002500E035446089D9
:10285000A84207D97A1960783346414600F072FAE7
:102860000028F3D06089A84201D00120A9E7002008
:10287000A7E72DE9F0470446D4F800A00021204640
:1028800000F07DF9064616B13046BDE8F0874FF0FE
:10289000FF08C1464FF0FF30E06200BF5046A1691B
:1028A00001F04CFB064606B15EE0E06905780DB923
:1028B000042659E0E069C07A00F03F07A771E52DD2
:1028C00004D007F0080038B10F2F05D04FF0FF08F3
:1028D0004FF0FF30E06240E00F2F22D12B20005D4F
:1028E00000F0400098BB05F0400038B1E06990F876
:1028F0000D9005F0BF05A8462069E06245450CD162
:10290000E069407B484508D1E169DAF80C00FFF73F
:10291000BBFC10B1A8F1010000E0FF2000F0FF08AF
:102920001BE0B8F1000F05D1E06901F096FC4845C5
:1029300000D119E02B20005D00F0010040B90B220E
:1029400004F12001E069FDF732FC08B90CE004E075
:102950004FF0FF084FF0FF30E0620021204600F00A
:1029600006F80646002E99D000BF30468DE72DE9C7
:10297000F041044688462768206900F12006B6F534
:10298000001F01D30020A061A06910B90420BDE898
:10299000F081C6F30800002845D1A069401CA06161
:1029A000606938B93889B0EB561F3CD80020A06167
:1029B0000420ECE77889401E00EA562098BB2046A8
:1029C000616900F009FF0546012D01D80220DEE70C
:1029D000681C08B90120DAE7B869A8421DD8B8F127
:1029E000000F03D10020A0610420D0E720466169D8
:1029F000FFF796FC05460DB90720C8E7012D01D168
:102A00000220C4E7681C08B90120C0E729463846FF
:102A1000FFF7CEFE08B10120B9E7656129463846C7
:102A2000FFF724FCA0612661C6F3080107F134001A
:102A30000844E0610020AAE72DE9FE4F044626681D
:102A40002B20005D00F0A00010B10620BDE8FE8F35
:102A50004FF0000901E009F10109F06830F81900B0
:102A60000028F8D1D4E90912206A8DE807009DF802
:102A70000B0000F0010028B340212B2001554FF03E
:102A800001080EE04346694604F12000F26800F0B8
:102A900039FE2046FFF7EDFE054605B104E008F1DA
:102AA0000108B8F1640FEDD300BFB8F1640F01D194
:102AB0000720CBE7042D01D02846C7E79DF80B106F
:102AC0002B2001559DF80B0000F0020030B109F1F8
:102AD0000C000D21B0FBF1F0401C00E00120074686
:102AE00039462046FFF734FE05464DBB781E071ECB
:102AF00026D02069A0EB4711204600F040F805469B
:102B0000F5B904F1200001F0A8FB824600BF304671
:102B1000A16901F013FA054605B110E0FAB2E169C6
:102B20005346F06801F0E8FA012030710021204698
:102B3000FFF71DFF054615B9781E071EE7D100BF38
:102B4000DDB93046A16901F0F9F90546ADB920219A
:102B5000E069FDF702FBE069216A0160616A41609A
:102B6000218D018194F82A1081722B20005D00F0E4
:102B70001800E169087301203071284666E72DE9E5
:102B8000F04104460D462668B5F5001F02D205F057
:102B90001F0010B10220BDE8F0812561A7681FB9B0
:102BA0003078032800DBB76A47B93089B0EB551F8E
:102BB00001D80220EFE7B06AA0611CE070894FEAFB
:102BC000402811E03946204600F006FE0746781CF2
:102BD00008B90120DFE7022F02D3B069B84201D85B
:102BE0000220D8E7A5EB08054545EBD2394630462B
:102BF000FFF73CFBA0616761A06908B90220CAE742
:102C0000A06900EB5520A061C5F3080106F134006E
:102C10000844E0610020BEE770B5054615B1012DFE
:102C20000DD10BE0FEF7ECF8044634B1FEF765FA7F
:102C3000FF20FEF757FAFEF75BFA00E000BF00BF87
:102C40000CB1012070BD0020FCE700002DE9F0412F
:102C500006460F46154616B1012E2FD128E037B192
:102C6000012F1AD0022F0FD0032F1BD111E000200B
:102C700013490860FEF7BBFA08B9002400E00124FC
:102C800001200F4908600FE04FF4007028800024F5
:102C90000AE008202880002406E0FEF767F8286094
:102CA000002401E0042400BF00BF2046BDE8F081FD
:102CB00000BF042400BF00BF2046F7E70420F5E76B
:102CC000900121422DE9F04106460F4690461C46F0
:102CD00014B90420BDE8F08116B1012E14D111E021
:102CE000E2B241463846FEF787F9054645B1FEF7A0
:102CF00004FAFF20FEF7F6F9FEF7FAF90320E9E7F8
:102D00000020E7E70020E5E70420E3E770B504468C
:102D1000002514B1012C0DD10BE0FEF771F805462A
:102D200035B1FEF7EAF9FF20FEF7DCF9FEF7E0F92E
:102D300002E001E0012500BF00BF0DB1012070BD20
:102D40000020FCE72DE9F04105460E4617461C46DB
:102D500014B90420BDE8F08115B1012D0AD107E0B6
:102D6000E2B239463046FEF753FA80464046F1E774
:102D70004046EFE70420EDE710B54FF40D7001F089
:102D800005F9164908604FF40D7001F0FFF813497A
:102D900048604FF40A7001F0F9F8114908604FF4E7
:102DA0000A7001F0F3F80F4908604FF4007001F069
:102DB000EDF80D4908600948006868B107484068A7
:102DC00050B10748006838B10648006820B108468D
:102DD000006808B1002010BD0120FCE78C01002034
:102DE0009401002098010020A401002038B5054678
:102DF000284600F014FA04463CB96946284601F01A
:102E00006FFB04460CB900202860204638BD000046
:102E1000F7B582B016460398019001A800F04EFD68
:102E20000446002C02DA0B2005B0F0BD0F4850F824
:102E3000245025B100200D4941F824002870029843
:102E400040B102994C70002002990870074902981D
:102E500041F824000EB90020E6E7002202A903A8E9
:102E600000F01AFF07463846DEE700004C0000205D
:102E70002DE9F74F90B0044616461CB9092013B04F
:102E8000BDE8F08F06F03F06324603A911A800F016
:102E900003FF0546002D75D1039804904FF4007090
:102EA00000F0FCFA8346BBF1000F01D11120E6E7E8
:102EB0000398C0F80CB004A8119900F0C5FB0546B2
:102EC0002DB99DF83B0000F0800000B1062506F00A
:102ED0001C00002857D045B1042D03D104A8FFF7EA
:102EE000ABFD054646F008060AE09DF8160000F026
:102EF000110008B1072503E006F0040000B1082521
:102F0000002D51D106F0080000284DD000F0D4FC6F
:102F100001900B9901F10E00019901F08CF90B99C8
:102F200001F11600019901F086F90B99039800F060
:102F3000ECFC814620200B99C87200220B99039863
:102F400001F067F90B9901F11C00002101F073F900
:102F5000012003990871B9F1000F25D00398D0F82A
:102F600030A00022494604A801F006F90546DDB963
:102F70005146039800F0E2FF0546A9F101000399CC
:102F8000086111E078E07DB99DF8160000F01000AE
:102F900008B1042508E006F0020028B19DF81600EB
:102FA00000F0010000B107254DB906F0080008B196
:102FB00046F040060398006B20620B986062002D7B
:102FC00057D10B99039800F0A0FCA0600B9901F178
:102FD0001C0000F0ADFCE060039820600398C088FE
:102FE000A080267400206074E06160614FF400717D
:102FF00004F12800FDF7B1F806F0200058B3E068AE
:1030000048B3E06860610398408940020290A76875
:10301000D4F80C800DE03946204600F0DDFB074671
:10302000012F00D80225781C00B901250298A8EBD1
:10303000000815B902988045EDD8A7615DB9C8F3BD
:10304000080040B139460398FFF710F98246BAF1FB
:10305000000F01D102250CE00AEB5820E061E26983
:1030600003994878012304F12801FFF72BFE00B1F2
:103070000125584600F018FA0DB1002020602846BE
:10308000FDE62DE9FF4F85B0044615469A46DDF86A
:1030900018B00020CAF8000003A9204601F020FA69
:1030A0000490049810B9607C049018B1049809B099
:1030B000BDE8F08F207C00F0010008B90720F6E79A
:1030C0006169E068401A01900198854200D9019D2C
:1030D000A0E0A08AC0F3080000287ED103984089B0
:1030E000401E616900EA5129B9F1000F17D16069EA
:1030F00010B9A068029004E02046A16900F06CFBC2
:1031000002900298022802D202206074CFE702984F
:10311000401C10B901206074C9E70298A061A16940
:103120000398FFF7A3F8064616B902206074BEE7BD
:103130004E444FEA5528B8F1000F29D009EB08009A
:1031400003994989884203D903984089A0EB09086B
:1031500003994878434632465946FFF7B3FD10B10C
:1031600001206074A3E7207C00F0800068B1E06972
:10317000801B404509D2E169891B0BEB41204FF4CC
:10318000007204F12801FCF7CFFF4FEA482737E02F
:10319000E069B04220D0207C00F0800078B1E26984
:1031A00003994878012304F12801FFF7CBFD10B102
:1031B000012060747BE7207C00F07F00207403997D
:1031C00048780123324604F12801FFF77BFD18B14E
:1031D000012060746BE700E0E661A08AC0F308009C
:1031E000C0F50077AF4200D92F46A08AC0F308028D
:1031F00004F1280011183A465846FCF795FF00BF25
:10320000ED1BDAF800003844CAF80000BB446069DE
:1032100038446061002D7FF45CAF002047E7F8B5CB
:1032200004466946204601F05BF90646002E44D16B
:10323000207C00F0400000283FD0207C00F080007F
:1032400070B1E26900994878012304F12801FFF781
:1032500079FD08B10120F8BD207C00F07F002074CA
:1032600000F02AFB0746216A009800F067FE064638
:103270001EBB656AE87A40F02000E8722946A26821
:10328000206800F0C6FF05F11C00E16800F0D3FFE4
:10329000394605F1160000F0CEFF002105F11200BD
:1032A00000F0D5FF012000990871009800F0E6FFBA
:1032B0000646207C00F0BF0020743046CBE72DE9A5
:1032C000FF4F83B0044615469B46049800900020AB
:1032D000CBF8000001A9204601F002F90290029803
:1032E00010B9607C029018B1029807B0BDE8F08F69
:1032F000207C00F0020008B90720F6E700BF6069F3
:1033000028446169884202D26069C0F1FF35BBE0A0
:10331000A08AC0F30800002875D101984089401E9A
:10332000616900EA512ABAF1000F1ED1606938B90B
:10333000A76857B900212046FEF7F2FF074604E0D0
:103340002046A169FEF7ECFF074607B99FE0012F71
:1033500002D102206074C8E7781C10B901206074A3
:10336000C3E7A761A06800B9A760207C00F08000D7
:1033700078B1E26901994878012304F12801FFF747
:10338000E1FC10B101206074AFE7207C00F07F0009
:103390002074A1690198FEF769FF064616B902205C
:1033A0006074A2E756444FEA5529B9F1000F2BD0BB
:1033B0000AEB090001994989884203D9019840899B
:1033C000A0EB0A09019948784B4632460099FFF76D
:1033D000B9FC10B10120607487E7E069801B4845A3
:1033E0000ED2E069801B009A02EB40214FF400727C
:1033F00004F12800FCF798FE207C00F07F00207488
:103400004FEA49282BE013E0E069B0420FD0E168B1
:10341000606988420BD2019948780123324604F151
:103420002801FFF74FFC10B1012060745DE7E661F1
:10343000A08AC0F30800C0F50078A84500D9A846C6
:10344000A18AC1F3080204F12801501842460099EC
:10345000FCF76AFE207C40F08000207400BFA5EBE2
:103460000805DBF800004044CBF800000098404419
:103470000090606940446061E1686069884201D9F8
:10348000606900E0E068E060002D7FF441AF00BFBC
:10349000207C40F040002074002026E710B5044650
:1034A000204600F073FD10BD10B50446204600F024
:1034B0005FFD10BD10B502460020084B802A01DADE
:1034C000104609E040F2B514A14205D1FF2A03DC01
:1034D000A2F1800433F8140010BD0000264E00084D
:1034E00010B5024600200D4B802A01D290B213E0A5
:1034F000B2F5803F10D240F2B514A1420CD10020A9
:1035000001E0441CA0B2802803DA33F81040944252
:10351000F7D100F18004E0B210BD0000264E000893
:1035200070B5B0F5803F4DD281B2B1F5805F01DA60
:10353000254E00E0254E324600BF32F8023B0BB16B
:10354000994200DA3CE032F8024B2512E4B21E192F
:103550008E4230DD092D2CD2DFE805F005090F136E
:10356000171B1F232700CE1A32F8161021E0CE1A9F
:1035700006F001068E1BB1B21BE0A1F11006B1B23C
:1035800017E0A1F12006B1B213E0A1F13006B1B20B
:103590000FE0A1F11A06B1B20BE001F10806B1B2D9
:1035A00007E0A1F15006B1B203E0A1F5E356B1B2D4
:1035B00000BF00BF04E0002DBFD102EB4402BCE716
:1035C00000BF084670BD0000264F000818510008D3
:1035D0002DE9FF4107460D4600213846FEF7D6FD8E
:1035E0000646022E06D0032E00D21DB9304604B086
:1035F000BDE8F08100BF00240AE007F5F97101EB96
:10360000041101F1080000F093F94DF82400641C46
:10361000042CF2D30DB1681E00E00020044600BF68
:103620005DF8240028B15DF824103846FEF7AEFDA1
:1036300000E0032006462DB9022E03D3601C044689
:103640000428EDD33046D2E72DE9F341044627683C
:1036500002E00198401C0190019800782F28F8D0D2
:10366000019800785C28F4D00020A06001980078D0
:10367000202808D280212B20015500212046FFF769
:103680007EFA05462CE000BF01A92046FEF7D8FED1
:10369000054605B123E02046FFF7EBF805462B2051
:1036A000065D3DB1042D04D100BF06F0040000B951
:1036B000052514E006F0040000B110E0A07900F048
:1036C000100008B905250AE0208AC0F3080207F1B6
:1036D00034001118384600F018F9A060D4E700BF94
:1036E0002846BDE8FC81000000BF054A128802F0B0
:1036F0004002002AF9D0C2B2014B1B1D1A8070474C
:10370000003801402DE9FF4F83B0074691461E4621
:103710000498016839604168796001893981807A4B
:10372000B872052E19D9B04612E039F802BB002450
:103730000CE0584668F35F0080464FEA6B0B08F4D4
:10374000803010B1234888EA0008641C102CF0D3A4
:10375000B9F800000028E8D14646072400BF06F06B
:103760000F0000F1300A3609BAF1390F03DD0AF112
:10377000070000F0FF0A2046641E01A901F800A01E
:103780000CB1002EEBD17E2001A90855002509E0DF
:10379000785DFEF789FF20B1601EA84200D106E0E7
:1037A0006D1C6D1CA54202D2785D2028F0D100BFAF
:1037B00000BF082C04D22046641C01A9085C00E06C
:1037C000202029466D1C7854082DF2D307B0BDE89F
:1037D000F08F0000211001002DE9F04781460C46D2
:1037E000D9F80050022C02D3A869A04202D84FF0A9
:1037F00001085EE04FF0FF382878012804D0022845
:103800002CD0032851D13CE0264606EB5606686AC8
:1038100000EB5621284600F091FB00B148E030460D
:10382000761CC0F3080105F13400475C686A00EBC0
:103830005621284600F082FB00B139E0C6F30801AA
:1038400005F13400405C47EA002704F0010008B1AC
:10385000380901E0C7F30B00804629E0686A00EBF5
:103860001421284600F06AFB00B121E040F2FF116C
:1038700001EA440205F13401501800F065F8804671
:1038800016E0686A00EBD411284600F057FB00B13F
:103890000EE040F2FF1101EA840205F134015018F4
:1038A00000F046F820F0704802E04FF0010800BF39
:1038B00000BF4046BDE8F0870020704770B5044661
:1038C0004FF0FF3026683146324601B970BD00BF67
:1038D00012F8013B202B01D33A2BF9D13A2B11D10D
:1038E00001250E78302E08DB0E78392E05DC8E1C73
:1038F000964202D10E78A6F13005012D01DA284654
:103900002260E3E7002000BFE0E770B505460C4603
:1039100004F11A0000F018F806462878032805D1AB
:1039200004F1140000F010F846EA0046304670BD7D
:103930000146C8788A7842EA00204A7842EA0020A4
:103940000A7842EA00207047014648780A7842EA3D
:103950000020704708B5FCF7C7FFFEF7B1FEFDF782
:103960003FF84FF4A060FDF711F84FF4165000F047
:1039700067FD1DE0FDF714F80C2357A2002108464F
:10398000FDF71EF94FF4FA70FEF7BCFE0C2356A2A9
:1039900002210020FDF714F94FF4FA70FEF7B2FE91
:1039A0005548006808B9012000E00020524908602D
:1039B000FDF726FA0028DDD1FCF7F2FF0C234FA219
:1039C00000210846FDF7FCF800F0FCF8FFF7D4F9F9
:1039D0004E49012208684EA1FFF71AFA04462CB995
:1039E0000C234CA202210020FDF7EAF872E04D48BA
:1039F000008800286ED04FF4FA70FEF783FE4A4923
:103A00004AA0FDF747FF4AA14748FCF7C2FB002840
:103A10002DD1FCF7C5FF4FF400514748FCF72FFFAD
:103A200043A0FDF737FF0A2244A147480068FFF78B
:103A30001FFA04460C2345A200210846FDF7C0F8F2
:103A40003CB96B46642245493F480068FFF737FCA4
:103A500004463D480068FFF7C9F90C2340A2032142
:103A60000020FDF7ADF8C8212F48FCF776FB40A1F8
:103A70002D48FCF78EFB30BB4FF400512E48FCF76D
:103A8000FCFE3BA0FDF706FF01222CA12E4800689A
:103A9000FFF7EEF904466B466422374801682A486E
:103AA0000068FFF7EEFA044627480068FFF79EF922
:103AB0000C233148052102680020FDF781F8C82158
:103AC0001948FCF74AFBC8211748FCF746FB0020C1
:103AD000144908808BE7000053442043617264203E
:103AE0004572726F72000000506C6561736520430F
:103AF0006865636B21000000B401224253442043F7
:103B0000617264206973204F4B0000008C0100201B
:103B100030000000665F6D6F756E74206973206FF2
:103B20006B0000002C000020A8010020257300007D
:103B300057726974650D0A0000100140303A7465CF
:103B40007874312E747874009401002046696C6595
:103B5000206973206F70656E656400001C45000865
:103B6000577269746520697320646F6E6500000088
:103B7000526561640D0A0000A401002070B505467D
:103B80000F48007C20B90E4908688047012070BDAD
:103B9000B5F5705F11D269090948C06830F8112085
:103BA000002406E00020064BDB680E1923F81600FF
:103BB000641C9442F6DB0020E9E70220E7E70000FE
:103BC0003800002000B509494FF47072C868002120
:103BD00000F0ECF905494FF470528868002100F0BC
:103BE000E5F901200149087400BD000038000020FB
:103BF0002DE9F04106460024A0461A48007C10B981
:103C00001849086880471EB94FF0FF30BDE8F081C1
:103C1000C6F34F1506F01F0008B1681C85B240F2CC
:103C2000DF141AE00F48C06830F8140020B908F11A
:103C300001001FFA80F801E04FF00008A8450BD101
:103C4000002705E00748C068E11920F811507F1CE3
:103C5000AF42F7D36001D9E7641E002CE2DA4FF0DF
:103C6000FF30D3E7380000200022002106E0094899
:103C7000C06830F8110000B1521C491CB1F5F07F4A
:103C8000F5D3642050434FF4F073B0FBF3F0C0B2AF
:103C900070470000380000202DE9F74F84B0002164
:103CA000059801600498FFF709FE03900398002827
:103CB00003DA0B2007B0BDE8F08F9B49039851F859
:103CC00020400CB90C20F5E705980460069800F038
:103CD000FE000690207878B16078FFF717F8074665
:103CE00007F0010040B9069820B107F0040008B1C0
:103CF0000A20DFE70020DDE7002020706078FEF773
:103D00008BFF074607F0010008B10320D2E70698B1
:103D100020B107F0040008B10A20CBE700212046BB
:103D2000FFF756FC0546042D01D10120C2E7022D04
:103D300001D30D20BEE7D4F8309004F13F00FFF727
:103D400003FEB0F5007F01D00D20B3E704F14A0077
:103D5000FFF7FAFD064626B904F15800FFF7E8FD23
:103D60000646E6614420005DE070E078012804D05A
:103D7000E078022801D00D209CE7E07846434120FE
:103D8000005D6081608918B16089411E084008B1FA
:103D90000D208FE704F14500FFF7D6FD2081207A42
:103DA00000F00F0008B10D2084E704F14700FFF791
:103DB000CBFD8246BAF1000F04D104F15400FFF7A5
:103DC000B7FD824604F14200FFF7BEFD8346BBF11A
:103DD000000F01D10D206DE70BEB0600218900EBF0
:103DE000111002900298824501D20D2062E70298DC
:103DF000AAEB00006189B0FBF1F8B8F1000F01D126
:103E00000D2057E700254948804500D803254FF687
:103E1000F570804500D8022540F6F570804500D841
:103E200001250DB90D2045E708F10200A061C4F895
:103E3000209009EB0B00606202984844E062032D79
:103E400013D104F15E00FFF77FFD08B10D2031E7CB
:103E5000208908B10D202DE704F16000FFF768FD0F
:103E6000A062A0698000019014E0208908B90D20AB
:103E700020E7606A3044A062022D02D1A0694000B0
:103E800007E0207E00F00100A16901EB410100EB99
:103E900051000190E169019800F2FF10B1EB502F41
:103EA00001D20D2006E74FF0FF30606120618020D5
:103EB0006071032D2DD104F16400FFF745FD012849
:103EC00027D109F10101204600F038F808BB002095
:103ED000607104F23220FFF737FD4AF6552188421F
:103EE00017D104F13400FFF723FD1149884210D1A6
:103EF00004F50670FFF71CFD0E49884209D104F550
:103F00000770FFF715FD606104F50870FFF710FDFD
:103F10002061257008480088401C80B2064908804E
:103F2000E0800020C6E600004C000020F5FFFF0FF7
:103F300052526141727241615000002070B50446D6
:103F40000D460026206BA84210D0204600F0DCF978
:103F500006465EB9607801232A4604F13401FEF773
:103F6000B1FE10B14FF0FF3501262563304670BD1C
:103F700070B5044604B970BD03488068251A284608
:103F8000FFF7FCFD00BFF6E73800002070B50546DE
:103F90002846FFF72DFE0446601C08B9002070BDBE
:103FA000014880682044FAE73800002030B5034615
:103FB00001E003F8011B141EA2F10102F9D130BD8A
:103FC0002DE9F04704460D4616464FF00209022D32
:103FD00074D3A069A84271D92078012804D002289E
:103FE00049D003280DD15EE02F4607EB5707606AE2
:103FF00000EB57212046FFF7A1FF8146B9F1000FE2
:1040000000D075E038467F1CC0F3080104F134008D
:1040100001EB000805F0010028B1F1B298F80000AA
:1040200061F31F1000E0304688F800000120207185
:10403000606A00EB57212046FFF780FF8146B9F107
:10404000000F00D054E0C7F3080104F1340001EB85
:10405000000805F0010010B1C6F3071006E098F85B
:10406000000000F0F000C6F30321084388F80000C8
:10407000012020713CE0606A00EB15212046FFF72B
:104080005DFF8146B9F1000F00D031E0B1B240F2DE
:10409000FF1202EA450304F13402981800F0D7F841
:1040A0000120207124E0606A00EBD5112046FFF763
:1040B00045FF8146B9F1000F01D019E019E040F247
:1040C000FF1101EA850204F134015018FFF730FCBA
:1040D00066F31B00064640F2FF1101EA850204F177
:1040E00034015018314600F0A6F80120207100BFBD
:1040F00000BF4846BDE8F0872DE9F04707460C466B
:104100001546984684F80D800F20E0720020207339
:10411000002104F11A0000F09AF8681E00EB8001FB
:1041200001EBC00900200646824600BF4FF6FF7033
:10413000864204D0484609F1010937F810600D495C
:1041400011F80A100819314600F081F80EB94FF63F
:10415000FF760AF1010082460D28E7D34FF6FF7083
:10416000864202D037F8190008B945F0400525709D
:10417000BDE8F087984D00082DE9F04781460E46CE
:1041800017464FF00008D9F80040022E02D3A0696C
:10419000B04202D80220BDE8F08767B100BF4FF0FF
:1041A000FF3239462046FFF70BFF8046B8F1000F7B
:1041B00001D04046EFE700BF31464846FFF70CFB11
:1041C000054605B922E0012D01D10220E3E7681C74
:1041D00008B90120DFE7002231462046FFF7F0FE54
:1041E0008046B8F1000F01D04046D4E7D4E905106D
:1041F000801E814206D26069401C6061607940F097
:10420000010060712E46A069B042D5D800BF0020E1
:10421000C1E770B506460C461546A9B204F11A006E
:1042200000F015F83078032804D1290C04F11400AB
:1042300000F00DF870BD00F8011B090A00F8011B21
:10424000090A00F8011B090A00F8011B704700F871
:10425000011B091200F8011B704730B50146002010
:104260000B2200BF431003EBC01411F8015B63196C
:10427000D8B2531E1A1EF5D130BD000070B50446E9
:10428000204600F041F80546002D37D1207803285C
:104290002DD1607901282AD1410204F13400FBF7C5
:1042A0005CFF4AF6552104F23220FFF7D0FF144993
:1042B00004F13400FFF7BFFF124904F50670FFF761
:1042C000BAFF04F507706169FFF7B5FF04F50870E0
:1042D0002169FFF7B0FF206A401C2063607801234A
:1042E00004F13401226BFEF72DFD0020607160782F
:1042F00000221146FEF7AAFC00B10125284670BD38
:10430000525261417272416170B5044600252079B4
:10431000E8B16078012304F13401226BFEF712FD4D
:10432000A0B900202071616A206B401AE1698842BF
:104330000DD2E07802280AD1E369216BCA186078AF
:10434000012304F13401FEF7FDFC00E001252846BD
:1043500070BD2DE9F0410646356815F8014B204641
:10436000FEF7A2F960B115F8017B3846FEF7A2F915
:1043700018B94FF0FF30BDE8F08107EB042084B29C
:104380004CB140F2B5112046FFF794F8044614B939
:104390004FF0FF30EFE7A04635604046EBE7000006
:1043A0000FB430B58FB013A8019002A8019A1299EA
:1043B000FDF780FA0020019002A8FBF7E3FE054616
:1043C00000240CE000BF80210848FDF739F90028DF
:1043D000F9D002A8015D0548FDF7FFF9641CAC4265
:1043E000F0DB0FB030BC5DF814FB0000004400406F
:1043F0000FB430B58FB013A8019002A8019A12999A
:10440000FDF758FA0020019002A8FBF7BBFE054615
:1044100000240CE000BF80210848FDF711F90028B6
:10442000F9D002A8015D0548FDF7D7F9641CAC423C
:10443000F0DB0FB030BC5DF814FB0000004800401A
:1044400010B586B00446012144F20400FCF7E2FBFB
:104450004FF40070ADF8140003208DF816001820FA
:104460008DF8170005A91C48FCF77CF94FF4806013
:10447000ADF8140004208DF8170005A91648FCF7C4
:1044800071F925208DF8000003208DF801008DF8CA
:10449000020001208DF803006846FCF73FFA019402
:1044A0000020ADF80800ADF80A00ADF80C00ADF83A
:1044B00010000C20ADF80E0001A90848FDF71CF90A
:1044C000012240F225510548FDF7F1F8012103488A
:1044D000FDF7AAF806B010BD000801400038014001
:1044E00070B504460D4609268CB1206878B1206865
:1044F000007860B1A0882168C988884207D1216806
:104500004878FEF703FC00F0010000B900260EB960
:10451000206800E000202860304670BD5468697350
:104520002069732061206E65772066696C652C2098
:104530007468652064617461206973206A7573749E
:10454000207772697474656E20696E210000000026
:10455000000000000000000000000000000000005B
:10456000000000000000000000000000000000004B
:10457000000000000000000000000000000000003B
:104580000000000000000000002F000000000700F5
:10459000070000147F147F1400242A7F2A1200626F
:1045A000640813230036495522500000050300001B
:1045B00000001C224100000041221C000014083EA3
:1045C00008140008083E0808000000A06000000869
:1045D00008080808000060600000002010080402BD
:1045E000003E5149453E0000427F4000004261517B
:1045F0004946002141454B31001814127F10002715
:1046000045454539003C4A494930000171090503D7
:1046100000364949493600064949291E0000363608
:10462000000000005636000000081422410000146B
:104630001414141400004122140800020151090648
:1046400000324959513E007C1211127C007F4949C9
:104650004936003E41414122007F4141221C007FFA
:1046600049494941007F09090901003E4149497A08
:10467000007F0808087F0000417F41000020404182
:104680003F01007F08142241007F40404040007FEE
:10469000020C027F007F0408107F003E4141413E32
:1046A000007F09090906003E4151215E007F09197A
:1046B00029460046494949310001017F0101003F77
:1046C0004040403F001F2040201F003F4038403FF7
:1046D000006314081463000708700807006151495B
:1046E000454300007F41410000552A552A550000EE
:1046F00041417F000004020102040040404040406C
:10470000000001020400002054545478007F484403
:10471000443800384444442000384444487F00383A
:104720005454541800087E0901020018A4A4A47C63
:10473000007F080404780000447D4000004080842D
:104740007D00007F102844000000417F4000007C75
:1047500004180478007C0804047800384444443881
:1047600000FC242424180018242418FC007C0804CD
:10477000040800485454542000043F444020003CA6
:104780004040207C001C2040201C003C4030403C2D
:10479000004428102844001CA0A0A07C00446454BD
:1047A0004C44141414141414000000000000000001
:1047B0000000000000000000000000F80000000001
:1047C000000000333000000000100C06100C060042
:1047D000000000000000000040C07840C0784000A9
:1047E000043F04043F040400007088FC083000000B
:1047F000001820FF211E0000F008F000E018000063
:1048000000211C031E211E0000F00888700000001B
:104810001E2123241927211010160E00000000006D
:104820000000000000000000000000E0180402008A
:10483000000000071820400000020418E0000000FB
:104840000040201807000000404080F080404000F9
:104850000202010F01020200000000F0000000004F
:104860000101011F01010100000000000000000023
:1048700080B0700000000000000000000000000098
:104880000001010101010101000000000000000021
:1048900000303000000000000000000080601804BC
:1048A000006018060100000000E010080810E00099
:1048B000000F102020100F00001010F80000000062
:1048C0000020203F202000000070080808887000A9
:1048D0000030282422213000003008888848300029
:1048E0000018202020110E000000C02010F8000049
:1048F00000070424243F240000F8088888080800E2
:104900000019212020110E0000E0108888180000F6
:10491000000F112020110E0000380808C8380800C8
:104920000000003F00000000007088080888700048
:10493000001C222121221C0000E010080810E000C9
:104940000000312222110F00000000C0C000000052
:104950000000003030000000000000800000000077
:10496000000080600000000000008040201008006F
:104970000001020408102000404040404040400038
:104980000404040404040400000810204080000013
:104990000020100804020100007048080808F00018
:1049A0000000003036010000C030C828E810E000E8
:1049B0000718272423140B000000C038E000000073
:1049C000203C23020227382008F8888888700000DD
:1049D000203F202020110E00C030080808083800B1
:1049E000071820202010080008F808080810E00028
:1049F000203F202020100F0008F88888E8081000C9
:104A0000203F20202320180008F88888E80810009C
:104A1000203F200003000000C030080808380000D4
:104A200007182020221E020008F808000008F808D5
:104A3000203F210101213F20000808F8080800005C
:104A40000020203F2020000000000808F80808008F
:104A5000C08080807F00000008F888C02818080007
:104A6000203F20012638200008F808000000000040
:104A7000203F20202020300008F8F800F8F8080037
:104A8000203F003F003F200008F830C00008F80831
:104A9000203F200007183F00E01008080810E00041
:104AA0000F10202020100F0008F808080808F00058
:104AB000203F210101010000E01008080810E0007B
:104AC0000F18242438504F0008F888888888700010
:104AD000203F2000030C30200070880808083800B0
:104AE0000038202121221C00180808F808081800A6
:104AF0000000203F2000000008F808000008F80827
:104B0000001F202020201F000878880000C83808D7
:104B1000000007380E010000F80800F80008F8004F
:104B2000033C0700073C03000818688080681808E9
:104B300020302C03032C30200838C800C838080067
:104B40000000203F2000000010080808C8380800B6
:104B50002038262120201800000000FE020202005A
:104B60000000007F40404000000C30C0000000000A
:104B7000000000010638C00000020202FE00000032
:104B8000004040407F0000000000040202020400D8
:104B90000000000000000000000000000000000015
:104BA00080808080808080800002020400000000FD
:104BB00000000000000000000000808080800000F5
:104BC0000019242222223F2008F8008080000000E3
:104BD000003F112020110E000000008080800000A6
:104BE000000E112020201100000000808088F800B5
:104BF000000E112020103F200000808080800000E7
:104C0000001F222222221300008080F0888888184A
:104C10000020203F20200000000080808080800055
:104C2000006B94949493600008F8008080800000EA
:104C3000203F210000203F200080989800000000C5
:104C40000020203F202000000000008098980000F5
:104C500000C08080807F000008F800008080800015
:104C6000203F24022D302000000808F8000000003A
:104C70000020203F202000008080808080808000F5
:104C8000203F20003F20003F808000808080000087
:104C9000203F210000203F20000080808080000015
:104CA000001F202020201F00808000808000000046
:104CB00080FFA12020110E00000000808080800075
:104CC000000E112020A0FF80808080008080800066
:104CD00020203F2120000100000080808080800093
:104CE0000033242424241900008080E08080000008
:104CF0000000001F20200000808000000080800055
:104D0000001F202020103F208080800000808080B5
:104D100000010E3008060100808000800080808045
:104D20000F300C030C300F0000808000808080006A
:104D30000020312E0E312000808080000080808095
:104D400080818E7018060100008080808080800045
:104D50000021302C2221300000000000807C020263
:104D600000000000003F404000000000FF00000085
:104D700000000000FF0000000002027C8000000034
:104D80000040403F00000000000601010202040450
:104D9000000000000000000001030507090E1012CA
:104DA0001416181C1E809A45418E418F804545453A
:104DB0004949498E8F9092924F994F555559999ADA
:104DC0009B9C9D9E9F41494F55A5A5A6A7A8A9AA12
:104DD000ABACADAEAFB0B1B2B3B4B5B6B7B8B9BAAB
:104DE000BBBCBDBEBFC0C1C2C3C4C5C6C7C8C9CA9B
:104DF000CBCCCDCECFD0D1D2D3D4D5D6D7D8D9DA8B
:104E0000DBDCDDDEDFE0E1E2E3E4E5E6E7E8E9EA7A
:104E1000EBECEDEEEFF0F1F2F3F4F5F6F7F8F9FA6A
:104E2000FBFCFDFEFF00C700FC00E900E200E4001F
:104E3000E000E500E700EA00EB00E800EF00EE002C
:104E4000EC00C400C500C900E600C600F400F6008E
:104E5000F200FB00F900FF00D600DC00A200A30076
:104E6000A500A7209201E100ED00F300FA00F10097
:104E7000D100AA00BA00BF001023AC00BD00BC00E6
:104E8000A100AB00BB009125922593250225242586
:104E900061256225562555256325512557255D2514
:104EA0005C255B251025142534252C251C25002583
:104EB0003C255E255F255A255425692566256025F4
:104EC00050256C25672568256425652559255825B5
:104ED000522553256B256A2518250C258825842500
:104EE0008C2590258025B103DF009303C003A30325
:104EF000C303B500C403A6039803A903B4031E2289
:104F0000C603B50329226122B10065226422202351
:104F10002123F7004822B0001922B7001A227F206F
:104F2000B200A025A00061001A03E0001703F800FA
:104F30000703FF0001007801000130013201060182
:104F4000390110014A012E017901060180014D004D
:104F5000430281018201820184018401860187016B
:104F6000870189018A018B018B018D018E018F01DF
:104F700090019101910193019401F601960197012D
:104F8000980198013D029B019C019D0120029F0117
:104F9000A001A001A201A201A401A401A601A701F0
:104FA000A701A901AA01AB01AC01AC01AE01AF019F
:104FB000AF01B101B201B301B301B501B501B70150
:104FC000B801B801BA01BB01BC01BC01BE01F701C7
:104FD000C001C101C201C301C401C501C401C701AF
:104FE000C801C701CA01CB01CA01CD011001DD0111
:104FF00001008E01DE011201F3010300F101F40151
:10500000F401F8012801220212013A020900652C7C
:105010003B023B023D02662C3F024002410241023C
:1050200046020A01530240008101860155028901AE
:105030008A0158028F015A0290015C025D025E02F1
:105040005F029301610262029401640265026602DA
:105050006702970196016A02622C6C026D026E0271
:105060009C01700271029D01730274029F0176021D
:105070007702780279027A027B027C02642C7E023B
:105080007F02A60181028202A901840285028602B2
:105090008702AE014402B101B20145028D028E02C7
:1050A0008F0290029102B7017B030300FD03FE0310
:1050B000FF03AC0304008603880389038A03B1035A
:1050C0001103C2030200A303A303C4030803CC0318
:1050D00003008C038E038F03D8031801F2030A0028
:1050E000F903F303F403F503F603F703F703F903F6
:1050F000FA03FA033004200350041007600422016D
:105100008A043601C1040E01CF040100C004D0049A
:1051100044016105260400007D1D0100632C001E72
:105120009601A01E5A01001F0806101F0606201F28
:105130000806301F0806401F0606511F0700591FAA
:10514000521F5B1F541F5D1F561F5F1F601F080605
:10515000701F0E00BA1FBB1FC81FC91FCA1FCB1F5D
:10516000DA1FDB1FF81FF91FEA1FEB1FFA1FFB1FD7
:10517000801F0806901F0806A01F0806B01F040025
:10518000B81FB91FB21FBC1FCC1F0100C31FD01F07
:105190000206E01F0206E51F0100EC1FF31F0100DD
:1051A000FC1F4E21010032217021100284210100D8
:1051B0008321D0241A05302C2F04602C0201672C87
:1051C0000601752C0201802C6401002D260841FF88
:1051D0001A0300004D503100334732004D50320069
:1051E0004D5033004D5034004D344100574D410077
:1051F000464C414300000000414343004C524300F1
:10520000430000004D494400474946004A50454785
:10521000000000004F4747004A5047004800000088
:1052200042494E0033475000424D50004E45530016
:1052300054585400574156005852000800000020AE
:10524000A801000008070008D0520008A8010020AB
:10525000A0440000E81800081184A24A046809016B
:10526000020304060708090C691005100204060869
:1052700013C53B1408693C140884021420843EC200
:1052800020132052F93001200B30FC51340A312C0C
:10529000682A303419040A291C3C1AD49C1ADC04EC
:1052A0001AE0041AE4041AE8041A24401AD8081A66
:1052B00014081AF8081AEC041A340C1A04041AF028
:1052C0000C1A28081A18041A0C040A3108A801102C
:04000005080000ED02
:00000001FF
