:020000040800F2
:100000008007002035020008B51E0008E31D000827
:10001000B11E0008791C0008272D00080000000010
:10002000000000000000000000000000BD270008E4
:100030007D1C000800000000BD210008A928000860
:100040004F0200084F0200084F0200085525000823
:100050004F0200084F0200084F0200084F0200083C
:100060004F0200084F0200084F0200084F0200082C
:100070004F0200084F0200084F0200084F0200081C
:100080004F0200084F0200084F0200084F0200080C
:100090004F0200084F0200084F0200084F020008FC
:1000A0004F0200084F0200084F0200084F020008EC
:1000B0000D2900084F0200084F0200084F020008F7
:1000C0004F0200084F0200084F0200084F020008CC
:1000D0004F020008BD2A0008F52A0008312B00084D
:1000E0004F0200084F0200084F02000800F002F81B
:1000F00000F090F80AA090E8000C82448344AAF132
:100100000107DA4501D100F085F8AFF2090EBAE82F
:100110000F0013F0010F18BFFB1A43F0010318473B
:10012000343B0000543B0000103A24BF78C878C12B
:10013000FAD8520724BF30C830C144BF04680C60ED
:10014000704700000023002400250026103A28BF35
:1001500078C1FBD8520728BF30C148BF0B60704739
:100160006E2900F04983702900F05F81662903F051
:10017000B380652903F0B080672903F0AD80612961
:1001800003F0AC8003681B0A28BF41F08001692995
:1001900000F0D080642900F0CD80752900F0CA807D
:1001A0006F2900F04084782900F02B81E92900F0C4
:1001B000DB83E42900F0D883F52900F0D583EF290B
:1001C00000F03D84F82900F02A810368DB0928BF8C
:1001D00041F08001632900F04A83732900F04F83C6
:1001E000E32901F03B80F32901F0408000207047B3
:1001F0001FB501F091F804000020002103F056F82B
:10020000401C60600020002103F03AF8E0601FBD50
:1002100010B510BD01F052F81146FFF7E9FF02F0EA
:1002200007FE01F02FF903B4FFF7F2FF03BC02F061
:10023000EEFD00000948804709480047FEE7FEE759
:10024000FEE7FEE7FEE7FEE7FEE7FEE7FEE7FEE786
:1002500004480549054A064B70470000AD280008D0
:10026000ED000008800100208007002080030020AE
:1002700080030020704700001CB50C46064B7B44F1
:1002800069460090204600F0D0FA044600206946F6
:1002900000F0DEFA20461CBDCF0500000FB4044973
:1002A00010B503AA029800F0EFFA10BC5DF814FB39
:1002B000380000200FB41CB5084B06AA7B446946E1
:1002C0000090059800F0B1FA04460020694600F05D
:1002D000BFFA20461CBC5DF814FB0000910500002D
:1002E00070B50C460546012A05D02878800600D551
:1002F000EA69002302E0012305E05B1C934202D27D
:10030000E05C0028F9D1A869E618C01AA861286A3B
:1003100018442862284600F0DDF904E0D5E90121FF
:1003200014F8010B9047B442F8D3284600F0E8F9DE
:1003300070BD00002DE9F0410646002410687529C3
:10034000314616A510D000F0ECF9002802DA404240
:1003500013A507E031688A0701D512A502E0490715
:1003600004D511A5012401E000F0E4F900210A22DE
:1003700006F1240709E0B0FBF2FCB0FBF2F302FB4C
:100380001C00303078541846491C0028F3D123460D
:100390002A463046BDE8F04100F0D5B90000000023
:1003A0002D0000002B00000020000000F0B40D46DE
:1003B0000188090502D5214C7C4402E01F4C7C4495
:1003C0000E34002100F1240608E002F00F071209A4
:1003D000E75D42EA03721B097754491C52EA03079E
:1003E000F3D102780023120704D5702D06D009B18D
:1003F000022311342246F0BC00F0A5B901231034C9
:10040000F8E770B504460D462146106800F092F9F1
:10041000024629462046BDE870400023C6E7D21DAB
:1004200022F00703D3E90023C0E70368126843F012
:10043000200303600823C3610023B7E7543700009B
:100440002DE9F05F894604464FF0000ADFF874B1E9
:10045000FB44C0F820A02046E1688847002874D0FB
:10046000252806D0D4E901219047206A401C20624B
:10047000F1E700265F462046E168884720280546C8
:1004800007DB312D05D2781910F8200C08B106438E
:10049000F1E7B00701D526F00406C4F81CA0002738
:1004A000C4F818A02A2D09D0284602F0A9FC38B3B8
:1004B00004EB8708303DC8F8185019E059F8041BC0
:1004C000204604EB87029161E1688847012F0546C9
:1004D00018D1E069002820DA26F020061DE0D8F8BF
:1004E000180000EB800005EB40003038C8F8180019
:1004F0002046E1688847054602F082FC0028EED1DC
:10050000012F0AD02E2D08D12046E16888477F1C94
:100510000546022F46F02006C4DBA069002803DA56
:10052000404246F00106A061F00701D026F0100617
:100530006C2D0BD0682D09D04C2D39D06A2D35D0BB
:10054000742D35D07A2D33D016E038E0E1682F468F
:1005500020468847B842054609D16C2F26D04FF473
:100560008060E168064320468847054604E06C2F1A
:100570001AD04FF4807006430DB3A5F1410019283D
:1005800002D8203546F400664A46294620462660B1
:100590004E46FFF7E5FD80B101280BD0F61D26F091
:1005A000070000F1080956E74020E4E78020D8E77B
:1005B0000020D6E706F104094DE7284652E7206AF5
:1005C000BDE8F09FE436000010B5431C02E010F8CF
:1005D000011B71B18107FAD14FF0013202C88C1AA8
:1005E0008C4314EAC211F9D0C01A0A0603D0C01E07
:1005F00010BDC01A10BD0A0401D0801E10BD090232
:10060000FCD0401E10BD4FF000020429C0F0128043
:1006100010F0030C00F02082CCF1040CBCF1020FAE
:1006200018BF00F8012BA8BF20F8022BA1EB0C018A
:1006300000F012BA5FEAC17C24BF00F8012B00F879
:10064000012B48BF00F8012B704700004FF0013C20
:1006500050F8042B51F8043B9A4221D1A2EB0C0331
:10066000934313EACC1317D150F8042B51F8043BF1
:100670009A4215D1A2EB0C03934313EACC130BD18E
:1006800050F8042B51F8043B9A4209D1A2EB0C0319
:10069000934313EACC13DBD04FF00000704700BF48
:1006A000D01A01BAB1FA81F101F0180122FA01F071
:1006B000CB40C1F12001DBB2C0B2C01A2CFA01F369
:1006C000D11A914311EAC311E6D1704770477047C0
:1006D0007047704770B5044685690068C10601D54A
:1006E000302600E02026C00707D070BDD4E90121E4
:1006F00030469047206A401C20626D1EF6D570BDC2
:1007000070B5044685690078C00707D170BDD4E98B
:10071000012120209047206A401C20626D1EF6D5E2
:1007200070BD09684A0501D540B27047C905FCD5BE
:1007300000B2704709684A0501D5C0B27047C905C3
:10074000FCD580B270472DE9F0470D469946924698
:10075000044600F124080168880604D5E06921F008
:100760001001216000E00120A84201DD471B00E0EC
:100770000027A1697A1902EB0900081AA061207804
:10078000C00602D42046FFF7A5FF002608E0D4E902
:1007900001211AF806009047206A401C761C20624E
:1007A0004E45F4DB2078C0060AD52046FFF792FFBD
:1007B00006E0D4E9012130209047206A401C2062E5
:1007C000381EA7F10107F4DC07E0D4E9012118F88D
:1007D00005009047206A401C2062281EA5F10105F3
:1007E000F3DC2046FFF78CFF2078000602D50220BC
:1007F000BDE8F0870120FBE711680268006A530535
:1008000001D508700AE0D30501D5088006E013067B
:1008100003D5C217C1E9000200E00860012070475B
:1008200001694A1C02610878704700B58FB0CDE9B4
:1008300001310021059105497944CDE903101146A4
:100840006846FFF7FDFD0FB000BD0000E5FFFFFFAC
:100850000A6802F8010B0A60704710B5436913B1CA
:10086000AFF3008001E0FFF73BFD012010BD1278DF
:1008700000F124010A7000224A700122EDE711689C
:100880004FF0FF32E9E70000074B70B50D467B449F
:10089000FFF7CBFF0446284600F0ECFC10B14FF008
:1008A000FF3070BD204670BD832500002DE9FF5F3D
:1008B00015468A460446DFF8AC80F8440027D8E99C
:1008C00000103E46CDE9001010E03AF816106A46D6
:1008D00002A800F0D3FC411C07D02178890603D57B
:1008E000E269391891420DD80744761C20788006B9
:1008F00002D5E069B84205DDAE42E6DB3AF8160003
:100900000028E2D1A069C01BA0612046FFF7E2FEEB
:10091000D8E90010CDE90010002017E03AF81810CF
:100920006A4602A800F0AAFCB0F1FF3F81460BD056
:1009300000250DF1080B05E0D4E901211BF80500A5
:1009400090476D1C4D45F7D308F10100B042804639
:10095000E4DB206A384420622046FFF7D1FEBDE880
:10096000FF9F00008E3200002DE9F0418046D21D2D
:1009700022F007020025D2E90002F52915A614D0BD
:10098000011E72F1000106DA0023D0EB030063EBD5
:10099000020211A608E0D8F800108B0701D50FA6B7
:1009A00002E0490701D50EA601251146002408F1F1
:1009B000240704E000F075F830323A55641C50EA20
:1009C0000102F7D12B46324621464046BDE8F041B0
:1009D000FFF7B9BE000000002D0000002B00000052
:1009E0002000000030B4002100F1240408E002F0EF
:1009F0000705D208303542EA4372DB086554491CCA
:100A000052EA0305F3D10468002310A2250707D595
:100A1000A40600D421B1C46901230DA2641EC461DF
:100A200030BCFFF790BE10B5044621461068FFF7B2
:100A300081FE02462046BDE810400023D2E7D21DC9
:100A400022F00701D1E90023CCE7000000000000FC
:100A5000300000004FF0000200B513469446964661
:100A6000203922BFA0E80C50A0E80C50B1F12001C1
:100A7000BFF4F7AF090728BFA0E80C5048BF0CC06F
:100A80005DF804EB890028BF40F8042B08BF7047CD
:100A900048BF20F8022B11F0804F18BF00F8012B3F
:100AA000704730B5B0F10A024FEA900E71F10003C1
:100AB0004EEA817EB0EB0E0061EB91014FEA101E11
:100AC0004EEA017E10EB0E0041EB11114FEA102EA1
:100AD0004EEA016E10EB0E0041EB11214FEA104E71
:100AE0004EEA014E10EB0E0041EB1141401841F16E
:100AF00000014FEAD00040EA41704FEAD10110EB0B
:100B000080054FEA810444EA907444EB01046D19B6
:100B100044EB0404521BA3414FF0000348BF0A32C8
:100B200000D530BD401C41F1000130BD70472DE9BA
:100B3000FF4F0C461E464FF0FF378BB0D2E9000145
:100B4000DDF860800A908A46C1F30A5505B93D4632
:100B5000002108464FF00000BAF1000F00F44000F9
:100B600005DA00EB80004FF4400101EA50004FEA43
:100B70009059B9F1010F00DDB9460A9850EA4A00D0
:100B80000ED044F61050A5F2FF3545432F14B8F1AE
:100B9000000F1ED07542291E1EDDC9F100021CE0A7
:100BA000B8F1010F4FF0000001D0302103E0F24313
:100BB00005E02154401CB042FBDB304600220021FE
:100BC00021540B99C1F80880C1E900200FB0BDE89D
:100BD000F08FBD1B6D1CDEE74A4600DA694206A8AD
:100BE00000F0DEFB06AB93E8070003AB83E80700E9
:100BF00050460A9900F054FC8DE80700A0F500501B
:100C00001F3800900398002D0ADD42F21F014A466A
:100C10000844002303A90390684600F0BDFE09E0E4
:100C2000A0F500504A461F38002303A903906846E8
:100C300000F0C7FE8DE807000004000C03D04FF061
:100C4000FF30410800E01046B8F1000F03D0002249
:100C5000009215461EE0751E05D4FFF722FF3032C4
:100C600062556D1EF9D5B3460122084302D0002219
:100C70007F1C04E02078302801D100227F1E002A4A
:100C8000099784D01DE0112D07DAFFF70AFF3032F3
:100C900062556D1C50EA0102F5D1084302D000985C
:100CA000C8B10EE00021681E05E0235C625C63545D
:100CB0002254401E491C8142F7DBAB46A81B401E54
:100CC0000990002004F80B000B98099AC0F80880DE
:100CD000C0E9002B7AE711264FF0000857E72DE90D
:100CE000F04F88460446D21D22F0070191B0D1E9A9
:100CF0000001CDE90A0102F06FF802460B98C00F1F
:100D000001D02D2007E02068810701D52B2002E0CB
:100D1000202101EAC000032A099001D0072A05DB3F
:100D200003464146204600F0FBFA0BE1207880069E
:100D300001D5E06900E00620B8F1650F814606D0D4
:100D4000B8F1660F18D0B8F1670F70D131E000200C
:100D5000B9F1110F009001DB112301E009F101034A
:100D60000AAA01A90CA8FFF7E2FEDDE90C70002633
:100D700009F10105834647E001204B4600904FF002
:100D800000470AAA01A90CA8FFF7D1FEDDE90DB0C2
:100D90000C995D46002610B909F101000D18B9EB58
:100DA000050003D4C0F1FF3609F10105A5EB0900E8
:100DB0002BE0B9F1010F01DA4FF001090020B9F180
:100DC000110F0090484601DD112300E003460AAAF6
:100DD00001A90CA8FFF7ABFEDDE90C704D4600261B
:100DE0008346207800070AD4AB4500DA5D4601A8A7
:100DF000012D04DD411911F8011C302907D04F45A0
:100E000002DA17F1040F04DA012082460FE06D1EAA
:100E1000EEE7002F02DCED1B3E4403E0781CA84205
:100E200000DD7D1CB81B00F1010A4FF0004720785F
:100E3000000703D4AA4501DB4FF0FF3A0021B7F1C8
:100E4000004F0DF143088DF8431024D002202B23CE
:100E5000002F01DA7F422D230A21021EA0F101009A
:100E600000DC5FB197FBF1FC97FBF1F201FB1C7C0E
:100E700017460CF1300C08F801CDEEE7A8F101009F
:100E800003702188090501D5452100E06521A0F105
:100E9000010800F8011C09980FA9A1EB0807FF1D24
:100EA00000B10120411901EBEA70A1693844081A28
:100EB000401EA0612078C00602D42046FFF70AFC3D
:100EC000099828B1D4E901219047206A401C20628A
:100ED0002078C00622D52046FFF7FCFB1EE0002E3E
:100EE00004DBB34502DD01A8805D00E03020D4E9D9
:100EF00001219047206A401C2062761CAAF1010063
:100F00005FEA000A0AD100F007FAC0680168405C95
:100F1000D4E901219047206A401C2062281EA5F1D7
:100F20000105DCDC07E0D4E9012118F8010B90474A
:100F3000206A401C2062381EA7F10107F3DC20461E
:100F4000FFF7DEFB032011B041E600002DE9F04F72
:100F500004460D46D21D22F0070089B0D0E9009763
:100F60004846394601F038FF0246F80F01D02D23DC
:100F700007E02068810701D52B2302E0202101EA48
:100F8000C0038DF820300BB1012000E00020032ABF
:100F9000824601D0072A04DB2946204600F0C0F92A
:100FA0003FE12078800601D40D2500E0E569C7F314
:100FB0000A560D2D49DA00214FEA175B08464FF01B
:100FC0000000002F00F4400007DA00EB80004FF42F
:100FD000400100EBD07001EA60008115012901DDBC
:100FE0004FF0FF3100224FEA850CBCF1180F06D3F9
:100FF0001346ACF118004FF08052C24003E04FF4AA
:10100000801323FA0CF30CF10C0CBCF1200F04D369
:10101000ACF1200C09FA0CF001E007FA0CF0002901
:101020004FF0004801DD18B90FE00ED140450CD358
:1010300019EB02095F4121B9404502D19F4329EADA
:101040000209BBEB175F00D0761C2088000502D593
:101050007B48784402E07A487844193808AA30235B
:1010600002F80A30037C0AF10101002E0AF1020A9B
:1010700053546A4602DC4FF0300101E04FF0310179
:101080004FF001088DF8001002D0A6F2FF3603E001
:1010900059EA470100D06B4E002D02DC2178090788
:1010A00004D54FF002082E218DF80110C44600210E
:1010B0000BE0C7F303433F01C35C491C6D1E02F8FC
:1010C0000830052908F1010801DA002DF1DC0021C2
:1010D0000CE000EB1973491C1B786D1E082902F8FF
:1010E00008304FEA091908F1010801DA002DF0DC97
:1010F00021688B0602D516E0A8F10108E04505DD60
:1011000002EB080313F8013C302BF5D0B8F1000FC7
:1011100009DD02EB080313F8013C2E2B03D109076C
:1011200001D4A8F10108002D05DD3E2102F80810C8
:101130006D1E08F10108407C002E02F8080008F13D
:10114000010804DA2D20764202F8080002E02B2084
:1011500002F808000A214FF47A70864208F101086B
:101160000BDB96FBF0F3303302F8083096FBF0F31C
:1011700008F1010800FB136601E0642E0CDB64201B
:1011800096FBF0F3303302F8083096FBF0F308F1E9
:10119000010800FB136601E00A2E06DB96FBF1F066
:1011A000303002F8080008F1010896FBF1F001FB6D
:1011B0001060303002F80800A16908F1010808EB5E
:1011C000050202EB0A00081AA0612078C00602D4CA
:1011D0002046FFF77FFA216A08AE01EB0A00206281
:1011E00004E0D4E9012116F8010B9047BAF1010A95
:1011F000F7D22078C00602D52046FFF76BFA6E467C
:1012000009E016F8010B3E280FD0D4E901219047E0
:10121000206A401C2062B8F10108F2D22046FFF794
:101220006FFA09B00320BDE8F08F206A28442062DD
:1012300003E0D4E90121302090476D1EEBD3F8E79D
:10124000112B000002FCFFFF10B5436913B1AFF38F
:10125000008001E0FFF72AFB012010BD128800F199
:10126000240182840022C2840122EDE711684FF03C
:10127000FF32E9E7007B00F08000704770B516464A
:101280000C46054600F040F8036893F80101012878
:1012900006D0FF2C0FD8185D68B101202C7070BDEE
:1012A000D3F807013246214603F2071303442846C8
:1012B000BDE8704018474FF0FF3070BD754600F034
:1012C000EBF8AE4605006946534620F00700854618
:1012D00018B020B5FEF7BCFFBDE820404FF0000677
:1012E0004FF000074FF000084FF0000B21F007010E
:1012F000AC46ACE8C009ACE8C009ACE8C009ACE851
:10130000C0098D467047000010B500F005F8001DBB
:1013100010BD00BF991F0000004870474001002029
:101320002DE9F0411F46044603260168072A01F40F
:10133000006004DB08B116A505E016A503E008B1BE
:1013400015A500E015A521F010002060A069C01EC1
:10135000A0610FB1401EA0612046FFF7BBF94FB15D
:10136000D4E9012138469047206A401C2062C01C05
:10137000206206E0206AFAE7D4E9012115F8010BA2
:101380009047761EF8D22046FFF7BAF9BDE8F08103
:101390004E414E006E616E00494E4600696E660019
:1013A0002DE9F047814616468AB0354878440DC885
:1013B0008DE80D0032487844801C03AC0DC884E8E9
:1013C0000D0041F69B300844372190FBF1F290FB71
:1013D000F1F5A5F1800501FB12041B3C02D5644226
:1013E000012000E00020DFF898A080460027FA44A2
:1013F000AAF1BE0A0EE0E0070AD03246684607EBC3
:10140000470101230AEB810100F0DBFA8DE80700B8
:1014100064107F1C002CEED1194F7F44AE3F19E0C1
:10142000E80715D007EB04100DF1180A90E80E003C
:101430008AE80E00C068F04201D19819089032463F
:10144000012306A903A800F0BCFA03AB83E8070058
:101450006D10641C002DE3D14FF001033246694644
:10146000B8F1000F03A802D000F096FA01E000F0F6
:10147000A8FAC9E90001C9F808200AB0BDE8F08758
:101480004828000010B50446AFF300802046BDE8B0
:101490001040FEF7C8BE0000004870472001002041
:1014A0005FEA400C08BF91F0000F4FEA8C234FEA2F
:1014B000C12243EA51514FEA1C5018BF00F5F040D9
:1014C0004FEA300018BF41F000415FEA6C5C00F069
:1014D0002980BCF1FF3F08BF40F080407047130CEB
:1014E00006BF12044FF0100C4FF0000C130E04BF97
:1014F00012020CF1080C130F04BF12010CF1040CC2
:10150000930F04BF92000CF1020CD30F04BF5200E2
:101510000CF1010C11464FF00002A0F11F00A0EBEE
:101520000C00704711F0004F08BF704731F00041C8
:101530003FF4D5AF0B0C06BF09044FF0100C4FF071
:10154000000C0B0E04BF09020CF1080C0B0F04BFBA
:1015500009010CF1040C8B0F04BF89000CF1020C83
:10156000CB0F04BF49000CF1010CCCF12003A0EB20
:101570000C0022FA03F302FA0CF241EA030100F133
:101580000100704720F07F4C80EA030023F07F4782
:10159000ACEB070303F57C5300F0004003F1FF03BD
:1015A0002DE980494FEA154B09B44FEA144325EA67
:1015B0000B4E24EA03480FF2042606EB13274908D2
:1015C0003E785FEA320203FB0667C7F5000707FBB8
:1015D00006F64FEA54374FEAD64606F1020607FBF5
:1015E000066CCCF1005C4FEA1C472CEA074C07FB69
:1015F00006F40CFB06F504EB15464FEA961634BFCD
:1016000000204FF000404FEAD13706FB07FC4FEABD
:101610001C4C0CFB0BF7D21B03FB0CF761EB070117
:101620000CFB0EF7B0EB074072EB17420CFB08F710
:1016300034BFA2EB0742B2EB074261EB17414FEA1E
:101640000C444FEA910706FB07FC4FEA1C4C0CFBCD
:101650000BF7B0EBC74072EB573203FB0CF734BF0C
:10166000A2EBC742B2EBC74261EB57310CFB0EF75E
:10167000B0EBC70072EB57720CFB08F734BFA2EB5C
:10168000C702B2EBC70261EB5771039F4FEA81615A
:1016900041EA921104EBCC044FEAD1374FEA82625F
:1016A00006FB07FC42EA90124FEA80604FEA1C4CAE
:1016B0000CFB0BF7D21B03FB0CF761EB07010CFBD8
:1016C0000EF7B0EB074072EB17420CFB08F734BF84
:1016D000A2EB0742B2EB074261EB17414FEA8C5590
:1016E0004FEA910704EB9C2406FB07FC4FEA1C4CD5
:1016F0000CFB0BF7B0EBC74072EB573203FB0CF758
:1017000034BFA2EBC742B2EBC74261EB57310CFBCF
:101710000EF7B0EBC70072EB57720CFB08F734BF43
:10172000A2EBC702B2EBC70261EB577115EB4C2578
:101730004FEA816141EA92114FEA82624FEAD13762
:1017400042EA901206FB07FC44F100044FEA806075
:101750004FEA1C4C0CFB0BF7D21B03FB0CF761EBA5
:1017600007010CFB0EF7B0EB074072EB17420CFBC6
:1017700008F734BFA2EB0742B2EB074261EB174117
:1017800015EB1C154FEA813141EA92414FEA823252
:1017900042EA90424FEA80304FEA0C7644F100046E
:1017A00048EA03434EEA0B484FF0000EB2EB080C38
:1017B00071EB030724BF624639464EEB0E0E4FF025
:1017C000000B0018524149414BEB0B0BB2EB080CDC
:1017D00071EB03077BF1000B24BF624639464EEBE9
:1017E0000E0E4FF0000B0018524149414BEB0B0B12
:1017F000B2EB080C71EB03077BF1000B24BF6246D0
:1018000039464EEB0E0E51EA020718BF46F00106AC
:1018100016EB0E7655F1000254F1000103D5BDE838
:101820008901BDE80088BDE88901BDE80048B61916
:10183000524141EB0101A3F10103704780807F7E9B
:101840007D7C7B7A79787776767574737271717036
:101850006F6E6E6D6C6C6B6A6A69686867666665E8
:101860006464636362616160605F5F5E5E5D5D5C76
:101870005C5B5B5A5A5959585857575656555555E7
:101880005454535352525251515050504F4F4F4E47
:101890004E4D4D4D4C4C4C4B4B4B4A4A4A49494995
:1018A00048484847474747464646454545444444D7
:1018B000444343434342424242414141002B9C4600
:1018C00030D477002BD01CB54FEA370703B44FF064
:1018D00010004FF01001BAF1000F06D0BCF1000F5C
:1018E000DCBF40F0080040F008014FF000000FBCE2
:1018F000BDE810400BF1010BBBF1010F08BF5FEA1F
:10190000170722BF12F1010211F101014FF000414E
:1019100043F1000300F0004043EA00007047F9D3B0
:101920005708D0E746EA064613F1400F4FEA16463D
:101930001FDD13F1200FDFBF16430A4600212033BD
:101940005B42BED0C3F1200746EA064602FA07F71B
:101950004FEA164646EA0706C3F1200722FA03F2C9
:1019600001FA07F721FA03F14FF0000342EA0702F8
:10197000A7E746EA020646EA06464FEA164646EA60
:101980000106BCBF46EA0646360C4FF000034FF096
:1019900000024FF0000194E72DE9804C9A469346EF
:1019A00070B491E8380007C831EA400C48BF34EA07
:1019B000430C03D5FFF7E6FDFFF780FFF0BCBDE861
:1019C000008C2DE9804C9A46934670B491E838001B
:1019D00007C810F0804F08BF13F0804F03D100F00C
:1019E00005F8FFF76BFFF0BCBDE8008C20F07F47E7
:1019F00080EA030023F07F4C07EB0C03A3F57C5334
:101A000000F00040A3F1FE0392F0000F00F0B3805D
:101A100095F0000F00F077802DE901494FEA114061
:101A20004FEA144621EA004800FB06FC24EA064778
:101A300008FB06F607FB08F800FB07F718EB06485B
:101A40004CEB164C4FEA124B18EB07484FEA154681
:101A50004CEB174022EA0B4E0BFB06FC25EA06472F
:101A60000EFB06F607FB0EFE0BFB07F71EEB064E02
:101A70004CEB164C4FF000061EEB074E4CEB174B91
:101A800018EB0B0840F1000018EB0E0B58EB0008A8
:101A900040F100008F1A4FF000013CBFC943661BA4
:101AA00014BFB5EB040C00213CBFC943F61B4FEA41
:101AB00017444EEA8E0E27EA04454FEA1C4704FB02
:101AC00007622CEA074C05FB07F70CFB05F604FB45
:101AD0000CFC16EB074642EB174216EB0C4642EBAA
:101AE0001C421BEB060658EB0202414146EA9E06E9
:101AF00001D5BDE80189B619524141EB0101A3F1BD
:101B00000103BDE801894FEA14454FEA114724EA71
:101B1000054621EA074C05FB07F406FB07F70CFB1B
:101B200006F105FB0CFC11EB074144EB17444FEAAF
:101B3000124711EB0C4144EB1C4422EA074C05FB15
:101B400007F206FB07F70CFB06F605FB0CFC16EB91
:101B5000074642EB174216EB0C4642EB1C456A184F
:101B600054F1000148BF7047B619524141EB0101E1
:101B7000A3F10103704795F0000F37D04FEA1142EF
:101B80004FEA144721EA024624EA074C02FB07F118
:101B900006FB07F70CFB06F402FB0CFC14EB0744F6
:101BA00041EB17414FEA154714EB0C4441EB1C4144
:101BB00025EA074C02FB07F506FB07F70CFB06F6C8
:101BC00002FB0CFC16EB074645EB174516EB0C46E3
:101BD00045EB1C42121951F1000148BF7047B6197C
:101BE000524141EB0101A3F1010370474FEA144553
:101BF0004FEA114724EA054621EA074C05FB07F1A5
:101C000006FB07F70CFB06F24FF0000605FB0CFC89
:101C100012EB074241EB174112EB0C4251EB1C4116
:101C200048BF7047921841EB0101A3F101037047CF
:101C300010B5012000F0E4FA002000F0E1FA10BD38
:101C400008B5014600200090034800900098084421
:101C500000900098008808BD006C004008B5002284
:101C60000092044A0092009A02440092009A116085
:101C700008BD0000006C004000BFFEE7704700B5E3
:101C8000034603E04FF47A7000F005F8181EA3F144
:101C90000103F7D100BD00EBC001C9004FF0E02205
:101CA0005161002191610521116100BF4FF0E021D8
:101CB000096901F480310029F8D004214FF0E022B5
:101CC000116170472DE9F0410246002500260020F1
:101CD00000230024002791F803C00CF00F0591F8B1
:101CE00003C00CF0100CBCF1000F03D091F802C03F
:101CF0004CEA050591F800C0BCF1000F31D0146822
:101D000000202BE04FF0010C0CFA00F3B1F800C0FA
:101D10000CEA03069E4220D183004FF00F0C0CFA10
:101D200003F7BC4305FA03FC4CEA040491F803C032
:101D3000BCF1280F06D14FF0010C0CFA00FCC2F8E0
:101D400014C00AE091F803C0BCF1480F05D14FF070
:101D5000010C0CFA00FCC2F810C0401C0828D1D3BA
:101D60001460B1F800C0BCF1FF0F34DD54680020EE
:101D70002EE000F1080C4FF0010808FA0CF3B1F85E
:101D800000C00CEA03069E4221D183004FF00F0CE5
:101D90000CFA03F7BC4305FA03FC4CEA040491F87F
:101DA00003C0BCF1280F05D100F1080C08FA0CF8AB
:101DB000C2F8148091F803C0BCF1480F07D100F1BC
:101DC000080C4FF0010808FA0CF8C2F81080401C0B
:101DD0000828CED35460BDE8F081416170470161AD
:101DE000704700BFFEE7000010B502210748FFF76B
:101DF000F6FF01210548FFF7F2FF01210348FFF735
:101E0000ECFF02210148FFF7E8FF10BD0008014088
:101E100010B502210548FFF7E2FF01210348FFF753
:101E2000DCFF01210148FFF7DAFF10BD0008014087
:101E300010B502210348FFF7D2FF02210148FFF746
:101E4000CCFF10BD000801400146CA1701EB927299
:101E50009210A1EB820292B9642091FBF0F200FB98
:101E6000121050B94FF4C87091FBF0F200FB121041
:101E700008B9012070470020FCE70120FAE70020A4
:101E8000F8E7000008B50121102000F0A9F91020A2
:101E90008DF803004002ADF8000003208DF8020029
:101EA00069460248FFF70EFF08BD00000010014020
:101EB00000BFFEE77047000070B5002100230F222D
:101EC000C47804B3154C246804F4E064C4F5E064F9
:101ED000210AC1F10403CA40447804FA03F184786A
:101EE0001440214309010E4C0678A155047804F0F2
:101EF0001F050124AC4005786D11AD0005F1E0250A
:101F0000C5F8004109E0047804F01F050124AC4045
:101F1000044D0678761145F8264070BD0CED00E0C2
:101F200000E400E080E100E002490143024A116060
:101F3000704700000000FA050CED00E070B50024C9
:101F400018E004F1B000002100F025F90021084656
:101F500000F021F90021102000F01DF9002505E016
:101F60000121002000F017F9681CC5B2802DF7DBB5
:101F7000601CC4B2082CE4DB70BD000008B5012170
:101F8000042000F02DF90320ADF8000010208DF89A
:101F9000030003208DF8020069463C48FFF792FEDB
:101FA00003213A48FFF71BFF4FF44870FFF767FE25
:101FB0000021AE2000F0EFF80021084600F0EBF819
:101FC0000021102000F0E7F80021402000F0E3F8A5
:101FD0000021B02000F0DFF80021812000F0DBF8C4
:101FE0000021FF2000F0D7F80021A12000F0D3F855
:101FF0000021A62000F0CFF80021A82000F0CBF8A7
:1020000000213F2000F0C7F80021C82000F0C3F8ED
:102010000021D32000F0BFF80021084600F0BBF8F3
:102020000021D52000F0B7F80021802000F0B3F89F
:102030000021D82000F0AFF80021052000F0ABF817
:102040000021D92000F0A7F80021F12000F0A3F82A
:102050000021DA2000F09FF80021122000F09BF808
:102060000021DB2000F097F80021302000F093F8E9
:1020700000218D2000F08FF80021142000F08BF853
:102080000021AF2000F087F808BD000000080140E3
:1020900070B504460D4605F1B000002100F07BF854
:1020A000102141EA1410002100F075F804F00F002F
:1020B000002100F070F870BD2DE9F04707460E468C
:1020C0009046994600250024A8F12000C5B27F2F34
:1020D00002DD0027B01CC6B2B9F1100F24D1314681
:1020E0003846FFF7D5FF002408E004EB0511194A34
:1020F000505C012100F04FF8601CC4B2082CF4DBE6
:10210000701CC1B23846FFF7C3FF002409E004EB9E
:10211000051108310F4A505C012100F03CF8601CA9
:10212000C4B2082CF3DB12E031463846FFF7B0FFAB
:1021300000240AE005EB4501074A02EB4101085D76
:10214000012100F028F8601CC4B2062CF2DBBDE8C7
:10215000F087000008350008E03200082DE9F04162
:1021600004460F461546984600260FE0AA5D4346F2
:1021700039462046FFF7A0FF04F10800C4B2782CCE
:1021800002DD0024B81CC7B2701CC6B2A85D0028CE
:10219000ECD1BDE8F08170B504460D461DB1E0B24A
:1021A00000F004FE02E0E0B200F0EAFD70BD0000C5
:1021B000014908627047000000000E4270470000AD
:1021C00029B1064AD2690243044BDA6104E0034AAA
:1021D000D2698243014BDA6170470000001002406F
:1021E00029B1064A92690243044B9A6104E0034A0A
:1021F00092698243014B9A617047000000100240CF
:1022000001490860704700004004424230B5002197
:102210000022002400232D4D6D6805F00C0121B132
:10222000042905D0082923D105E0294D056022E0C5
:10223000274D05601FE0254D6D6805F47012234D94
:102240006D6805F48034022505EB92421CB9214DDE
:10225000554305600BE01D4D6D6805F400351DB15B
:102260001C4D5543056002E0194D5543056002E0E1
:10227000174D056000BF00BF144D6D6805F0F001FB
:102280000909154D6B5C0568DD4045600F4D6D68B3
:1022900005F4E061090A104D6B5C4568DD4085601E
:1022A0000A4D6D6805F46051C90A0B4D6B5C4568B9
:1022B000DD40C560054D6D6805F44041890B074D53
:1022C0006B5CC568B5FBF3F5056130BD00100240DD
:1022D00000127A0000093D000000002010000020DC
:1022E00010B501460022002300204A11012A02D124
:1022F000094C236806E0022A02D1074C236A01E058
:10230000054C636A01F01F02012494401C400CB18B
:10231000012000E0002010BD0010024000210B4A07
:1023200011700A4A203A82F82010012802D00428AD
:1023300008D103E00121054A117004E00521034A98
:10234000117000E000BF00BF704700002010024085
:1023500001490860704700003C0442420249096A92
:102360000143014A11627047001002400249098886
:102370008143014A118070470428004003480088C7
:1023800040F0100001490880704700000428004018
:10239000034800884FF6EF710840014908807047F4
:1023A0000428004070B500260024002500F07AF8CB
:1023B00006463848B6FBF0F437480088A0423CD0C7
:1023C00035490C8040F2B27510E02846FFF73CFD1D
:1023D00040B1B4F5B77F02D3A4F5B77404E0681C2C
:1023E00085B206E0A4F26D14681C85B2B4F5B67F20
:1023F000EBD800BF29488580002516E0274988884A
:10240000FFF722FD30B1012D04D11D2C01D31D3C5D
:1024100009E00CE02248405DA04203D82048405D1E
:10242000241A00E003E0681C85B21C2CE6D200BF31
:10243000681C1A498871601CC8711648B6FBF0F117
:1024400000FB11644FF46160B4FBF0F013490870B5
:102450004FF46160B4FBF0F100FB11403C21B0FB94
:10246000F1F00E4948704FF46160B4FBF0F100FBED
:1024700011403C21B0FBF1F201FB120007498870CA
:102480000B46DA799979988800F028F803490872A0
:10249000002070BD80510100300000204C00002061
:1024A000043B0008002103480188001F008841EA1E
:1024B000004070471C28004001460020064A128850
:1024C0000A40D0B2044A121F12880A4012B108B161
:1024D000012000E00020704704280040F0B50346CA
:1024E0000C461546642093FBF0F0C6B2642093FBC3
:1024F000F0F700FB1730C1B2132E02DD01F16400CA
:10250000C1B20846CF1701EB977701EBA707BAB224
:10251000072092FBF0F700FB172082B25719601ECC
:10252000DFF82CC01CF80000384482B2CF1701EB52
:102530009777BF10A1EB87071FB9032C01DA501E54
:1025400082B2072092FBF0F700FB1720C0B2F0BD6B
:10255000F83A000810B50120FFF7AEFF08B1FFF709
:1025600021FF0220FFF7A8FF10B10220FFF7FEFEB7
:102570000520FFF7FBFE00F005F910BD29B1064A62
:1025800012880243044B1A8004E0034A12888243F3
:10259000014B1A8070470000002800401CB5002441
:1025A00001214FF0C050FFF70BFE0120FFF700FEA6
:1025B0000420FFF745FB45F2500188423FD0FFF76A
:1025C00037FB0120FFF7AAFE04E0601CC4B20A201A
:1025D000FFF755FB4120FFF783FE0028F5D0FA2CCA
:1025E00001DB01201CBD4FF48070FFF7B7FE012016
:1025F000FFF7AEFE00F0C6F800F0CEF80121084665
:10260000FFF7BCFF00F0BEF8FFF7B8FE47F6FF701B
:1026100000F0A8F800F0B6F83720122110230B22A2
:10262000CDE900100C2140F2E77000F027F8FFF729
:10263000AFFE45F250010420FFF710FB07E000F069
:10264000ABF801210846FFF799FF00F09BF800F076
:1026500004F8FFF7A7FE0020C4E708B503208DF8B3
:10266000000000208DF801008DF8020001208DF897
:1026700003006846FFF720FC08BD00002DE9F05F6D
:1026800006460F4690469946DDE90AAB002440F223
:10269000B270864203DB40F63300864202DD012041
:1026A000BDE8F09F40F2B2750AE02846FFF7CCFB88
:1026B00010B12148044401E020480444681C85B25C
:1026C000B542F2DB781EC7B2002510E01C48405D21
:1026D00040F2A321484304EBC0143046FFF7B4FB9B
:1026E00018B1012D01D117480444681C85B2BD42C0
:1026F000ECDBA8F1010040F2A321484304EBC01435
:10270000C9EB4910C0EB092004EB0014CAEB0A1016
:1027100004EB80045C4401214FF0C050FFF750FDF2
:102720000120FFF745FD204600F00EF800F02AF8E2
:10273000FFF738FE0020B3E70085E2018033E101B6
:10274000043B00088051010000B50246FFF716FE69
:10275000100C03490880091D0A80FFF719FE00BD0F
:102760001828004000B50246FFF708FEC2F30340F8
:1027700003490880091D0A80FFF70AFE00BD00001A
:102780000828004000BF0348008800F0200000280F
:10279000F9D0704704280040074800884FF6F771C9
:1027A00008400549088000BF0348008800F0080081
:1027B0000028F9D07047000004280040704710B589
:1027C00000F002F810BD00000CB500200190009050
:1027D0003348006840F480303149086000BF304819
:1027E000006800F4003000900198401C01900098AF
:1027F00018B90198B0F5A06FF1D12948006800F42C
:10280000003010B10120009001E0002000900098FD
:10281000012843D12348006840F010002149086096
:102820000846006820F0030008600846006840F091
:10283000020008601A484068194948600846406824
:1028400048600846406840F4806048600846406838
:1028500020F47C1048600846406840F4E810486066
:102860000846006840F08070086000BF0C480068AF
:1028700000F000700028F9D00948406820F00300FB
:10288000074948600846406840F00200486000BFC1
:102890000348406800F00C000828F9D10CBD000086
:1028A00000100240002002407047000010B513489D
:1028B000006840F00100114908600846406810496E
:1028C00008400E494860084600680E4908400B4918
:1028D00008600846006820F48020086008464068C8
:1028E00020F4FE0048604FF41F008860FFF767FF88
:1028F0004FF000600449086010BD00000010024065
:102900000000FFF8FFFFF6FE08ED00E010B5012122
:10291000880700F021F8012808D10548007B401CF9
:10292000034908730121880700F007F810BD000073
:102930003C000020CA4302827047CA4302827047AB
:1029400021B1028842F00102028004E002884FF6C1
:10295000FE731A400280704730B502460020002303
:102960000024158A05EA0103958905EA010413B1DB
:102970000CB1012000E0002030BD1AB183890B4367
:10298000838102E083898B438381704701894FF6FD
:10299000F872114001817047002202881D4B984255
:1029A0000ED01D4B98420BD0B0F1804F08D01B4B7E
:1029B000984205D01A4B984202D01A4B984204D143
:1029C0004FF68F731A404B881A43174B984207D023
:1029D000164B984204D04FF6FF431A40CB881A4357
:1029E00002808B8883850B8803850A4B98420BD025
:1029F000094B984208D00E4B984205D00D4B984297
:102A000002D00D4B984201D10B7A038601238382B9
:102A100070470000002C01400034014000040040D9
:102A200000080040000C004000100040001400406E
:102A30000040014000440140004801401FB5012111
:102A40000846FFF7BDFB4FF08040FFF79FFF0020D7
:102A5000ADF80A00ADF8060042F20F70ADF80800BC
:102A600041F61F40ADF8040000208DF80C0001A9CC
:102A70004FF08040FFF790FF01218807FFF75AFFD2
:102A8000012211469007FFF778FF4FF4A060FFF78F
:102A90004BFA1C208DF8000001208DF80300022065
:102AA0008DF8010001208DF802006846FFF704FA56
:102AB00001218807FFF744FF1FBD000010B540F259
:102AC0002551094800F06BF860B1074800F022F981
:102AD000C4B2064806490988445405480088401C89
:102AE0000349088010BD0000003801405600002056
:102AF0003400002010B540F22551064800F04FF890
:102B000038B1044800F006F9C4B2214602A000F032
:102B100017FB10BD00440040CAD5B5BDC1CBD2BB28
:102B2000B8F6D7D6B7FB3A2025630D0A000000009F
:102B300010B540F22551064800F031F838B104488C
:102B400000F0E8F8C4B2214602A000F021FB10BD5D
:102B500000480040CAD5B5BDC1CBD2BBB8F6D7D668
:102B6000B7FB3A2025630D0A0000000021B18289DD
:102B700042F40052828104E082894DF6FF731A40CC
:102B80008281704702460020B1F5007F00D100BF6E
:102B900013880B400BB1012000E00020704770B596
:102BA0000246002400230025002040F66A16B142A8
:102BB00000D100BFC1F3421501F01F03012606FA40
:102BC00003F3012D02D19689334006E0022D02D194
:102BD000168A334001E0968A33400C12012606FA29
:102BE00004F41688344013B10CB1012000E0002039
:102BF00070BDF0B50346002400260025002040F6F5
:102C00006A17B94200D100BF1846C1F3421401F05F
:102C10001F06012707FA06F5012C01D10C3004E04C
:102C2000022C01D1103000E014301AB107682F4394
:102C3000076002E00768AF430760F0BD2DE9F04789
:102C400086B005460E460024A24600BFA1460027D6
:102C5000B08900B100BF2F462C8A4CF6FF700440AB
:102C6000F08804432C82AC894EF6F3100440B088FF
:102C700031890843718908430443AC81AC8A4FF61B
:102C8000FF400440B0890443AC8201A8FFF7BEFABC
:102C90001F48874202D1DDF810A001E0DDF80CA04A
:102CA000A88900F4004040B10AEBCA0000EB0A100A
:102CB00031684900B0FBF1F807E00AEBCA0000EB0D
:102CC0000A1031688900B0FBF1F86420B8FBF0F01D
:102CD00004012009642101FB1089A88900F4004047
:102CE00040B1322000EBC900B0FBF1F000F007006A
:102CF000044308E0322000EB09106421B0FBF1F03E
:102D000000F00F0004432C8106B0BDE8F0870000FE
:102D10000038014001468888C0F308007047C1F3BD
:102D200008028280704700BFFEE700002DE9F041F5
:102D300005462C4602211148FFF74FF8002619E0FE
:102D4000274607F08007802F04D101210B48FFF7A9
:102D500046F803E001210948FFF73FF86006040E3A
:102D600002210648FFF73BF802210448FFF735F837
:102D7000701CC6B2082EE3DBBDE8F08100080140FC
:102D800010B50446FFF730F87820FFF7CFFFFFF7C4
:102D90004FF80020FFF7CAFFFFF74AF82046FFF779
:102DA000C5FFFFF745F8FFF733F810BD10B504462F
:102DB000FFF71AF87820FFF7B9FFFFF739F840203E
:102DC000FFF7B4FFFFF734F82046FFF7AFFFFFF738
:102DD0002FF8FFF71DF810BD490050EAC12018BFB9
:102DE00004204A0D18BF40F0010040F2FF72B2EB20
:102DF000515F08BF40F00200012808BF052070475E
:102E000030380A2801D2012070470020704700BFE7
:102E10007047000000BF054A128802F04002002AF5
:102E2000F9D0C2B2014B1B1D1A8070470038014017
:102E3000ACB040F2E770934908800C2088701020F5
:102E4000C8700020087148718871FFF71BF84FF4B3
:102E5000A060FFF769F84FF4165000F0C1F9FFF7D2
:102E60008DF8FFF7EBFDFFF769F800BFFFF796FB62
:102E70000028FBD18348807982494979814CCDE98A
:102E800000102379E278A1782088FFF7F7FB23462A
:102E9000DA7899781888FFF721FB2146C871F0E0AD
:102EA0007848007B20B1FFF749F800207549087386
:102EB0007548C07975A274498979CDE900120290EC
:102EC0007148828871A372A11FA8FDF7F3F96E48BB
:102ED000807872A26C49497870A3CDE90031CDE9C0
:102EE0000220694803786EA270A112A8FDF7E2F9EA
:102EF0006448C079401E714951F8203070A273A116
:102F000005A8FDF7D7F90C231FAA00210846FFF7F3
:102F100025F90C2312AA02210020FFF71FF90C2328
:102F200005AA04210020FFF719F96A480088002843
:102F3000B5D04FF4FA70FEF7A2FE674967A0FDF71F
:102F4000ADF967A16448FDF781FB88B94FF40051E2
:102F50006648FEF744FF63A0FDF7A0F90C2364A2C6
:102F600001210020FFF7FAF8C8215B48FDF74BFB71
:102F700062A15948FDF76AFB002839D1FFF712FA20
:102F800061A24148C07941A33F498979CDE9011344
:102F9000CDE903023DA000903B4883885BA25EA17F
:102FA0001FA8FDF787F958A2374880783BA3364918
:102FB0004978CDE90113CDE9030238A000903248E9
:102FC000037837A254A112A8FDF774F94FF4005109
:102FD0004648FEF702FF4AA0FDF760F90C2352A213
:102FE00001210020FFF7BAF8C8213B48FDF70BFB91
:102FF00050A13948FDF72AFB00283BD1FFF7D2F951
:103000002148C07921A22049897920A3CDE9003146
:10301000CDE902201C4883883CA224A11FA8FDF70B
:1030200049F9194880781DA2174949781BA3CDE9B1
:103030000031CDE902201448037819A21BA112A87F
:10304000FDF738F94FF400512848FEF7C6FE2CA0D2
:10305000FDF724F90C231FAA00210846FFF77EF88C
:103060000C2312AA02210020FFF778F8C8211A4881
:10307000FDF7C9FAC8211848FDF7C5FA002015491F
:1030800008800DE73C0000204C0000202F000000CD
:103090002564257325642573256400003A0000002B
:1030A00054696D6520697320000000002573256454
:1030B000257325642573256400000000140000209A
:1030C000546F646179277320000000002573257315
:1030D000000000003400002056000020257300008E
:1030E0004C45445F4F46460D0A0000000010014069
:1030F000414C414E2057414B450000004C45445F38
:103100004F4E0D0A000000000D0A0000546F64616C
:1031100079206973200000002573256425732564D8
:1031200025732564257300004A6F686E2053686517
:10313000727279004765745F74696D650D0A0000ED
:103140000FB430B58FB013A8019002A8019A12995C
:10315000FDF792F80020019002A8FDF735FA054628
:1031600000240CE000BF80210848FFF70BFD002879
:10317000F9D002A8015D0548FFF7D1FD641CAC42FF
:10318000F0DB0FB030BC5DF814FB000000440040E1
:103190000FB430B58FB013A8019002A8019A12990C
:1031A000FDF76AF80020019002A8FDF70DFA054628
:1031B00000240CE000BF80210848FFF7E3FC002852
:1031C000F9D002A8015D0548FFF7A9FD641CAC42D7
:1031D000F0DB0FB030BC5DF814FB0000004800408D
:1031E00010B586B00446012144F20400FEF7F8FF52
:1031F0004FF40070ADF8140003208DF8160018206D
:103200008DF8170005A91C48FEF75CFD4FF480609F
:10321000ADF8140004208DF8170005A91648FEF734
:1032200051FD25208DF8000003208DF801008DF858
:10323000020001208DF803006846FEF73DFE019470
:103240000020ADF80800ADF80A00ADF80C00ADF8AC
:1032500010000C20ADF80E0001A90848FFF7EEFCA5
:10326000012240F225510548FFF7C3FC0121034824
:10327000FFF77CFC06B010BD00080140003801409B
:1032800010B500290AD00878002807D005487844EE
:10329000FDF7DCF9002801D0002010BD0248784479
:1032A00010BD0000E6090000DE09000010B500298D
:1032B0000AD00878002807D005487844FDF7C6F9F9
:1032C000002801D0002010BD0248784410BD000045
:1032D000D6090000CE090000FDF701BDFDF736BE9E
:1032E0000000000000000000002F000000000700A8
:1032F000070000147F147F1400242A7F2A12006222
:1033000064081323003649552250000005030000CD
:1033100000001C224100000041221C000014083E55
:1033200008140008083E0808000000A0600000081B
:10333000080808080000606000000020100804026F
:10334000003E5149453E0000427F4000004261512D
:103350004946002141454B31001814127F100027C7
:1033600045454539003C4A4949300001710905038A
:1033700000364949493600064949291E00003636BB
:10338000000000005636000000081422410000141E
:1033900014141414000041221408000201510906FB
:1033A00000324959513E007C1211127C007F49497C
:1033B0004936003E41414122007F4141221C007FAD
:1033C00049494941007F09090901003E4149497ABB
:1033D000007F0808087F0000417F41000020404135
:1033E0003F01007F08142241007F40404040007FA1
:1033F000020C027F007F0408107F003E4141413EE5
:10340000007F09090906003E4151215E007F09192C
:1034100029460046494949310001017F0101003F29
:103420004040403F001F2040201F003F4038403FA9
:10343000006314081463000708700807006151490D
:10344000454300007F41410000552A552A550000A0
:1034500041417F000004020102040040404040401E
:10346000000001020400002054545478007F4844B6
:10347000443800384444442000384444487F0038ED
:103480005454541800087E0901020018A4A4A47C16
:10349000007F080404780000447D400000408084E0
:1034A0007D00007F102844000000417F4000007C28
:1034B00004180478007C0804047800384444443834
:1034C00000FC242424180018242418FC007C080480
:1034D000040800485454542000043F444020003C59
:1034E0004040207C001C2040201C003C4030403CE0
:1034F000004428102844001CA0A0A07C0044645470
:103500004C441414141414140000000000000000B3
:103510000000000000000000000000F800000000B3
:10352000000000333000000000100C06100C0600F4
:10353000000000000000000040C07840C07840005B
:10354000043F04043F040400007088FC08300000BD
:10355000001820FF211E0000F008F000E018000015
:1035600000211C031E211E0000F0088870000000CE
:103570001E2123241927211010160E000000000020
:103580000000000000000000000000E0180402003D
:10359000000000071820400000020418E0000000AE
:1035A0000040201807000000404080F080404000AC
:1035B0000202010F01020200000000F00000000002
:1035C0000101011F010101000000000000000000D6
:1035D00080B070000000000000000000000000004B
:1035E00000010101010101010000000000000000D4
:1035F000003030000000000000000000806018046F
:10360000006018060100000000E010080810E0004B
:10361000000F102020100F00001010F80000000014
:103620000020203F2020000000700808088870005B
:1036300000302824222130000030088888483000DB
:103640000018202020110E000000C02010F80000FB
:1036500000070424243F240000F808888808080094
:103660000019212020110E0000E0108888180000A9
:10367000000F112020110E0000380808C83808007B
:103680000000003F000000000070880808887000FB
:10369000001C222121221C0000E010080810E0007C
:1036A0000000312222110F00000000C0C000000005
:1036B000000000303000000000000080000000002A
:1036C0000000806000000000000080402010080022
:1036D00000010204081020004040404040404000EB
:1036E00004040404040404000008102040800000C6
:1036F0000020100804020100007048080808F000CB
:103700000000003036010000C030C828E810E0009A
:103710000718272423140B000000C038E000000025
:10372000203C23020227382008F88888887000008F
:10373000203F202020110E00C03008080808380063
:10374000071820202010080008F808080810E000DA
:10375000203F202020100F0008F88888E80810007B
:10376000203F20202320180008F88888E80810004F
:10377000203F200003000000C03008080838000087
:1037800007182020221E020008F808000008F80888
:10379000203F210101213F20000808F8080800000F
:1037A0000020203F2020000000000808F808080042
:1037B000C08080807F00000008F888C028180800BA
:1037C000203F20012638200008F8080000000000F3
:1037D000203F20202020300008F8F800F8F80800EA
:1037E000203F003F003F200008F830C00008F808E4
:1037F000203F200007183F00E01008080810E000F4
:103800000F10202020100F0008F808080808F0000A
:10381000203F210101010000E01008080810E0002D
:103820000F18242438504F0008F8888888887000C2
:10383000203F2000030C3020007088080808380062
:103840000038202121221C00180808F80808180058
:103850000000203F2000000008F808000008F808D9
:10386000001F202020201F000878880000C838088A
:10387000000007380E010000F80800F80008F80002
:10388000033C0700073C030008186880806818089C
:1038900020302C03032C30200838C800C83808001A
:1038A0000000203F2000000010080808C838080069
:1038B0002038262120201800000000FE020202000D
:1038C0000000007F40404000000C30C000000000BD
:1038D000000000010638C00000020202FE000000E5
:1038E000004040407F00000000000402020204008B
:1038F00000000000000000000000000000000000C8
:1039000080808080808080800002020400000000AF
:1039100000000000000000000000808080800000A7
:103920000019242222223F2008F800808000000095
:10393000003F112020110E00000000808080000058
:10394000000E112020201100000000808088F80067
:10395000000E112020103F20000080808080000099
:10396000001F222222221300008080F088888818FD
:103970000020203F20200000000080808080800008
:10398000006B94949493600008F80080808000009D
:10399000203F210000203F20008098980000000078
:1039A0000020203F202000000000008098980000A8
:1039B00000C08080807F000008F8000080808000C8
:1039C000203F24022D302000000808F800000000ED
:1039D0000020203F202000008080808080808000A8
:1039E000203F20003F20003F80800080808000003A
:1039F000203F210000203F200000808080800000C8
:103A0000001F202020201F008080008080000000F8
:103A100080FFA12020110E00000000808080800027
:103A2000000E112020A0FF80808080008080800018
:103A300020203F2120000100000080808080800045
:103A40000033242424241900008080E080800000BA
:103A50000000001F20200000808000000080800007
:103A6000001F202020103F20808080000080808068
:103A700000010E30080601008080008000808080F8
:103A80000F300C030C300F0000808000808080001D
:103A90000020312E0E312000808080000080808048
:103AA00080818E70180601000080808080808000F8
:103AB0000021302C2221300000000000807C020216
:103AC00000000000003F404000000000FF00000038
:103AD00000000000FF0000000002027C80000000E7
:103AE0000040403F00000000000601010202040403
:103AF00000000000000000000003030601040602AD
:103B0000050003051F1C1F1E1F1E1F1F1E1F1E1F3B
:103B10003031323334353637383941424344454603
:103B200040305800303132333435363738396162FD
:103B300063646566403078000400000800000000FF
:103B40000000000200010000100000000000000062
:103B50000000000030313233343536373839616295
:103B60006364656678700030313233343536373807
:103B7000394142434445465850000000024000008D
:103B8000000000A00000000005400000000000C888
:103B9000000000000C4000000000409C00000000FD
:103BA000194000000020BCBE0000000034400000AE
:103BB000BFC91B8E00000004B5400000504BCFD0A1
:103BC0006607E2CF010000006C4100003E8251AA6E
:103BD000DFEEA73401000000D9420000DCB5A0E20E
:103BE0003A301F97FFFFFFFFB4450000FD25A0C836
:103BF000E9A3C14FFFFFFFFFFF3F0000000000806F
:103C000000000000FF3F00000000008000000000F6
:103C100046726964617900004D6F6E6461790000DD
:103C200053756E64617900005361747572646179D3
:103C3000000000005765646E6573646179000000E0
:103C40005475657364617900546875727364617941
:103C500000000000A03D0008000000203C00000023
:103C600028010008DC3D00083C000020440700005B
:103C7000440100081C00000043000000F8FFFFFFA3
:103C80000C0000000E0000000F0000002E000000DD
:103C90001001000043000000F8FFFFFF004040401B
:103CA000404040404040414141414140404040400F
:103CB00040404040404040404040404040050202BB
:103CC000020202020202020202020202022020207A
:103CD00020202020202020020202020202029090D6
:103CE00090909090101010101010101010101010D4
:103CF0001010101010101010020202020202888828
:103D00008888888808080808080808080808080833
:103D1000080808080808080802020202400000001B
:103D20000000000000000000000000000000000093
:103D30000000000000000000000000000000000083
:103D40000000000000000000000000000000000073
:103D50000000000000000000000000000000000063
:103D60000000000000000000000000000000000053
:103D70000000000000000000000000000000000043
:103D80000000000000000000000000000000000033
:103D90000000000000000000000000000000000023
:103DA00000000000010203040102030406070809E1
:103DB00002040608183C0008403C0008343C000897
:103DC000483C0008103C0008283C0008203C000843
:0C3DD000000000000000000000000000E7
:04000005080000ED02
:00000001FF
