:020000040800F2
:10000000A8480020D90100085D0A0008270A000856
:10001000590A00086D070008BF1D00080000000015
:10002000000000000000000000000000751A000839
:100030007107000800000000210F0008891B00085C
:10004000F3010008F3010008F3010008F3010008C0
:10005000F3010008F3010008F3010008F3010008B0
:10006000F3010008F3010008F3010008F3010008A0
:10007000F3010008F3010008F3010008F301000890
:10008000F3010008F3010008F3010008F301000880
:10009000F3010008F3010008F3010008F301000870
:1000A000F3010008F3010008F3010008F301000860
:1000B000F3010008F3010008F3010008F301000850
:1000C000F3010008F3010008F3010008F301000840
:1000D000F3010008ED1B0008F3010008F30100081C
:1000E00075070008F3010008F301000800F002F8AA
:1000F00000F062F80AA090E8000C82448344AAF160
:100100000107DA4501D100F057F8AFF2090EBAE85D
:100110000F0013F0010F18BFFB1A43F0010318473B
:10012000C84B0000E84B00000A444FF0000C10F8E8
:10013000013B13F0070408BF10F8014B1D1108BF65
:1001400010F8015B641E05D010F8016B641E01F805
:10015000016BF9D113F0080F1EBF10F8014BAD1C55
:100160000C1B09D16D1E58BF01F801CBFAD505E073
:1001700014F8016B01F8016B6D1EF9D59142D6D3CD
:10018000704700000023002400250026103A28BFF5
:1001900078C1FBD8520728BF30C148BF0B607047F9
:1001A000782900F0A580732900F07B820020704739
:1001B0001FB51FBD10B510BD00F0A6FA1146FFF720
:1001C000F7FF03F0FFF900F0C4FA03B4FFF7F2FF02
:1001D00003BC01F0F6FD00000948804709480047CC
:1001E000FEE7FEE7FEE7FEE7FEE7FEE7FEE7FEE7E7
:1001F000FEE7FEE704480549054A064B7047000044
:100200008D1B0008ED000008A8420020A84800202F
:10021000A8440020A8440020704700000FB40449FF
:1002200010B503AA029800F041FA10BC5DF814FB67
:10023000340000202DE9F0410E46044600202062E3
:100240002046E168884730B3252805D0D4E901214C
:100250009047206A401CF2E7E16820460027884763
:10026000050018D0A5F14100192802D820354FF417
:1002700000673246294620462760FFF791FF40B1CC
:10028000012804D0F61D26F007060836D8E7361DEB
:10029000D6E72846DAE7206ABDE8F08170B50C465B
:1002A0000546012A05D02878800600D5EA69002392
:1002B00002E0012305E05B1C934202D2E05C0028CF
:1002C000F9D1A869E618C01AA861286A18442862FA
:1002D0002846AFF3008004E0D5E9012114F8010BB2
:1002E0009047B442F8D32846AFF3008070BD0000B9
:1002F00070B504460D4621461068AFF30080218892
:10030000090502D50F4A7A4402E00E4A7A440E32B9
:10031000002104F1240305E000F00F060009965DBA
:100320005E54491C0028F7D120780023000704D52B
:10033000702D02D009B1022311322046BDE8704071
:1003400000F044B952490000401ECAB210F8011F23
:100350008A4202D00029F9D10020704740EA010307
:1003600010B59B070FD1042A0DD310C808C9121F5E
:100370009C42F8D020BA19BA884201D9012010BD98
:100380004FF0FF3010BD1AB1D30703D0521C07E065
:10039000002010BD10F8013B11F8014B1B1B07D1C9
:1003A00010F8013B11F8014B1B1B01D1921EF1D13A
:1003B000184610BD032A40F2308010F0030C00F004
:1003C000158011F8013BBCF1020F624498BF11F88F
:1003D00001CB00F8013B38BF11F8013BA2F1040248
:1003E00098BF00F801CB38BF00F8013B11F00303C0
:1003F00000F02580083AC0F0088051F8043B083A24
:1004000051F804CBA0E80810F5E7121D5CBF51F8C5
:10041000043B40F8043BAFF30080D20724BF11F83F
:10042000013B11F801CB48BF11F8012B24BF00F8A4
:10043000013B00F801CB48BF00F8012B704710B515
:10044000203AC0F00B80B1E81850203AA0E81850CC
:10045000B1E81850A0E81850BFF4F5AF5FEA027C8D
:1004600024BFB1E81850A0E8185044BF18C918C0FC
:10047000BDE810405FEA827C24BF51F8043B40F89D
:10048000043B08BF7047D20728BF31F8023B48BF82
:1004900011F8012B28BF20F8023B48BF00F8012BC0
:1004A000704702F0FF0343EA032242EA024200F0EF
:1004B00002B84FF000020429C0F0128010F0030CC3
:1004C00000F01B80CCF1040CBCF1020F18BF00F847
:1004D000012BA8BF20F8022BA1EB0C0100F00DB8F6
:1004E0005FEAC17C24BF00F8012B00F8012B48BF54
:1004F00000F8012B70474FF0000200B513469446F8
:100500009646203922BFA0E80C50A0E80C50B1F16B
:100510002001BFF4F7AF090728BFA0E80C5048BF7F
:100520000CC05DF804EB890028BF40F8042B08BF1D
:10053000704748BF20F8022B11F0804F18BF00F819
:10054000012B70474FF0013C50F8042B51F8043B4D
:100550009A4221D1A2EB0C03934313EACC1317D197
:1005600050F8042B51F8043B9A4215D1A2EB0C032E
:10057000934313EACC130BD150F8042B51F8043BEE
:100580009A4209D1A2EB0C03934313EACC13DBD0BC
:100590004FF00000704700BFD01A01BAB1FA81F1E4
:1005A00001F0180122FA01F0CB40C1F12001DBB2C9
:1005B000C0B2C01A2CFA01F3D11A914311EAC31147
:1005C000E6D1704770477047704770472DE9F04794
:1005D0000D4699469246044600F1240801688806B3
:1005E00004D5E06921F01001216000E00120A8425B
:1005F00001DD471B00E00027A1697A1902EB090021
:10060000081AA0612078C00602D42046AFF300800B
:10061000002608E0D4E901211AF806009047206A74
:10062000401C761C20624E45F4DB2078C0060AD5BB
:100630002046AFF3008006E0D4E901213020904746
:10064000206A401C2062381EA7F10107F4DC07E095
:10065000D4E9012118F805009047206A401C206267
:10066000281EA5F10105F3DC2046AFF300802078B9
:10067000000602D50220BDE8F0870120FBE710B597
:10068000436913B1AFF3008001E0FFF707FE0120DB
:1006900010BD127800F124010A7000224A70012274
:1006A000EDE711684FF0FF32E9E70000074B70B546
:1006B0000D467B4400F011F80446284600F020F86F
:1006C00010B14FF0FF3070BD204670BDA32C00006C
:1006D00001694A1C02610878704700B58FB0CDE906
:1006E00001310021059105497944CDE903101146F6
:1006F0006846FFF79FFD0FB000BD0000E5FFFFFF5C
:10070000007B00F080007047754600F02BF8AE4685
:1007100005006946534620F00700854618B020B50D
:10072000FFF768FDBDE820404FF000064FF00007DE
:100730004FF000084FF0000B21F00701AC46ACE889
:10074000C009ACE8C009ACE8C009ACE8C0098D46F6
:10075000704710B50446AFF300802046BDE8104056
:10076000FFF733BD004870474842002000BFFEE756
:100770007047000010B51248007802281ADA1048B5
:10078000007848B9002000F0BDFB012000F0BAFB62
:10079000012000F0A9FB08E0002000F0A5FB0020EC
:1007A00000F0B0FB012000F0ADFB05480078401CD4
:1007B000034908704FF4004000F004F810BD000039
:1007C0002C0000200149086070470000140401401B
:1007D000002123498279002A3AD00A461268036828
:1007E0009A430B461A600A1D126803689A430B1D50
:1007F0001A60027911440A6803681A430A60184AA9
:100800000832126803689A43154B08331A601A1DA0
:10081000126803689A43124B0C331A604279102A0B
:100820000ED11A1F126803681A430D4B08331A6061
:100830001A1D126803681A43094B0C331A600DE045
:100840000749427911440A6803681A430A6005E0BF
:10085000027911440A6803689A430A6070470000ED
:10086000000401400EB50121084600F06BFB4FF477
:100870000040009000208DF8040008208DF805004D
:1008800001208DF806006846FFF7A2FF28208DF8AA
:10089000080002208DF809008DF80A0001208DF86B
:1008A0000B0002A800F0DCF80EBD000030B50022FD
:1008B0008B071C0F0F2303FA04F20B4B8C1053F819
:1008C00024309343084C8D1044F8253023468C1077
:1008D00053F824308C07240F00FA04F42343024C0D
:1008E0008D1044F8253030BD080001402DE9F0415D
:1008F000024600250026002000230024002791F84E
:1009000003C00CF00F0591F803C00CF0100CBCF103
:10091000000F03D091F802C04CEA050591F800C021
:10092000BCF1000F31D0146800202BE04FF0010C17
:100930000CFA00F3B1F800C00CEA03069E4220D185
:1009400083004FF00F0C0CFA03F7BC4305FA03FCCD
:100950004CEA040491F803C0BCF1280F06D14FF013
:10096000010C0CFA00FCC2F814C00AE091F803C0B4
:10097000BCF1480F05D14FF0010C0CFA00FCC2F895
:1009800010C0401C0828D1D31460B1F800C0BCF1DD
:10099000FF0F34DD546800202EE000F1080C4FF00A
:1009A000010808FA0CF3B1F800C00CEA03069E42F5
:1009B00021D183004FF00F0C0CFA03F7BC4305FA6A
:1009C00003FC4CEA040491F803C0BCF1280F05D1E4
:1009D00000F1080C08FA0CF8C2F8148091F803C072
:1009E000BCF1480F07D100F1080C4FF0010808FADC
:1009F0000CF8C2F81080401C0828CED35460BDE823
:100A0000F0810246002093680B400BB1012000E00A
:100A10000020704741617047016170470AB1016170
:100A200000E04161704700BFFEE7000008B501210A
:100A3000102000F087FA10208DF803004002ADF876
:100A4000000003208DF8020069460248FFF74EFFC0
:100A500008BD00000010014000BFFEE77047000025
:100A600070B5002100230F22C47804B3154C24680C
:100A700004F4E064C4F5E064210AC1F10403CA404F
:100A8000447804FA03F184781440214309010E4CA0
:100A90000678A155047804F01F050124AC400578C0
:100AA0006D11AD0005F1E025C5F8004109E00478BD
:100AB00004F01F050124AC40044D0678761145F87A
:100AC000264070BD0CED00E000E400E080E100E0B5
:100AD00002490143024A1160704700000000FA0514
:100AE0000CED00E01CB50121082000F02BFA1820C5
:100AF000ADF8040010208DF8070003208DF80600E3
:100B000001A92A48FFF7F2FE4FF47070ADF800001B
:100B100010208DF8030003208DF802006946234859
:100B2000FFF7E4FE4FF450712048FFF775FF802176
:100B30001E48FFF76FFF0121082000F003FA202074
:100B4000ADF8000010208DF8030003208DF802009E
:100B500069461648FFF7CAFE20211448FFF75CFFDC
:100B60000121042000F0EEF90F210020FFF79EFE86
:100B70004FF40040ADF8000048208DF803006946AE
:100B80000B48FFF7B3FE0121042000F0DBF9FF2042
:100B9000ADF8000048208DF8030003208DF8020016
:100BA00069460348FFF7A2FE1CBD0000000C01408F
:100BB0000008014070B50025FFF794FF0821304878
:100BC000FFF728FF0A2001F0BBFB10212C48FFF79C
:100BD00021FF0A2001F0B4FB10212948FFF71CFF78
:100BE00000F02AFA80221221422000F0A9FB3220D4
:100BF00001F0A6FB1C21422000F0CAFA04464FF681
:100C0000FF7000EA04241D21422000F0C1FA0443D1
:100C100047F6A270844205D021461AA0FFF7FEFADB
:100C2000012070BD0A21422000F0B2FA04464FF6BE
:100C3000FF7000EA04240B21422000F0A9FA0443CB
:100C400047F27360844205D0214611A0FFF7E6FA0F
:100C50000220E6E700250BE0104800EB4500427853
:100C60000E4810F81510422000F06AFB681C85B28F
:100C7000A62DF1D30AA0FFF7D1FA0020D1E700009A
:100C8000000C01404D49443A305825580D0A0000E7
:100C90004849443A305825580D0A00009C41000844
:100CA0004F5637363730696E697420697320537533
:100CB000636365737366756C0D0A00002DE9F04778
:100CC00092B005460E4617469846DDF86CA01322F2
:100CD0005146384601F004FF8046B8F1000F78D144
:100CE0005CA0FFF79BFA44F64250ADF800005E4866
:100CF000CDF802000020ADF80600ADF8080036205F
:100D0000CDF80A002820CDF80E00C100CDF8121051
:100D1000F021CDF816100121ADF81A101021ADF810
:100D20001C100321CDF81E104FF41631CDF82210FF
:100D30000021CDF82610CDF82A10CDF83210CDF8CC
:100D40002E1000208DF83600F8218DF83710002184
:100D50008DF838108DF83910E0218DF83A10072100
:100D60008DF83B1000218DF83C108DF83D101F21AF
:100D70008DF83E1000218DF83F108DF840108DF851
:100D800041103A4C1AAB42226946384602F0CFF87D
:100D9000804600BF201EA4F10104FBD13448007836
:100DA000022853D1002000F091F8002000F080F8D4
:100DB000012000F07DF8002000F07AF8012000F01A
:100DC00085F8012000F074F8002000F063F800249A
:100DD00028E03BE04FF0000921E0002000F068F837
:100DE00024480068C0B211901AAB012211A93846FC
:100DF00002F09DF8012000F05BF8002000F058F8A8
:100E00001C480068C0B211901AAB012211A93846E3
:100E100002F08DF8012000F04BF809F10109A94515
:100E2000DBD3641CB442D5D3384601F017FE002052
:100E300000F04CF8012000F049F8012000F02AF8F9
:100E400000200B4908700CA0FFF7E8F912B0BDE8CC
:100E5000F0870000426569676E6E696E6720777281
:100E60006974696E670D0A0036580200E093040049
:100E70002C000020080801404F5637363730676590
:100E80007450494320697320636F6D706C6574659D
:100E9000640D0A0010B50446224640210348FFF7BE
:100EA000BDFD0A2001F072FA10BD0000000C0140E7
:100EB00010B50446224620210348FFF7AFFD0A2063
:100EC00001F064FA10BD0000000C014010B50446AA
:100ED00022464FF480710348FFF7A0FD0A2001F07D
:100EE00055FA10BD000C014010B504462246802181
:100EF0000348FFF793FD0A2001F048FA10BD0000F7
:100F0000000C014010B5044622464FF4007103481E
:100F1000FFF784FD0A2001F039FA10BD000C0140F2
:100F20007047000029B1064AD2690243044BDA61D6
:100F300004E0034AD2698243014BDA617047000042
:100F40000010024029B1064A92690243044B9A619B
:100F500004E0034A92698243014B9A6170470000A2
:100F60000010024030B500210022002400232D4D46
:100F70006D6805F00C0121B1042905D0082923D1A1
:100F800005E0294D056022E0274D05601FE0254D55
:100F90006D6805F47012234D6D6805F480340225E8
:100FA00005EB92421CB9214D554305600BE01D4DE8
:100FB0006D6805F400351DB11C4D5543056002E018
:100FC000194D5543056002E0174D056000BF00BF95
:100FD000144D6D6805F0F0010909154D6B5C05684D
:100FE000DD4045600F4D6D6805F4E061090A104D64
:100FF0006B5C4568DD4085600A4D6D6805F46051A5
:10100000C90A0B4D6B5C4568DD40C560054D6D68D8
:1010100005F44041890B074D6B5CC568B5FBF3F5E2
:10102000056130BD0010024000127A0000093D0049
:10103000140000202400002008B501210420FFF73F
:1010400081FF4FF40060ADF8000048208DF80300E8
:1010500003208DF8020069461248FFF747FC4FF461
:1010600000611048FFF7D8FC4FF48050ADF8000045
:1010700010208DF8030069460A48FFF737FC4FF44B
:1010800080510848FFF7C8FC0648001D006820F49E
:1010900070400449091D08600846006840F440504B
:1010A000086008BD0008014010B51748006820F42A
:1010B0007040154908600846006840F440500860D8
:1010C000C9141148001FFFF7A7FC322001F05EF998
:1010D0004FF480510C48001FFFF79EFC322001F0B6
:1010E00055F94FF480510848001FFFF793FC322058
:1010F00001F04CF94FF400610348001FFFF78AFC30
:10110000322001F043F910BD0408014070B50024FD
:101110001E48006820F470401C49086008460068BA
:1011200040F400400860322001F030F908251EE04C
:10113000322001F02BF94FF480511448001FFFF7C3
:101140006BFC6006040E4FF400611048001FFFF7AF
:1011500058FC08B1601CC4B2322001F017F94FF4FA
:1011600080510A48001FFFF755FC681EC5B2002DCC
:10117000DEDC0648006820F4704004490860084638
:10118000006840F440500860204670BD04080140EB
:1011900070B504460D46002600F024F8204600F005
:1011A0006FF8642001F0F2F8284600F069F8642036
:1011B00001F0ECF800F03AF8642001F0E7F800F0F4
:1011C00011F844F0010000F05BF8642001F0DEF853
:1011D000FFF79CFF0646FFF767FF00F027F8304651
:1011E00070BD000010B54FF400610F48FFF714FC0C
:1011F000322001F0CBF84FF480510B48FFF70CFC84
:10120000322001F0C3F84FF400610748FFF702FCF9
:10121000322001F0BBF84FF480510348FFF7FAFB8E
:10122000322001F0B3F810BD0008014010B513489A
:10123000006820F47040114908600846006840F4D6
:1012400040500860C9140D48001FFFF7E3FB32202F
:1012500001F09CF84FF480510848001FFFF7DCFBB9
:10126000322001F093F84FF400610448001FFFF7AB
:10127000D3FB322001F08AF810BD000004080140C1
:1012800070B50446002621E004F0800028B14FF438
:1012900000612A48FFF7C0FB04E04FF400612748D3
:1012A000FFF7B8FB6006040E322001F06FF84FF430
:1012B00080512248FFF7B0FB322001F067F84FF46D
:1012C00080511E48FFF7A6FB701CC6B2082EDBDB60
:1012D0001A48001D006820F470401849091D086074
:1012E0000846006840F400400860322001F04EF8E3
:1012F0004FF480511148FFF78FFB322001F046F880
:101300004FF400610D48FFF77CFB08B1012500E0B8
:1013100000254FF480510948FFF77CFB0748001D6A
:10132000006820F470400549091D086008460068FF
:1013300040F440500860284670BD0000000801409D
:101340002DE9F04106460C4615460027FFF74AFFF7
:101350003046FFF795FF00B10127642001F016F831
:101360002046FFF78DFF00B10127642001F00EF841
:101370002846FFF785FF00B10127FFF757FF3846E2
:10138000BDE8F08110B5012002490860FF2000F09F
:10139000DDF910BDB082214270B505460122002161
:1013A000092000F01CFA044624B91021284600F058
:1013B0008FF90446FFF7E6FF0CB1012070BD002055
:1013C000FCE770B505464FF6FF7401E0601E84B27D
:1013D000FF2000F0BBF9A84201D0002CF6D10CB9D7
:1013E000FF2070BD0020FCE77FB56846FFF7D4FF03
:1013F00028B11CA0FEF712FF002004B070BD9DF8BC
:10140000000000F0C000402809D19DF809009DF8B7
:10141000081000EB0120401C84B2A50220E09DF8DA
:10142000050000F00F009DF80A1000EBD1109DF8A8
:10143000091001F0030100EB4100861C9DF8080033
:1014400080119DF8071000EB81009DF8061001F057
:10145000030100EB8120441CA6F1090004FA00F509
:101460002846CAE74765742043534420736967617F
:101470006C206661696C0D0A00000000F8B500F090
:1014800043F900F06EF9002504E0FF2000F05EF95A
:10149000681C85B20A2DF8DB142600BF95220021B6
:1014A000084600F09CF90446012C04D0301EA6F139
:1014B00001018EB2F2D1002055490870012C4DD1A6
:1014C00087224FF4D571082000F089F901284DD109
:1014D000002506E0FF2000F039F90DF80500681C32
:1014E00085B2042DF6DB9DF802000128E7D19DF8B6
:1014F0000300AA287ED14FF6FE7600BF012200210C
:10150000372000F06CF901229107292000F067F9DB
:10151000044624B1301EA6F101018EB2EED1002E98
:1015200068D0012200213A2000F059F9002861D149
:10153000002506E0FF2000F009F90DF80500681C01
:1015400085B2042DF6DB9DF8000000F0400030B1BC
:1015500006202F4908702FA0FEF760FE4AE0042005
:101560002B49087031A0FEF759FE43E0012200210B
:10157000372000F034F901220021292000F02FF952
:101580000446012C1ADC0220214908702DA0FEF728
:1015900045FE4FF6FE7600BF01220021372000F005
:1015A0001EF901220021292000F019F90446BCB1DE
:1015B000301EA6F101018EB2EED111E001201449D6
:1015C00008704FF6FE7600BF01220021104600F0A1
:1015D00006F9044624B1301EA6F101018EB2F3D102
:1015E0002EB101225102102000F0F9F810B10020B4
:1015F00007490870FFF7C6FE00F0AEF8044800780F
:1016000008B10020F8BD0CB12046FBE7AA20F9E79D
:101610003800002054686973205344206361726469
:101620002069732056322E780D0A000054686973C1
:1016300020534420636172642069732056322E3037
:101640000D0A00005468697320534420636172647A
:101650002069732056312E780D0A00002DE9F041E3
:1016600006460F46154619480078062800D07F0226
:10167000012D0CD101223946112000F0B0F80446AA
:10168000FCB96902304600F023F8044619E0012253
:101690003946122000F0A3F8044600BF4FF4007151
:1016A000304600F015F8044606F50076681EC0B214
:1016B000051E01D0002CF1D0012200210C2000F0E9
:1016C0008EF8FFF75FFE2046BDE8F081380000206D
:1016D00070B504460D46FE20FFF773FE08B10120E9
:1016E00070BD04E0FF2000F051F92070641C281E3A
:1016F000A5F101018DB2F5D1FF2000F027F8FF2000
:1017000000F024F80020EBE708B501210820FFF7DE
:1017100019FC4FF48050ADF8000010208DF8030044
:1017200003208DF8020069460648FFF7DFF84FF402
:1017300080510448FFF770F900F0E6F801200249F3
:10174000086008BD000C0140B082214210B504467B
:10175000204600F01BF910BD10B5002000F040F944
:1017600010BD10B5382000F03BF910BD10B50020B9
:101770000549086000F06FF808B9002010BDFFF7B8
:1017800001FE0120FAE70000B082214270B5064652
:101790000D4600F060F808B1012070BD2846FFF743
:1017A000D5FFFD2D19D0002404E0305D00F0EEF8E7
:1017B000601C84B2B4F5007FF7DBFF20FFF7C6FFA3
:1017C000FF20FFF7C3FFFF20FFF7C0FF044604F030
:1017D0001F00052801D00220DFE70020DDE72DE90A
:1017E000F04105460C4617464FF00008FFF7CAFDCA
:1017F000FFF7BCFF10B1FF20BDE8F08145F04000CD
:10180000FFF7A4FF200EFFF7A1FFC4F30740FFF787
:101810009DFFC4F30720FFF799FFE0B2FFF796FFA3
:101820003846FFF793FF0C2D02D1FF20FFF78EFF04
:101830004FF01F0800BFFF20FFF788FF064606F0A5
:10184000800030B1B8F10000A8F1010101F0FF08FB
:10185000F1D13046D0E710B5002400BFFF20FFF7DC
:1018600075FFFF2801D1002010BD641C6FF07F4080
:101870008442F3D30120F7E72DE9F04106460F46F5
:10188000154620480078062800D07F02012D0CD193
:10189000012239461820FFF7A2FF04466CBBFE2147
:1018A0003046FFF773FF044627E01648007801280A
:1018B00009D0012200213720FFF791FF012229469C
:1018C0001720FFF78CFF012239461920FFF787FF09
:1018D000044694B900BFFC213046FFF757FF044689
:1018E00006F50076681EC0B2051E01D0002CF2D0AD
:1018F000FD210020FFF74AFF0446FFF743FD204685
:10190000BDE8F0813800002008B501210820FFF76C
:1019100019FB01218803FFF705FB4FF46040ADF888
:10192000000018208DF8030003208DF8020069469E
:101930001348FEF7DBFF4FF460411148FFF76CF8E6
:101940000020104908804FF4827048800020888071
:101950000220C88001200881400248813820888107
:101960000020C88107200882074800F065F801219F
:10197000054800F047F8FF2000F008F808BD000017
:10198000000C0140740200200038004070B505468C
:10199000002405E0601CC4B2C82C01DD002070BD2D
:1019A00002210E4800F03AF80028F3D029460B48EF
:1019B00000F040F8002405E0601CC4B2C82C01DD32
:1019C0000020ECE70121054800F028F80028F3D0BA
:1019D000024800F02CF8C0B2E1E7000000380040F7
:1019E00010B50446054884810146054800F024F8F6
:1019F0000121034800F006F810BD00007402002029
:101A00000038004021B1028842F04002028004E028
:101A100002884FF6BF731A400280704702460020CA
:101A200013890B400BB1012000E0002070470146F4
:101A3000888970478181704710B50022028802F4BE
:101A400041520B884C8823438C882343CC88234302
:101A50000C8923434C8923438C892343CC8923431A
:101A60001A430280838B4FF2FF74234083830B8AD7
:101A7000038210BD704710B500F002F810BD0000E1
:101A80000CB50020019000903348006840F480308D
:101A90003149086000BF3048006800F40030009011
:101AA0000198401C0190009818B90198B0F5A06FFA
:101AB000F1D12948006800F4003010B101200090F5
:101AC00001E0002000900098012843D123480068DD
:101AD00040F01000214908600846006820F003002B
:101AE00008600846006840F0020008601A48406834
:101AF000194948600846406848600846406840F414
:101B0000806048600846406820F47C1048600846C1
:101B1000406840F4E81048600846006840F0807073
:101B2000086000BF0C48006800F000700028F9D081
:101B30000948406820F003000749486008464068AB
:101B400040F00200486000BF0348406800F00C000D
:101B50000828F9D10CBD000000100240002002400E
:101B6000042808D14FF0E021096941F004014FF049
:101B7000E022116107E04FF0E021096921F0040142
:101B80004FF0E022116170477047000010B5134814
:101B9000006840F00100114908600846406810499B
:101BA00008400E494860084600680E4908400B4945
:101BB00008600846006820F48020086008464068F5
:101BC00020F4FE0048604FF41F008860FFF753FFC9
:101BD0004FF000600449086010BD00000010024092
:101BE0000000FFF8FFFFF6FE08ED00E010B540F240
:101BF0002551094800F022F860B1074800F0DAF8F2
:101C0000C4B2064806490988445405480088401C67
:101C10000349088010BD000000380140AC010020DD
:101C20003000002021B1828942F40052828104E018
:101C300082894DF6FF731A408281704770B5024663
:101C4000002400230025002040F66A16B14200D18E
:101C500000BFC1F3421501F01F03012606FA03F38A
:101C6000012D02D19689334006E0022D02D1168A59
:101C7000334001E0968A33400C12012606FA04F440
:101C80001688344013B10CB1012000E0002070BD73
:101C9000F0B50346002400260025002040F66A1710
:101CA000B94200D100BF1846C1F3421401F01F062B
:101CB000012707FA06F5012C01D10C3004E0022CB3
:101CC00001D1103000E014301AB107682F430760CB
:101CD00002E00768AF430760F0BD00002DE9F04760
:101CE00086B005460E460024A24600BFA146002746
:101CF000B08900B100BF2F462C8A4CF6FF7004401B
:101D0000F08804432C82AC894EF6F3100440B0886E
:101D100031890843718908430443AC81AC8A4FF68A
:101D2000FF400440B0890443AC8201A8FFF71AF9D0
:101D30001F48874202D1DDF810A001E0DDF80CA0B9
:101D4000A88900F4004040B10AEBCA0000EB0A1079
:101D500031684900B0FBF1F807E00AEBCA0000EB7C
:101D60000A1031688900B0FBF1F86420B8FBF0F08C
:101D700004012009642101FB1089A88900F40040B6
:101D800040B1322000EBC900B0FBF1F000F00700D9
:101D9000044308E0322000EB09106421B0FBF1F0AD
:101DA00000F00F0004432C8106B0BDE8F08700006E
:101DB0000038014001468888C0F30800704700BF22
:101DC000FEE700BF704700002DE9F0410446884659
:101DD00000202071401E20634146204601F00CFF88
:101DE00010B10420BDE8F08104F2322001F0E4FBE0
:101DF000074694F83450EB2D03D0E92D01D0E82D9F
:101E000043D14AF65520874208D1082223A104F184
:101E10008600FEF7A3FA08B90020E3E704F13F00CB
:101E200001F0CAFB06464120055D701E304060BBD4
:101E3000B6F5007F29DBB6F5007F26DC2DB3681EE2
:101E4000284010BB04F1420001F0B6FBE8B1442089
:101E5000005D401E012818D804F1450001F0ACFBDC
:101E600098B104F1470001F0A7FB802806DA04F1DD
:101E7000540001F095FBB0F5803F06D304F14A0011
:101E800001F09AFB08B10020ACE74AF655208742E2
:101E900001D10220A6E70320A4E700004641543305
:101EA00032202020000000000246891E9069801E1A
:101EB000884201D8002070475389D06A03FB010093
:101EC000F9E700002DE9F04780460C4604F11A00BE
:101ED00001F072FB10B10020BDE8F087207800F01F
:101EE0003F00401E00EB800101EBC0054FF00109EF
:101EF000002621E01849895D081901F05DFB0746BD
:101F0000B9F1000F11D0FF2D0BD8384601F040F980
:101F1000824629466D1C38F8110001F039F98245D6
:101F200001D00020D8E7B94605E04FF6FF708742A0
:101F300001D00020D0E7761C0D2EDBD3207800F0F6
:101F4000400038B1B9F1000F04D038F8150008B1DD
:101F50000020C1E70120BFE7204800082DE9F04735
:101F600082468846DAF80040B8F1000F06D12769AA
:101F700017B1A069B84215D8012713E04146504671
:101F800001F062FA0546022D02D20120BDE8F08779
:101F9000681C08B92846F9E7A069A84201D9284673
:101FA000F4E74746606908B90020EFE70026474597
:101FB00018D17E1CA069B04200D802263146504696
:101FC00001F042FA0546012D01D0681C08B92846E7
:101FD000DCE73DB12569022D03D3A069A84200D9F1
:101FE0002F460026E6B93E4600BF761CA069B042E7
:101FF00004D80226BE4201D90020C7E73146504628
:1020000001F022FA054605B909E0012D01D0681C4E
:1020100008B92846BAE7BE42E7D10020B6E700BFBC
:102020004FF0FF323146204601F028FE8146B9F1DB
:10203000000F08D1B8F1000F05D0324641462046C6
:1020400001F01CFE8146B9F1000F0DD12661D4E9E3
:102050000510801E814202D86069401E606160796F
:1020600040F00100607107E0B9F1010F02D14FF0BB
:10207000FF3000E001200646304687E72DE9F34FA8
:1020800083B08146049800680290D9F80000D0F827
:102090000CA0002500BF02A801F0B9FF83460BF198
:1020A000010018B9062005B0BDE8F08FBBF5803FF0
:1020B00005D34FEA1B4228466D1C2AF810201FFA50
:1020C0008BF4202C03DB2F2C01D05C2C00D111E0F1
:1020D000802C06DA21467DA0FEF736F908B10620ED
:1020E000E1E7FF2D01D30620DDE728466D1C2AF825
:1020F0001040D0E700BF202C01DA042611E002E0F6
:102100000298401C0290029800782F28F8D002987C
:1021100000785C28F4D0002602980078202800D2AD
:10212000042602990498016008E0681E3AF81040FD
:10213000202C02D02E2C00D002E06D1E002DF4D1F8
:1021400000BF00202AF815000DB90620ABE70027D4
:1021500000E07F1C3AF817002028FAD01FB93AF89F
:1021600017002E2801D146F0030600E06D1E25B1B0
:10217000681E3AF810002E28F8D120220B2109F110
:102180002000FEF78EF94FF00008CDF804800820FB
:10219000009000BF38467F1C3AF8104004B96AE04E
:1021A000202C03D02E2C04D1AF4202D046F00306DF
:1021B000F0E7DDE90010884201D2AF4216D1009865
:1021C0000B2802D146F0030655E0AF4201D046F09D
:1021D0000306AF4200D94EE02F46082001900B20A5
:1021E00000904FEA88604FEA1068D3E7802C0EDB3E
:1021F00046F0020640F2B511204600F0A9FF044661
:1022000004F0800018B104F07F0033490C5CFF2C0F
:1022100011DD0098401E0199884204D846F003065B
:1022200000980190B6E722120198411C019109F132
:1022300020010A5418E024B1214628A0FEF784F8B2
:1022400018B15F2446F003060EE0412C03DB5A2C44
:1022500001DC48F00208612C06DB7A2C04DC48F033
:102260000108A4F1200084B20198411C019109F1F8
:1022700020010C548EE700BF99F82000E52802D118
:10228000052089F820000098082803D14FEA8860CB
:102290004FEA106808F00C000C2803D008F0030087
:1022A000032801D146F0020606F0020048B908F002
:1022B000010008B146F0100608F0040008B146F02D
:1022C00008062B2000F809600020ECE62A3A3C3E84
:1022D0007C223F7F000000002D4800082B2C3B3D56
:1022E0005B5D0000014609B1002070470020FCE75B
:1022F000014609B1002070470020FCE710B56FF0DF
:102300000400FFF72DFC0A4800680A49B0FBF1F011
:10231000094908700846007800EB4001C1EBC01085
:102320004FF6FF7101EAC0000449088010BD0000AB
:102330000000002000127A00280000202A0000205F
:102340000146114A12884A434FF0E0235A610022A5
:102350009A611A46126942F001021A6100BF4FF0F9
:10236000E022106900F001021AB100F48032002A64
:10237000F5D04FF0E022126922F001024FF0E02385
:102380001A6100229A6170472A0000200146114A12
:1023900012784A434FF0E0235A6100229A611A46AC
:1023A000126942F001021A6100BF4FF0E022106989
:1023B00000F001021AB100F48032002AF5D04FF08B
:1023C000E022126922F001024FF0E0231A6100229C
:1023D0009A617047280000202DE9F04104460E461E
:1023E000D4F800800021204600F00DFA0546EDB932
:1023F000002700BF4046A16901F0FEFB054605B17C
:1024000013E0E0690078E52802D0E069007820B99F
:10241000781C0746B04201D107E000270121204681
:1024200000F0E9F80546002DE4D000BF042D00D1EE
:1024300007252846BDE8F0812DE9F0470446894686
:10244000204601F0BFFD10B10120BDE8F0874946EC
:102450002046FFF729FD074627634FF4007104F17A
:102460003400FEF748F860894FF40041B1EB402F8B
:1024700001D8084601E06089400206464FF0000896
:1024800000E07608B6F5007F05D9304600F03EFE44
:10249000B0F10008F5D0B6F5007F16D931464046B8
:1024A000FEF707F8760A002500E035446089A84267
:1024B00007D97A1960783346414600F07BFA002844
:1024C000F3D0404600F028FE10E004F13408012665
:1024D000002500E035446089A84207D97A19607860
:1024E0003346414600F066FA0028F3D06089A842DE
:1024F00001D00120A9E70020A7E72DE9F047044615
:10250000D4F800A00021204600F07DF9064616B15F
:102510003046BDE8F0874FF0FF08C1464FF0FF306E
:10252000E06200BF5046A16901F066FB064606B1B5
:102530005EE0E06905780DB9042659E0E069C07AEB
:1025400000F03F07A771E52D04D007F0080038B16F
:102550000F2F05D04FF0FF084FF0FF30E06240E052
:102560000F2F22D12B20005D00F0400098BB05F01A
:10257000400038B1E06990F80D9005F0BF05A8461D
:102580002069E06245450CD1E069407B484508D1AF
:10259000E169DAF80C00FFF795FC10B1A8F1010031
:1025A00000E0FF2000F0FF081BE0B8F1000F05D1AC
:1025B000E06901F0B0FC484500D119E02B20005D36
:1025C00000F0010040B90B2204F12001E069FDF7A1
:1025D000C5FE08B90CE004E04FF0FF084FF0FF30F3
:1025E000E0620021204600F006F80646002E99D051
:1025F00000BF30468DE72DE9F04104468846276844
:10260000206900F12006B6F5001F01D30020A0616B
:10261000A06910B90420BDE8F081C6F308000028C5
:1026200045D1A069401CA061606938B93889B0EB18
:10263000561F3CD80020A0610420ECE77889401E9A
:1026400000EA562098BB2046616900F0FDFE054671
:10265000012D01D80220DEE7681C08B90120DAE765
:10266000B869A8421DD8B8F1000F03D10020A061BD
:102670000420D0E720466169FFF770FC05460DB9DC
:102680000720C8E7012D01D10220C4E7681C08B962
:102690000120C0E729463846FFF7CEFE08B10120E9
:1026A000B9E7656129463846FFF7FEFBA061266160
:1026B000C6F3080107F134000844E0610020AAE7EE
:1026C0002DE9FE4F044626682B20005D00F0A00097
:1026D00010B10620BDE8FE8F4FF0000901E009F1BE
:1026E0000109F06830F819000028F8D1D4E909127E
:1026F000206A8DE807009DF80B0000F0010028B368
:1027000040212B2001554FF001080EE04346694659
:1027100004F12000F26800F02DFE2046FFF7EDFEE8
:10272000054605B104E008F10108B8F1640FEDD3E6
:1027300000BFB8F1640F01D10720CBE7042D01D011
:102740002846C7E79DF80B102B2001559DF80B007C
:1027500000F0020030B109F10C000D21B0FBF1F0E6
:10276000401C00E00120074639462046FFF734FEB2
:1027700005464DBB781E071E26D02069A0EB4711E9
:10278000204600F040F80546F5B904F1200001F0BC
:10279000C2FB824600BF3046A16901F02DFA054612
:1027A00005B110E0FAB2E1695346F06801F002FBAE
:1027B0000120307100212046FFF71DFF054615B9A5
:1027C000781E071EE7D100BFDDB93046A16901F0D0
:1027D00013FA0546ADB92021E069FDF76AFEE0690C
:1027E000216A0160616A4160218D018194F82A109B
:1027F00081722B20005D00F01800E1690873012050
:102800003071284666E72DE9F04104460D462668FA
:10281000B5F5001F02D205F01F0010B10220BDE87F
:10282000F0812561A7681FB93078032800DBB76AFB
:1028300047B93089B0EB551F01D80220EFE7B06AE5
:10284000A0611CE070894FEA402811E0394620461B
:1028500000F0FAFD0746781C08B90120DFE7022FD7
:1028600002D3B069B84201D80220D8E7A5EB080529
:102870004545EBD239463046FFF716FBA06167614C
:10288000A06908B90220CAE7A06900EB5520A06141
:10289000C5F3080106F134000844E0610020BEE7FA
:1028A00070B5054615B1012D0DD10BE0FEF7E6FD23
:1028B000044634B1FEF755FFFF20FEF747FFFEF751
:1028C0004BFF00E000BF00BF0CB1012070BD002035
:1028D000FCE700002DE9F04106460F46154616B10B
:1028E000012E2FD128E037B1012F1AD0022F0FD09F
:1028F000032F1BD111E0002013490860FEF7ABFF46
:1029000008B9002400E0012401200F4908600FE00D
:102910004FF40070288000240AE00820288000245A
:1029200006E0FEF761FD2860002401E0042400BFFA
:1029300000BF2046BDE8F08100BF042400BF00BFF7
:102940002046F7E70420F5E7B08221422DE9F04167
:1029500006460F4690461C4614B90420BDE8F08197
:1029600016B1012E14D111E0E2B241463846FEF70D
:1029700075FE054645B1FEF7F4FEFF20FEF7E6FEC4
:10298000FEF7EAFE0320E9E70020E7E70020E5E79D
:102990000420E3E70146002211B1012902D100E041
:1029A00002E001E0012200BF00BF0AB10120704730
:1029B0000020FCE72DE9F04105460E4617461C466F
:1029C00014B90420BDE8F08115B1012D0AD107E04A
:1029D000E2B239463046FEF74FFF80464046F1E707
:1029E0004046EFE70420EDE710B54FF40D7001F01D
:1029F0002BF9164908604FF40D7001F025F91349C1
:102A000048604FF40A7001F01FF9114908604FF453
:102A10000A7001F019F90F4908604FF4007001F0D5
:102A200013F90D4908600948006868B10748406813
:102A300050B10748006838B10648006820B1084620
:102A4000006808B1002010BD0120FCE788010020CB
:102A50009001002094010020A001002038B5054617
:102A6000284600F014FA04463CB96946284601F0AD
:102A700045FB04460CB900202860204638BD000004
:102A8000F7B582B016460398019001A800F04EFDFC
:102A90000446002C02DA0B2005B0F0BD0F4850F8B8
:102AA000245025B100200D4941F8240028700298D7
:102AB00040B102994C7000200299087007490298B1
:102AC00041F824000EB90020E6E7002202A903A87D
:102AD00000F040FF07463846DEE70000A401002072
:102AE0002DE9F74F90B0044616461CB9092013B0E3
:102AF000BDE8F08F06F03F06324603A911A800F0AA
:102B000029FF0546002D75D1039804904FF40070FD
:102B100000F0FCFA8346BBF1000F01D11120E6E77B
:102B20000398C0F80CB004A8119900F0C5FB054645
:102B30002DB99DF83B0000F0800000B1062506F09D
:102B40001C00002857D045B1042D03D104A8FFF77D
:102B5000B7FD054646F008060AE09DF8160000F0AD
:102B6000110008B1072503E006F0040000B10825B4
:102B7000002D51D106F0080000284DD000F0D4FC03
:102B800001900B9901F10E00019901F0B2F90B9936
:102B900001F11600019901F0ACF90B99039800F0CE
:102BA000ECFC814620200B99C87200220B990398F7
:102BB00001F08DF90B9901F11C00002101F099F948
:102BC000012003990871B9F1000F25D00398D0F8BE
:102BD00030A00022494604A801F02CF90546DDB9D1
:102BE0005146039801F008F80546A9F10100039940
:102BF000086111E078E07DB99DF8160000F0100042
:102C000008B1042508E006F0020028B19DF816007E
:102C100000F0010000B107254DB906F0080008B129
:102C200046F040060398006B20620B986062002D0E
:102C300057D10B99039800F0A0FCA0600B9901F10B
:102C40001C0000F0ADFCE060039820600398C08891
:102C5000A080267400206074E06160614FF4007110
:102C600004F12800FDF747FC06F0200058B3E068A7
:102C700048B3E06860610398408940020290A76809
:102C8000D4F80C800DE03946204600F0DDFB074605
:102C9000012F00D80225781C00B901250298A8EB65
:102CA000000815B902988045EDD8A7615DB9C8F351
:102CB000080040B139460398FFF7F6F88246BAF1AA
:102CC000000F01D102250CE00AEB5820E061E26917
:102CD00003994878012304F12801FFF737FE00B17A
:102CE0000125584600F018FA0DB100202060284652
:102CF000FDE62DE9FF4F85B0044615469A46DDF8FE
:102D000018B00020CAF8000003A9204601F0F6F927
:102D10000490049810B9607C049018B1049809B02C
:102D2000BDE8F08F207C00F0010008B90720F6E72D
:102D30006169E068401A01900198854200D9019DBF
:102D4000A0E0A08AC0F3080000287ED10398408943
:102D5000401E616900EA5129B9F1000F17D160697D
:102D600010B9A068029004E02046A16900F06CFB55
:102D700002900298022802D202206074CFE70298E3
:102D8000401C10B901206074C9E70298A061A169D4
:102D90000398FFF789F8064616B902206074BEE76B
:102DA0004E444FEA5528B8F1000F29D009EB08002E
:102DB00003994989884203D903984089A0EB0908FF
:102DC00003994878434632465946FFF7BFFD10B194
:102DD00001206074A3E7207C00F0800068B1E06906
:102DE000801B404509D2E169891B0BEB41204FF460
:102DF000007204F12801FDF7DDFA4FEA482737E0B9
:102E0000E069B04220D0207C00F0800078B1E26917
:102E100003994878012304F12801FFF7CBFD10B195
:102E2000012060747BE7207C00F07F002074039910
:102E300048780123324604F12801FFF787FD18B1D5
:102E4000012060746BE700E0E661A08AC0F308002F
:102E5000C0F50077AF4200D92F46A08AC0F3080220
:102E600004F1280011183A465846FDF7A3FA00BFAE
:102E7000ED1BDAF800003844CAF80000BB44606972
:102E800038446061002D7FF45CAF002047E7F8B55F
:102E900004466946204601F031F90646002E44D129
:102EA000207C00F0400000283FD0207C00F0800013
:102EB00070B1E26900994878012304F12801FFF715
:102EC00079FD08B10120F8BD207C00F07F0020745E
:102ED00000F02AFB0746216A009800F08DFE0646A6
:102EE0001EBB656AE87A40F02000E8722946A268B5
:102EF000206800F0ECFF05F11C00E16800F0F9FF2C
:102F0000394605F1160000F0F4FF002105F112002A
:102F100000F0FBFF012000990871009801F00CF807
:102F20000646207C00F0BF0020743046CBE72DE938
:102F3000FF4F83B0044615469B460498009000203E
:102F4000CBF8000001A9204601F0D8F802900298C1
:102F500010B9607C029018B1029807B0BDE8F08FFC
:102F6000207C00F0020008B90720F6E700BF606986
:102F700028446169884202D26069C0F1FF35BBE034
:102F8000A08AC0F30800002875D101984089401E2E
:102F9000616900EA512ABAF1000F1ED1606938B99F
:102FA000A76857B900212046FEF7D8FF074604E07E
:102FB0002046A169FEF7D2FF074607B99FE0012F1F
:102FC00002D102206074C8E7781C10B90120607437
:102FD000C3E7A761A06800B9A760207C00F080006B
:102FE00078B1E26901994878012304F12801FFF7DB
:102FF000E1FC10B101206074AFE7207C00F07F009D
:103000002074A1690198FEF74FFF064616B9022009
:103010006074A2E756444FEA5529B9F1000F2BD04E
:103020000AEB090001994989884203D9019840892E
:10303000A0EB0A09019948784B4632460099FFF700
:10304000B9FC10B10120607487E7E069801B484536
:103050000ED2E069801B009A02EB40214FF400720F
:1030600004F12800FDF7A6F9207C00F07F00207411
:103070004FEA49282BE013E0E069B0420FD0E16845
:10308000606988420BD2019948780123324604F1E5
:103090002801FFF75BFC10B1012060745DE7E66179
:1030A000A08AC0F30800C0F50078A84500D9A8465A
:1030B000A18AC1F3080204F1280150184246009980
:1030C000FDF778F9207C40F08000207400BFA5EB6C
:1030D0000805DBF800004044CBF8000000984044AD
:1030E0000090606940446061E1686069884201D98C
:1030F000606900E0E068E060002D7FF441AF00BF50
:10310000207C40F040002074002026E710B50446E3
:10311000204600F099FD10BD10B50446204600F091
:1031200085FD10BD10B502460020084B802A01DA4B
:10313000104609E040F2B514A14205D1FF2A03DC94
:10314000A2F1800433F8140010BD0000AE4800085E
:1031500010B5024600200D4B802A01D290B213E038
:10316000B2F5803F10D240F2B514A1420CD100203C
:1031700001E0441CA0B2802803DA33F810409442E6
:10318000F7D100F18004E0B210BD0000AE480008A5
:1031900070B5B0F5803F4DD281B2B1F5805F01DAF4
:1031A000254E00E0254E324600BF32F8023B0BB1FF
:1031B000994200DA3CE032F8024B2512E4B21E19C3
:1031C0008E4230DD092D2CD2DFE805F005090F1302
:1031D000171B1F232700CE1A32F8161021E0CE1A33
:1031E00006F001068E1BB1B21BE0A1F11006B1B2D0
:1031F00017E0A1F12006B1B213E0A1F13006B1B29F
:103200000FE0A1F11A06B1B20BE001F10806B1B26C
:1032100007E0A1F15006B1B203E0A1F5E356B1B267
:1032200000BF00BF04E0002DBFD102EB4402BCE7A9
:1032300000BF084670BD0000AE490008A04B000862
:103240002DE9FF4107460D4600213846FEF7BCFD3B
:103250000646022E06D0032E00D21DB9304604B019
:10326000BDE8F08100BF00240AE007F5F97101EB29
:10327000041101F1080000F093F94DF82400641CDA
:10328000042CF2D30DB1681E00E00020044600BFFC
:103290005DF8240028B15DF824103846FEF794FD4F
:1032A00000E0032006462DB9022E03D3601C04461D
:1032B0000428EDD33046D2E72DE9F34104462768D0
:1032C00002E00198401C0190019800782F28F8D066
:1032D000019800785C28F4D00020A0600198007864
:1032E000202808D280212B20015500212046FFF7FD
:1032F0008AFA05462CE000BF01A92046FEF7BEFE73
:10330000054605B123E02046FFF7F7F805462B20D8
:10331000065D3DB1042D04D100BF06F0040000B9E4
:10332000052514E006F0040000B110E0A07900F0DB
:10333000100008B905250AE0208AC0F3080207F149
:1033400034001118384600F018F9A060D4E700BF27
:103350002846BDE8FC81000000BF054A128802F043
:103360004002002AF9D0C2B2014B1B1D1A807047DF
:10337000003801402DE9FF4F83B0074691461E46B5
:103380000498016839604168796001893981807ADF
:10339000B872052E19D9B04612E039F802BB0024E4
:1033A0000CE0584668F35F0080464FEA6B0B08F468
:1033B000803010B1234888EA0008641C102CF0D338
:1033C000B9F800000028E8D14646072400BF06F0FF
:1033D0000F0000F1300A3609BAF1390F03DD0AF1A6
:1033E000070000F0FF0A2046641E01A901F800A0B2
:1033F0000CB1002EEBD17E2001A90855002509E073
:10340000785DFEF76FFF20B1601EA84200D106E094
:103410006D1C6D1CA54202D2785D2028F0D100BF42
:1034200000BF082C04D22046641C01A9085C00E0FF
:10343000202029466D1C7854082DF2D307B0BDE832
:10344000F08F0000211001002DE9F04781460C4665
:10345000D9F80050022C02D3A869A04202D84FF03C
:1034600001085EE04FF0FF382878012804D00228D8
:103470002CD0032851D13CE0264606EB5606686A5C
:1034800000EB5621284600F0B7FB00B148E030467B
:10349000761CC0F3080105F13400475C686A00EB54
:1034A0005621284600F0A8FB00B139E0C6F3080118
:1034B00005F13400405C47EA002704F0010008B140
:1034C000380901E0C7F30B00804629E0686A00EB89
:1034D0001421284600F090FB00B121E040F2FF11DA
:1034E00001EA440205F13401501800F065F8804605
:1034F00016E0686A00EBD411284600F07DFB00B1AD
:103500000EE040F2FF1101EA840205F13401501887
:1035100000F046F820F0704802E04FF0010800BFCC
:1035200000BF4046BDE8F0870020704770B50446F4
:103530004FF0FF3026683146324601B970BD00BFFA
:1035400012F8013B202B01D33A2BF9D13A2B11D1A0
:1035500001250E78302E08DB0E78392E05DC8E1C06
:10356000964202D10E78A6F13005012D01DA2846E7
:103570002260E3E7002000BFE0E770B505460C4697
:1035800004F11A0000F018F806462878032805D13F
:1035900004F1140000F010F846EA0046304670BD11
:1035A0000146C8788A7842EA00204A7842EA002038
:1035B0000A7842EA00207047014648780A7842EAD1
:1035C000002070471CB5FDF731FA4FF48060FDF71D
:1035D0007FFA4FF4165000F041FDFEF78FFE15E024
:1035E0005DA0FCF71BFE4FF4FA70FEF7A9FE5EA08B
:1035F000FCF714FE4FF4FA70FEF7A2FE5E48006876
:1036000008B9012000E000205B490860FDF736FFA3
:103610000028E5D1FDF7CEFAFDF724F900F030F9E6
:10362000FFF7E2F955490122086855A1FFF728FA8A
:10363000044614B953A0FCF7F1FD8CE0554800880E
:103640000028FAD04FF4FA70FEF77AFE524953A0E0
:10365000FCF7E4FD52A15048FCF774FF002825D187
:103660004FF400515048FDF7D7F94DA0FCF7D6FDB7
:103670000A224EA150480068FFF732FA04464FA0D4
:10368000FCF7CCFD3CB9524B642252494A480068D1
:10369000FFF74DFC044648480068FFF7DFF94EA0ED
:1036A000FCF7BCFDC8213C48FCF703FF4EA13A489B
:1036B000FCF748FF20BB4FF400513B48FDF7AAF947
:1036C00049A0FCF7ABFD012238A13B480068FFF799
:1036D00007FA0446464B64224648016836480068AB
:1036E000FFF707FB044634480068FFF7B7F9414885
:1036F000016841A0FCF792FDC8212748FCF7D9FEDC
:103700003FA12548FCF71EFFF0B900203F49087093
:103710004FF400512448FDF77DF939A0FCF77EFDF8
:103720003BA02B4909682346CDE9001022484FF4FD
:10373000A0710268F020FDF7C1FA38A0FCF76EFD19
:10374000C8211548FCF7B5FEC8211348FCF7B1FEA7
:1037500000201049088071E75344204361726420BF
:103760004572726F720D0A00506C6561736520437B
:103770006865636B210D0A00B402224288010020B3
:1037800030000000665F6D6F756E74206973206F86
:103790006B0D0A0030000020AC01002025730000F2
:1037A00057726974650D0A0000100140303A746563
:1037B0007874312E747874009001002046696C652D
:1037C000206973206F70656E65640D0A000000004B
:1037D0009C010020384100085772697465206973A4
:1037E00020646F6E650D0A00526561640D0A000069
:1037F00098010020A001002025730D0A00000000A0
:1038000057726974655F5069630D0A002C000020CF
:10381000303A74657374332E626D70005772697438
:10382000655F50696320697320636F6D706C6574A8
:1038300065640D0A0000000070B505460F48007C65
:1038400020B90E4908688047012070BDB5F5705F4A
:1038500011D269090948C06830F81120002406E037
:103860000020064BDB680E1923F81600641C9442F6
:10387000F6DB0020E9E70220E7E700003C0000203B
:1038800000B509494FF47072C868002100F0ECF9E6
:1038900005494FF470528868002100F0E5F90120D5
:1038A0000149087400BD00003C0000202DE9F041F2
:1038B00006460024A0461A48007C10B9184908683A
:1038C00080471EB94FF0FF30BDE8F081C6F34F15B9
:1038D00006F01F0008B1681C85B240F2DF141AE040
:1038E0000F48C06830F8140020B908F101001FFA31
:1038F00080F801E04FF00008A8450BD1002705E053
:103900000748C068E11920F811507F1CAF42F7D377
:103910006001D9E7641E002CE2DA4FF0FF30D3E7F4
:103920003C0000200022002106E00948C06830F871
:10393000110000B1521C491CB1F5F07FF5D3642091
:1039400050434FF4F073B0FBF3F0C0B27047000087
:103950003C0000202DE9F74F84B00021059801605C
:103960000498FFF7E3FD03900398002803DA0B2087
:1039700007B0BDE8F08F9B49039851F820400CB97F
:103980000C20F5E705980460069800F0FE0006900C
:10399000207878B16078FEF7FDFF074607F0010058
:1039A00040B9069820B107F0040008B10A20DFE70B
:1039B0000020DDE7002020706078FEF771FF0746E9
:1039C00007F0010008B10320D2E7069820B107F004
:1039D000040008B10A20CBE700212046FFF730FCA5
:1039E0000546042D01D10120C2E7022D01D30D208F
:1039F000BEE7D4F8309004F13F00FFF7DDFDB0F5ED
:103A0000007F01D00D20B3E704F14A00FFF7D4FD99
:103A1000064626B904F15800FFF7C2FD0646E661E6
:103A20004420005DE070E078012804D0E0780228AE
:103A300001D00D209CE7E07846434120005D608185
:103A4000608918B16089411E084008B10D208FE7D8
:103A500004F14500FFF7B0FD2081207A00F00F004F
:103A600008B10D2084E704F14700FFF7A5FD824669
:103A7000BAF1000F04D104F15400FFF791FD824622
:103A800004F14200FFF798FD8346BBF1000F01D11E
:103A90000D206DE70BEB0600218900EB1110029061
:103AA0000298824501D20D2062E70298AAEB00003D
:103AB0006189B0FBF1F8B8F1000F01D10D2057E793
:103AC00000254948804500D803254FF6F57080450C
:103AD00000D8022540F6F570804500D801250DB9C3
:103AE0000D2045E708F10200A061C4F8209009EB21
:103AF0000B00606202984844E062032D13D104F188
:103B00005E00FFF759FD08B10D2031E7208908B1AB
:103B10000D202DE704F16000FFF742FDA062A069CF
:103B20008000019014E0208908B90D2020E7606A28
:103B30003044A062022D02D1A069400007E0207E3F
:103B400000F00100A16901EB410100EB510001907F
:103B5000E169019800F2FF10B1EB502F01D20D2066
:103B600006E74FF0FF306061206180206071032D17
:103B70002DD104F16400FFF71FFD012827D109F1C1
:103B80000101204600F038F808BB0020607104F203
:103B90003220FFF711FD4AF65521884217D104F172
:103BA0003400FFF7FDFC1149884210D104F506707E
:103BB000FFF7F6FC0E49884209D104F50770FFF7BC
:103BC000EFFC606104F50870FFF7EAFC20612570E6
:103BD00008480088401C80B206490880E080002028
:103BE000C6E60000A4010020F5FFFF0F525261411C
:103BF00072724161A801002070B504460D4600268E
:103C0000206BA84210D0204600F0DCF906465EB9D1
:103C1000607801232A4604F13401FEF797FE10B1C3
:103C20004FF0FF3501262563304670BD70B5044660
:103C300004B970BD03488068251A2846FFF7FCFDCB
:103C400000BFF6E73C00002070B505462846FFF7A8
:103C50002DFE0446601C08B9002070BD0148806834
:103C60002044FAE73C00002030B5034601E003F8A9
:103C7000011B141EA2F10102F9D130BD2DE9F0475C
:103C800004460D4616464FF00209022D74D3A06972
:103C9000A84271D92078012804D0022849D00328ED
:103CA0000DD15EE02F4607EB5707606A00EB572106
:103CB0002046FFF7A1FF8146B9F1000F00D075E063
:103CC00038467F1CC0F3080104F1340001EB000802
:103CD00005F0010028B1F1B298F8000061F31F105F
:103CE00000E0304688F8000001202071606A00EB97
:103CF00057212046FFF780FF8146B9F1000F00D021
:103D000054E0C7F3080104F1340001EB000805F0AA
:103D1000010010B1C6F3071006E098F8000000F0AB
:103D2000F000C6F30321084388F800000120207149
:103D30003CE0606A00EB15212046FFF75DFF8146FD
:103D4000B9F1000F00D031E0B1B240F2FF1202EA47
:103D5000450304F13402981800F0D7F801202071CF
:103D600024E0606A00EBD5112046FFF745FF81464D
:103D7000B9F1000F01D019E019E040F2FF1101EA9A
:103D8000850204F134015018FFF70AFC66F31B00AA
:103D9000064640F2FF1101EA850204F13401501891
:103DA000314600F0A6F80120207100BF00BF484650
:103DB000BDE8F0872DE9F04707460C4615469846C2
:103DC00084F80D800F20E07200202073002104F1A0
:103DD0001A0000F09AF8681E00EB800101EBC009A0
:103DE00000200646824600BF4FF6FF70864204D090
:103DF000484609F1010937F810600D4911F80A1019
:103E00000819314600F081F80EB94FF6FF760AF135
:103E1000010082460D28E7D34FF6FF70864202D09C
:103E200037F8190008B945F040052570BDE8F0875E
:103E3000204800082DE9F04781460E4617464FF00E
:103E40000008D9F80040022E02D3A069B04202D87F
:103E50000220BDE8F08767B100BF4FF0FF3239465E
:103E60002046FFF70BFF8046B8F1000F01D0404617
:103E7000EFE700BF31464846FFF7E6FA054605B9C9
:103E800022E0012D01D10220E3E7681C08B90120DE
:103E9000DFE7002231462046FFF7F0FE8046B8F10A
:103EA000000F01D04046D4E7D4E90510801E8142BE
:103EB00006D26069401C6061607940F00100607169
:103EC0002E46A069B042D5D800BF0020C1E770B52A
:103ED00006460C461546A9B204F11A0000F015F882
:103EE0003078032804D1290C04F1140000F00DF8F7
:103EF00070BD00F8011B090A00F8011B090A00F84F
:103F0000011B090A00F8011B704700F8011B091288
:103F100000F8011B704730B5014600200B2200BF9E
:103F2000431003EBC01411F8015B6319D8B2531EA0
:103F30001A1EF5D130BD000070B50446204600F0D1
:103F400041F80546002D37D1207803282DD160791E
:103F500001282AD1410204F13400FCF7CCFA4AF6D8
:103F6000552104F23220FFF7D0FF144904F1340048
:103F7000FFF7BFFF124904F50670FFF7BAFF04F51B
:103F800007706169FFF7B5FF04F508702169FFF755
:103F9000B0FF206A401C20636078012304F13401E3
:103FA000226BFEF707FD0020607160780022114649
:103FB000FEF790FC00B10125284670BD52526141C8
:103FC0007272416170B5044600252079E8B16078CD
:103FD000012304F13401226BFEF7ECFCA0B90020B0
:103FE0002071616A206B401AE16988420DD2E07845
:103FF00002280AD1E369216BCA186078012304F111
:104000003401FEF7D7FC00E00125284670BD2DE9FC
:10401000F0410646356815F8014B2046FEF762F977
:1040200060B115F8017B3846FEF762F918B94FF018
:10403000FF30BDE8F08107EB042084B24CB140F2C0
:10404000B5112046FFF76EF8044614B94FF0FF3063
:10405000EFE7A04635604046EBE7000010B586B0BC
:104060000446012144F20400FCF76CFF4FF4007099
:10407000ADF8140003208DF8160018208DF81700F5
:1040800005A91C48FCF732FC4FF48060ADF8140021
:1040900004208DF8170005A91648FCF727FC2520F9
:1040A0008DF8000003208DF801008DF8020001203A
:1040B0008DF803006846FCF7D3FC01940020ADF8AE
:1040C0000800ADF80A00ADF80C00ADF810000C20A7
:1040D000ADF80E0001A90848FDF700FE012240F2EC
:1040E00025510548FDF7D4FD01210348FDF79AFD50
:1040F00006B010BD000801400038014070B504460C
:104100000D4609268CB1206878B12068007860B12E
:10411000A0882168C988884207D121684878FEF7BD
:1041200039FC00F0010000B900260EB9206800E05B
:1041300000202860304670BD546869732069732080
:1041400061206E65772066696C652C207468652037
:1041500064617461206973206A7573742077726971
:104160007474656E20696E2100000000000000007C
:10417000000000000000000000000000000000003F
:10418000000000000000000000000000000000002F
:104190000000000000000000000000003A0C40D0C9
:1041A000121432801716180419021A7A03050C002B
:1041B0003E00703A713572117300A20211817A20AB
:1041C0007B1C7C287D3C7E557F6880768180828840
:1041D000838F849685A386AF87C488D789E813E048
:1041E000000010000D001428A505AB0724752563F9
:1041F00026A59F78A068A103A6DFA7DFA8F0A99055
:10420000AA9413E50E610F4B16021E27210222917C
:104210002907330B350B371D3871392A3C784D404F
:104220004E2069556B4074198D4F8E008F009000A1
:104230009100920096009A80B084B10CB20EB382C5
:10424000B80A431444F0453446584728483A598838
:104250005A885B445C675D495E0E640465206605B0
:10426000940495086C0A6D554F805080510052227D
:10427000535E54806E116F9F6A400140024013E705
:104280001500550A564F589E41083F05750576E1C1
:104290004C0F770A3DC24B09C960413834113B02CB
:1042A000A48996009730982099309A849B299C0382
:1042B0009D4C9E3F78047901C8F0790FC8007910B1
:1042C000C87E790AC880790BC801790CC80F790DAE
:1042D000C8207909C8807902C8C07903C840790527
:1042E000C830792609023B423A0C40D01214328081
:1042F0001716180419021A7A03050C0015003E005F
:10430000703A713572117300A20211817A207B1C00
:104310007C287D3C7E557F68807681808288838F73
:10432000849685A386AF87C488D789E813E0000008
:1043300010000D001428A505AB072475256326A5DC
:104340009F78A068A103A6DFA7DFA8F0A990AA9490
:1043500013E50E610F4B16021E2721022291290739
:10436000330B350B371D3871392A3C784D404E20C0
:1043700069006B4074198D4F8E008F009000910082
:10438000920096009A80B084B10CB20EB382B80A43
:10439000431444F0453446584728483A59885A88C7
:1043A0005B445C675D495E0E6404652066059404A9
:1043B00095086C0A6D554F80508051005222535E13
:1043C000548009036E116F9F5500564057406A4054
:1043D0000140024013E71500589E41083F00750553
:1043E00076E14C0077013DC24B09C9604138341178
:1043F0003B02A48996009730982099309A849B2993
:104400009C039D4C9E3F78047901C8F0790FC80049
:104410007910C87E790AC880790BC801790CC80F59
:10442000790DC8207909C8807902C8C07903C840CD
:104430007905C830792609003A0440D01214328038
:104440001717180519021A7B030A0C0015003E0005
:10445000703A713572117300A20211817A207B1CAF
:104460007C287D3C7E557F68807681808288838F22
:10447000849685A386AF87C488D789E813E00000B7
:1044800010000D001428A505AB072475256326A58B
:104490009F78A068A103A6DFA7DFA8F0A990AA943F
:1044A00013E50E610F4B16021E37210222912907D8
:1044B000330B350B371D3871392A3C784D404E206F
:1044C00069006B4074198D4F8E008F009000910031
:1044D000920096009A80B084B10CB20EB382B80AF2
:1044E000431444F0453446584728483A59885A8876
:1044F0005B445C675D495E0E640465206605940458
:1045000095086C0A6D554F80508051005222535EC1
:10451000548009036E116F9F5500564057406A4002
:104520000140024013E71500589E41083F00750501
:1045300076E14C0077013DC24B09C9604138341126
:104540003B02A48996009730982099309A849B2941
:104550009C039D4C9E3F78047901C8F0790FC800F8
:104560007910C87E790AC880790BC801790CC80F08
:10457000790DC8207909C8807902C8C07903C8407C
:104580007905C830792609003A0440D012143280E7
:104590001716180419021A7B03060C0015003E00BA
:1045A000703A713572117300A20211817A207B1C5E
:1045B0007C287D3C7E557F68807681808288838FD1
:1045C000849685A386AF87C488D789E813E0000066
:1045D00010000D001428A505AB072475256326A53A
:1045E0009F78A068A103A6DFA7DFA8F0A990AA94EE
:1045F00013E50E610F4B16021E3721022291290787
:10460000330B350B371D3871392A3C784D404E201D
:1046100069006B4074198D4F8E008F0090009100DF
:10462000920096009A80B084B10CB20EB382B80AA0
:10463000431444F0453446584728483A59885A8824
:104640005B445C675D495E0E640465206605940406
:1046500095086C0A6D554F80508051005222535E70
:10466000548009036E116F9F5500564057406A40B1
:104670000140024013E71500589E41083F007505B0
:1046800076E14C0077013DC24B09C96041383411D5
:104690003B02A48996009730982099309A849B29F0
:1046A0009C039D4C9E3F78047901C8F0790FC800A7
:1046B0007910C87E790AC880790BC801790CC80FB7
:1046C000790DC8207909C8807902C8C07903C8402B
:1046D0007905C830792609003A0440D01214328096
:1046E0001716180419021A7B03060C003E00703AD4
:1046F000713572117300A20211817A207B1C7C2813
:104700007D3C7E557F68807681808288838F849609
:1047100085A386AF87C488D789E813E0000010001E
:104720000D001428A505AB072475256326A59F78E1
:10473000A068A103A6DFA7DFA8F0A990AA9413E5BB
:104740000E610F4B16021E37210222912907330BEF
:10475000350B371D3871392A3C784D404E206900A1
:104760006B6074198D4F8E008F0090009100920045
:1047700096009A80B084B10CB20EB382B80A43148A
:1047800044F0453446584728483A59885A885B448B
:104790005C675D495E0E64046520660594049508B7
:1047A0006C0A6D556E116F9F6A400140024013E71D
:1047B00015004F80508051005222535E5480589E05
:1047C00041083F00750576E14C0077013DC24B0979
:1047D000C9604138564034113B02A4899600973095
:1047E000982099309A849B299C039D4C9E3F780485
:1047F0007901C8F0790FC8007910C87E790AC8809D
:10480000790BC801790CC80F790DC8207909C880C7
:104810007902C8C07903C8407905C83079260900F3
:1048200001030507090E10121416181C1E809A4564
:10483000418E418F804545454949498E8F909292DE
:104840004F994F555559999A9B9C9D9E9F41494F11
:1048500055A5A5A6A7A8A9AAABACADAEAFB0B1B2FD
:10486000B3B4B5B6B7B8B9BABBBCBDBEBFC0C1C2A0
:10487000C3C4C5C6C7C8C9CACBCCCDCECFD0D1D290
:10488000D3D4D5D6D7D8D9DADBDCDDDEDFE0E1E280
:10489000E3E4E5E6E7E8E9EAEBECEDEEEFF0F1F270
:1048A000F3F4F5F6F7F8F9FAFBFCFDFEFF00C7009C
:1048B000FC00E900E200E400E000E500E700EA00B7
:1048C000EB00E800EF00EE00EC00C400C500C900FA
:1048D000E600C600F400F600F200FB00F900FF005D
:1048E000D600DC00A200A300A500A7209201E100F1
:1048F000ED00F300FA00F100D100AA00BA00BF00F9
:104900001023AC00BD00BC00A100AB00BB00912592
:1049100092259325022524256125622556255525B6
:104920006325512557255D255C255B25102514251C
:1049300034252C251C2500253C255E255F255A2580
:10494000542569256625602550256C256725682531
:104950006425652559255825522553256B256A253B
:1049600018250C25882584258C2590258025B103C4
:10497000DF009303C003A303C303B500C403A6036E
:104980009803A903B4031E22C603B503292261229A
:10499000B1006522642220232123F7004822B000C1
:1049A0001922B7001A227F20B200A025A0006100C2
:1049B0001A03E0001703F8000703FF000100780165
:1049C0000001300132010601390110014A012E01B6
:1049D0007901060180014D004302810182018201BB
:1049E0008401840186018701870189018A018B0185
:1049F0008B018D018E018F01900191019101930135
:104A00009401F60196019701980198013D029B01DE
:104A10009C019D0120029F01A001A001A201A20111
:104A2000A401A401A601A701A701A901AA01AB0144
:104A3000AC01AC01AE01AF01AF01B101B201B301F4
:104A4000B301B501B501B701B801B801BA01BB01A5
:104A5000BC01BC01BE01F701C001C101C201C3011B
:104A6000C401C501C401C701C801C701CA01CB0106
:104A7000CA01CD011001DD0101008E01DE0112012C
:104A8000F3010300F101F401F401F801280122020D
:104A900012013A020900652C3B023B023D02662CE2
:104AA0003F0240024102410246020A015302400015
:104AB00081018601550289018A0158028F015A023B
:104AC00090015C025D025E025F029301610262027C
:104AD00094016402650266026702970196016A0208
:104AE000622C6C026D026E029C01700271029D01CB
:104AF000730274029F0176027702780279027A02C9
:104B00007B027C02642C7E027F02A601810282026B
:104B1000A9018402850286028702AE014402B10126
:104B2000B20145028D028E028F0290029102B701FE
:104B30007B030300FD03FE03FF03AC0304008603B5
:104B4000880389038A03B1031103C2030200A3038C
:104B5000A303C4030803CC0303008C038E038F0359
:104B6000D8031801F2030A00F903F303F403F50371
:104B7000F603F703F703F903FA03FA0330042003FB
:104B800050041007600422018A043601C1040E019A
:104B9000CF040100C004D0044401610526040000D4
:104BA0007D1D0100632C001E9601A01E5A01001FEE
:104BB0000806101F0606201F0806301F0806401FA3
:104BC0000606511F0700591F521F5B1F541F5D1F10
:104BD000561F5F1F601F0806701F0E00BA1FBB1F05
:104BE000C81FC91FCA1FCB1FDA1FDB1FF81FF91F01
:104BF000EA1FEB1FFA1FFB1F801F0806901F080605
:104C0000A01F0806B01F0400B81FB91FB21FBC1FA9
:104C1000CC1F0100C31FD01F0206E01F0206E51FC4
:104C20000100EC1FF31F0100FC1F4E210100322187
:104C300070211002842101008321D0241A05302C18
:104C40002F04602C0201672C0601752C0201802CB8
:104C50006401002D260841FF1A0300003031323371
:104C600034353637383941424344454640305800A0
:104C700030313233343536373839616263646566D2
:104C8000403078004D503100334732004D503200F3
:104C90004D5033004D5034004D344100574D4100CC
:104CA000464C414300000000414343004C52430046
:104CB000430000004D494400474946004A504547DB
:104CC000000000004F4747004A50470048000000DE
:104CD00042494E0033475000424D50004E4553006C
:104CE0005458540057415600084D00080000002059
:104CF000AC01000028010008844D0008AC01002030
:104D0000FC460000840100081184A24A04680901DD
:104D1000020304060708090C6910051402040608BA
:104D200013813814082539140888021420883E425B
:104D30002013D04C09132C011C0A31AC340A31DC8D
:104D4000341AE0341AB0040A29CC3C1A842C1A8C88
:104D5000041A90041A94041A98041AD4041A8804A1
:104D60001AC4041AA8041A9C041AE4041AB4041AF3
:104D7000A0041AD8041AC8041ABC040A31B8A8013D
:044D80001800000017
:04000005080000ED02
:00000001FF
