:020000040800F2
:10000000C8070020350200084D1E0008DF1D00084B
:10001000491E0008751C0008832D00080000000020
:10002000000000000000000000000000A9290008F6
:10003000791C000800000000E11E0008B52A000835
:100040004F0200084F0200084F0200087922000802
:100050004F0200084F0200084F0200084F0200083C
:100060004F0200084F0200084F0200084F0200082C
:100070004F0200084F0200084F0200084F0200081C
:100080004F0200084F0200084F0200084F0200080C
:100090004F0200084F0200084F0200084F020008FC
:1000A0004F0200084F0200084F0200084F020008EC
:1000B0004F0200084F0200084F0200084F020008DC
:1000C0004F0200084F0200084F0200084F020008CC
:1000D0004F020008192B0008512B00088D2B000837
:1000E0004F0200084F0200084F02000800F002F81B
:1000F00000F090F80AA090E8000C82448344AAF132
:100100000107DA4501D100F085F8AFF2090EBAE82F
:100110000F0013F0010F18BFFB1A43F0010318473B
:10012000185B0000385B0000103A24BF78C878C123
:10013000FAD8520724BF30C830C144BF04680C60ED
:10014000704700000023002400250026103A28BF35
:1001500078C1FBD8520728BF30C148BF0B60704739
:100160006E2900F06F83702900F05F81662903F02B
:10017000D381652903F0D081672903F0CD816129FE
:1001800003F0CC8103681B0A28BF41F08001692974
:1001900000F0D080642900F0CD80752900F0CA807D
:1001A0006F2900F06684782900F02B81E92900F09E
:1001B0000184E42900F0FE83F52900F0FB83EF2998
:1001C00000F06384F82900F02A810368DB0928BF66
:1001D00041F08001632900F07083732900F075837A
:1001E000E32901F03980F32901F03E8000207047B7
:1001F0001FB501F08FF804000020002103F076F90C
:10020000401C60600020002103F05AF9E0601FBD2F
:1002100010B510BD01F050F81146FFF7E9FF02F0EC
:1002200007FE01F02DF903B4FFF7F2FF03BC02F063
:10023000EEFD00000948804709480047FEE7FEE759
:10024000FEE7FEE7FEE7FEE7FEE7FEE7FEE7FEE786
:1002500004480549054A064B70470000B92A0008C2
:10026000ED000008C8010020C8070020C8030020D6
:10027000C8030020704700001CB50C46064B7B44A9
:1002800069460090204600F0F6FA044600206946D0
:1002900000F004FB20461CBD1B0600000FB40449FF
:1002A00010B503AA029800F015FB10BC5DF814FB12
:1002B000180000200FB41CB5084B06AA7B44694601
:1002C0000090059800F0D7FA04460020694600F037
:1002D000E5FA20461CBC5DF814FB0000DD050000BB
:1002E00070B50C460546012A05D02878800600D551
:1002F000EA69002302E0012305E05B1C934202D27D
:10030000E05C0028F9D1A869E618C01AA861286A3B
:1003100018442862284600F003FA04E0D5E90121D8
:1003200014F8010B9047B442F8D3284600F00EFAB7
:1003300070BD00002DE9F0410646002410687529C3
:10034000314616A510D000F012FA002802DA404219
:1003500013A507E031688A0701D512A502E0490715
:1003600004D511A5012401E000F00AFA00210A22B7
:1003700006F1240709E0B0FBF2FCB0FBF2F302FB4C
:100380001C00303078541846491C0028F3D123460D
:100390002A463046BDE8F04100F0FBB900000000FD
:1003A0002D0000002B00000020000000F0B40D46DE
:1003B0000188090502D5214C7C4402E01F4C7C4495
:1003C0000E34002100F1240608E002F00F071209A4
:1003D000E75D42EA03721B097754491C52EA03079E
:1003E000F3D102780023120704D5702D06D009B18D
:1003F000022311342246F0BC00F0CBB901231034A3
:10040000F8E770B504460D462146106800F0B8F9CB
:10041000024629462046BDE870400023C6E7D21DAB
:1004200022F00703D3E90023C0E70368126843F012
:10043000200303600823C3610023B7E77C57000053
:100440002DE9F05F894604464FF0000ADFF874B1E9
:10045000FB44C0F820A02046E1688847002874D0FB
:10046000252806D0D4E901219047206A401C20624B
:10047000F1E700265F462046E168884720280546C8
:1004800007DB312D05D2781910F8200C08B106438E
:10049000F1E7B00701D526F00406C4F81CA0002738
:1004A000C4F818A02A2D09D0284602F0A9FC38B3B8
:1004B00004EB8708303DC8F8185019E059F8041BC0
:1004C000204604EB87029161E1688847012F0546C9
:1004D00018D1E069002820DA26F020061DE0D8F8BF
:1004E000180000EB800005EB40003038C8F8180019
:1004F0002046E1688847054602F082FC0028EED1DC
:10050000012F0AD02E2D08D12046E16888477F1C94
:100510000546022F46F02006C4DBA069002803DA56
:10052000404246F00106A061F00701D026F0100617
:100530006C2D0BD0682D09D04C2D39D06A2D35D0BB
:10054000742D35D07A2D33D016E038E0E1682F468F
:1005500020468847B842054609D16C2F26D04FF473
:100560008060E168064320468847054604E06C2F1A
:100570001AD04FF4807006430DB3A5F1410019283D
:1005800002D8203546F400664A46294620462660B1
:100590004E46FFF7E5FD80B101280BD0F61D26F091
:1005A000070000F1080956E74020E4E78020D8E77B
:1005B0000020D6E706F104094DE7284652E7206AF5
:1005C000BDE8F09F0C57000010B5431C02E010F886
:1005D000011B71B18107FAD14FF0013202C88C1AA8
:1005E0008C4314EAC211F9D0C01A0A0603D0C01E07
:1005F00010BDC01A10BD0A0401D0801E10BD090232
:10060000FCD0401E10BD4FF000020429C0F0128043
:1006100010F0030C00F01B80CCF1040CBCF1020FB5
:1006200018BF00F8012BA8BF20F8022BA1EB0C018A
:1006300000F00DB85FEAC17C24BF00F8012B00F880
:10064000012B48BF00F8012B70474FF0000200B5A6
:10065000134694469646203922BFA0E80C50A0E8E5
:100660000C50B1F12001BFF4F7AF090728BFA0E893
:100670000C5048BF0CC05DF804EB890028BF40F85F
:10068000042B08BF704748BF20F8022B11F0804FA1
:1006900018BF00F8012B70474FF0013C50F8042BB5
:1006A00051F8043B9A4221D1A2EB0C03934313EA85
:1006B000CC1317D150F8042B51F8043B9A4215D1B2
:1006C000A2EB0C03934313EACC130BD150F8042B89
:1006D00051F8043B9A4209D1A2EB0C03934313EA6D
:1006E000CC13DBD04FF00000704700BFD01A01BA26
:1006F000B1FA81F101F0180122FA01F0CB40C1F109
:100700002001DBB2C0B2C01A2CFA01F3D11A914316
:1007100011EAC311E6D170477047704770477047C0
:1007200070B5044685690068C10601D5302600E031
:100730002026C00707D070BDD4E90121304690477C
:10074000206A401C20626D1EF6D570BD70B504464F
:1007500085690078C00707D170BDD4E90121202048
:100760009047206A401C20626D1EF6D570BD096856
:100770004A0501D540B27047C905FCD500B27047A3
:1007800009684A0501D5C0B27047C905FCD580B2D9
:1007900070472DE9F0470D4699469246044600F110
:1007A00024080168880604D5E06921F01001216061
:1007B00000E00120A84201DD471B00E00027A169FD
:1007C0007A1902EB0900081AA0612078C00602D449
:1007D0002046FFF7A5FF002608E0D4E901211AF81A
:1007E00006009047206A401C761C20624E45F4DBD0
:1007F0002078C0060AD52046FFF792FF06E0D4E92C
:10080000012130209047206A401C2062381EA7F149
:100810000107F4DC07E0D4E9012118F8050090474E
:10082000206A401C2062281EA5F10105F3DC204649
:10083000FFF78CFF2078000602D50220BDE8F08784
:100840000120FBE711680268006A530501D50870B2
:100850000AE0D30501D5088006E0130603D5C217C8
:10086000C1E9000200E008600120704701694A1CEC
:1008700002610878704700B58FB0CDE901310021E1
:10088000059105497944CDE9031011466846FFF703
:10089000D7FD0FB000BD0000E5FFFFFF0A6802F8BA
:1008A000010B0A60704710B5436913B1AFF30080C4
:1008B00001E0FFF715FD012010BD127800F12401C1
:1008C0000A7000224A700122EDE711684FF0FF32F2
:1008D000E9E70000074B70B50D467B44FFF7CBFFFF
:1008E0000446284600F0C4FC10B14FF0FF3070BD44
:1008F000204670BD372500002DE9FF5F15468A466A
:100900000446DFF8AC80F8440027D8E900103E46E2
:10091000CDE9001010E03AF816106A4602A800F07F
:10092000ABFC411C07D02178890603D5E269391850
:1009300091420DD80744761C2078800602D5E069E4
:10094000B84205DDAE42E6DB3AF816000028E2D1F7
:10095000A069C01BA0612046FFF7E2FED8E90010A5
:10096000CDE90010002017E03AF818106A4602A8F6
:1009700000F082FCB0F1FF3F81460BD000250DF165
:10098000080B05E0D4E901211BF8050090476D1C18
:100990004D45F7D308F10100B0428046E4DB206A00
:1009A000384420622046FFF7D1FEBDE8FF9F0000DB
:1009B0006A5200002DE9F0418046D21D22F0070264
:1009C0000025D2E90002F52915A614D0011E72F106
:1009D000000106DA0023D0EB030063EB020211A64C
:1009E00008E0D8F800108B0701D50FA602E04907F0
:1009F00001D50EA601251146002408F1240704E0C4
:100A000000F04EF830323A55641C50EA0102F7D13A
:100A10002B46324621464046BDE8F041FFF7B9BEBD
:100A2000000000002D0000002B000000200000004E
:100A300030B4002100F1240408E002F00705D208D8
:100A4000303542EA4372DB086554491C52EA03051B
:100A5000F3D10468002310A2250707D5A40600D40B
:100A600021B1C46901230DA2641EC46130BCFFF72B
:100A700090BE10B5044621461068FFF781FE02467D
:100A80002046BDE810400023D2E7D21D22F0070126
:100A9000D1E90023CCE70000000000003000000096
:100AA00030B5B0F10A024FEA900E71F100034EEA40
:100AB000817EB0EB0E0061EB91014FEA101E4EEA11
:100AC000017E10EB0E0041EB11114FEA102E4EEAA1
:100AD000016E10EB0E0041EB11214FEA104E4EEA71
:100AE000014E10EB0E0041EB1141401841F10001A5
:100AF0004FEAD00040EA41704FEAD10110EB800587
:100B00004FEA810444EA907444EB01046D1944EB0C
:100B10000404521BA3414FF0000348BF0A3200D522
:100B200030BD401C41F1000130BD70472DE9FF4F41
:100B30000C461E464FF0FF378BB0D2E90001DDF8BE
:100B400060800A908A46C1F30A5505B93D460021E6
:100B500008464FF00000BAF1000F00F4400005DA3B
:100B600000EB80004FF4400101EA50004FEA905939
:100B7000B9F1010F00DDB9460A9850EA4A000ED0DB
:100B800044F61050A5F2FF3545432F14B8F1000F7D
:100B90001ED07542291E1EDDC9F100021CE0B8F10D
:100BA000010F4FF0000001D0302103E0F24305E0D7
:100BB0002154401CB042FBDB30460022002121546E
:100BC0000B99C1F80880C1E900200FB0BDE8F08F93
:100BD000BD1B6D1CDEE74A4600DA694206A800F03C
:100BE000DDFB06AB93E8070003AB83E80700504644
:100BF0000A9900F053FC8DE80700A0F500501F385B
:100C000000900398002D0ADD42F21F014A46084475
:100C1000002303A90390684600F0BCFE09E0A0F59C
:100C200000504A461F38002303A90390684600F08D
:100C3000C6FE8DE807000004000C03D04FF0FF3023
:100C4000410800E01046B8F1000F03D000220092E6
:100C500015461EE0751E05D4FFF722FF303262559F
:100C60006D1EF9D5B3460122084302D000227F1C35
:100C700004E02078302801D100227F1E002A099745
:100C800084D01DE0112D07DAFFF70AFF30326255DC
:100C90006D1C50EA0102F5D1084302D00098C8B19A
:100CA0000EE00021681E05E0235C625C6354225460
:100CB000401E491C8142F7DBAB46A81B401E099031
:100CC000002004F80B000B98099AC0F80880C0E9CE
:100CD000002B7AE711264FF0000857E72DE9F04F77
:100CE00088460446D21D22F0070191B0D1E90001E7
:100CF000CDE90A0102F070F802460B98C00F01D04E
:100D00002D2007E02068810701D52B2002E020215B
:100D100001EAC000032A099001D0072A05DB034637
:100D20004146204600F0FAFA0BE12078800601D512
:100D3000E06900E00620B8F1650F814606D0B8F101
:100D4000660F18D0B8F1670F70D131E00020B9F10B
:100D5000110F009001DB112301E009F101030AAA40
:100D600001A90CA8FFF7E2FEDDE90C70002609F1ED
:100D70000105834647E001204B4600904FF00047B5
:100D80000AAA01A90CA8FFF7D1FEDDE90DB00C9964
:100D90005D46002610B909F101000D18B9EB0500F8
:100DA00003D4C0F1FF3609F10105A5EB09002BE0E2
:100DB000B9F1010F01DA4FF001090020B9F1110F6B
:100DC0000090484601DD112300E003460AAA01A96C
:100DD0000CA8FFF7ABFEDDE90C704D4600268346FC
:100DE000207800070AD4AB4500DA5D4601A8012D42
:100DF00004DD411911F8011C302907D04F4502DAF2
:100E000017F1040F04DA012082460FE06D1EEEE7B1
:100E1000002F02DCED1B3E4403E0781CA84200DDFD
:100E20007D1CB81B00F1010A4FF000472078000735
:100E300003D4AA4501DB4FF0FF3A0021B7F1004F80
:100E40000DF143088DF8431024D002202B23002FEE
:100E500001DA7F422D230A21021EA0F1010000DCED
:100E60005FB197FBF1FC97FBF1F201FB1C7C17468D
:100E70000CF1300C08F801CDEEE7A8F10100037089
:100E80002188090501D5452100E06521A0F101086F
:100E900000F8011C09980FA9A1EB0807FF1D00B17C
:100EA0000120411901EBEA70A1693844081A401E7B
:100EB000A0612078C00602D42046FFF731FC0998D3
:100EC00028B1D4E901219047206A401C2062207893
:100ED000C00622D52046FFF723FC1EE0002E04DBCF
:100EE000B34502DD01A8805D00E03020D4E9012196
:100EF0009047206A401C2062761CAAF101005FEA3C
:100F0000000A0AD100F006FAC0680168405CD4E922
:100F100001219047206A401C2062281EA5F101058E
:100F2000DCDC07E0D4E9012118F8010B9047206AC6
:100F3000401C2062381EA7F10107F3DC2046FFF7B2
:100F400005FC032011B041E62DE9F04F04460D46A3
:100F5000D21D22F0070089B0D0E9009748463946F3
:100F600001F03AFF0246F80F01D02D2307E0206878
:100F7000810701D52B2302E0202101EAC0038DF86F
:100F800020300BB1012000E00020032A824601D06E
:100F9000072A04DB2946204600F0C0F93FE120780B
:100FA000800601D40D2500E0E569C7F30A560D2D32
:100FB00049DA00214FEA175B08464FF00000002F86
:100FC00000F4400007DA00EB80004FF4400100EB32
:100FD000D07001EA60008115012901DD4FF0FF3179
:100FE00000224FEA850CBCF1180F06D31346ACF172
:100FF00018004FF08052C24003E04FF4801323FAF0
:101000000CF30CF10C0CBCF1200F04D3ACF1200C50
:1010100009FA0CF001E007FA0CF000294FF0004843
:1010200001DD18B90FE00ED140450CD319EB0209D0
:101030005F4121B9404502D19F4329EA0209BBEB38
:10104000175F00D0761C2088000502D57B487844C5
:1010500002E07A487844193808AA302302F80A30A6
:10106000037C0AF10101002E0AF1020A53546A4678
:1010700002DC4FF0300101E04FF031014FF0010888
:101080008DF8001002D0A6F2FF3603E059EA4701BE
:1010900000D06B4E002D02DC2178090704D54FF0FB
:1010A00002082E218DF80110C44600210BE0C7F381
:1010B00003433F01C35C491C6D1E02F8083005293B
:1010C00008F1010801DA002DF1DC00210CE000EB51
:1010D0001973491C1B786D1E082902F808304FEA65
:1010E000091908F1010801DA002DF0DC21688B06EE
:1010F00002D516E0A8F10108E04505DD02EB080382
:1011000013F8013C302BF5D0B8F1000F09DD02EBEC
:10111000080313F8013C2E2B03D1090701D4A8F1D1
:101120000108002D05DD3E2102F808106D1E08F1B2
:101130000108407C002E02F8080008F1010804DADA
:101140002D20764202F8080002E02B2002F8080069
:101150000A214FF47A70864208F101080BDB96FBF6
:10116000F0F3303302F8083096FBF0F308F1010891
:1011700000FB136601E0642E0CDB642096FBF0F3A9
:10118000303302F8083096FBF0F308F1010800FB59
:10119000136601E00A2E06DB96FBF1F0303002F810
:1011A000080008F1010896FBF1F001FB10603030F7
:1011B00002F80800A16908F1010808EB050202EB3A
:1011C0000A00081AA0612078C00602D42046FFF762
:1011D000A7FA216A08AE01EB0A00206204E0D4E914
:1011E000012116F8010B9047BAF1010AF7D22078D5
:1011F000C00602D52046FFF793FA6E4609E016F8BE
:10120000010B3E280FD0D4E901219047206A401CF1
:101210002062B8F10108F2D22046FFF797FA09B030
:101220000320BDE8F08F206A2844206203E0D4E95F
:101230000121302090476D1EEBD3F8E73D4B0000B5
:1012400002FCFFFF10B5436913B1AFF3008001E06A
:10125000FFF752FB012010BD128800F124018284A7
:101260000022C2840122EDE711684FF0FF32E9E766
:10127000007B00F08000704770B516460C460546AE
:1012800000F040F8036893F80101012806D0FF2C14
:101290000FD8185D68B101202C7070BDD3F807011C
:1012A0003246214603F2071303442846BDE8704046
:1012B00018474FF0FF3070BD754600F0EBF8AE46B2
:1012C00005006946534620F00700854618B020B552
:1012D000FEF7BEFFBDE820404FF000064FF00007CC
:1012E0004FF000084FF0000B21F00701AC46ACE8CE
:1012F000C009ACE8C009ACE8C009ACE8C0098D463B
:101300007047000010B500F005F8001D10BD00BFCB
:10131000DD21000000487047880100202DE9F041E0
:101320001F46044603260168072A01F4006004DB17
:1013300008B116A505E016A503E008B115A500E063
:1013400015A521F010002060A069C01EA0610FB19A
:10135000401EA0612046FFF7E3F94FB1D4E9012117
:1013600038469047206A401C2062C01C206206E07C
:10137000206AFAE7D4E9012115F8010B9047761E9F
:10138000F8D22046FFF7E2F9BDE8F0814E414E0069
:101390006E616E00494E4600696E66002DE9F047A9
:1013A000814616468AB0354878440DC88DE80D0050
:1013B00032487844801C03AC0DC884E80D0041F627
:1013C0009B300844372190FBF1F290FBF1F5A5F139
:1013D000800501FB12041B3C02D56442012000E0A1
:1013E0000020DFF898A080460027FA44AAF1BE0A40
:1013F0000EE0E0070AD03246684607EB47010123BA
:101400000AEB810100F0DBFA8DE8070064107F1C15
:10141000002CEED1194F7F44AE3F19E0E80715D0FC
:1014200007EB04100DF1180A90E80E008AE80E0090
:10143000C068F04201D1981908903246012306A9EC
:1014400003A800F0BCFA03AB83E807006D10641C2E
:10145000002DE3D14FF0010332466946B8F1000F89
:1014600003A802D000F096FA01E000F0A8FAC9E95A
:101470000001C9F808200AB0BDE8F08774480000F0
:1014800010B50446AFF300802046BDE81040FEF7DB
:10149000CABE000000487047680100205FEA400CA7
:1014A00008BF91F0000F4FEA8C234FEAC12243EAB4
:1014B00051514FEA1C5018BF00F5F0404FEA300080
:1014C00018BF41F000415FEA6C5C00F02980BCF17C
:1014D000FF3F08BF40F080407047130C06BF120466
:1014E0004FF0100C4FF0000C130E04BF12020CF161
:1014F000080C130F04BF12010CF1040C930F04BF6E
:1015000092000CF1020CD30F04BF52000CF1010C3D
:1015100011464FF00002A0F11F00A0EB0C00704735
:1015200011F0004F08BF704731F000413FF4D5AFD4
:101530000B0C06BF09044FF0100C4FF0000C0B0E03
:1015400004BF09020CF1080C0B0F04BF09010CF1D8
:10155000040C8B0F04BF89000CF1020CCB0F04BFED
:1015600049000CF1010CCCF12003A0EB0C0022FA95
:1015700003F302FA0CF241EA030100F101007047A3
:1015800020F07F4C80EA030023F07F47ACEB070399
:1015900003F57C5300F0004003F1FF032DE980497F
:1015A0004FEA154B09B44FEA144325EA0B4E24EADF
:1015B00003480FF2042606EB132749083E785FEA3A
:1015C000320203FB0667C7F5000707FB06F64FEA82
:1015D00054374FEAD64606F1020607FB066CCCF1FB
:1015E000005C4FEA1C472CEA074C07FB06F40CFB97
:1015F00006F504EB15464FEA961634BF00204FF06F
:1016000000404FEAD13706FB07FC4FEA1C4C0CFBAD
:101610000BF7D21B03FB0CF761EB07010CFB0EF77A
:10162000B0EB074072EB17420CFB08F734BFA2EB9C
:101630000742B2EB074261EB17414FEA0C444FEA15
:10164000910706FB07FC4FEA1C4C0CFB0BF7B0EBB9
:10165000C74072EB573203FB0CF734BFA2EBC74213
:10166000B2EBC74261EB57310CFB0EF7B0EBC70092
:1016700072EB57720CFB08F734BFA2EBC702B2EB58
:10168000C70261EB5771039F4FEA816141EA9211F2
:1016900004EBCC044FEAD1374FEA826206FB07FC29
:1016A00042EA90124FEA80604FEA1C4C0CFB0BF7A9
:1016B000D21B03FB0CF761EB07010CFB0EF7B0EB41
:1016C000074072EB17420CFB08F734BFA2EB07424E
:1016D000B2EB074261EB17414FEA8C554FEA910795
:1016E00004EB9C2406FB07FC4FEA1C4C0CFB0BF79D
:1016F000B0EBC74072EB573203FB0CF734BFA2EBE1
:10170000C742B2EBC74261EB57310CFB0EF7B0EBAF
:10171000C70072EB57720CFB08F734BFA2EBC7028D
:10172000B2EBC70261EB577115EB4C254FEA8161B3
:1017300041EA92114FEA82624FEAD13742EA9012AF
:1017400006FB07FC44F100044FEA80604FEA1C4CA2
:101750000CFB0BF7D21B03FB0CF761EB07010CFB37
:101760000EF7B0EB074072EB17420CFB08F734BFE3
:10177000A2EB0742B2EB074261EB174115EB1C15D8
:101780004FEA813141EA92414FEA823242EA904285
:101790004FEA80304FEA0C7644F1000448EA0343F4
:1017A0004EEA0B484FF0000EB2EB080C71EB03074A
:1017B00024BF624639464EEB0E0E4FF0000B001868
:1017C000524149414BEB0B0BB2EB080C71EB030799
:1017D0007BF1000B24BF624639464EEB0E0E4FF0F4
:1017E000000B0018524149414BEB0B0BB2EB080CBC
:1017F00071EB03077BF1000B24BF624639464EEBC9
:101800000E0E51EA020718BF46F0010616EB0E76DF
:1018100055F1000254F1000103D5BDE88901BDE88E
:101820000088BDE88901BDE80048B619524141EB86
:101830000101A3F10103704780807F7E7D7C7B7A6C
:101840007978777676757473727171706F6E6E6D6C
:101850006C6C6B6A6A696868676666656464636312
:1018600062616160605F5F5E5E5D5D5C5C5B5B5A98
:101870005A59595858575756565555555454535305
:1018800052525251515050504F4F4F4E4E4D4D4D60
:101890004C4C4C4B4B4B4A4A4A49494948484847AB
:1018A00047474746464645454544444444434343E9
:1018B0004342424242414141002B9C4630D4770092
:1018C0002BD01CB54FEA370703B44FF010004FF090
:1018D0001001BAF1000F06D0BCF1000FDCBF40F0E0
:1018E000080040F008014FF000000FBCBDE81040B8
:1018F0000BF1010BBBF1010F08BF5FEA170722BF15
:1019000012F1010211F101014FF0004143F1000316
:1019100000F0004043EA00007047F9D35708D0E7D1
:1019200046EA064613F1400F4FEA16461FDD13F153
:10193000200FDFBF16430A46002120335B42BED092
:10194000C3F1200746EA064602FA07F74FEA1646B1
:1019500046EA0706C3F1200722FA03F201FA07F765
:1019600021FA03F14FF0000342EA0702A7E746EA33
:10197000020646EA06464FEA164646EA0106BCBF9C
:1019800046EA0646360C4FF000034FF000024FF0D7
:10199000000194E72DE9804C9A46934670B491E893
:1019A000380007C831EA400C48BF34EA430C03D57D
:1019B000FFF7E6FDFFF780FFF0BCBDE8008C2DE9E6
:1019C000804C9A46934670B491E8380007C810F0EE
:1019D000804F08BF13F0804F03D100F005F8FFF7E8
:1019E0006BFFF0BCBDE8008C20F07F4780EA03006D
:1019F00023F07F4C07EB0C03A3F57C5300F0004071
:101A0000A3F1FE0392F0000F00F0B38095F0000FF9
:101A100000F077802DE901494FEA11404FEA144662
:101A200021EA004800FB06FC24EA064708FB06F60C
:101A300007FB08F800FB07F718EB06484CEB164CC1
:101A40004FEA124B18EB07484FEA15464CEB17408C
:101A500022EA0B4E0BFB06FC25EA06470EFB06F6B8
:101A600007FB0EFE0BFB07F71EEB064E4CEB164C6E
:101A70004FF000061EEB074E4CEB174B18EB0B0814
:101A800040F1000018EB0E0B58EB000840F100008D
:101A90008F1A4FF000013CBFC943661B14BFB5EB62
:101AA000040C00213CBFC943F61B4FEA17444EEA21
:101AB0008E0E27EA04454FEA1C4704FB07622CEA16
:101AC000074C05FB07F70CFB05F604FB0CFC16EBBB
:101AD000074642EB174216EB0C4642EB1C421BEB4F
:101AE000060658EB0202414146EA9E0601D5BDE8D2
:101AF0000189B619524141EB0101A3F10103BDE88F
:101B000001894FEA14454FEA114724EA054621EAC4
:101B1000074C05FB07F406FB07F70CFB06F105FB7A
:101B20000CFC11EB074144EB17444FEA124711EB51
:101B30000C4144EB1C4422EA074C05FB07F206FB70
:101B400007F70CFB06F605FB0CFC16EB074642EB11
:101B5000174216EB0C4642EB1C456A1854F1000183
:101B600048BF7047B619524141EB0101A3F101038F
:101B7000704795F0000F37D04FEA11424FEA1447F3
:101B800021EA024624EA074C02FB07F106FB07F7AD
:101B90000CFB06F402FB0CFC14EB074441EB174171
:101BA0004FEA154714EB0C4441EB1C4125EA074C66
:101BB00002FB07F506FB07F70CFB06F602FB0CFC25
:101BC00016EB074645EB174516EB0C4645EB1C425A
:101BD000121951F1000148BF7047B619524141EB4B
:101BE0000101A3F1010370474FEA14454FEA114781
:101BF00024EA054621EA074C05FB07F106FB07F737
:101C00000CFB06F24FF0000605FB0CFC12EB074242
:101C100041EB174112EB0C4251EB1C4148BF70479E
:101C2000921841EB0101A3F10103704710B50120A7
:101C300000F078F9002000F075F910BD08B50146F4
:101C400000200090034800900098084400900098FD
:101C5000008808BD006C004008B500220092044ACC
:101C60000092009A02440092009A116008BD0000A0
:101C7000006C004000BFFEE7704700B5034603E07C
:101C80004FF47A7000F005F8181EA3F10103F7D1A4
:101C900000BD00EBC001C9004FF0E02251610021FE
:101CA00091610521116100BF4FF0E021096901F444
:101CB00080310029F8D004214FF0E02211617047F3
:101CC0002DE9F041024600250026002000230024D3
:101CD000002791F803C00CF00F0591F803C00CF039
:101CE000100CBCF1000F03D091F802C04CEA0505BE
:101CF00091F800C0BCF1000F31D0146800202BE037
:101D00004FF0010C0CFA00F3B1F800C00CEA030626
:101D10009E4220D183004FF00F0C0CFA03F7BC4316
:101D200005FA03FC4CEA040491F803C0BCF1280F47
:101D300006D14FF0010C0CFA00FCC2F814C00AE006
:101D400091F803C0BCF1480F05D14FF0010C0CFA1B
:101D500000FCC2F810C0401C0828D1D31460B1F8B0
:101D600000C0BCF1FF0F34DD546800202EE000F10C
:101D7000080C4FF0010808FA0CF3B1F800C00CEAA7
:101D800003069E4221D183004FF00F0C0CFA03F79B
:101D9000BC4305FA03FC4CEA040491F803C0BCF10F
:101DA000280F05D100F1080C08FA0CF8C2F81480CD
:101DB00091F803C0BCF1480F07D100F1080C4FF0B7
:101DC000010808FA0CF8C2F81080401C0828CED38D
:101DD0005460BDE8F081416170470161704700BF08
:101DE000FEE70146CA1701EB92729210A1EB820244
:101DF00092B9642091FBF0F200FB121050B94FF43D
:101E0000C87091FBF0F200FB121008B90120704776
:101E10000020FCE70120FAE70020F8E708B50121DF
:101E2000102000F06FF810208DF803004002ADF88C
:101E3000000003208DF8020069460248FFF740FFCA
:101E400008BD00000010014000BFFEE77047000021
:101E500070B5002100230F22C47804B3154C246808
:101E600004F4E064C4F5E064210AC1F10403CA404B
:101E7000447804FA03F184781440214309010E4C9C
:101E80000678A155047804F01F050124AC400578BC
:101E90006D11AD0005F1E025C5F8004109E00478B9
:101EA00004F01F050124AC40044D0678761145F876
:101EB000264070BD0CED00E000E400E080E100E0B1
:101EC00002490143024A1160704700000000FA0510
:101ED0000CED00E0014908627047000000000E426E
:101EE0007047000029B1064AD2690243044BDA6107
:101EF00004E0034AD2698243014BDA617047000073
:101F00000010024029B1064A92690243044B9A61CB
:101F100004E0034A92698243014B9A6170470000D2
:101F2000001002400149086070470000400442422E
:101F300030B500210022002400232D4D6D6805F0EE
:101F40000C0121B1042905D0082923D105E0294D30
:101F5000056022E0274D05601FE0254D6D6805F402
:101F60007012234D6D6805F48034022505EB924212
:101F70001CB9214D554305600BE01D4D6D6805F4FE
:101F800000351DB11C4D5543056002E0194D554308
:101F9000056002E0174D056000BF00BF144D6D687D
:101FA00005F0F0010909154D6B5C0568DD404560E1
:101FB0000F4D6D6805F4E061090A104D6B5C4568D2
:101FC000DD4085600A4D6D6805F46051C90A0B4D0E
:101FD0006B5C4568DD40C560054D6D6805F44041AA
:101FE000890B074D6B5CC568B5FBF3F5056130BD2A
:101FF0000010024000127A0000093D00000000209D
:102000001000002010B501460022002300204A11D4
:10201000012A02D1094C236806E0022A02D1074CAA
:10202000236A01E0054C636A01F01F020124944019
:102030001C400CB1012000E0002010BD0010024047
:1020400000210B4A11700A4A203A82F82010012818
:1020500002D0042808D103E00121054A117004E0F0
:102060000521034A117000E000BF00BF7047000067
:102070002010024001490860704700003C044242C1
:102080000249096A0143014A116270470010024087
:10209000024909888143014A1180704704280040A1
:1020A0000348008840F01000014908807047000094
:1020B00004280040034800884FF6EF7108400149AA
:1020C000088070470428004070B5002600240025D1
:1020D00000F07AF806463848B6FBF0F43748008836
:1020E000A0423CD035490C8040F2B27510E0284641
:1020F000FFF777FE40B1B4F5B77F02D3A4F5B7740C
:1021000004E0681C85B206E0A4F26D14681C85B278
:10211000B4F5B67FEBD800BF29488580002516E0CE
:1021200027498888FFF75DFE30B1012D04D11D2CB1
:1021300001D31D3C09E00CE02248405DA04203D8D9
:102140002048405D241A00E003E0681C85B21C2C86
:10215000E6D200BF681C1A498871601CC871164815
:10216000B6FBF0F100FB11644FF46160B4FBF0F0DA
:10217000134908704FF46160B4FBF0F100FB1140AB
:102180003C21B0FBF1F00E4948704FF46160B4FBA4
:10219000F0F100FB11403C21B0FBF1F201FB120019
:1021A000074988700B46DA799979988800F028F801
:1021B00003490872002070BD805101001E000020FC
:1021C0005E0100202C5B0008002103480188001FED
:1021D000008841EA004070471C280040014600206A
:1021E000064A12880A40D0B2044A121F12880A40D6
:1021F00012B108B1012000E000207047042800401F
:10220000F0B503460C461546642093FBF0F0C6B2C9
:10221000642093FBF0F700FB1730C1B2132E02DDF0
:1022200001F16400C1B20846CF1701EB977701EBCB
:10223000A707BAB2072092FBF0F700FB172082B283
:102240005719601EDFF82CC01CF80000384482B219
:10225000CF1701EB9777BF10A1EB87071FB9032CAE
:1022600001DA501E82B2072092FBF0F700FB172024
:10227000C0B2F0BD205B000810B50120FFF7AEFF33
:1022800008B1FFF721FF0220FFF7A8FF10B10220DD
:10229000FFF7FEFE0520FFF7FBFE00F005F910BD7D
:1022A00029B1064A12880243044B1A8004E0034A0B
:1022B00012888243014B1A807047000000280040BA
:1022C0001CB5002401214FF0C050FFF70BFE012088
:1022D000FFF700FE0420FFF7B1FC45F250018842F1
:1022E0003FD0FFF7A3FC0120FFF7AAFE04E0601C2B
:1022F000C4B20A20FFF7C1FC4120FFF783FE00288B
:10230000F5D0FA2C01DB01201CBD4FF48070FFF7E3
:10231000B7FE0120FFF7AEFE00F0C6F800F0CEF8E1
:1023200001210846FFF7BCFF00F0BEF8FFF7B8FE3A
:1023300047F6FF7000F0A8F800F0B6F83720322119
:1023400010230922CDE900100B2140F2E77000F0C4
:1023500027F8FFF7AFFE45F250010420FFF77CFCA1
:1023600007E000F0ABF801210846FFF799FF00F005
:102370009BF800F004F8FFF7A7FE0020C4E708B5BB
:1023800003208DF8000000208DF801008DF8020078
:1023900001208DF803006846FFF75AFD08BD0000D4
:1023A0002DE9F05F06460F4690469946DDE90AABF7
:1023B000002440F2B270864203DB40F633008642CE
:1023C00002DD0120BDE8F09F40F2B2750AE0284628
:1023D000FFF707FD10B12148044401E02048044400
:1023E000681C85B2B542F2DB781EC7B2002510E04A
:1023F0001C48405D40F2A321484304EBC014304622
:10240000FFF7EFFC18B1012D01D117480444681CF7
:1024100085B2BD42ECDBA8F1010040F2A3214843A4
:1024200004EBC014C9EB4910C0EB092004EB001405
:10243000CAEB0A1004EB80045C4401214FF0C05049
:10244000FFF750FD0120FFF745FD204600F00EF894
:1024500000F02AF8FFF738FE0020B3E70085E2011C
:102460008033E1012C5B00088051010000B5024679
:10247000FFF716FE100C03490880091D0A80FFF7BC
:1024800019FE00BD1828004000B50246FFF708FEFF
:10249000C2F3034003490880091D0A80FFF70AFEC2
:1024A00000BD00000828004000BF0348008800F07D
:1024B00020000028F9D07047042800400748008811
:1024C0004FF6F77108400549088000BF03480088AF
:1024D00000F008000028F9D07047000004280040F0
:1024E00008B5012141F20400FFF70CFDE020ADF832
:1024F000000018208DF8030003208DF802006946C3
:102500001248FFF7DDFBE0211048FFF766FC0020D2
:102510000F4908804FF48270488000208880022094
:10252000C88001200881400248813820888100202D
:10253000C88107200882074800F018FA01210548E1
:1025400000F046F8FF2000F007F808BD0008014041
:102550004C0100200030014070B50546002405E024
:10256000601CC4B2C82C01DD002070BD02210E48E1
:1025700000F0EEF90028F3D029460B4800F0F4F9FA
:10258000002405E0601CC4B2C82C01DD0020ECE78B
:102590000121054800F0DCF90028F3D0024800F0E2
:1025A000E0F9C0B2E1E700000030014010B5044698
:1025B000054884810146054800F0D8F90121034807
:1025C00000F006F810BD00004C0100200030014072
:1025D00021B1028842F04002028004E002884FF6F6
:1025E000BF731A400280704710B504210548FFF7F9
:1025F000F2FB0620FFF7B0FF04210248FFF7EDFBD6
:1026000010BD00000008014010B5FFF7EDFF00F01D
:1026100017F904210748FFF7DEFBC720FFF79CFFEF
:1026200004210448FFF7D9FB00F00AF902A0FDF7E6
:1026300035FE10BD0008014045726173696E672068
:10264000697320646F6E650D0A00000010B50446C2
:10265000214610A0FDF722FE2403FFF7C5FF00F07E
:10266000EFF804211248FFF7B6FB2020FFF774FFB4
:10267000C4F30740FFF770FFC4F30720FFF76CFFB8
:10268000E0B2FFF769FF04210948FFF7A6FB00F05D
:10269000D7F810BD45726173696E67206973207445
:1026A000686520256420536563746F720D0A00000D
:1026B0000008014008B501210420FFF723FC1C207D
:1026C000ADF8000010208DF8030003208DF8020003
:1026D00069460B48FFF7F4FA1C210948FFF77DFB18
:1026E000FFF7FEFE1820FFF761FF00F04FF80549E5
:1026F00008800846018804A0FDF7D0FD08BD000051
:10270000000801401C000020466C617368494420A9
:10271000697320305825580D0A0000002DE9F0415A
:1027200006460C46174604211248FFF754FB0320C7
:10273000FFF712FF214610A0FDF7B0FDC4F30740DC
:10274000FFF70AFFC4F30720FFF706FFE0B2FFF729
:1027500003FF002505E0FF20FFF7FEFE7055681C13
:1027600085B2BD42F7DB04210248FFF736FBBDE826
:10277000F0810000000801405265616441646472A8
:1027800020697320307825580D0A000010B5002408
:1027900004210F48FFF71FFB9020FFF7DDFE00200C
:1027A000FFF7DAFE0020FFF7D7FE0020FFF7D4FE88
:1027B000FF20FFF7D1FE44EA0024FF20FFF7CCFE04
:1027C000044304210248FFF708FB204610BD000027
:1027D0000008014010B5002404210848FFF7FBFA67
:1027E0000520FFF7B9FEFF20FFF7B6FE04460421DF
:1027F0000248FFF7F2FA204610BD00000008014031
:1028000010B5002404210D48FFF7E5FA9F20FFF7DB
:10281000A3FEFF20FFF7A0FE44EA0044FF20FFF7DD
:102820009BFE44EA0024FF20FFF796FE04430421A8
:102830000248FFF7D2FA204610BD00000008014010
:1028400010B542F2107406E0601E041E00D108E0CC
:1028500005A0FDF723FDFFF7BDFF00F001000028F4
:10286000F2D100BF10BD0000466C6173682069732F
:1028700020627573790D0A002DE9F04107460E4676
:102880001446F0B2C0F58075AC4200DC254612E07B
:102890002A463146384600F013F8AC4200D10BE02E
:1028A0002F442E44601B84B2B4F5807F02DD4FF4C8
:1028B000807500E02546EBE700BFBDE8F081000031
:1028C0002DE9F04106460C461746FFF78DFE042120
:1028D0001448FFF780FA0220FFF73EFE214612A0BF
:1028E000FDF7DCFCC4F30740FFF736FEC4F3072016
:1028F000FFF732FEE0B2FFF72FFE002504E0705D27
:10290000FFF72AFE681C85B2BD42F8DB04210548AA
:10291000FFF763FAFFF794FF08A0FDF7BFFCBDE8DF
:10292000F0810000000801405772697465416464D9
:102930007220697320307825580D0A005772697427
:10294000696E6720697320646F6E650D0A00000070
:102950000246002013890B400BB1012000E000204B
:1029600070470146888970478181704710B5002201
:10297000028802F441520B884C8823438C882343FD
:10298000CC8823430C8923434C8923438C892343DC
:10299000CC8923431A430280838B4FF2FF74234078
:1029A00083830B8A038210BD7047000010B5044674
:1029B0002146054800F0E1F900BF8021024800F0FF
:1029C0000FF90028F9D010BD0038014010B500F013
:1029D00001F810BD0CB5002001900090334800684C
:1029E00040F480303149086000BF3048006800F48E
:1029F000003000900198401C0190009818B901988F
:102A0000B0F5A06FF1D12948006800F4003010B192
:102A10000120009001E0002000900098012843D19F
:102A20002348006840F0100021490860084600680B
:102A300020F0030008600846006840F002000860CB
:102A40001A48406819494860084640684860084686
:102A5000406840F4806048600846406820F47C107C
:102A600048600846406840F4E8104860084600683E
:102A700040F08070086000BF0C48006800F00070F3
:102A80000028F9D00948406820F003000749486051
:102A90000846406840F00200486000BF03484068B4
:102AA00000F00C000828F9D10CBD00000010024015
:102AB000002002407047000010B51348006840F045
:102AC00001001149086008464068104908400E4955
:102AD0004860084600680E4908400B4908600846EF
:102AE000006820F4802008600846406820F4FE005A
:102AF00048604FF41F008860FFF768FF4FF00060E8
:102B00000449086010BD0000001002400000FFF8FA
:102B1000FFFFF6FE08ED00E010B540F22551094830
:102B200000F06BF860B1074800F022F9C4B2064823
:102B300006490988445405480088401C0349088018
:102B400010BD000000380140840000201400002067
:102B500010B540F22551064800F04FF838B104484E
:102B600000F006F9C4B2214602A000F009FC10BD35
:102B700000440040CAD5B5BDC1CBD2BBB8F6D7D64C
:102B8000B7FB3A2025630D0A0000000010B540F2A3
:102B90002551064800F031F838B1044800F0E8F853
:102BA000C4B2214602A000F013FC10BD0048004052
:102BB000CAD5B5BDC1CBD2BBB8F6D7D6B7FB3A2084
:102BC00025630D0A0000000021B1828942F4005201
:102BD000828104E082894DF6FF731A40828170473A
:102BE00002460020B1F5007F00D100BF13880B40E2
:102BF0000BB1012000E00020704770B502460024B0
:102C000000230025002040F66A16B14200D100BF23
:102C1000C1F3421501F01F03012606FA03F3012D4B
:102C200002D19689334006E0022D02D1168A334044
:102C300001E0968A33400C12012606FA04F4168845
:102C4000344013B10CB1012000E0002070BDF0B59C
:102C50000346002400260025002040F66A17B942EA
:102C600000D100BF1846C1F3421401F01F0601272E
:102C700007FA06F5012C01D10C3004E0022C01D139
:102C8000103000E014301AB107682F43076002E0EB
:102C90000768AF430760F0BD2DE9F04786B00546F1
:102CA0000E460024A24600BFA1460027B08900B10D
:102CB00000BF2F462C8A4CF6FF700440F088044376
:102CC0002C82AC894EF6F3100440B0883189084359
:102CD000718908430443AC81AC8A4FF6FF4004403D
:102CE000B0890443AC8201A8FFF722F91F4887424C
:102CF00002D1DDF810A001E0DDF80CA0A88900F4F5
:102D0000004040B10AEBCA0000EB0A1031684900EC
:102D1000B0FBF1F807E00AEBCA0000EB0A103168DB
:102D20008900B0FBF1F86420B8FBF0F00401200941
:102D3000642101FB1089A88900F4004040B13220D1
:102D400000EBC900B0FBF1F000F00700044308E01D
:102D5000322000EB09106421B0FBF1F000F00F000D
:102D600004432C8106B0BDE8F08700000038014024
:102D700001468888C0F308007047C1F308028280CA
:102D8000704700BFFEE70000FEB505460C4616463C
:102D9000012221466846FFF7C1FC9DF8001008A0FB
:102DA000FDF77CFA9DF80000FF2802D0200BFFF70A
:102DB0004DFC324621462846FFF782FDFEBD00004D
:102DC0006461746174656D705B305D20697320307F
:102DD0007825580D0A000000490050EAC12018BFAC
:102DE00004204A0D18BF40F0010040F2FF72B2EB20
:102DF000515F08BF40F00200012808BF052070475E
:102E000030380A2801D2012070470020704700BFE7
:102E10007047000000BF054A128802F04002002AF5
:102E2000F9D0C2B2014B1B1D1A8070470038014017
:102E3000C6B00026FEF7F2FF4FF4A060FFF740F89F
:102E40004FF4165000F0ECFAFFF734FC0FE0FFF7F8
:102E50009DFC06463146D0A0FDF720FA4EF61670CE
:102E6000864203D045F21620864200D100E0EEE70C
:102E700000BF02E0CFA0FDF711FAFFF721FA00280A
:102E8000F8D14FF4000486E1CF4800880028FAD03A
:102E90004FF4FA70FEF7F1FECC49CDA0FDF7FEF934
:102EA000CCA1CA48FDF7F8FB88B94FF40051CD48D2
:102EB000FEF793FFCCA0FDF7F1F9A4F16401132212
:102EC000CB48FFF761FFC821C048FDF79CFBC9A1B3
:102ED000BE48FDF7E1FB88B94FF40051C148FEF749
:102EE0007CFFC1A0FDF7DAF9A4F150011422C54816
:102EF000FFF74AFFC821B548FDF785FBC2A1B348DB
:102F0000FDF7CAFB08BB4FF40051B648FEF765FF5A
:102F1000B5A0FDF7C3F9A4F54821080BFFF796FB10
:102F2000A4F54721080BFFF791FBA4F54621080BF8
:102F3000FFF78CFBA4F5482142F2D952B648FFF7BF
:102F40009BFCC821A148FDF75EFBB4A19F48FDF79B
:102F5000A3FB002841D1FFF7B7F8A9A2B348C07975
:102F6000B3A3B2498979CDE90113CDE90302B0A039
:102F70000090AE488388AFA2B1A1B548FDF79AF999
:102F80009FA2AA488078B3A3A8494978CDE9011344
:102F9000CDE90302AFA00090A4480378AEA2A8A197
:102FA000B048FDF787F9AA4989A0FDF777F9AD493F
:102FB00087A0FDF773F94FF480724FF4FA71A448BB
:102FC000FFF7E2FE4FF480724FF4FA7106A8FFF7A4
:102FD000A5FB06A9A4A0FDF761F9A9A17B48FDF70F
:102FE0005BFBF8B94FF400517E48FEF7F4FEA8A051
:102FF000FDF754F9A4F16401132206A8FFF78EFB34
:1030000006A9A5A0FDF74AF9A4F16301132206A8B9
:10301000FFF784FB06A9A8A0FDF740F9C8216B487B
:10302000FDF7F1FAABA16948FDF736FBA8B94FF4FB
:1030300000516C48FEF7CFFE95A0FDF72FF9A4F1E3
:103040005001142206A8FFF769FB06A998A0FDF716
:1030500025F9C8215D48FDF7D6FAA2A15B48FDF726
:103060001BFB40BB4FF400515E48FEF7B4FE88A046
:10307000FDF714F90120FFF799FCFE20FFF796FCFD
:10308000A4F5482142F2D95206A8FFF747FB0025D4
:1030900005E006A9485DFFF789FC6D1C6D1CFF2D3E
:1030A000F7D9FE20FFF782FC0120FFF77FFCC82143
:1030B0004648FDF7A8FA8FA14448FDF7EDFA98B904
:1030C0004FF4807106A8FDF7C0FA4FF480724FF4F8
:1030D000FA7106A8FFF722FB06A963A0FDF7DEF848
:1030E000C8213A48FDF78FFA86A13848FDF7D4FA8F
:1030F00080B94FF400513B48FEF76DFE85A0FDF707
:10310000CDF8A4F16401080BFFF7A0FAC8212F48FD
:10311000FDF779FA82A12D48FDF7BEFA78B94FF490
:1031200000513048FEF757FEFFF754FB074639467B
:103130007EA0FDF7B3F8C8212448FDF764FA83A107
:103140002248FDF7A9FA50B94FF400512548FEF77F
:1031500042FEFFF759FAC8211C48FDF754FA7EA138
:103160001A48FDF799FA78B94FF400511D48FEF757
:1031700032FEFFF745FB074639467AA0FDF78EF889
:10318000C8211248FDF73FFAC8211048FDF73BFA65
:1031900000200D49088077E6546865205732355184
:1031A00036342069642069732030782558200D0A50
:1031B000000000005254435F496E69745F457272AB
:1031C0006F720D0A0000000014000020840000202F
:1031D0002573000046697273745F57726974650DD8
:1031E0000A000000001001404F46460D0A00000092
:1031F000F95A00085365636F6E645F5772697465AE
:103200000D0A00000C5B000854686972645F577215
:103210006974650D0A00000020350008466F75725C
:1032200074685F57726974650D0A00005E010020C2
:103230002F000000546F6461792069732000000042
:103240002573256425732564257325642573000083
:10325000200000203A00000054696D652069732049
:1032600000000000520000205468652035303020F6
:10327000416464726573732069732025730D0A00BD
:1032800046697273745F526561640D0A0000000044
:103290004F4E0D0A00000000546865203130307434
:1032A00068207265636970726F63616C2069732056
:1032B00025730D0A000000005468652039397468D0
:1032C000207265636970726F63616C206973202579
:1032D000730D0A005365636F6E645F526561640D20
:1032E0000A00000054686972645F526561640D0AE7
:1032F00000000000466F757274685F526561640D6E
:103300000A00000045726173655F536563746F72F4
:103310000D0A000045726173696E670D0A000000B6
:103320005265616453520D0A000000005468652024
:10333000537461746520526567697374657220699E
:103340007320307825580D0A000000004572617323
:10335000655F416C6C0D0A005265616449440D0A59
:1033600000000000546865204A6564656344657622
:10337000696365494420697320307825580D0A0037
:103380000FB430B58FB013A8019002A8019A12991A
:10339000FCF772FF0020019002A8FDF715F9054621
:1033A00000240CE000BF80210848FFF719FC00282A
:1033B000F9D002A8015D0548FFF7DFFC641CAC42B0
:1033C000F0DB0FB030BC5DF814FB0000004400409F
:1033D0000FB430B58FB013A8019002A8019A1299CA
:1033E000FCF74AFF0020019002A8FDF7EDF8054622
:1033F00000240CE000BF80210848FFF7F1FB002803
:10340000F9D002A8015D0548FFF7B7FC641CAC4287
:10341000F0DB0FB030BC5DF814FB0000004800404A
:1034200010B586B00446012144F20400FEF76AFD9F
:103430004FF40070ADF8140003208DF8160018202A
:103440008DF8170005A91C48FEF73AFC4FF4806080
:10345000ADF8140004208DF8170005A91648FEF7F2
:103460002FFC25208DF8000003208DF801008DF839
:10347000020001208DF803006846FEF7E9FC019484
:103480000020ADF80800ADF80A00ADF80C00ADF86A
:1034900010000C20ADF80E0001A90848FFF7FCFB56
:1034A000012240F225510548FFF7D1FB01210348D5
:1034B000FFF78AFB06B010BD00080140003801404C
:1034C00010B500290AD00878002807D005487844AC
:1034D000FDF7E2F8002801D0002010BD0248784432
:1034E00010BD00008A2700008227000010B50029C7
:1034F0000AD00878002807D005487844FDF7CCF8B2
:10350000002801D0002010BD0248784410BD000002
:103510007A27000072270000FDF7E0BBFDF714BD1D
:10352000FFD8FFE000104A46494600010101006053
:1035300000600000FFDB00430003020203020203FD
:1035400003030304030304050805050404050A072F
:103550000706080C0A0C0C0B0A0B0B0D0E12100DB3
:103560000E110E0B0B1016101113141515150C0F50
:10357000171816141812141514FFDB004301030466
:103580000405040509050509140D0B0D1414141484
:1035900014141414141414141414141414141414EB
:1035A00014141414141414141414141414141414DB
:1035B0001414141414141414141414141414FFC034
:1035C000001108007800C803012200021101031154
:1035D00001FFC4001F0000010501010101010100FC
:1035E00000000000000000010203040506070809AE
:1035F0000A0BFFC400B51000020103030204030517
:103600000504040000017D010203000411051221DC
:1036100031410613516107227114328191A10823AF
:1036200042B1C11552D1F02433627282090A1617D1
:1036300018191A25262728292A3435363738393AD1
:10364000434445464748494A535455565758595A92
:10365000636465666768696A737475767778797A82
:10366000838485868788898A92939495969798997A
:103670009AA2A3A4A5A6A7A8A9AAB2B3B4B5B6B79F
:10368000B8B9BAC2C3C4C5C6C7C8C9CAD2D3D4D5CB
:10369000D6D7D8D9DAE1E2E3E4E5E6E7E8E9EAF10A
:1036A000F2F3F4F5F6F7F8F9FAFFC4001F0100038E
:1036B0000101010101010101010000000000000100
:1036C00002030405060708090A0BFFC400B5110030
:1036D0000201020404030407050404000102770048
:1036E00001020311040521310612415107617113D2
:1036F00022328108144291A1B1C109233352F0153D
:103700006272D10A162434E125F11718191A2627F6
:1037100028292A35363738393A43444546474849F7
:103720004A535455565758595A63646566676869D1
:103730006A737475767778797A82838485868788C8
:10374000898A92939495969798999AA2A3A4A5A6EC
:10375000A7A8A9AAB2B3B4B5B6B7B8B9BAC2C3C418
:10376000C5C6C7C8C9CAD2D3D4D5D6D7D8D9DAE244
:10377000E3E4E5E6E7E8E9EAF2F3F4F5F6F7F8F969
:10378000FAFFDA000C03010002110311003F00FCF4
:10379000E3BCF87BE28D3493269171201CEEB702D6
:1037A0005FC7E5CD4DA5F8EFC57E1595628B51BD80
:1037B000B65518105CE5D00F408E081D07415F47D5
:1037C00069D73B48E6BA3B7F2AEA2DB2C51CC87AC6
:1037D000ABA820FE75B383393DAF7478269BFB45BB
:1037E00078D2CE344B6BDB6B565208963B48CB02FB
:1037F00031FDE04761DABA2D2FF698F882352B0BB0
:10380000BB8F124D79F629BCF8A3B98A365DDDC7A6
:10381000DD040FF748ED8C102BD797E1CF8435628C
:103820007ED9E1EB162DD5A28844C7F14C1AE63CAF
:103830007BF03BC0FA569B1CD65F6FB1BB9E411C10
:10384000514571BD47AB10E09200F7ACA54D5B99B7
:10385000A2E3514BDD3A63FB74CFE208047E30D122
:1038600064BDBDC286D4ED273231DBC0CC721E7878
:1038700027ABF24F4AD7F0AFED55E04D36F1AEA58C
:10388000FED10B90FE4ADA8DECC39ECC1793FED787
:103890004C0ED5E067E11D8C76B231B8BE9A650456
:1038A000AA855C31C71D338AF42D2FF630F16EA541
:1038B00012CD6FE1ED59E261B91D9A340CB80411D3
:1038C0009F507F4ACA30A7AD8D6DCBE47BB5C7ED65
:1038D000EDE00D6F54BA1AA7C2CB7D6B4CBAB27B28
:1038E0003B89EF5E213CFB800ACF1AA6D25400012F
:1038F000DD9E98231CE3FC29FDA8FE1BE997D269F5
:1039000011E9D77E14B391898A69FF00790B3B12C4
:1039100058BB02CC9963C751C0C918AE4B4DFD844A
:103920003C5174E09D1F53B684641DF776F9C8239B
:10393000279238209C7D2B2F58FD8A3C53A4A4F35A
:103940004561AA5FF9403B43040B2384C7DE21098C
:103950002403D7038A718C60B975B7CCCDC2139795
:103960003D9737CAE7DFBE1CF1CF81DF435BFBFD2C
:103970006F43B8D18052F2DC5E40F037503249DB01
:10398000DC7B71E9D789F8B9A37C23F8976F0DBF69
:1039900080BE27F87FC2DAF9995ADA2B2BC5F226B6
:1039A00063C3C4C81C64118236F5390460D7E77D4F
:1039B0009FC1DD5F5449A1D32EAD259C1012332643
:1039C000D7727A0031CF4C1C7A8A4B4F81DE3A5045
:1039D000864D3D0A919004CBC1071839FBA7EBEA4D
:1039E0002B2728A9732958B9E1D558724E3747E8D3
:1039F00024DFB1F6931C10093C4FA999B60F33E5AB
:103A0000521F18EDD4743C67818E6BA6D17E01786D
:103A10006B4CB64D1AC7C66B0789CA4E2C6CF52B7A
:103A2000A8D16E269011C47D4824286DB924273969
:103A3000E95F0168F77F1C3C2F632E95A46ABAFDED
:103A4000B58DB657C9B3D48F970F51F2FCFF00273D
:103A50007E98EB5E6EB65E34BAD76E2E2EECB50B4A
:103A6000FD4A676DF71348D2C8CF9E58B64927DF85
:103A7000356A4EDA488961E2D7249687EA268DF0C6
:103A800097C5BA9F8423B1F88F1D9D86AB6F37947D
:103A9000ADA4240D2496E8BB1033F96C1B2198F4D7
:103AA000E06DE84533C41F01ECBC5FA824D71AE5DC
:103AB000FB5CC76C968259A34388D7382100519C80
:103AC0000DA3D81E09E4FE7DF85FE237C63F87CD1F
:103AD00011D2755D6ADA1C83F6798F9F6E4F73E59C
:103AE000C9B9467D719F7AE935DF8D3FB41F88B42F
:103AF000F79A4D67528AD62F998E9C21B66519196F
:103B0000CB4587C7E3571AB34ACE464B0B1825144B
:103B1000B6EE7DBDF0F3E0EE9F0DBC91894EA68917
:103B200023450CF326D0EA18E18264E322B5BC51A8
:103B3000F05F405B79E4BFB083CC8BE6217E5E47CB
:103B4000B8C1FD6B9AF851F1C23BCD02D2FE2B6495
:103B5000D360922327FA5DC463C82002C18EEE08A9
:103B6000CD6E6A9E2487C5FA4BDDC3A82DF5AC92B5
:103B700010D3C2DB909EE01EFF00857932ADCB2EC4
:103B800067B9F611C1F35354E36E56BEF3CBF4CFCD
:103B9000807E18F126AB60AAC1215421D20871F6AB
:103BA00086DCE4B3924919DCA0ED23EEFAF58AEB4A
:103BB000F678F18EA7F143509754D36C8FC3F74634
:103BC00092E2F24B98A3FB44832C3102B650EE668E
:103BD000FE1540071CF5E0FE37FC2CF8A1AB5CEFAE
:103BE000F04789EFE0F0DA44166B5B7768A66979F5
:103BF0002E7236B329C800671C70315F3BEB7E051F
:103C0000D61ED5B4BD67C4FAC5DAACACE6D25575DC
:103C100055931CB6D7279F538AEF5887563EE4B773
:103C2000FC0F97C4E5CA9D4B4AF64F4F337FF6C948
:103C3000F895A1D848DE0EF09CD6DB0C85EFDF4F5F
:103C400023CB5000511E5782C70377A0500F535EFD
:103C50007FFB2C7832E6EFC4775E279A368ECACA8D
:103C60002686091860492B0C1C7A80B9CFFBC2A8A4
:103C7000587C1DB0D65E69229A792388E18CB20106
:103C8000BBE9815A936B9AC5869CBA5437AE9A7D2C
:103C9000BA7951DADB8088833DC2819F7CF53CD7BD
:103CA000A946BC63672D6C73D4A4E49C23A5CECF36
:103CB000E31FC412225D274C65995CE6EA60780A2E
:103CC0000FDD18EB9EFF004C7AD78DC77D05D968B4
:103CD000E56580B72F21E47E4066AE6A46F651E581
:103CE000CDE77038DBD09C77C76AA9651AC175B972
:103CF000E04F23FE5A2B6D04F1EE6954AB2AB3E674
:103D0000638528D2872A29EA3776316D114E26231A
:103D100025B6AB0DBEFCD675C5EADC27EE5524DB17
:103D2000FC6F1E3F99AD8F102D8C8105BD9342C74E
:103D3000F883F07F2359B2DBC564D6AE561B8000F2
:103D40002E81B2C3EB9A8BB2D5AC612CD6CB349218
:103D50005C249238FB8CBC28A2A6D627B4B88C88E9
:103D60006CD6D803CB67268A572B96E7D036311E00
:103D70000D74BA7920015C969DAB5A12A3ED310205
:103D80005B68058024FA575F6032062BAA293D8FB5
:103D90003E4DA3A1B46200AF3DF186AB2EADE2591A
:103DA000D44A560B451122F62C082D9E0F7CFE425C
:103DB000BB1D53545D1B4C92E090640311A9EEDDD2
:103DC000BFC7F0AF32B399DDE690BADC4E4E0B02BE
:103DD000031627273CD6188DB94DA86FCC765A1DEF
:103DE000C1FB486758A366C150AC4E4139C1CAF007
:103DF00031FCABF6AFC29616CFE14D1775AC03FDA3
:103E00000A1F9420C0FDD8E071FD2BF0E2DF539E25
:103E10003654726DDC0076B6D39CFE35FB67F06AD3
:103E200077B9F83FE059A46DD249A158BB367392D7
:103E30006DD0939AE65A2B1D8B57A9D41D2AC8F52D
:103E4000B380FF00DB31FE15CDEBBE1DB51A84B388
:103E5000C16E91486CA555F2C6CF9B071D315D6DB3
:103E600055BA456B88777F16E5F4EA281CA29F4374
:103E7000F2C758F0BC96DA34D24F74229842D27D01
:103E8000AAE273E65B95F986CFBC474C715E61E1AF
:103E9000EB5885C5D5D9BC65BB6FBD0AB6D0E474F7
:103EA0001F302A338EC057D3834AB48B48D5E2BA29
:103EB00058AE2F1A5090B18FCADA990AE3AE0FCAE2
:103EC0004F53F957037DE00F0C595C4E61D2AE2E73
:103ED000620377EEA76208E80E4B91D7F1CD78EF39
:103EE00043BE12BF43CE2C25BAD347CF130B36188F
:103EF000DC9B54E7BE4A330F419C0E94FB1D734F6D
:103F00008279E2B7D14286933BE2B851D475E1732E
:103F100092457473FC1FB596F6698A3DABC87779F4
:103F20002EB2CBB02E7038902F41DAA14F850B1DE9
:103F3000FC68A6E1600DC48B6EA1580C1CF3203DFB
:103F4000C751F9D64BC8E9738F520D02F25D62DE9C
:103F5000E21B4D3A4B68501F9CDD09164E4F5C0E1C
:103F60009F5C71581A9CD7932DD5ADA68B35AF9811
:103F700086332D988D7764632791C7E15E91A3FC0A
:103F80003B92CD76C776D6EE5830314010807A819C
:103F900086C739A847826F22BD649A79EE54F3E64A
:103FA0007D90B8239ECAC48E734AF61269F5388F85
:103FB00086B12F826FAECEBBE1AB5F1140D6AF882A
:103FC0006E4C52229E18336F04F503A2F19AF66FDD
:103FD000047C455D5FC9B316B04F037CB6D0403C4E
:103FE000B92141FC2D18F9540E0657E5EB8E9CC7FC
:103FF000E19F87565ADCF736F70A6411A04902A1FF
:10400000899F273B49EB8F941E3F3AEEBC03F0D7C4
:104010004CD02FE47B08E38515B610996DC475C9A3
:104020003C9F4ADDC61521ABD4F4F0952705656E9B
:104030005FC4F47D16D8A58451A266E2E1B2CD8FAB
:10404000957D6B96F8CBF02746F1C68531D42D933C
:10405000ED01088AEE2016588FA823AFD0F15EB587
:10406000A469D147691F98555D8FCA7DF19FF1AB57
:1040700077DBA7B29AD9E304918C91C572AA6E2A14
:10408000EB730A95F9A76B5D753F1DBC49A7EB5F04
:104090000E75AD474199C5ACD6D318A51060061F63
:1040A000C2C33D32A41CF6CD72B24AB221D9BC3E85
:1040B0007924819AFA97F6D3F075BDA7C42B09A38A
:1040C00018FB4596D70A00DC51B8C9C8EC48FCBDBE
:1040D0002BE7F86C6DEC955921DA7A72DC11D33C40
:1040E000B7E35EDD2729454BB9E15651A73944E5D1
:1040F000A6B3BBBE89198C8549F95E097E4233CFD0
:10410000F5AAB2D895DCBF6495D83601775E47E250
:10411000D5D5497480F972B08F703DF000238EF9C7
:10412000FF00F5D52BB8E3785903F2DD361C1CFDF2
:1041300049AEA4B4D4E5727D11CEDC5B450C8CABEA
:104140006F2C92328C6D2A46EE383F376E959D2E3D
:104150009447CD3145DC33B0EEC8FF00C7AB4AF61B
:10416000DE78F7791204438C994966071C9CEFE9C5
:1041700054CFD9EED4A9BD01B03A4BC9FA7CC69D43
:10418000C2DD4C6D52C2D615F9D15723E5258FF803
:10419000D1534F66C2670B72841181E633123F5FC1
:1041A0006A281EC7AE787747D22F34CB6BC365B968
:1041B000E7FDF3832B637B0F9BA1E3A9E95EA1A934
:1041C0005A5AD96A52ADA8D96C5524452D9DA19053
:1041D0003633DF19C5711A7E9F6F14691AC1188DA5
:1041E0007A2E381F85745692158C46A142631B4265
:1041F0008C7E55EA53A2E11B248F267539A576CE15
:1042000013C4DAFCDAF6A122C2E52D6DF88C0DCAD2
:104210005B9C16E9DFF956724D7B14CC2223CAD879
:1042200009F3924639E0F07205569749B7B5D4AF15
:104230004CC91C71ACEE1136A9C8C9F5AB8B279AD5
:10424000A250F04C99C63CB4C1FC4035E44DB726B1
:10425000E4CF562959248D4B7D4A54B92A6E62B455
:104260002147176028EDEAFF00D2BF69BE03EB507B
:104270008F801E02BEBCB989513C3D66F2CACE3663
:10428000E16DD72D9C9E3033D6BF124DEBDA133340
:104290002890E01242646071CF0BEDDEBD3B44FD1F
:1042A000A5BE20697E1BB0D06CBC5AD69A7C3088E3
:1042B0001608E288622DB80BB802C7B8E49A8BA33F
:1042C00058A69F91FAFF0017C5EF09CBE19B6D7FC0
:1042D000FB66D23D3279BECEB2BCE80093711B4F73
:1042E000CD8CF07F0ADAD6EFE1B4B8D3849201E640
:1042F0004EA8A3D49207F5AFC5E1F177C6771A3C73
:104300001A4BF88EFBFB3A197CC8AD6CE478A10D12
:1043100092436C46037649393CD6FDC7C47F19F8F1
:104320008E489B57F17EBBA8C71E36C579792B8076
:104330007E849FCEA54ADF11D3595397F0935ABD7F
:10434000DF4E9F3EE7B9F8875E5B0F136A769F6A80
:10435000B7B7782E2E23631B2162CAF8C6197A7F5D
:10436000F5EA2D2EF92F635126A562555509488C83
:104370006DB46470DC7193FD6BC434E312DE399E5E
:104380004649E4CBEF3192CC4FFB5EE7F9D6DF8BA9
:10439000FC4F6FE05F0EDA6AD7510956690451C6C7
:1043A000932AB13B49E4039C7CA7A8EF5C1ECB9900
:1043B000D90EFCA8F556F13E9C636B68624B650D07
:1043C000F3B40F187E4804A82C467EA3B57370473B
:1043D000ACDE6AD2CF24F6930BBE0591116C620657
:1043E000143646718CE39AF9F353FDA06F994ADBBA
:1043F000E9B6CA0FDDF32476C0FC08CD62C3F1A78D
:10440000C4BABDE436565A7DA4B753B88A18ADED88
:10441000DE491DD8E0051B8E493815A7D56689559C
:1044200023B9F4DEA9A9DCF839AD2DF51BA5D146D9
:10443000195163556461D7A2B641C923A7A7E3B751
:1044400065E348B518BC98EFFCA967C6CF2B11B13E
:104450000CBCE183E47527B579FF00873E1B7C63C4
:10446000B2B26BAD6F4FB56B3B753FF12E932264CB
:10447000246703CB52063233927F039C70FF0012F5
:1044800075AF1BF832C5F55D4BC1B676D65000CB83
:104490002C2F2AE064004E40CF240E3D6B9DD38A22
:1044A000972A7AFA9B7BD28F35B45E47D1DE038F91
:1044B000C47A96B66CF44BF58223119E67D52332ED
:1044C000E146141421F24E4F42471CFD7B2F0C6A2B
:1044D0009E31F07DFC76373E1B1AC594642AEA565D
:1044E000932A99093F331563EA49EF5F3FFECF5F97
:1044F000172F3FB36D2F26823B7B8BE85AE4C718FA
:104500006C2A191A3519249E7CB27F1AFB3FC31EF0
:104510002CB4BAD2A078D55B728DCA077AD6B455BE
:1045200028C63D5EFF0023BF0CE728B6F54BF533E8
:10453000FC47FDA1A969525F5B25D59DFDBAFDA28F
:1045400008D1B219D79D840ECC32A7D98D753E17EC
:10455000F14DB789FC3D63AA5A4C1EDEE605951B5A
:10456000D4119ABB05DC06D7E542A0F6AF19F87F57
:1045700005EF85BC77E31F0F22BFF60C72A5ED8314
:104580003702359B73344BECAC1BF0C572E8936675
:10459000EA2AAA6AD6B1F397EDCD7F33F8DF4BB79D
:1045A00086E25113D9B178E38F78277F7F95BB5787
:1045B00080D95A4121F2EDEC65126C0C76AB648C1B
:1045C000F7E063EF57A77EDB1E31B5D27C77A48B73
:1045D0009BA7B677B7902A28C928242013C1EA736D
:1045E000F957CD71FC40861914C7AEDC4440C6575C
:1045F000CC5C8F43C722BD8C2ABD28B67858E8B55D
:104600005A515FD688EE7564368A59A268994E333E
:10461000BB2474E319AE66F2EA18E22EF73B307061
:104620001B71FE59AC4BAD6935594CBFDA16975228
:1046300037DE690AEF3F5E33583AFF008899239FBF
:104640000FE7C9110AE8BC21FC7F1AE9B1C49346FF
:10465000C5E6AB0BB8114B9273976DCA00C5675C8A
:104660006AE412112DC6D180EA3FAD728FE2F67076
:1046700051ADC05EC3827F3C531FC531B919830061
:10468000760A066AAD62B94D79AEE69DF21E353DF9
:104690007248028AC4935EB3951B309563FDD5FFC3
:1046A00000EBD1487667D5D6441C56D5AA82411571
:1046B000E23A9FC6A0B14634DD38473E3E769E5072
:1046C000CA0FA003AFD49FC2AC784FE30EAD73AF57
:1046D000D98D416DD74F320132469CEDEE41F5C583
:1046E0007B11AC9D91E4CA8CAD73675ED273E20D11
:1046F000450A3CAE266906C8C65558EEC67073F723
:10470000AABEA1E7E9B1891E16822C63FD59DB9C84
:1047100074EB8CFE15EDDE2EF86965E274D3EEF4D1
:10472000BD4E38BCEDB9679022BE47C8F9C819E440
:10473000633D300F5AADE0CD0B46F045E5C472A79E
:10474000F6DDD3279127DA5774206ECB6D0C4F24FA
:10475000F538E715E74F0FEF33A615DF2A3C226B3C
:10476000F7BDB673855560176AE0E7DCFE5E95A17C
:10477000A1C4E89184F2FCC27807BAD7ADFC4DF031
:104780004684FE14BED5F47D222D32F226591840FF
:10479000EDB181601BE4CED03049E00E95E6904A41
:1047A000D3C50AF96891A8036C48141FAE0026BC53
:1047B000EAA9D37667A549AA8AE8DFB48A3D2E70B4
:1047C000E76392DBB2F80CBDF19E78E48EB5B326B8
:1047D000BF68E19A6D46DA22A7259DD49FA726BC23
:1047E000DBC4FE0CD6FC4D3409A2DB3DD4D0E5DEA3
:1047F000307070C17D78FCCD6CF863F67EF1D6A97F
:10480000756F14FA359C11CA1899E4BF88A4600C1E
:1048100092DB198F4EC06783C714E9E1E75A3CEB7E
:104820006FC072AD0A4F91B57FC4F44D27C41A45CD
:10483000DAB7FC4C74F69F728546B9037019CF192C
:10484000FA7D727A563FC63D5EC75AF0A8FB1DBC82
:10485000AB259C8923C9BD36F52BD012DD1BBFA526
:104860007954B7963A4EA13D95ED94D6D710394775
:1048700052BD0838AF45F861E06D4BE29DE35978D1
:104880006F4EBABC4CED9A5DBB2DE3FF007DD88521
:104890001F42727B035AC70EA2EFCC912EA37A72ED
:1048A0009E7FA4F82FC47E25D31752D3B47BBBBB05
:1048B00026251678932AC470467DABD4FF00668DFA
:1048C00002F3C2FF001C3C2B737FA7DDA5D4770D3C
:1048D000224725BBA9188DB950472475C8F4AFB13C
:1048E000FE047ECD1078162946AFAA1D51A440BF04
:1048F000D9F0C652D233D49C9C339F7C281E87A803
:10490000F6E83E1EE956A83EC1696F6B2AA908D198
:10491000A01D46083DC83D2B96AE3634DBE4B49F5F
:1049200091B470D29AB4FDD393B7F13DD6BDE2ED08
:104930001205826B5B236293CB3F95FBA3232EED85
:1049400099FCB8FAFE183FB45783352F1EFC24F1AA
:10495000569F75269B67348BB2D118EFF3073B48FF
:104960003C7CCC76F1CF71CD58F8A5E3FD37E1BDA5
:10497000A1B9D52E574F68513721976AB0550BF220
:10498000296C6700703927EB5E63E28FDA3B40D415
:1049900061D163D3F5B86FB4DD49C2978AE1544160
:1049A000203F29954E0E391C123A7E5E1D297B4A06
:1049B0009B7F48F7A14172A57B5CF1E92D351F87EC
:1049C0009F163C37E18D074F326CF0E45E72118C1C
:1049D00046B23E1BDC9C63EB5F67FC32D621D5B44C
:1049E0004B73359BC371B4060E9D2BC6AEF42D3BA5
:1049F0005CF1DDCEB735EA0D6EDAD62B38A02FB1DB
:104A000063810B3938C75264CE72411B71DC9F72CF
:104A1000F8453AEA7A12DCB12CB22EE53E82BD2985
:104A2000F2D58C7BAFD4B953951E7BECED6B1D7C1E
:104A3000E9E45B96F2D9C6339FBB5E51A478906AD5
:104A40001A9F88752910451C73BC1167A6D8C94EDA
:104A5000BEE558FE35DCF8FF00561A2E8771345239
:104A6000BE638F0AA703737451F89C0FC6BE58FD2E
:104A7000A03E203FC1BF84A7CA9D5F51BB51028C9D
:104A8000F2D230F9893F99AE671727C912E85A1058
:104A900095496C7C3FFB63F8B8F8DBE31DEC91486B
:104AA00025B7B58C5B2ED39030C58FEA6BC564B942
:104AB0004450B9C915D0EB13C5AA5DCF73700C93E0
:104AC0004AC5DD8F5249AD0F879A1586A1ABDCC967
:104AD0002C05BC98495CF40C4E33F966BE8236A7AF
:104AE000049743E5EA49D6A8E4FAB384698354629B
:104AF000E5E28E5546216418600F5AF4BF88B696D9
:104B00009A468E7CB857CC99BCB0C54703BFE35ECC
:104B1000691A40D8DC4D529F31938D850FE611C53F
:104B200046F1827A55D4B252BBE363B4F7C715A7F6
:104B3000A3782F56F113EDD3AD1EE141C3498DA8E3
:104B4000BF563C0ADE316D19B6A3AB39B080BFB099
:104B5000A2BBC5F05E85A1B9FED8D5C5F5D20DCFF3
:104B600069A69CA27FBF29E07B81CD159CA293D52D
:104B7000829F36B14D9C64770F9F99891EF5ADA732
:104B80005EBC122BAB66B0C1AB16B36C7193C56B38
:104B9000113573D62C3C537B7074E76BB97C8B77E3
:104BA0005061F30ED1CE738FCEBE80D32EC4B20926
:104BB00019B25B926BE63F0869936B04ED93CAB739
:104BC000CE19F1924F1D057AA6A93C92D9A590D491
:104BD0005E09590005170481ED9E73E959CEBC604A
:104BE000DB62545CEC91EC5AEF8A3443E19D4F4C0C
:104BF00096F524BC9ED9E34823F9D8391F2E71D3EA
:104C00009C75AF2CB4B5BFB46561A7C97276F1E5E8
:104C1000BA8C7E048FE557BC1DE00B9BB41F62D499
:104C2000ACA66EE4C0C08FA8DD5EC9E05FD98FC4BA
:104C30009E317774D734D02242E6295A5456C73D64
:104C4000150FEB5C2D4B14EF08DFD0EA8A8E1D7B2D
:104C5000CEC63DA7842E92C628645303DCA23BEC4B
:104C6000E363000E723AE0E3F9F735A3A6CD3430E2
:104C70005DC7E72DBCCA00036900B29DCAC17B8332
:104C800083D73C938EB5D6F8BB5285608846BB92DD
:104C90001404640CEEE9DABC9F5AD66368AFEFEEF9
:104CA000199122460083820E460FD3193F503D458D
:104CB0007D9B8C214946D64958F938CA552A395F17
:104CC00057A9F45781BE197843E2CE9E3FB7343DD1
:104CD00032FEF238A39E26B8426431B0E7E7520FA5
:104CE00007A8CFF10C8AF78F04783743F05E910D57
:104CF0008D8D9DAE9D676F9F2EDAD50222E7A9C0EC
:104D0000EE7D4F26BF38743F8E3ADF86D201637F37
:104D10000E89210DB27BE9158C96EC721786383F0F
:104D20007719E817B77EFB47FDAFEEF4D426F6FA05
:104D3000CEF4A8F9E682EB711FF012001F89AFCD07
:104D4000331A356559A83BC7B743F42C1CA0E92793
:104D50003D247DF3A878C74FD3ADDC2290C338C083
:104D6000AE3B42F8993EA5ADDEE9D730CB69228152
:104D700035B96C0F350920E31E8473F515F144BF76
:104D8000B5FEBC3C476FA95B692973A6A904ADDCDD
:104D9000808917DB19C13D73CD6B78B7F6C287C424
:104DA0007E3EF08CFA7D9AE8D0DAEE4BBF39833341
:104DB000799818183C282A0E71CE3B570C70F55F75
:104DC00043B94A8C7A9F4BFC4BF0F683E3DD55A642
:104DD000D6ED20BA8F4BB396E035C28611B1239E33
:104DE0007D81AF8FAE7C3C7C6DAF69BE16F00D8CC3
:104DF000666B89C5E48E87F776E81B891CF3B54797
:104E00001FA0032715F51DE78B1E289AEE5F2D06C0
:104E1000A3035B924641EE78EFC035E4FA8FC6CF2C
:104E20000AFC16F085D685F0F349823D59D4ACD7FB
:104E3000BB3E546E4658F5723B0E82AF0D3706EC02
:104E4000B52F13415949CB43A5FDA4A74D7642BECA
:104E50001E961B7D7F4A48FF00B4750B58CAB4B03C
:104E6000B4257C92FDC92AA79FBA3047DEE7E97FC7
:104E7000871137877C15A6DBB10D20854330EE7195
:104E8000CFEB5F097C1ED7EE6FBC0BACA6A372F70D
:104E9000DA9EA3A9A996590E5E4DF221663F806F56
:104EA000CABEE0D3F5048FC3F6803EDFDD8DB9FACC
:104EB000577493844D629568AB0EF124B69E28B862
:104EC000FB25C5D0862836C995700893395383C110
:104ED000C63A1F515F36FC7B7FB0DD59DBDEADA4E7
:104EE000B232BB2DC40C409572072873B4F4E8713C
:104EF000C1FC393F8C7F1775BF877E3BD5F48D127F
:104F0000D23FB36A5706F2396301556468163766B3
:104F100018E4EF0493DF35E45E36BED7BC7FA8AD5E
:104F2000FEB9AA1B895010914070B12962D8047B48
:104F30009A7ED214A2937A98D5E571708EE3F5CD5E
:104F40001F4BBC25A5B2B69B3D77C2ADFCC57233E5
:104F5000689A7694666B2B286D9A4C6EF2936E71FC
:104F6000D3A7D6AB6A97367A447B16F6567EF1C73E
:104F7000333367F3C0AE52E75AD42ED88B3965D895
:104F80003AF99F37EB5AD2AB7F43CBA94EC41E29C7
:104F90008E3BCD5ED2DA50B22471B4855C647271FE
:104FA000DFE959CFE19D0EEB3BE0815BD227DA7F51
:104FB000206927B4BA9F565BD9E6CCCAA13CB5FBA1
:104FC000AC3D0FE754F55D6574D0642AB8CE408FD0
:104FD000B576C27776470CA0D6ACDB8AD962C445D9
:104FE000018B1855C703F0A92E8493591B19649798
:104FF000EC878F2565609F9038AA5A6EA1737083E5
:105000007C0C41FE3CF156A7BD5542CC5B007200C2
:10501000ACD3927A33A1F2496C60DD7862C9223157
:105020006D9161277140FD7EA7AE28AD19EFE26555
:10503000CEF0548E0B75A29F34D995A27946FC54BC
:10504000B6CAF3CF1C6832EEC1476E4D4505BB5C56
:105050004AA838C9E49ED5D6E891D9E9AEB80BBCC8
:105060007591BA9AEA95571473A8A91D8685A2BEB0
:1050700091A7AC497D299FAB3C6D8443EC31C8A816
:10508000E4F12AE9F72CD752969C71824B1A9AC305
:105090005DB39D5E28AE2179FA2231E09ED4B661DF
:1050A0002EA4687544FB5856F9BCE241427A818CC3
:1050B0001503D07A56586C3CF1B27193B0EB578619
:1050C000162A4B5261F114CB2591B7668D617F345E
:1050D000B286DDBC7DDE83A66BD9BE1A7ED25AD6DF
:1050E00080A16D3C4379048C0A3248D92C0F5FBDF6
:1050F000CD71C3E13786753B33776779AA595BC7B2
:10510000B565BB21678039EC07CADF9B567EA1F0ED
:105110001EFEEDD4E8FAB596B36B8E62526199BF6C
:10512000E02DF2FF00E3D9AF668E16B60172C637E6
:1051300047975713471BACA5667D11A8EA90EA3242
:10514000CD1ACBC0F9B39EC6B8FD6AC21D4ACB5377
:10515000B36DD99F6411641243485549033D8127BB
:10516000F0AADA6BC96EAE4E648D15632DDB7051FB
:10517000C66B9CF1E789AE74C9B4F3612BDB4CD7E5
:10518000067DE879011718FCE407FE035EC6226A73
:105190009C14A479387839CED139A9FC00A7C41A57
:1051A0009AC7013A741398831450491D41623935E6
:1051B0007A2F01E90C76FD9D39F445FF00E26AB6CD
:1051C00097AADCCC5BCE95DF73163927A9393FADA2
:1051D00074D66188C93904739E2BCB8D552573DB3A
:1051E000F67CBA3321BC0BA4470B2A5A2C6C7F895E
:1051F000386FD2B0F5BF86DA4B69937EE4B4D182C2
:10520000E19DDB2703A1C115E844230C21049ACFBB
:10521000BDD3EE2759154ABA904107D2B394ECAEEC
:105220008D6303DD3E3E6B057E17F8752093C9BA8A
:105230008EE8491C98F98028C1978238E4D7CC328F
:10524000C777E20B8916D2D33E40F9DD4E147B9C22
:10525000F7E0F7AFA834BD0344F8B3E07F0C5BEA96
:10526000BAC0D3DACD3FD397CE4495595769FBDC0A
:1052700000CDC8383C1A9FE1EFC35F0F787EF3C5BD
:105280007A4E9FA95BEB3A56AA89E4B79B1CAF09FB
:1052900040C1B2578EAE08EFC57CA46D0A5285BDE1
:1052A000E4CFA5AF0949AACBE1B2EBFA1E13F0BED9
:1052B000F353D3F5BD36C6568DE296F924185C1526
:1052C0003B4A9E7D0E467E95F70A6B57306910C4A7
:1052D000EA4F949B73D9B8EA2BF39B5AF185CF859B
:1052E000BC73A968F24B1D8EA1A3DDBAB2C6772BA1
:1052F000796792AD819E9E80FB57D9BF043E21DB2A
:105300007C57F0A9D4127CE544722E7EEB7702A67E
:10531000A467C89C8EFC0558493837AF43E5DF8940
:105320007F135B5EF887A95DADB9716B2B5BC2A47F
:10533000E000A48C91DF2727F1AE765B7D7BC4CCA7
:10534000C5E5782DDC739CA2E3E83935EDBF14BECA
:1053500017E9DE0EF195EDE59C4856FDBCF05D7257
:1053600011FF008803DB279FC4D79DEB5E27B4D3D2
:1053700046C91D649BA6C8DB383EFE95C339FBF6C3
:1053800082D4C5C5ABF31CD5AF832CED232D70CDD6
:10539000787D49C283F4FF001ACDD66FAD74C5780D
:1053A000CEDDEA3012319FC3FF00D756E5D4F51F9A
:1053B00011C8F15A40624FE2DA4803EAD502783266
:1053C0000B3226B893CF3FDC07E507FAD6B0767FDD
:1053D000BC66135D8E1EEAEAF35994C76D01853FE2
:1053E000BEBFE35CFEBB606DEE2DAD9DCC9233A2E3
:1053F000B67D49AF43F104F7D6CCA9650DB887183F
:10540000DCDC30FA570DA9585FCD7A971242DE6A7C
:10541000481F7641CE3A715EBD0945F548F2AB2989
:105420002D2C7566E3242F5E3A74AC4BFB87BCB918
:105430005B67DAD0C921DC31838009EA307A815692
:10544000AD3558A68D949CC8A3E607A8ACEB33BA3B
:10545000ECB9C12A9DFDCFFF005AB45071767B99FB
:10546000A95D390FBC638601781DE8A91A192F9F21
:10547000C98636791BA0519FA9FC28AAE4B19DD307
:105480003CE16E3C9184193566DD6E2E41DB0C9259
:1054900013D362935DD595B41191B228D3FDD40294
:1054A000BA0B28F81C330AAF69677B0ADA58F39BFA
:1054B0002F0E6AD7053C9B1B8C8E0650AF5FAD75D7
:1054C0003A6782BC5335CF9E43C533632F35C02422
:1054D000FA67939AEEED0AAE32801FCEBBBF0A7810
:1054E0006354D5E64FB2E9779711E725A181987EFD
:1054F000829AAD34EF15A89C62D5A5B1E71AC6B95A
:10550000AF78074BB2B3D567867B6BD62E21B493A9
:10551000241181B9810073CF43D8D6C7837C6F042F
:10552000B3A6C9C42EDC6243B40AE3FE2D6AD1EBF4
:105530003E29F2ADB2F0C4DB621D7E51C0FCF935EC
:10554000B1E1FF0087B7963691DFEB0574E8186587
:105550002393995C7B2F5FCF15EBD1C65795B9B5D7
:105560003CEAB84A2B6D19EB36FAC496DA1CB697AA
:10557000684234A65461C090F4CFBF4AF38F105DE7
:10558000AEA1ABBC8437971208D013D71924FE679D
:10559000F4A4D4660A163B3B7786DFB338C17AA8F9
:1055A0002267DACDC2E3BD3C5625D64A2D6C185C85
:1055B00032A2DCAFAB3474809E66F91C27B2F5359D
:1055C000D243A8C52A8554D8BD010793F535C7C273
:1055D000D144DCCAA3E9D6B4E0D4608B8CB3FA60C2
:1055E000570C66E3A23D071BEA75D0CABF2940727B
:1055F00007D6896F17A31E3DAB9AFEDA5042AC7FE7
:10560000F7D374AAB73AA4870A0E0762A2AB9D8F9C
:10561000951D34D7E8ABB4E1811C67815A3F0A3548
:1056200075D17E2359DCAC0D7524B0CD145123E027
:10563000B4850955EBD5B1B47B915E7B2DD4C3E520
:105640002D81EA6BB0F81BA2DF788FE2C78661B6C6
:1056500012C896F7D1DD5C4A8A4AC7146C1D8B7656
:10566000030B8E7B915CF5A5784AFD8D20B5B23C8D
:1056700073C5D65A6DE6AB79E20BFD70DCEBB3DC9B
:105680003BDCD8BDAB441E4918871939C60B1C83B7
:105690005EE1FB286A17FE04D5EEB465B859B46D17
:1056A000601BBD3AE33C165E1D0F3F2BE07DDEBC68
:1056B0001AE07E3EFC3A4D53E34F8A34EF0F7DA251
:1056C0007825BB9A777BC75189198C8C1481F77226
:1056D000C40C9CFBF7AE16D1F58F0BA3E9D2CD75A8
:1056E00062DB83BC4E71C83C30FC8722B9614D56E9
:1056F000A56E6B9D10ACF0F52EE36B743EA2FDA978
:10570000BC62F6E9A3AA4B8324BB6450486D9B5B43
:105710009E3DFF003C1AF36B1F05C71E26BCC4E468
:105720007FCB30703FFAFF00A57966A3E23BCD52F4
:10573000EADA6D42E24B88E37562980BC719C01D27
:10574000C81D7AD7BDD8EAF65AC4314960E2EA19D1
:105750005772BA83F91F71EF5E4E3A0F0F18A8EB1C
:105760007EA7A987AFF599CE4F4F229490A451847C
:1057700045481147000C01F4AA32DA3DCA6D081AF7
:10578000323EF2B60815D17F651C8330DC99C94CD6
:10579000D41A8CD1DBC190C0A0FE123A5791193BAC
:1057A000D8EA9C558E2A6D2A1B353B0649FBC24E12
:1057B0007F2F4AE6F5196025D238C6E079E4115DFD
:1057C0000EB3732DDBE03791177CF26B99BB037935
:1057D0000ACA7F435EBD17DCF32A230751B786DE72
:1057E00039E4554462BC951D4D66C09FB9676C2A6B
:1057F00093DFD071FE34FD56F97ED8D1124C6B8CFC
:10580000E3D6B9DBAD42665F2E4055013CA8EBCF35
:105810007AF6E8EB66CF3A69A563D93F67A9EC2E23
:10582000FC7F716D7281E19AC658C06E84EE4EDFC6
:105830004068AF36F01EBFFF0008F78A74BD443ED3
:105840001219D4BB038F90F0DFA13457D261ABD2D1
:1058500051719DB43E731B42ABA8A50BEA8E86C660
:105860003D2908F3259E523FB9851FAD76FA243AAB
:105870004CD716C8B6B849582969242C467DBA5168
:10588000457CDCE7CBB247BB18296ECE8FC7FA56F2
:10589000A7F0FEEA05B58E28229503A4AB028C83FF
:1058A000F9D50D27E2D789A160A75CBC08DC1559A2
:1058B0009947E408A28AC6156738DDB3554A0BA19B
:1058C000E7916B16DA678C756BD68D65BB12910606
:1058D000E190B9E73FAD75D617B34AC2FF00532236
:1058E00048D4EF6DC7717EFF0097B51457AD49FBE3
:1058F00088E0A8BDE31FC45E343ACDEBC91010C6E2
:105900003E555518E2B2535232A1E723D739A28A45
:10591000CE4F5B9D10492B0E5B95E0F1CF4E056994
:10592000D87DAEFE58E2B7B796E1D89F92242C7F7F
:105930004A28AC252715746F18A6EC7A3785FE0621
:10594000F8F3C53228B7F0F4D69113BBCEBEC40B22
:105950008F5F9B04FE02BD5BC3FF00B1D5E008FA78
:10596000F7896DE03DE1D3E2321FA6E6DBFC8D1442
:105970005785571956F64EC7A50A10EA7A4685FB91
:1059800037FC3BF0D00D7BA7CDAD4B8C87B994B6DF
:105990001BDD410315DD687E1CD2B425305869B685
:1059A000B616E4E0C76D0AC61BEB8E5BF1A28AE473
:1059B000F6939FC4EE6DC918EC8F857E25F8F5F43B
:1059C000CF8EDE2880D8DC6A309BF78208ED9547C1
:1059D0003BBE61D792481CD6678FBC5564D690DA1F
:1059E0006ADE18D4B4FBA9D498BFB46D15085CF274
:1059F000C84B027D3834515F4949FB3A6944F0EAAB
:105A00007EF2A5E478D5FC8C5CAA93B7710ACD80B0
:105A100071DB38CF35F43FC31D29B48F086980E1AD
:105A20002492332BAB705B71241FC88A28AF9FCEA2
:105A30002ACBD9C63E67B197417349F91BFA8EB597
:105A40001424A96E73829D87E358534EC92B489343
:105A5000E4B0FBA46411E8451457894B6B9EAD4438
:105A600072FAC7EF9DCAA4716473B7A7E55C36B339
:105A700030B704B633D8039DDF4A28AF62849DEC6B
:105A800079B511CCA6A16D349B2EE20216705A4452
:105A9000FBE8BDF07E9DABBFBBF0D7C2AD434ABBB8
:105AA000934FF146A56F7EA998E2BB8C7945F6B776
:105AB0001BB6292B90B83D71D40C8C1457BA939215
:105AC000DF63CD95A2F433CF833C0C6C9C5A78A253
:105AD000E2E2F08220851136B31FBA0E4E4678C836
